:100000000080001029010000F5000000F70000004A
:10001000F9000000FB000000FD000000FA79FFEF8E
:10002000000000000000000000000000FF000000D1
:10003000010100000000000003010000C5180000DD
:100040006901000089DE0000A1DE000009DF000078
:100050006901000089860000018C000011910000F8
:10006000B19600006901000069010000690100000B
:1000700069010000690100006901000069010000D8
:1000800069010000690100006901000069010000C8
:1000900069010000690100006901000069010000B8
:1000A00069010000690100006901000069010000A8
:1000B0006901000069010000690100006901000098
:1000C00069010000690100006901000048EF0200B9
:1000D000000000106800000048EF020000C0072088
:1000E0000000000068000010347A000000C0072003
:1000F000D4300000FEE7FEE7FEE7FEE7FEE7FEE79E
:10010000FEE7FEE7FEE710B5002302E01C585C5056
:1001100004339342FAD310BD00231A4601E01A506B
:1001200004338B42FBD3704738B50C4C0C4D04E0C4
:1001300094E807000C34FFF7E6FFAC42F8D305E083
:1001400094E803000834FFF7E7FF00E0054DAC42F8
:10015000F6D30DF08BFF0DF0FBFFFEE7CC000000A7
:10016000E4000000F4000000FEE700BFFFFFFFFF17
:10017000FFFFFFFFFFFFFFFFFFFFFFFFFFFFFFFF8F
:10018000FFFFFFFFFFFFFFFFFFFFFFFFFFFFFFFF7F
:10019000FFFFFFFFFFFFFFFFFFFFFFFFFFFFFFFF6F
:1001A000FFFFFFFFFFFFFFFFFFFFFFFFFFFFFFFF5F
:1001B000FFFFFFFFFFFFFFFFFFFFFFFFFFFFFFFF4F
:1001C000FFFFFFFFFFFFFFFFFFFFFFFFFFFFFFFF3F
:1001D000FFFFFFFFFFFFFFFFFFFFFFFFFFFFFFFF2F
:1001E000FFFFFFFFFFFFFFFFFFFFFFFFFFFFFFFF1F
:1001F000FFFFFFFFFFFFFFFFFFFFFFFFFFFFFFFF0F
:10020000FFFFFFFFFFFFFFFFFFFFFFFFFFFFFFFFFE
:10021000FFFFFFFFFFFFFFFFFFFFFFFFFFFFFFFFEE
:10022000FFFFFFFFFFFFFFFFFFFFFFFFFFFFFFFFDE
:10023000FFFFFFFFFFFFFFFFFFFFFFFFFFFFFFFFCE
:10024000FFFFFFFFFFFFFFFFFFFFFFFFFFFFFFFFBE
:10025000FFFFFFFFFFFFFFFFFFFFFFFFFFFFFFFFAE
:10026000FFFFFFFFFFFFFFFFFFFFFFFFFFFFFFFF9E
:10027000FFFFFFFFFFFFFFFFFFFFFFFFFFFFFFFF8E
:10028000FFFFFFFFFFFFFFFFFFFFFFFFFFFFFFFF7E
:10029000FFFFFFFFFFFFFFFFFFFFFFFFFFFFFFFF6E
:1002A000FFFFFFFFFFFFFFFFFFFFFFFFFFFFFFFF5E
:1002B000FFFFFFFFFFFFFFFFFFFFFFFFFFFFFFFF4E
:1002C000FFFFFFFFFFFFFFFFFFFFFFFFFFFFFFFF3E
:1002D000FFFFFFFFFFFFFFFFFFFFFFFFFFFFFFFF2E
:1002E000FFFFFFFFFFFFFFFFFFFFFFFFFFFFFFFF1E
:1002F000FFFFFFFFFFFFFFFFFFFFFFFFFFFFFFFF0E
:100300009E4A002330B513709D4A13709D4A1370A6
:100310009D4A13709D4A13709D4A13709D49002297
:10032000CA549D499D48CA549D49CA549D49CA54BE
:100330009D49CA549D49CA5420F813209C4820F86E
:1003400013209C4820F813209B4820F813209B483A
:10035000C2549B48C2549B48C2549B48C254013368
:10036000FA2BDBD1994B1A70134699490022CA54D3
:100370000133B3F5D17FF8D1964B1A80964B1A8092
:10038000964B1A80964B1A60964B1A60964B1A60E1
:10039000964B1A7000212D2000FB0210944C013165
:1003A00000232D292354F6D10132042AF2D1002151
:1003B000FA2000FB03108F4C01310022FA2924F8A7
:1003C0001020F5D10133042BF1D10020FA2404FBD5
:1003D0000204894D01300023FA2825F81430F5D1A4
:1003E0000132042AF1D1854A4FF4FA601360844A3D
:1003F000C0241360834AC8251360834A1360834A6C
:10040000106040F6B830824A138053809380814A4E
:1004100013805380804A1380804A1380804A13607F
:10042000804A1360804A106050609060D0607F48BE
:100430004FF47A7202607E4802607E4802607E4815
:100440007E4A10607E4AA82013607E4A13607E4A6E
:1004500013707E4A14707E4A10707E4A13707E4A72
:1004600015707E4A7E4D138053807E4A13805380E0
:10047000FF222A707C4D2A707C4D2A707C4A1370B2
:100480007C4A138053807C4A14707C4A10707C4AEA
:10049000012013707B4A10707B4A13707B4A1370E3
:1004A0007B4A13707B4A13807B4A13607B4A13603C
:1004B00053609360D3607A4A13607A4A13607A4A31
:1004C000136053609360D360784A1370784A137056
:1004D000784A1380784A138053809380774A138038
:1004E0005380774A13807749002221F813207649F8
:1004F00021F81320754921F81320754921F813209C
:1005000040F2D72101338B42EDD17248002320F80D
:1005100012300132B2F57A7FF7D140F6D6306E4A0A
:1005200010806E4A5020137053706D4A13706D4ADC
:1005300013806D4A13706D4A13806D4A13806D4AA3
:1005400013706D4A13706D4A13806D4A13806D4AA3
:1005500013806D4A13806D4A10806D4A13806D4A76
:10056000138053809380D3806B4A13806B4A13802F
:10057000538093806A4A13805380D3E02C6E00101E
:100580003F0E001011570010240C0010EA06001056
:10059000031C0010160F00102D5700107E6600106F
:1005A000380D001064630010230900101E070010AE
:1005B0001E0A00102E6E001008550010D51A0010EB
:1005C000521000104E1100105D6100100960001003
:1005D000CA6400101860001004550010FC5F001081
:1005E0000857001058620010FC060010D21A0010C4
:1005F0004812001028580010FE1200106C660010FF
:10060000FC560010040100100C5700101C60001074
:1006100030710010060700103A0E0010266000101E
:10062000B400001028570010A0000010340E001075
:10063000200800106462001000A60E006062001026
:10064000304D0010480E0010B00000102C57001064
:100650001C5700101B7700101B600010307000103A
:100660005B610010340D001029600010CF1A0010DB
:10067000571C0010680E0010AA640010CE1A00105B
:100680003A1C0010B464001038010010D01A001099
:100690001660001062630010286E0010140C001029
:1006A000041C00104060001024010010080100101C
:1006B0002F700010C86400101E5700104210001068
:1006C0000C60001078680010606400103A7100102F
:1006D0003C010010344D00102C600010011C001073
:1006E000035700105C6200102A60001022600010A6
:1006F000020700105A6100100557001076680010BC
:100700003A010010140F0010F85F0010581C001080
:1007100024600010AC640010400E00104C1000105B
:1007200012600010A94A138053809380A84A138056
:100730005380A84A1370A84A1370A84900225A543B
:1007400001333D2BF9D1A64B28211A70A54B197006
:10075000A54BA6490B60A6490A60A6490B60A64BAB
:10076000A6490B60A6490B60A64B1A80A649002338
:1007700053540132082AF9D11A46A449002353548C
:100780000132082AF9D1A24904220A70A1490A704B
:10079000A14A1360A14A1370A14A13705370937059
:1007A000A04A137053709370D37013711A469E4908
:1007B000002353540132092AF9D19C4A3021137085
:1007C00053709370D3709A4A137053709370D370B0
:1007D000984A13705370984A13705370974A137065
:1007E000974A1170974A04211370974A1370974AD9
:1007F0001370974A1360974A1370974A1370974A79
:100800001370974A1370974A1370974A1370974A58
:100810001370974A1370974A1370974A1370974A48
:10082000138053809380964A138053809380954A17
:100830001370954A137053709370D370934A11706C
:1008400051709170D170924A13700021914800222A
:100850001844425401313229F8D13233C82BF4D133
:100860008D4B1A805A809A80DA808C4B1A705A709D
:100870009A70DA708A4B1A708A4C0023101913533D
:100880000632182A43808380F6D1874A138053802A
:100890009380D380138153819381D381834A1370D2
:1008A000834A1380834A1380834A1380834A1380C8
:1008B000834A1370834A1370834A1370834A1370F8
:1008C000834A1370834A1370834A1370834A1370E8
:1008D000834900225A540133FA2BF9D1814900236C
:1008E00053540132FA2AF9D17F4A012111707F490C
:1008F00007220A707E490A707E4900225A54013349
:10090000FA2BF9D17C49002353540132FA2AF9D148
:100910007A4A7B4913707B4A13707B4A13607B4A87
:1009200013607B4A13607B4A13607B4A13707B4AD7
:1009300013707B4A13707B4A13707B4A13707B4A97
:1009400013707B4A13707B4A13707B4A13707B4A87
:10095000137001220A707A490A707A4A13707A4A2F
:1009600013707A4A137053709370D37078490022D1
:10097000CA547849CA547849CA547849CA54013388
:10098000322BF3D1764900238B540132322AF9D12C
:100990001A46744900238B540132322AF9D1724A23
:1009A00064211370714A1370714A1370714A137085
:1009B000714A1370714A1370714A1370714A13703F
:1009C000714A1370714A1370E2E000BF46100010C4
:1009D000EE06001034700010D11A00101C610010D7
:1009E000560E00103E0E0010900C01006C0E001010
:1009F0004C0E001018570010950C010014570010F1
:100A0000CC0000107468001045600010250C001028
:100A10004D600010C6640010306000103C0E0010E5
:100A2000227000104E60001034600010D50E0010CF
:100A3000520E0010420E001010010010005700105E
:100A4000086000107266001028600010380E001058
:100A500034010010320E0010F90600109C00001046
:100A6000330D0010330C001011600010726800107C
:100A700024570010E00E00105E6400101A010010F0
:100A80007866001000070010746600102D0C00102E
:100A9000357000105360001012010010FE5F00104E
:100AA0005C6100103C1C0010B6640010FC120010C9
:100AB000706600101E0800100C070010EC060010F5
:100AC000E87600104C110010387100100407001077
:100AD000F80600100E070010206000100A07001032
:100AE00028080010367000101B6100100457001019
:100AF0004D110010340C0010686200105961001094
:100B0000510E00102C700010DC0E00102408001094
:100B100028700010046000105F640010015700107E
:100B2000D0000010541C001010570010320C0010A0
:100B30007366001006550010266E0010561C00103B
:100B400010600010580E0010310C00102F0D001016
:100B5000D1000010A20E001010100010700E001036
:100B6000081C0010CF1B0010C76400100301001008
:100B700006570010440E00103D0E00101C08001017
:100B8000D41A0010FA5F001020010010026000105B
:100B9000174A1370174A1370174A1370174A1170C7
:100BA000174904220A7017490B7017490A70174A2F
:100BB00025211170164901220A7016490A70164A39
:100BC000302111705170154A302199540133102B86
:100BD000F9D10023124900225A5412495A54124999
:100BE0005A5401330F2BF5D1104B1A7030BD00BF92
:100BF0001A6000100F60001044600010570E0010C3
:100C0000551C00100E600010D31A0010D40E0010F6
:100C1000500E00100257001036710010F00E001038
:100C2000590E00100F070010E10E00100A600010AE
:100C3000004B1847F11FFF1F72B6164B0122C3F875
:100C40008020AA22C3F88C205522C3F88C20D3F828
:100C50008820104912F00072F9D1AA23C1F880202F
:100C6000C1F88C305523C1F88C300A4BD3F888205A
:100C700012F08072F9D11968C1F30B01196019687B
:100C800041F4A0411960C3F80421C3F80C21C3F852
:100C9000A021704700C00F40D74C2DE98748FFF7CF
:100CA0002FFB0DF07DF90BF08BFE09F05BFC636907
:100CB0009A0113D4D14D4FF0FF36C5F88060FFF78D
:100CC000BBFFC5F8806072B6CD4D392306202B607E
:100CD0000BF0F8FE2846CB49FFF7AAFFCA4BCB4AD8
:100CE0005B694FF6FF7013F0806F4FF0005314BF35
:100CF000E361A36113690A2423F440231361C44B05
:100D00001A6842F400721A604FF400729A6109F096
:100D1000D9FBC04BC04A1B682C210093BF4B03205A
:100D20001B6809F0EBFA0CF045FC0CF04FFC0CF0E2
:100D30007DFC04F0A7FD0CF055FC0CF065FC09F0FF
:100D4000C3F801281FBFB64A137843F00803137095
:100D500008F040FF05200BF0B5FE00F0FDFF052078
:100D60000BF0DCFEAF4B64221D786FF06303B5FB24
:100D7000F2F603FB065090FBF4F0AB4906EB860756
:100D80000E70C0B2C6EBC70605EB8605C0EB401679
:100D90004870C0EB860005EB40008870A3480578DA
:100DA000B5FBF2F603FB065090FBF4F006EB86076A
:100DB0000E71C0B2C6EBC70605EB8605C0EB401648
:100DC0004871C0EB860005EB4000887198480578B3
:100DD000B5FBF2F603FB065090FBF4F006EB86073A
:100DE0000E72C0B2C6EBC70605EB8605C0EB401617
:100DF0004872C0EB860005EB400088728D4805788C
:100E0000B5FBF2F603FB065090FBF4F006EB860709
:100E10000E73C0B2C6EBC70605EB8605C0EB4016E5
:100E20004873C0EB860005EB4000887382490D785B
:100E30008249B5FBF2F603FB065090FBF4F006EB9B
:100E400086070E70C0B2C6EBC70605EB8605C0EB81
:100E500040164870C0EB860005EB4000887078486B
:100E60000578B5FBF2F603FB065090FBF4F006EBB9
:100E700086070E71C0B2C6EBC70605EB8605C0EB50
:100E800040164871C0EB860005EB400088716D4844
:100E90000578B5FBF2F603FB065090FBF4F006EB89
:100EA00086070E72C0B2C6EBC70605EB8605C0EB1F
:100EB00040164872C0EB860005EB4000887262481D
:100EC0000578B5FBF2F603FB065090FBF4F006EB59
:100ED00086070E73C0B2C6EBC70605EB8605C0EBEE
:100EE00040164873C0EB860005EB400088735749F5
:100EF0000D785749B5FBF2F603FB065090FBF4F072
:100F000006EB86070E70C0B2C6EBC70605EB86057A
:100F1000C0EB40164870C0EB860005EB40008870BF
:100F20004C480578B5FBF2F603FB065090FBF4F055
:100F300006EB86070E71C0B2C6EBC70605EB860549
:100F4000C0EB40164871C0EB860005EB400088718D
:100F500041480578B5FBF2F603FB065090FBF4F030
:100F600006EB86070E72C0B2C6EBC70605EB860518
:100F7000C0EB40164872C0EB860005EB400088725B
:100F80003648374E0078B0FBF2F203FB020393FBC6
:100F9000F4F302EB82050A73DBB2C2EBC50200EB8D
:100FA0008202C3EB43104B73C3EB800302EB43039A
:100FB0002C4A8B73117853782B4A43EA0123138010
:100FC0000CF066FB0CF04AFB09F078F909F08EF999
:100FD0004FF4E121002006F035FA4FF4E121012021
:100FE00006F030FA4FF4E121022006F02BFA4FF41C
:100FF000E12103203AE000BF20C0092000E100E029
:10100000B8000010000F001060C0092000C00240AE
:1010100040C009200C000010CAAF020010000010F0
:10102000096000102C570010590E00101C570010BA
:101030001B7700101B6000105B6100100F07001091
:1010400029600010CF1A0010571C0010AA6400106D
:10105000E10E0010CE1A00103A1C0010B46400100B
:1010600064000010011C00102C60001006F0EAF96A
:10107000854D31680120B1FBF5F101390CF0C0FE5E
:1010800031680220B1FBF5F140F29F3501390CF0D7
:10109000B7FE7E4B20461B68052100937C4B7D4AA2
:1010A0001B6809F02BF97C4B1F201B68052100935E
:1010B0007A4B7B4A1B6809F021F97A4B34201B6874
:1010C00005210093784B794A1B6809F017F908202D
:1010D0001B2102221623009509F0BEFB4FF4FC648D
:1010E00058200C2108224FF4FC6309F019FC0094ED
:1010F000542006216E4A002309F02CFD23466D2062
:101100000C21082209F00CFC00946A200621694A8F
:10111000002309F01FFD1F241922134600208021FF
:10112000009409F05DFC18221346002080210094F1
:1011300009F056FC7F21002000951A220B4609F089
:1011400039FB02200CF01CFF5B4D0CF011FF2B78DB
:10115000DB0701D400F018FE02F0BCF8574B584CE6
:101160001B78002B44D02378A3F11902042A3FD91D
:10117000A3F11F02012A3BD9524A117829B923B1A0
:101180000B3B012B84BF022323704F4A4F4B168821
:10119000188886420AD156885888864206D1928895
:1011A0009B889A4202D123780C2B0AD123780C2BEE
:1011B00007D0012901BF464A1370414B022208BFE4
:1011C0001A702078431F032B10D922280ED0102824
:1011D0000CD0A0F11403032B08D90C2806D0A0F1E1
:1011E0002403012B02D903F05FF801E003F0E2F9D8
:1011F00006F01EFC06F0DCFE237803F0FB02192A41
:1012000001D01F2B14D133490A78012A2DD132483D
:10121000192B027822F00102027001D107231BE092
:101220001D2B01D1222317E01F2B16D1242313E0FD
:101230001A2B01D0202B18D128490A78012A14D161
:1012400025481A2B027822F00102027001D10823EE
:1012500002E0202B01D12523237000220A702B7875
:1012600043F004032B701E4B1A70237814491B2B78
:101270003AD11C4A1378012B4BD11748037823F03D
:101280000103037005233BE0A08601000800001065
:1012900004000010C9AC0200180000101400001077
:1012A0008DE70200200000101C0000108EEA0200F2
:1012B000A9F60100ACF6010034700010B000001077
:1012C000560E0010E00E00101A0100107866001093
:1012D0003E0E0010F9060010320E00109C000010A7
:1012E00008010010330D00101C2B12D14E4A137848
:1012F000012B0ED14D48037823F001030370062320
:101300000B702B784A4943F004032B7000230B70B9
:101310001370DFF854A109F07BF99AF80080B8F156
:10132000090F7ED0DFF8449199F800C0BCF1090F95
:1013300077D0404C404B226840489A424049414A4D
:10134000414D424E424FDFF828E10BD8D0F800B0B3
:101350009B4507D8D1F800B09B4503D8D2F800B020
:101360009B4539D907238AF8003089F80030394B7A
:101370004FF0000C83F800C0374B1B7853B9DFF8EF
:10138000F4C09CF800302BB99CF800300133DBB27C
:101390008CF80030314B4FF0000C83F800C0304B1C
:1013A0001B7853B9DFF8D0C09CF800302BB99CF8FB
:1013B00000300133DBB28CF80030002313600B6087
:1013C0002849036023600A6801320A602B70337079
:1013D0003B708EF8003024E09EF80030012B05D1E0
:1013E000B8F1010F02BF2368013323603B78012B62
:1013F00005D1B8F1060F02BF0368013303603378EB
:10140000012B05D1BCF1010F02BF0B6801330B604A
:101410002B78012B05D1BCF1060F02BF13680133F5
:1014200013600BF09FFB8FE6330C0010320E0010A0
:1014300008010010DC0E0010A08601002408001036
:101440002870001004600010541C0010D000001020
:1014500001570010266E0010510E0010561C00108F
:10146000106000100C570010045700104D110010B0
:101470005F640010580E0010310C00104FF0A043B4
:1014800040F480709862D9624FF4A0234FF0A042DC
:10149000526BD20701D5013BF8D170474FF0A04302
:1014A000012240F4807098625A624FF4A0224FF0FB
:1014B000A043596BC90701D5013AF8D100225A62FD
:1014C000186B80B2704700009D4A73B5D2F8C430E3
:1014D00043F08043C2F8C4309A4BA2F55022936087
:1014E000D36823F00F0343F00503D3604FF0A0430C
:1014F0004FF44F421A607822C3F80021642301930D
:10150000019B13B1019B013BF9E74FF0A04302227D
:101510001A6030225A604FF4C0625A6143F20F726F
:101520001A611222DA6048F23C021A6264230193C3
:10153000019C14B1019B013BF9E74FF0A0433C2211
:101540001A624FF43072C3F8002120464FF4004174
:10155000FFF794FF019444F61F63019A9A4209D859
:101560000020FFF79BFF0204044603D5019B0133D3
:101570000193F0E70220FFF791FF05460320FFF7F4
:101580008DFF20F00F0080B26F4B40EA05459D4271
:1015900000F0CF806D4B9D4200F0CB8001261025DE
:1015A00014E00120FFF77AFF8306044607D4019B6D
:1015B0000133019344F61F63019A9A42F1D9634BB8
:1015C0009D4215BF01260426102501250023019305
:1015D00044F61F63019A9A4208D82846FFF75EFF37
:1015E0003042044602D1019B0133F0E714F0040FAE
:1015F0004FF0A04317BF5A68122242F001025A600E
:101600001FBFD3F8002142F48062C3F800211522E5
:1016100014F0020F9A604FF0A04314BF00224FF461
:1016200080729A614A4B5A78197842EA01214FF048
:10163000A04211649878D97841EA0021516419795F
:101640005B7943EA0123936400230193019B032BFD
:101650001FD8019B01994FF4C062514303F180638D
:101660003C4A03F581330A44DB001A60019A3A4B85
:10167000D2001344394A00211A60019A384B1344AE
:10168000DB00019A1960374BD2009950019B01335E
:10169000DBE7354A4FF0A043C3F808212032C3F8F6
:1016A0000C210322C3F810210022C3F81821019253
:1016B000019B012B19D8019A2C4B019913444FF42B
:1016C000C06251432A4ADB000A441A60019A294B3E
:1016D000D2001344002201991A60274B0B449B004F
:1016E0001A60019B01330193E2E7244A4FF0A043C3
:1016F000C3F81C211032C3F820210122C3F8242191
:101700000022C3F828212222C3F800228822C3F82D
:10171000E42F4FF6FF72C3F8E82FD3F8002142F010
:101720000302C3F800211A6842F001021A6002B0F5
:1017300070BD00204FF44051FFF7A0FE002338E7B2
:1017400000C00F4005011550905C0020F0C007005C
:10175000F20600105810082004100820FF05008031
:1017600004020104241008200010082008020104CB
:1017700058280820441008201404020840100820AB
:10178000024A1368991C11601880704768000010A5
:1017900070B54FF6FE750646044601310D402B1B11
:1017A000DE4204D034F8020BFFF7EAFFF7E74FF010
:1017B000A042D2F828310133022B08BF0023C2F81F
:1017C000283170BD024A1368991C1160188870474F
:1017D0006C000010034A1368991C1888116001F00E
:1017E000B3B800BF6C00001070B504460D46064645
:1017F00063199B1B9BB2012B04D9FFF7E3FF26F86B
:10180000020BF5E7EB074FEA550603D5FFF7DAFFC2
:1018100004F8160070BD10B50446012C04D9023C32
:10182000FFF7D0FFA4B2F8E710BD00004FF0A043CF
:10183000D3F82821054B01381344DB001968044A0A
:1018400040F0804011605860704700BF08020104FA
:1018500068000010012070474FF0A043D3F8182112
:10186000064B1344DB00186853F8202CC0F30A0021
:10187000034B03381A6080B2704700BF04020104B2
:101880006C0000104FF0A042D2F818310133042B45
:1018900008BF0023C2F8183170474FF0A043D3F8B7
:1018A00018211AB9D3F81421032A03D0D3F814212C
:1018B000D3F81821D3F81401D3F81831C01A18BF7F
:1018C000012070472DE9FF47A14BA24F98461A68A7
:1018D000A14901321A603A68A04E01323A600A68A2
:1018E000002401320A6040F6C3139D4DE0B255F862
:1018F00024209A4253D855F82430013345F8243037
:1019000055F82430B3F5FA6F49D9964BE25C022AB8
:1019100006D140F6B83245F8242000221A55E8E1F5
:1019200032789149002A32D0904B087090491B8838
:101930004FF00609DFF8C4A209FB04114A468D489E
:10194000AAF800300CF00EFC8B49042201EB840154
:101950008A480CF007FC8A4B2D2000FB0430894B91
:10196000195D09F025F933784A46013B33700023AD
:1019700045F82430844950237E48AAF800300CF002
:10198000F1FB824904227D480CF0ECFB07E009786A
:101990005A5440F6B83345F82430042333700134E8
:1019A000042C06F101069ED1D8F80030B3F57A7FF9
:1019B00022BF674B00221A603B68C72B04D9654BD6
:1019C00000221A6000F07AFC7149724B0A784AB121
:1019D0001A6801321A601A686F4B9A4203D90023C1
:1019E0000B7000E01A606D4B6D4C1A68012A82BFC3
:1019F0001A6802F1FF321A602368B3F57A7F0BD2BE
:101A000023680133236023680A2B05D905200BF0D6
:101A100085F84FF47A732360624B1A68B2F57A7FC7
:101A20003FBF1A6801321A601B685F4B1B78032B9B
:101A30005E4B02D11A68013245E05D4A1268B2F18C
:101A4000806F3FD14CF24F32196891423AD81A68F0
:101A500001321A601B68B3F5FA6F35D105200BF01F
:101A600031F806200BF02EF852494FF448424AF65E
:101A7000C0034A804FF6FF724F4D504C0B802A80B6
:101A80002380FF224FF480736A8063804C4A4D4B61
:101A9000002013604C4A1360042208F0D5F929464F
:101AA0000422FA2008F0D0F9214604224FF4827073
:101AB00008F0CAF94FF4967040F6D631022208F0C9
:101AC000C3F9FEE700221A60404B1A68B2F57A7F2C
:101AD00020D21A6801321A601A680A2A1AD14FF401
:101AE0007A721A603A4A1378092B06D139490023D1
:101AF0000B7039490B70394909E0394A1378092BC1
:101B000008D1384900230B7037490B7037490B70E7
:101B100007231370364C374B22689A4200F2E1805B
:101B200041F288322368013323602168B1FBF2F36C
:101B300002FB1311002970D1254B1B78092B5FD1B3
:101B40002D4B02201A7800910191029162E000BFB2
:101B50007400001070000010304D00102D0C0010AB
:101B6000A0000010FE5F0010000700102C600010A5
:101B70003C1C00104C100010B664001012600010E5
:101B8000481200107466001046100010EE06001097
:101B9000E00E0010B4000010E0930400480E0010A6
:101BA000340E001020080010446000102857001068
:101BB0001808001030700010340D0010680E00106E
:101BC0006C0E0010900C0100185700106462001099
:101BD0000457001020600010E87600104C1100102F
:101BE0004D1100100A07001004070010F80600103D
:101BF00060620010FFA50E0038710010581C001024
:101C00003D4B1B78092B08D13C4B02201A780091E0
:101C100001910290042304F00BFA4EF6602322682F
:101C20009A425ED1364B374A1A60374B1B78092BE4
:101C300026D100240420FC21224600940194029421
:101C4000234604F0F5F9E6203049FA2208F0FCF8C2
:101C50002F4A611C1378E4B29C424FF0000303D278
:101C60002C4A13550C46F3E72B485C1C0178DBB279
:101C70008B424FF0000130D22848C1542346F3E78D
:101C80001D4B1B78092B2CD1002402230293042026
:101C9000FC21224600940194234604F0C9F94FF434
:101CA00087701F49FA2208F0CFF8194A611C13788F
:101CB000E4B29C424FF0000303D2164A13550C467F
:101CC000F3E715485C1C0178DBB28B424FF0000152
:101CD00003D21248C1542346F3E7017011700BF090
:101CE000D7FC104B1A68B2F5FA6F3EBF1A68013282
:101CF0001A6004B0BDE8F0874D1100100E07001007
:101D00006062001000A60E0004570010D51A0010E3
:101D10002C6E00104E1100103F0E00105D6100107F
:101D2000521000101C600010084B4FF47A721B68B0
:101D3000F821B3FBF2F3064A013B5360054B83F8ED
:101D40002310002393600723136070476400001082
:101D500010E000E000ED00E008B5FFF7E5FFFFF759
:101D6000B3FB054A00231370044A1370044A13702E
:101D7000044A137008BD00BF5A61001005570010D7
:101D8000D01A001034700010274A10B510780028BF
:101D900049D12649264C0B7823F001030B7001230F
:101DA0001370244A13702378DB073CD5224B234958
:101DB0001A78234B1B7803EB02230B80214B1A78F4
:101DC000214B1B7803EB022304224B8008F03CF8E4
:101DD0001E4B1F491A781F4BFA201B7803EB022376
:101DE0000B801D4B1A781D4B1B7803EB022304223A
:101DF0004B8008F029F81A4B1A491A781A4B4FF4FD
:101E000082701B7803EB02230B80184B1A78184B57
:101E10001B7803EB022304224B8008F015F823788B
:101E200023F00103237010BDD01A001005570010D5
:101E300038010010347000101C5700103070001072
:101E40002C5700101B6000101B7700102960001039
:101E5000340D00105B610010571C0010CF1A0010E9
:101E6000CE1A0010680E0010AA640010B4640010AE
:101E70003A1C0010024A137823F0040313707047D1
:101E80003470001007B5FFF7E7FC0F4B06211880F0
:101E90006846FFF7A9FC0D480621FFF7A5FC4FF6A1
:101EA000FF72BDF80030934209D1BDF8020098429C
:101EB00005D1BDF804301B1A5842584100E00020FB
:101EC00003B05DF804FB00BFC86400101E5700108B
:101ED00038B5244CFF21062220460CF047F9224950
:101EE0000622A01D0CF03EF90822228240F2064292
:101EF0004FF4C1631D4DA38162824FF480731A4970
:101F0000062204F11600E381A3820CF02BF9294686
:101F1000042204F11C000CF025F90021062204F132
:101F200020000CF023F912492A880B885340114AEB
:101F30001088034205D168884B8852884340134279
:101F400002D00D480D4901E004F1260004220CF0F6
:101F500009F90B4B2A221A700A4A137843F002033C
:101F6000137038BD60640010F2060010307000106D
:101F700012600010340D001086640010680E00100E
:101F80002A6000105A61001070B51E4C1E4D1F4E85
:101F90002946062220460CF0E5F831460622A01D0F
:101FA0000CF0E0F84FF4C163A3814FF48073E38138
:101FB0000823238240F206433146638206224FF40F
:101FC000007304F11600A3820CF0CCF8104904222F
:101FD00004F11C000CF0C6F82946062204F120008A
:101FE0000CF0C0F8042204F126000A490CF0BAF8FB
:101FF000094B2A221A70094A137843F0020313701E
:1020000070BD00BF606400101E570010F206001083
:1020100030700010421000102A6000105A61001049
:1020200007B5FFF7D7FB40F60603984229D1FFF723
:10203000D1FB012825D1FFF7CDFBB0F5006F20D1F2
:10204000FFF7C8FB40F2046398421AD1FFF7C2FBC6
:10205000012816D10C480621FFF7C6FB04210B48C6
:10206000FFF7C2FB0620FFF7D6FB01A80421FFF70C
:10207000BBFB074801A904220CF0EAFD08B9FFF7F1
:1020800083FF03B05DF804FB1E57001042100010E0
:102090003070001030B56AB1124C4ABA258893B23C
:1020A00062882A44104D02F5C0622C8822446C8854
:1020B00022441A44044643181B1B9BB2012B03D92C
:1020C00034F8023B1A44F6E74B08C90702D510F86A
:1020D00013301A44130C01D092B2FAE7D04380B205
:1020E00030BD00BF3070001012600010274B70B57B
:1020F0001D88274C3C2D98BF183D26494FF00602FD
:10210000204694BFADB224250CF02CF822490622BB
:10211000A01D0CF027F80823A38145230026E381A6
:1021200005F1180363741D494FF4A073042226744B
:1021300004F11A00E3826682A68226830CF012F86C
:102140001749042204F11E000CF00CF83246142149
:1021500004F10E00FFF79EFF2946208304F12600BC
:102160006684A684FFF740FB291D324604F1220055
:1021700089B2FFF78FFF0B4B0B4A26351D70137882
:10218000A08443F00203137070BD00BF0C60001008
:10219000606400101E570010F2060010307000102E
:1021A000421000102A6000105A61001010B5FFF7AD
:1021B00011FB064C2080FFF70DFB23881B0A082B20
:1021C00003D1BDE81040FFF791BF10BD1C77001090
:1021D000054B00221A70054B04221A70044A13782A
:1021E00043F00C0313707047080100102F700010AB
:1021F00005570010114B1B78042B01D0072B1CD165
:102200000F4A1049137823F0080313700E4B0A6825
:102210001B881A440A600D4A363312780AB10C4AF8
:1022200000E00C4A13800C4A137843F0010313704A
:102230000A4B04221A70FFF7CBBF7047D01A001068
:1022400034700010041C0010140F0010726800108D
:10225000226000105C6200105A61001016600010CD
:10226000054B00221A70054A137823F0080343F047
:1022700004031370704700BF0801001005570010D9
:10228000024A137823F004031370704705570010B7
:10229000074B00221A70074B1A7802F00302012A3A
:1022A000054A0CBF10212021117000221A707047BE
:1022B000D01A00100557001034700010044A13881B
:1022C00001331380034A137801331370704700BF42
:1022D000626300100801001008B505200AF0F2FB47
:1022E000034B04481988BDE80840FFF751BA00BF06
:1022F0005C6200107868001008B505200AF0E2FB67
:10230000034B04481988BDE80840FFF741BA00BFF5
:10231000226000103A71001008B505200AF0D2FBC7
:10232000034B04481988BDE80840FFF731BA00BFE5
:10233000020700103C01001008B505200AF0C2FB9E
:10234000034B04481978BDE80840FFF721BA00BFE5
:102350002A600010606400100B0E03700B0C4370B9
:102360000B0A8370C17070472DE9F0410646454C59
:102370004549062220460BF0F5FEA01D43490622E2
:102380000BF0F0FE06F002070823A381BFB245233D
:10239000E38117B14FF4405301E04FF420532382FF
:1023A0004EF20B43374D63824023A3824FF0000867
:1023B0004FF4C86305F11A0035490422E382A4F8FA
:1023C00018800BF0CFFE05F11E00324904220BF0FD
:1023D000C9FE05F10E0014214246FFF75BFE2E4BAD
:1023E000042E1B8820834FEA132284F8233014BF65
:1023F0002A4B2B4B84F822201B882A481A0A85F87E
:102400002530294B85F824201968FFF7A5FF274BB5
:1024100027481968FFF7A0FF4FF6FF720023638675
:10242000A386300A33022286164D224C1843AFB1E0
:1024300040F20243EB8640F2011340F07000E88561
:102440002A876B8705F122004FF401731C210122BA
:10245000AB87FFF71FFE3E2368860AE040F050007E
:10246000E885142105F122000122FFF713FE36232F
:102470006886114A2370137843F002031370BDE895
:10248000F08100BF606400104C100010F2060010D4
:102490003070001012600010581C001024600010F2
:1024A000400E001086640010286E0010406000107E
:1024B0008A6400102A6000105A6100100B4B1B78D0
:1024C000042B12D8DFE803F0030507090C00FFF71F
:1024D000FFBC022002E0122000E01120FFF744BF01
:1024E000034A137843F0010313707047166000101D
:1024F0005A61001070B5334C3349062220460BF068
:1025000031FE32490622A01D0BF02CFE0823A381C8
:1025100041F245032E4DE3812B88002628339BB2E0
:102520001A0A227463742B494FF4C863042204F11D
:102530001A00E3826682A68226830BF013FE2649E8
:10254000042204F11E000BF00DFE1421324604F1AA
:102550000E00FFF79FFD214B20831B8804F126000E
:102560001A0A84F823301E4B84F822201B881A0A8A
:1025700084F825301B4B84F824201968FFF7ECFE03
:10258000194B04F12A001968FFF7E6FE174B1B6888
:1025900033B9174A13680133136041F2501301E055
:1025A00041F25003E3854FF6FF73298823861431E7
:1025B0000023104889B201226386A386FFF76AFDD3
:1025C000608670BD786800104C100010F206001094
:1025D000140F00103070001012600010581C001012
:1025E00024600010286E00104060001034010010BC
:1025F000041C00109A68001070B5314C3149062255
:1026000020460BF0AFFD30490622A01D0BF0AAFDBD
:102610000823A38141F245032C4EE3813388002532
:1026200028339BB21A0A2274637429494FF4C86391
:10263000042204F11A00E3826582A58225830BF04F
:1026400091FD2449042204F11E000BF08BFD14219E
:102650002A4604F10E00FFF71DFD1F4B20831B8847
:1026600004F126001A0A84F823301C4B84F8222037
:102670001B881A0A84F82530194B84F8242019681D
:10268000FFF76AFE174B04F12A001968FFF764FE92
:1026900031881548B1F5AF6F34BF41F2501341F2A4
:1026A0005003E3854FF6FF731431238689B200236C
:1026B00001226386A386FFF7EDFC608670BD00BF34
:1026C0003A7100104C100010F2060010140F0010A8
:1026D0003070001012600010581C001024600010B0
:1026E000286E0010406000105C7100102DE9F04170
:1026F0000646494C4949062220460BF033FDA01DF1
:10270000474906220BF02EFD06F002070823A3819D
:10271000BFB24523E38117B14FF4405301E04FF4BA
:10272000205323824EF20B433B4D63824023A3820E
:102730004FF000084FF4C86305F11A00394904222C
:10274000E382A4F818800BF00DFD05F11E00364958
:1027500004220BF007FD424605F10E001421FFF79D
:1027600099FC324BDFF8E4801B88042E4FEA1322D9
:1027700084F8233084F8222015BF2D4B2D4B98F878
:1027800000201B8818BF33F8123020831A0A85F8FE
:10279000242085F8253098F80020274B274853F847
:1027A0002210FFF7D9FD264B98F80020254853F852
:1027B0002210FFF7D1FD0523238600236386A3861D
:1027C000300A3302144D204C1843BFB140F202438B
:1027D000EB864FF47F432B8740F2011340F07000EB
:1027E000E8856B8705F122004FF401731C2101225B
:1027F000AB87FFF74FFC3E2368860AE040F05000AD
:10280000E885142105F122000122FFF743FC36235D
:1028100068862380BDE8F0813C0100104C10001058
:10282000F20600103070001012600010581C0010EA
:10283000AC640010400E0010140C00106201001077
:1028400024010010660100100207001000070010AC
:10285000F8B5324C3249062220460BF083FC314950
:102860000622A01D0BF07EFC0823A38141F2450344
:102870002D4EE3813388002528339BB21A0A6374F6
:1028800040232274237529494FF4C86304226575D7
:1028900004F11A00E382658225830BF063FC24496E
:1028A000042204F11E000BF05DFC14212A4604F101
:1028B0000E00FFF7EFFB1F4B1F4F1B8820831A0AE8
:1028C00084F8222084F823301C4A3B7804F1260047
:1028D00032F81320110A84F82520194A84F82410AC
:1028E00052F82310FFF738FD3A78164B04F12A000E
:1028F00053F82210FFF730FD41F650033188E3858D
:102900001431052304F1220089B201222386658651
:10291000A586FFF7BFFB6086F8BD00BF3C01001035
:102920004C100010F2060010F85F0010307000101C
:1029300012600010581C001000070010AC6400105A
:10294000140C00102401001040BA80B2704700003F
:1029500000221346F0B5012406255D431C4E77196D
:10296000755B5DB97D884DB9BD883DB9194D35F8A8
:1029700023701FB905EB83056D883DB3022A0CD87F
:1029800003EB4305154436F8157030F81250013248
:10299000AF4218BF0024D2B2F0E764B10D4A0C88F0
:1029A00032F8235002EB830256884A88964207D1B8
:1029B000A54205D10AE00133DBB20124002201E087
:1029C00000240222032BC7D90520F0BD1846F0BD14
:1029D0003C1C0010B6640010F0B5032851D8DFF895
:1029E000C0C0284F284E294D294CDFF8B8E0294AAD
:1029F00014D10023D38293825382274ACCF80C301F
:102A0000D381938140F6B832FB60F380EB700420F1
:102A10008EF80330214BE070DA60F0BD431C5CF8A7
:102A200023104CF8201057F8231047F8201036F8E0
:102A300013701A4926F81070EE5C2E54E55C25548C
:102A40001EF803400EF8004051F8234041F82040A2
:102A5000062101FB03F44143165B15195652541825
:102A60000D4A32F8231022F82010698802EB80000A
:102A7000618002EB83014988AA884180A280D8B294
:102A8000ABE7F0BD24010010AC64001074660010C8
:102A90002D0C00103C1C0010B6640010A0000010AB
:102AA000140C0010FE5F001029492DE9F04740F694
:102AB000B8348846274E2848327800238B5440F893
:102AC00022404FF0320A0AFB02F0DDB2234C4119DA
:102AD000615C01330329F4D16F1CFFB239462044F5
:102AE00008F066F830784FF0000908F80090394691
:102AF0000AFB004008F05CF84B463678184830F87E
:102B00001670322202FB06FCD9B201EB050804EB79
:102B10000C0EC6449EF801E0BEF1000F08D0B8F1DB
:102B2000300F05DC0CEB01020C4901F802E003E078
:102B300002FB06120021A1547A1ED21A0133D9B227
:102B4000A94292B2DDD920F81620BDE8F08700BF77
:102B5000FE5F001000070010A0000010536000107E
:102B6000120100102DE9F84FFEF734FE8246FEF701
:102B700031FEB04B1A889B46824203D1AE4B0122F4
:102B80001A7004E0AD4B1B88834240F02383FEF7AC
:102B900021FE8146FEF71EFE0546FEF71BFE074698
:102BA000FEF718FE0646FEF715FEA54B00F4704230
:102BB0001B8892120446143B90B21B1A9BB2A14987
:102BC000B3F5FA6F0B80884600F20483142A03DD04
:102BD000143880B2FEF71FFE974B45EA09451B7873
:102BE00046EA0747002B00F01981052009F06AFF2B
:102BF00095489649FFF7ACFE954E0428307000F2D8
:102C0000E9829149062293480BF0ACFA04229248DB
:102C10008E490BF0A7FABBF80030884ADFF824B2DF
:102C20001380B8F800309146FBB132788B492B44C1
:102C300041F822308A4B062043F82270FEF7EBFD64
:102C40008848BBF80010FEF7CFFDBBF8000009F084
:102C500069FD50B1502384497E480622A9F800300E
:102C60000BF080FA7C4881498AE1A20716D53278B8
:102C70007A4B013543F822507D494FF040239B6841
:102C800009889BB243EA01437549122041F822307A
:102C9000784B23F812A0FFF729FD32E0230737D540
:102CA0003378744A744E22F813A0D6F800A0BAF113
:102CB000000FCFD1B8F8002010201544674A42F821
:102CC0002350674A42F82370FFF710FDE4060CD545
:102CD00040F6B8315E4B694A1B7802F803A0684A97
:102CE00042F82310674B04221A70674B1A78674B1F
:102CF0001B781344322B02DD32233360AAE7002312
:102D00003360634B1888FEF791FDFFF705FBA1E7E1
:102D100014F0050244D05F4A13780BB1013B1370E5
:102D20003278062151435C48002300EB010EAEF8D7
:102D30000430AEF802304352584901EB8200438020
:102D400021F82230FA2101FB0231DFF85CE100209A
:102D50002EF811000133DFF854E1FA2B2EF81100A0
:102D6000F0D1600700F136823C4B013543F8225028
:102D7000474C3B4B102043F82270FFF7B7FC2088EC
:102D8000FEF754FDFFF7C8FA1120FFF7AFFC2088CB
:102D9000FEF74CFDFFF7C0FA3078FFF71DFE59E74C
:102DA000E1067FF557AF3E4B1978012914D11A700F
:102DB0003078394B062202FB003026490BF0D2F95D
:102DC000364B3078042203EB800023490BF0CAF91C
:102DD000304A1378013313703278214B43F8227054
:102DE0001E4B43F82250322353432E4AD35C022B0E
:102DF00001D1FFF759FE3378204AD15C022902D174
:102E000007F0FCFF26E70021D15440F6B8311C4AF8
:102E100042F823101B4B04221A701BE7DFF8909036
:102E200099F800304E46012B67D043D3022B00F0B7
:102E3000AC80F6E02C60001003570010581C001006
:102E40000C600010766800101E5700104210001031
:102E5000000700104C100010126000102401001038
:102E6000140C0010344D001046100010EE06001037
:102E700062630010AC640010480E0010FE5F00108A
:102E8000A00000102D0C0010596100102C700010D3
:102E900002070010D11A00103C1C0010B66400108C
:102EA0005C6100105360001028580010FE120010E2
:102EB000D01A0010630700F18D81814B81490622F1
:102EC0008148A3F800A00BF04DF904227F48804907
:102ED0000BF048F904F010039BB27E4A0BB1176067
:102EE00020E01360B8F8003014F0030F1D447A4B53
:102EF00018BF01351D60142068E1660700F16A8182
:102F0000714E6F4B6F4906223046A3F800A00BF0BC
:102F100029F96E486E4904220BF024F9E00603D526
:102F20006C4B1F60042051E1A10740F153816A4BB3
:102F300001351D60694A4FF040239B6812889BB29F
:102F400043EA0243634A12201360654A0133136067
:102F5000FFF70AFA634B02221A70FFF739F90323CD
:102F6000328889F80030604B31461A8072885F4899
:102F70005A80B2889A8006220BF0F4F85C485349D4
:102F80000422BDE8F84F0BF0EDB850485049042238
:102F90000BF05EFE002840F01D81494B1B88534515
:102FA00040F0188104F010039BB204F004023BB11E
:102FB0004B4909688F4203D0002A40F00B81AFE7EC
:102FC00042B1002B00F006814A4A0023137033708F
:102FD000302240E0A20740F1FD803F4A01351560F4
:102FE0008BB1FFF74DF93E4B10201A68394B1A6030
:102FF000FFF7BAF9404A04233370137843F00A0309
:103000001370BDE8F88FFFF73BF91220FFF7ACF91A
:10301000344B02221A70FFF7DBF803233370BDE84C
:10302000F88F2A482A4904220BF012FE002840F0AB
:10303000D180234B1B88534540F0CC80264B1A6827
:1030400095421D4640F0C680A30708D5294B89F854
:10305000000018704022284B1A70BDE8F88F6107F5
:10306000B2D4E20640F1B680DFF87490D9F80030AF
:103070009F4251D1FFF704F9164BD9F800201A608E
:103080003378033B072B3FD8DFE803F0043E0B3EC9
:103090003E0D1038184A04233370137843F00203AE
:1030A0000CE0062300E00A2333702DE0114A0023D0
:1030B0001370114A3370137803F00403137023E084
:1030C000246000101E5700104C10001012600010F9
:1030D00042100010286E0010406000106263001063
:1030E000041C0010166000107866001046100010D6
:1030F000EE06001005570010347000101020FFF786
:1031000033F9354B00221A703378042B01BF334A50
:10311000137843F0080313703378043B022B2ED846
:10312000B8F80030DFF8D4904BB32C4F3B7803F065
:10313000040303F0FF0813BB0620FEF76CFB2848CE
:10314000B9F80010FEF750FB264B01221A70264AF0
:10315000264BB9F80010C3F80080137823F0010360
:103160001370234B3A7819802B6842F004020B4409
:103170003A702B6001F0EAFA1020FFF7F5F8E30748
:1031800028D53378033B072B1CD8DFE803F0040471
:103190000C141B1B1B18174A00231370164A33709C
:1031A00013700E4A05E008230C4A3370137823F09D
:1031B0000203137006E0FFF753F80A23F4E7064B07
:1031C00000221A702B68102001332B60BDE8F84FE5
:1031D000FFF7CAB8BDE8F88F08010010347000107E
:1031E000344D0010B0000010320E0010B40000107A
:1031F0003A0100105A61001005570010766800105F
:1032000013B5FEF7E7FAB0F5006F27D040F60603D6
:10321000984252D12A4C237803F00303012B4CD15E
:10322000FEF7D8FA012848D1FEF7D4FAB0F5006FBE
:1032300043D1FEF7CFFA40F2046398423DD1FEF746
:10324000C9FA022839D1FFF71BF81E480621FEF7FC
:10325000CBFA237843F0020323702EE0FEF7BAFA8C
:1032600000F47F40B0F58A4F27D1FEF7B3FA164B32
:103270001880FEF7AFFAFEF7ADFAC0F30D00E0B923
:10328000FEF7A8FA0446FEF7A5FA10480421FEF757
:10329000ABFA01A80421FEF7A7FA0D4801A9042200
:1032A0000BF0D6FC48B9E0B2012804D0062804D1BE
:1032B000FFF758FC01E0FEF779FF02B010BD00BF38
:1032C000055700104C1000100C6000104210001048
:1032D0003070001070B5FEF7E0FA48B1FEF7D2FD8D
:1032E00010B1FEF79DFE01E0FFF78AFFFEF7CAFA74
:1032F000834B1A780AB100221A70824B1A68012A8D
:1033000007D100221A60804B1888FEF78FFAFFF76A
:1033100003F87E4D7E4E2B7813F0040F23D003F07C
:10332000080303F0FF017B4A93B11378082B1AD9E5
:10333000794C0023137023782BB1FFF7BFF8237863
:10334000013B23700FE0FEF79BFFFEF7A1FF0AE0B1
:103350001378022B81BF714A31701378297084BFB2
:1033600003F00403137033786D4C072B53D8DFE858
:1033700003F0040452292952523D2B7803F0030331
:10338000032B48D1237803F0020303F0FF01002B45
:1033900041D14FF04023634A9B6812889BB243EAB5
:1033A0000243614A02201360604A01331160604A9F
:1033B0001360FEF7D9FF5F4B01221A70FEF708FF7A
:1033C000022327E02B78DB0625D52378980722D126
:1033D000554B1A68564B1B689A421CD1554B032219
:1033E0001A7005233370FEF74BFF14E0237899071A
:1033F00011D14D4B4E4A1B6811688B420BD10133E2
:1034000011201360FEF7B0FF4A4B03221A70FEF73B
:10341000DFFE0923337023789A0746D5464B187888
:10342000FEF704FAFEF716FA10B1FEF785FF04E086
:103430003A4B502230701A7028703378052B30D1F7
:103440003E4B1B78022B2CD13D4B3E4A19783E4B0C
:103450001B7803EB012313803C4B19783C4B1B7802
:1034600003EB012353803B4B3B4A19783B4B1B78C2
:1034700003EB012313803A4B19783A4B1B7803EB8B
:1034800001235380384B394A1978394B1B7803EBA9
:1034900001231380374B1978374B1B7803EB01233B
:1034A0005380237823F0020323702378DB0726D58B
:1034B000FFF720F8314B1888FEF7B8F9FEF7CAF984
:1034C00010B1FEF709FF04E0144B502230701A705F
:1034D00028702B4D2B7873B1134A136803F5AF6333
:1034E0001360FFF789F8274B1888FEF79FF9FEF75E
:1034F00003FF00232B70237823F00103237070BD9A
:1035000003570010480E0010020700100557001066
:10351000D01A0010080100102F7000103470001035
:103520005A61001062630010286E001040600010A5
:10353000041C0010166000102A600010560E0010C7
:103540001C570010307000102C5700101B6000102A
:103550001B77001029600010340D00105B61001013
:10356000571C0010CF1A0010CE1A0010680E001061
:10357000AA640010B46400103A1C00105C620010D1
:1035800024570010226000100023F0B59E461D460F
:103590001C460678262E1DD0252E47780AD1322FBC
:1035A00008D190F802C0BCF1300F03D103340330CE
:1035B000E4B2EEE7253F012F82BFA6F13003754646
:1035C0009E4604F1010488BF5FFA8EFE0130E4B22A
:1035D0003346DEE70A20147000FB0EF2642000FB85
:1035E0000525303B2B440B60F0BD30B50023541E45
:1035F000A34205D2C55CCC5CA54203D10133F6E7FA
:10360000012030BD002030BD2DE9F0419D4B8EB032
:103610001A881F46032A40F231819B4C00263B88C2
:10362000033B9E4280F02A81984821460522FFF7FD
:10363000DCFF58B3964B1B78052B12D10025954B18
:1036400004EB050833F81520934901A80AF0C8FDDA
:103650000135404601A901220AF084FDFA2DEED180
:1036600013E0062B12D100258C4B04EB050833F830
:103670001520894901A80AF0B3FD0135404601A98A
:1036800001220AF06FFDFA2DEED1FA34844821466A
:103690000822FFF7AAFF002861D0824B7E491A78E2
:1036A00001A80AF09DFD01A9012220460AF05AFD59
:1036B0007D4B7E491A7801A80AF092FD01A90222E9
:1036C000601C0AF04FFD7A4B78491A7801A80AF07D
:1036D00087FD01A90222E01C0AF044FD7549764AE3
:1036E00001A80AF07DFD01A90222601D0AF03AFD41
:1036F000724B69491A7801A80AF072FD01A90122EA
:10370000E01D0AF02FFD6E4B63491A7801A80AF0FC
:1037100067FD01A9012204F108000AF023FD6549B3
:10372000684A01A80AF05CFD01A9022204F109001F
:103730000AF018FD6449654A01A80AF051FD01A983
:10374000042204F10B000AF00DFD6149614A01A851
:103750000AF046FD04F10F0001A9082288E05E4846
:1037600021460B22FFF741FF002832D05149554A2C
:1037700001A80AF035FD204601A902220AF0F2FC58
:103780005149524A01A80AF02BFDA01C01A90422AC
:103790000AF0E8FC4E494F4A01A80AF021FDA01D9D
:1037A00001A908220E340AF0DDFC25464B4A2B1BEA
:1037B00011789BB2994261D913445A78364901A8CD
:1037C0000AF00EFD284601A901220AF0CBFC0135C2
:1037D000ECE7434821460822FFF707FF00284AD0BC
:1037E0003449384A01A80AF0FBFC01A9022220460C
:1037F0000AF0B8FC3449354A01A80AF0F1FC01A9E5
:103800000422A01C0AF0AEFC3149324A01A80AF099
:10381000E7FC01A90822A01D0AF0A4FC3149324AA4
:1038200001A80AF0DDFC01A9032204F10E000AF050
:1038300099FC2C492D4A01A80AF0D2FC01A90322C7
:1038400004F111000AF08EFC29492A4A01A80AF065
:10385000C7FC01A9012204F114000AF083FC2149EC
:10386000254A01A80AF0BCFC04F1150001A90322B5
:103870000AF078FC02E001340136D0E60EB0BDE873
:10388000F08100BF140F0010AE6800105CF601005C
:10389000560E00102E6E001061F601000855001043
:1038A00065F6010072660010380E00106DF601001A
:1038B0002860001072F6010076F601000057001033
:1038C000086000102270001079F601004E600010B0
:1038D0007DF601003460001081F601001C610010CB
:1038E0008CF6010094F60100D50E0010520E001067
:1038F00098F60100420E0010100100102DE9F3416E
:10390000724F3B88032B40F2A584714B714A1C789F
:10391000714B0025002C0CBF14461C463B889D4271
:1039200080F098842378412B40F086806378442B84
:1039300040F08280A378312B7ED1684B1B78042B1A
:1039400036D1674E3378092B14D8327865496846EA
:103950000AF046FC2046694601220AF003FC0134C5
:103960006149624A68460AF03BFC204669460222E9
:103970000AF0F8FB32785A4B092A17D91A78632AC9
:1039800014D81A785A4968460AF02AFC2046694633
:1039900002220AF0E7FB02345649574A68460AF009
:1039A0001FFC2046694601220AF0DCFB4C4B35E047
:1039B000524E3378092B14D832784A4968460AF0B7
:1039C0000FFC2046694601220AF0CCFB013446492F
:1039D000464A68460AF004FC2046694602220AF07C
:1039E000C1FB3278454B092A17D91A78632A14D8B3
:1039F0001A783F4968460AF0F3FB204669460222DE
:103A00000AF0B0FB02343B493B4A68460AF0E8FB47
:103A10002046694601220AF0A5FB384B3278632A1A
:103A20000AD91A7836491A7868460AF0D9FB20462E
:103A3000694603220AF096FB2378412B40F0AF80C1
:103A40006378442B40F0AB80A378342B40F0A78000
:103A5000224B1B78042B5BD12A4E3378092B14D8C8
:103A60002149294A68460AF0BBFB204669460222E2
:103A70000AF078FB023432781A4968460AF0B0FB43
:103A80002046694601220AF06DFB3378DFF8748026
:103A9000092B19D998F80030632B15D815491B4A02
:103AA00068460AF09DFB2046694601220AF05AFB4F
:103AB000013498F800200E4968460AF091FB204630
:103AC000694602220AF04EFB0E4B5AE0140F00101A
:103AD00024570010AE68001070710010560E0010D0
:103AE0003F0E00109CF6010072F60100BBF60100CB
:103AF000A0F6010098F60100BCF601002C6E001043
:103B0000A4F60100031C001076F6010077F6010010
:103B1000A94E3378092B14D8A849A94A68460AF057
:103B20005FFB2046694602220AF01CFB0234327811
:103B3000A44968460AF054FB2046694601220AF06F
:103B400011FB3378DFF87082092B19D998F800300F
:103B5000632B15D89C499D4A68460AF041FB2046D4
:103B6000694601220AF0FEFA013498F800209849CB
:103B700068460AF035FB2046694602220AF0F2FA4E
:103B80008D4B3278632A0AD91A7892491A78684696
:103B90000AF026FB2046694603220AF0E3FA23785E
:103BA000412B49D16378442B46D1A378332B43D1A1
:103BB000894E3378092B14D83278824968460AF046
:103BC0000FFB2046694601220AF0CCFA01347B49FA
:103BD000824A68460AF004FB2046694602220AF03F
:103BE000C1FA32787C4B092A17D91A78632A14D87B
:103BF0001A78774968460AF0F3FA204669460222A5
:103C00000AF0B0FA02347049754A68460AF0E8FAD8
:103C10002046694601220AF0A5FA32786E4B632AE3
:103C20000AD91A786B491A7868460AF0D9FA2046F8
:103C3000694603220AF096FA2378412B65D163780E
:103C4000442B62D1A378322B5FD1664B1B78032BB8
:103C50000BD1654E00253388644A32F815200135B2
:103C600002B1ABB2FA2DF7D10CE0042B4DD15E4E70
:103C7000002533885E4A32F81520013502B1ABB217
:103C8000FA2DF7D1092B338015D84C494C4A684698
:103C90000AF0A6FA2046694602220AF063FA524B5D
:103CA00048491A88023468460AF09AFA204669465A
:103CB00001220AF057FA33880A3B9BB2592B15D8D8
:103CC0004149424A68460AF08BFA20466946012279
:103CD0000AF048FA444B3E491A88013468460AF013
:103CE0007FFA2046694602220AF03CFA3288A2F1A5
:103CF0006403B3F5617F08D2364968460AF070FA6A
:103D00002046694603220AF02DFA23784E2B45D12E
:103D100063784F2B42D1A378442B3FD1354E326884
:103D2000092A13D8274968460AF05AFA20466946F4
:103D300001220AF017FA01342049284A68460AF09D
:103D40004FFA2046694602220AF00CFA3268A2F1C4
:103D50000A03592B13D81E4968460AF041FA204637
:103D6000694602220AF0FEF9023417491C4A6846E5
:103D70000AF036FA2046694601220AF0F3F9326861
:103D8000A2F16403B3F5617F08D2124968460AF0D4
:103D900027FA2046694603220AF0E4F92378252B06
:103DA00038D16378432B35D10E4B1B78032B25D1AB
:103DB00068460249104A26E0EA06001072F6010041
:103DC00076F601009CF6010098F6010077F60100F6
:103DD000A0F60100A4F601003F0E0010BBF60100A2
:103DE000BCF60100560E0010746800102E6E001014
:103DF0000855001030600010A8F60100042B09D10E
:103E00006846AF49AF4A0AF0EBF9204669460222FC
:103E10000AF0A8F92378252B12D163785A2B0FD1F9
:103E2000A94BAA491A786846052A04BF03221A70CA
:103E30001A780AF0D5F92046694602220AF092F96A
:103E4000A34821460C22FFF7D0FBA8B10026A14BC6
:103E500004EB06089A5DA04968460AF0C1F90136EC
:103E60004046694601220AF07DF9B6F5D17FEED1D0
:103E700004F5D17405F5D1752378492B4FD16378BA
:103E8000502B4CD1A378A3F13102032A47D8312B10
:103E900001D1924B07E0322B01D1914B03E0332B40
:103EA0000CBF904B904B1E78092E14D88F49324688
:103EB00068460AF095F92046694601220AF052F94F
:103EC00001347F498A4A68460AF08AF920466946E1
:103ED00002220AF047F9A6F10A03592B13D87B49AD
:103EE000324668460AF07CF92046694602220AF00A
:103EF00039F902347F49804A68460AF071F9204650
:103F00006946012209E0632E09D97C493246684698
:103F10000AF066F92046694603220AF023F923785D
:103F2000502B64D163784F2B61D1A378522B5ED193
:103F3000E378542B5BD1724E3288092A13D86B492F
:103F400068460AF04DF92046694601220AF00AF94E
:103F500001346C496C4A68460AF042F920466946C9
:103F600003220AF0FFF83288A2F10A03592B13D872
:103F7000564968460AF034F92046694602220AF09A
:103F8000F1F802344E495A4A68460AF029F92046A7
:103F9000694602220AF0E6F83288A2F16403B3F51A
:103FA000617F13D2554968460AF01AF920466946DE
:103FB00003220AF0D7F803344E494F4A68460AF004
:103FC0000FF92046694601220AF0CCF842F2273167
:103FD0003288A2F57A739BB28B4208D84B49684667
:103FE0000AF0FEF82046694604220AF0BBF823785E
:103FF000472B4FD16378572B4CD1A378A3F13102D3
:10400000032A47D8312B01D1414B07E0322B01D194
:10401000404B03E0332B0CBF3F4B404B1E78092E27
:1040200014D83249324668460AF0DAF82046694622
:1040300001220AF097F8013421492D4A68460AF016
:10404000CFF82046694602220AF08CF8A6F10A034E
:10405000592B13D81D49324668460AF0C1F820464C
:10406000694602220AF07EF802342249224A684652
:104070000AF0B6F820466946012209E0632E09D904
:104080001E49324668460AF0ABF8204669460322CC
:104090000AF068F823784E2B40F0868063784D2B29
:1040A00040F08280A378A3F13102032A7CD8312B1F
:1040B00001D11B4B3CE0322B36D11A4B38E000BF0C
:1040C00072F60100ABF601003C0E0010A0F60100F4
:1040D000AEF60100CA64001061F601002C57001012
:1040E0001C5700101B7700101B6000109CF601008D
:1040F000BBF6010098F60100BCF60100A4F6010031
:104100002C60001094F60100BAF60100BEF6010022
:10411000AA640010CE1A00103A1C0010B4640010FB
:104120005B61001029600010332B0CBF4B4B4C4BD4
:104130001E78092E14D84B49324668460AF050F8CA
:104140002046694601220AF00DF801344649474AE3
:1041500068460AF045F82046694602220AF002F84D
:10416000A6F10A03592B13D84149324668460AF092
:1041700037F820466946022209F0F4FF02343D492F
:104180003D4A68460AF02CF820466946012209E0BB
:10419000632E09D93949324668460AF021F820468B
:1041A0006946032209F0DEFF354821460C22FFF75D
:1041B0001CFA50B3334B1B78032B11D10026324B22
:1041C00004EB06089A5D314968460AF009F80136A1
:1041D00040466946012209F0C5FFFA2EEFD112E0F0
:1041E000042B12D100262A4B04EB06089A5D2749BE
:1041F000684609F0F5FF013640466946012209F09C
:10420000B1FFFA2EEFD1FA34FA35224821460622C0
:10421000FFF7EBF958B1204B20491A68684609F0BE
:10422000DFFF20466946052209F09CFF05341C4843
:1042300021461B22FFF7D9F940B11A4B13341B78E2
:1042400023B920460C49072209F08CFF01350134BF
:10425000FFF764BB02B0BDE8F08100BFCF1A0010C9
:10426000571C00109CF6010072F60100BBF601001D
:10427000A0F6010098F60100BCF60100A4F60100CA
:10428000C2F60100560E0010D51A0010CEF601003D
:1042900052100010D2F6010034010010D8F60100CF
:1042A000DCF601001B6100102DE9F047A04A05462D
:1042B0001378904613F0020F00F03381580701D5B0
:1042C000FDF7D8FD98F80030190740F12F81994B80
:1042D000994C1A78994612F0010140F09B80974B57
:1042E0001B78002B00F086802DB9954B954A1A60FB
:1042F00040F66D438DE0012D05D1914B924A1A6035
:1043000040F6AC2385E0212D05D18D4B8F4A1A60F4
:1043100040F29C737DE00B2D6ED0EB1E012B05D877
:10432000874B8B4A1A6041F6571372E0A5F10903D7
:10433000012B05D8824B874A1A6047F6DA1368E0EA
:10434000182D05D17E4B844A1A6041F27E4360E00D
:10435000112D05D17A4B814A1A6040F6FA4358E094
:104360000E2D05D1764B7E4A1A6042F2A83350E0FA
:104370000D2D05D1724B7B4A1A604FF4086348E05B
:10438000292D05D16E4B784A1A6040F6384340E03B
:10439000122D05D16A4B754A1A6040F2366338E037
:1043A0000F2D05D1664B724A1A6040F60F6330E05C
:1043B000232D05D1624B6F4A1A6041F60E0328E0A7
:1043C000A5F12603012B05D85D4B6B4A1A6041F617
:1043D000A1431EE0132D05D1594B684A1A6040F2E3
:1043E000865316E0022D15D1554B654A1A6040F2EE
:1043F0007C530EE00B2D05D1514B624A1A6041F2FD
:10440000134306E0002DEDD14D4B5F4A1A6041F693
:10441000426323602268484FB2F5AF6F66D9484EB9
:104420005A4831BB0B2D12D059493F2209F09AFE50
:1044300040F239525748316809F094FE3B686FF4F6
:10444000A76213443B60336803F239531DE05249BD
:10445000402209F087FE514831684FF4A76209F005
:1044600081FE3B68A3F5A7633B60336803F5A76350
:104470000BE031684FF4AF6209F074FE3B68A3F5BE
:10448000AF633B60336803F5AF63454F4FF4AF65EF
:1044900033603D80FFF732FAFDF7ACFE2368DFF8AA
:1044A00098A0AB4235D33F4B01221A7031682A469F
:1044B0003D4809F057FEDAF800303C4CA3F5AF63F5
:1044C000CAF8003033683D802B44336098F80030E0
:1044D00043F0080388F80030FFF710FA237801331F
:1044E0002370FDF787FE0023237012E08AB12D4B65
:1044F00000241C70124B2548196809F033FE284B24
:104500003A681A80FFF7FAF9FDF774FE284B3C6011
:104510001C7099F8003043F0010389F80030BDE8C1
:10452000F087044A137823F001031370BDE8F08785
:1045300034700010320E001034010010E00E001034
:104540000C01001009360100ED5A0200879E02009E
:104550002D5D0100C6760100774201008C910200BA
:10456000D90C0100FE110200744E0200F656010043
:10457000AC660200EFF90100EA740200823001002B
:10458000A1F00100613A02001E1C0200AE6800109A
:10459000AD5A0200ED68001085760100EE6800104B
:1045A000140F001024570010707100107268001072
:1045B000B0000010F8B53B4B05461A781C4612F0C7
:1045C000020F69D0520701D5FDF754FC23781B0771
:1045D00067D5354F354C3B7813F0010F42D1052D8F
:1045E000334E07D0072D03D1324B33606A232DE0C1
:1045F000062D04D1304B33604FF4A77326E0082D0D
:10460000F2D0A5F11403032B03D82C4B33607A238B
:104610001CE00C2D0ED12A4B2A49336074224FF432
:10462000D9732948236009F09DFD22682748316825
:10463000743A15E0222D03D1254B33609D2305E00C
:10464000243D012D03D8234B33606B232360224983
:104650003D221D4809F086FD2268204831683D3A18
:1046600009F080FD22681E4B1A80FEF7CDFFFFF790
:1046700045F9FDF7BFFD1B4A0023137023603B780B
:1046800043F001033B70184B1A78282A09D01749C8
:104690000A7028221A70F8BD034A137823F0010328
:1046A0001370F8BD34700010320E00103401001089
:1046B0000C010010BC7402009A6502001EF6010095
:1046C0007F1A02004BF90100AE6800102269001049
:1046D000BD1B0200C0F901009B0C0100EB6800103B
:1046E000140F0010B00000103E0E0010560E001007
:1046F00070B500263546954221D24C5DA4F13003B9
:10470000DBB2092B04D9612C07D0622C33461AD0B6
:10471000632C0AD0642C0AD001E00A230AE0652C3D
:1047200007D0662C08BF0F2304E00C2302E00D2302
:1047300000E00E23465D9E4203D10135DBE70120F8
:1047400070BD002070BD0B23F4E700002DE9F04F91
:104750000025A9462E46AA469FB015A82946222222
:104760009B4C09950A958DF8235009F0FFFC0B9599
:10477000ADF83050974B1B889A4581F06180964A7E
:10478000138890460593954B19881F460691069805
:104790000599814207D150885988884203D192886F
:1047A0009B889A4204D08E4B1B78002B41F04880A6
:1047B0008C4821460C22FEF718FF00287DD08A4B3A
:1047C0000DA9186804F10B0B08F0D2FE0DA859468C
:1047D0002022FFF78DFF18B12B344FF0020B0DE0B4
:1047E000824B0DA9186808F0C3FE0DA85946202277
:1047F000FFF77EFF08B32B344FF0010B7C482146B6
:104800000B22FEF7F2FE002801F01580794B0DA96E
:1048100018680A3408F0ACFE0DA821462022FFF7E4
:1048200067FF68B9744B0DA9186808F0A1FE0DA8C0
:1048300021462022FFF75CFF08BB01226F4B45E0B9
:10484000BBF1010FEED1664B1A78002A40F0F887D1
:1048500083F800B005F032FD05F048FD3B881422D6
:10486000A8F800307B88A8F80230BB88A8F804308C
:10487000634B1A70634B83F800B000F0E1BFBBF1EB
:10488000020FDAD1564B1C78002C40F0D987012258
:104890001A7005F013FD05F029FD3B881422A8F8D5
:1048A00000307B88A8F80230BB88A8F80430544B4D
:1048B0001A70544B1C7000F0C3BF534821460F229E
:1048C000FEF793FE834620B100224D4B1A7000F094
:1048D000B7BF4E4821460B22FEF787FE50B1474A2C
:1048E00011780129F0D146490220087082F800B001
:1048F00000F0A6BF464821460D22FEF776FE20B105
:104900003F4B21221A7000F096BF424821461022E8
:10491000FEF76BFE30B13B4B1B780BB90222D4E79C
:104920000122D2E73C4821460522FEF75EFE002820
:1049300078D0344B1B78002BF0D02379303B082BF8
:1049400006D8DFE803F0080A0C0E3B3D3F41430068
:10495000043400F070BF2922B7E70D22B5E70E221C
:10496000B3E7274B29221A70A379312B0DD10022EE
:104970000120FC21009201920292042301F058FBD5
:1049800008F030FEE620254911E0322B40F0588730
:10499000002202230120FC210092019202930423B1
:1049A00001F046FB08F030FE1D494FF48770FA22F3
:1049B00005F04AFA08F052FE00F042BF0F2284E7E9
:1049C000102282E7112280E712227EE713227CE781
:1049D000344D0010766800101A010010786600103F
:1049E000E00E0010F7F601006C0E001014570010D6
:1049F00003F70100CC0000101857001011600010E0
:104A0000560E00105E6400100EF701001DF7010045
:104A100028F7010035F7010045F70100D51A00100D
:104A200052100010954821461022FEF7DEFD0028A6
:104A300067D0934B1B78002B3FF470AFE27B04F1FF
:104A40000F03262A00F0FC861C4613F8012B262AA9
:104A50000AD01978154626291FBFA2F130014E460B
:104A600089465FFA89F9EFE7864821460622FEF774
:104A7000BCFD002800F0DF8606EB860606EB860606
:104A8000303D05EB860509EB8909002605EB490950
:104A9000B04635461FFA89F90534274614F8013B1C
:104AA000262B09D022781E46262A1EBFA3F13002EB
:104AB00045465FFA82F8F0E7734839460822FEF768
:104AC00094FD002800F0BC86FB7905EB8505303E9F
:104AD00005EB8505312B06EB85064FF0000308EB4F
:104AE000880206EB42020093019318BF02235FFA8B
:104AF00089F1D2B202930120042301F099FA00F067
:104B00009FBE0790214661481E22FEF76EFD079B5F
:104B1000834600283ED05A4A1278002A3FF4FEAE5F
:104B20001D4698461E461D34274614F8013B262B89
:104B300009D022781D46262A1EBFA3F13002464620
:104B40005FFA82F8F0E7524821460722FEF74DFD52
:104B5000002800F0758606EB8606303D06EB8606DB
:104B6000FB7905EB860508EB880205EB4202312B49
:104B700092B205D10021009101910291022007E03B
:104B8000322B40F05D8600210220009101910290BD
:104B9000D2B2B1E73F4821461E22FEF726FD00288B
:104BA00000F08A80364B1B78002B3FF4B7AE3A4BAF
:104BB0001B78092B17D0394B1B78092B40F0408606
:104BC0000024022302930420FC2122462346009461
:104BD000019401F02DFA4FF487703149FA2205F063
:104BE00033F9099428E000240420FC2122462346BE
:104BF00000940194029401F01BFAE6202949FA225C
:104C000005F022F90994284B611C1A7894424FF060
:104C1000000203D2254B1A550C46F4E709922449A9
:104C20000BF101000A7893454FF000021DD2214993
:104C300001F80B208346F2E71B4B611C1A78944263
:104C40004FF0000203D2194B1A550C46F4E70992B3
:104C500017490BF101000A7893454FF0000204D286
:104C6000144901F80B208346F2E70A70CDF824B00E
:104C70001A7008F00DFD00F0E3BD00BF4AF7010017
:104C80005E6400105AF7010060F7010068F7010048
:104C900061F7010086F70100045700104D11001064
:104CA00052100010D51A00102C6E00104E1100107A
:104CB0003F0E00105D610010AA4821461122FEF748
:104CC00094FC002800F08C81A74B1B78002B3FF44C
:104CD00025AE103420460AA90DF12302FEF754FC3C
:104CE0000A9AA24BA2481A709DF8233007221C444E
:104CF0002146FEF77AFC002800F09D850634204608
:104D00000AA90DF12302FEF73FFC0A9A994B9A4833
:104D10001A709DF8233007221C442146FEF765FCDB
:104D2000002800F08885063420460AA90DF12302E8
:104D3000FEF72AFC0A9A914B91481A709DF823308D
:104D400007221C442146FEF750FC002800F0738522
:104D5000063420460AA90DF12302FEF715FC0A9A33
:104D6000884B89481A709DF8233007221C4421463D
:104D7000FEF73BFC002800F05E85063420460AA9B9
:104D80000DF12302FEF700FC0A9A804B80481A704E
:104D90009DF8233007221C442146FEF726FC0028FC
:104DA00000F04985063420460AA90DF12302FEF7DA
:104DB000EBFB0A9A774B78481A709DF8233007224C
:104DC0001C442146FEF711FC002800F0348506340F
:104DD00020460AA90DF12302FEF7D6FB0A9A6F4B73
:104DE0006F481A709DF8233007221C442146FEF7B5
:104DF000FCFB002800F01F85063420460AA90DF1AF
:104E00002302FEF7C1FB0A9A664B67481A709DF8A9
:104E1000233007221C442146FEF7E7FB002800F060
:104E20000A85063420460AA90DF12302FEF7ACFBE1
:104E30000A9A5E4B5E481A709DF8233007221C4484
:104E40002146FEF7D2FB002800F0F5840634204608
:104E50000AA90DF12302FEF797FB0A9A554B564813
:104E60001A709DF8233007221C442146FEF7BDFB33
:104E7000002800F0E084063420460AA90DF1230240
:104E8000FEF782FB0A9A4D4B4D481A709DF823306D
:104E900007221C442146FEF7A8FB002800F0CB8423
:104EA000063420460AA90DF12302FEF76DFB0A9A8B
:104EB000444B45481A709DF8233007221C44214674
:104EC000FEF793FB002800F0B6849DF857209DF86C
:104ED00054009DF855509DF8561006342678262E1D
:104EE00017D0252E637806D1322B04D1A778302F26
:104EF00001D10334F2E7253B012B81BFA6F130033A
:104F000028460D46194604F1010488BFC9B232464D
:104F1000E4E764238DF855505D434FF47A738DF8C0
:104F2000540003FB00500A2303FB01038DF85720B4
:104F3000303A13448DF8561024499AB20A80244915
:104F4000120A0A704FF4967002220A934B7004F012
:104F50007BFF204B03221A701F4B14221A70002271
:104F60001E4BB3E4A4F701005E6400102C57001040
:104F7000B5F701001C570010BCF701001B770010AB
:104F8000C3F701001B600010CAF701005B6100104D
:104F9000D1F7010029600010D8F70100CF1A0010E6
:104FA000DFF70100571C0010E6F70100AA640010AB
:104FB000EDF70100CE1A0010F4F701003A1C0010C2
:104FC000FBF70100B464001002F801002C6000102F
:104FD000011C001038010010560E0010E00E0010E9
:104FE000B64821461822FEF700FB002870D0B44BCB
:104FF0001B78002B3FF492ACDFF81083DFF810B37E
:1050000098F800701734DBF8000021463A46FEF7A6
:10501000ECFA002800F00F843C44AA4821460F22F5
:10502000FEF7E3FA002800F00684A74FDFF8E4C299
:105030003B780E341A46DCF8000021460693CDF882
:1050400014C0FEF7D2FA069B002800F0F4831C443B
:105050009E4821460E22FEF7C8FA002800F0EB8396
:10506000002288F8002002F10D01605C63182628F8
:1050700002F10101C9B2DFF860E203D00EF80200CC
:105080000A46F0E788F80020194691480F221C468E
:105090000693CBF800E0FEF7A8FA069B002800F084
:1050A000CA8300223A7099188C7B511C262CC9B2F5
:1050B000884802D084540A46F5E7059B00213A70DF
:1050C00018600AF029FD002183480AF025FDB7E3A6
:1050D000824821461C22FEF788FA28B18049012225
:1050E0000A704FF49B700CE0079021467D48122215
:1050F000FEF77BFA079B38B179494FF49B700B7030
:10510000012204F0A1FE9BE3774821461122FEF71D
:105110006CFA002800F0AE80237C04F110055F2BB0
:1051200011D0724B1A78032A01D105220AE0042A11
:1051300001D1062206E0052A01D11B2202E0062A3F
:1051400001D11C221A706A4829460A22FEF74DFA3C
:1051500098B304F11900654C66490DF12302FEF77E
:1051600013FA2378092B05D0052B03D0032B01D08C
:105170001B2B06D15F4B03211878012200F02EFF74
:1051800012E00A2B05D003F0FD02042A01D01C2BEB
:1051900006D1584B03211878022200F01FFF0AE0C5
:1051A000072B01D0142B01D1192361E0082B02D069
:1051B000152B40F045831A235AE04F48294609220F
:1051C000FEF713FAC8B104F118000DF123024949A2
:1051D000FEF7DAF9454B1A781C46052A05D002F08D
:1051E000DF03032B01D01B2A05D1424B0321187882
:1051F000012200F0F3FE1D233AE040482946052233
:10520000FEF7F3F9002800F01B8304F11400374C7B
:1052100038490DF12302FEF7B7F92378262B05D084
:10522000052B03D0032B01D01B2B06D1314B0321BF
:105230001878012200F0D2FE12E0272B05D003F0EF
:10524000FD02042A01D01C2B06D12A4B0321187819
:10525000022200F0C3FE0AE0242B01D0142B01D15E
:105260001F2305E0252B02D0152B40F0E9822023D7
:105270002370E5E2224821460E22FEF7B6F910B16E
:105280000322FFF722BB1F4821460E22FEF7ADF98D
:1052900010B10422FFF719BB1B4821460922FEF773
:1052A000A4F9002800F08280104D2B78032B03D046
:1052B000052B01D01B2B2FD1092334E009F8010065
:1052C0005E64001021F80100C664001030F801008F
:1052D0003EF80100250C0010456000104DF801005B
:1052E0001B61001069F801007BF80100560E0010E8
:1052F0008CF801003060001096F801009FF8010062
:10530000A4F80100B3F80100D8F801004D600010C6
:105310006C0E00101857001003F0FD02042A01D093
:105320001C2B01D10A232B70237A202B00F08882BA
:10533000002319461A460834274614F8016B262E16
:105340000AD02378262B1EBFA6F130030A46194641
:10535000334618BFC9B2EFE70A204143642000FB7F
:105360000212303B1344B84AB84813603946082249
:10537000FEF73BF9002800F06382FB79B44A303B2A
:10538000DBB2062B13700BD12A78B24B092A01D15C
:105390001E7055E20A2A40F053822722FFF796BA80
:1053A000072B40F04D8223232B7049E2AA48214667
:1053B0001722FEF71AF9002800F0B081A24D16342A
:1053C00029460DF123022046FEF7DEF82B689DF8F2
:1053D0002320FA2B294604D940F2E730834240F0DB
:1053E0002F8214446278312A02D1581E9B4D03E06B
:1053F000322A09D19A4D581E285C28B940F2E7306C
:10540000834240F01D8203E040F2E730834201D145
:10541000FC230B608F4E33780E2B02D0163B012BF2
:1054200008D8312A01D1162302E0322A01D11723EC
:1054300033700134A37A2079303B8DF82C306378B7
:105440003038A3F13002A378303B9B0043EA42138B
:10545000E278303A13438DF82D306379A279303BEE
:105460001B0143EA4010E379303A303B40EA030540
:10547000237A45EAC200303B40EA8302637A303B3C
:1054800042EA43038DF82E303378072B05D003F022
:10549000EF02092A01D0162B04D1002308780093CB
:1054A00001230BE01A2B05D003F0FD02082A01D0DE
:1054B000172B09D1002308780093022301931721A9
:1054C00003220BAB00F026FAE37A04F10B05262B3E
:1054D00023D001242F78661E262FF6B221D06148F2
:1054E00029460422FEF781F81EAB1E4420B120237A
:1054F00006F8243C03350DE05B4829460522FEF7FB
:1055000074F820B17F2306F8243C043502E006F845
:10551000247C01350134E4B2DCE720238DF85430DB
:105520000126EB786C78202BAF7800F0B38004353F
:1055300028460AA90DF12302FEF726F89DF82390CC
:105540000AA909F101094D4428460DF123029DF8ED
:1055500028A0FEF719F80A9B0AA91B021FFA83F874
:105560009DF823300DF1230201331D442846FEF738
:105570000BF89DF82330BDF828B001331D442846B0
:105580000AA90DF12302FDF7FFFF48EA0B0B9DF876
:1055900023800A9B08F1010805EB08091B06484611
:1055A0000AA90DF123020593FDF7EEFF9DF8238074
:1055B000059B08F10108C8440A9D40460AA90DF15F
:1055C000230243EA0545FDF7DFFF0A9B0AA94FEADC
:1055D00003299DF823300DF12302013398444046FE
:1055E000FDF7D2FF9DF823000A9B01301D43404484
:1055F0000AA90DF12302FDF7C7FF45EA09054FEAA5
:105600001B238DF82C302B0E8DF82E30C5F307435D
:105610008DF82F30C5F307238DF830300D4B8DF802
:105620002DB01B788DF83150072B05D003F0EF0219
:10563000092A01D0162B19D1034B9DF82820187880
:1056400000230093012320E030600010C2F8010025
:105650003C0E0010560E0010CAF80100D51A0010BA
:1056600052100010E1F80100E5F801001A2B05D0F6
:1056700003F0FD02082A01D0172B0BD1724B9DF8C5
:1056800028201878002300930223019351460BAB86
:1056900000F040F96D4D2B78072B05D003F0EF0299
:1056A000092A01D0162B17D1674B303CA7F13001E6
:1056B000E400187844EA810101230093019301F08A
:1056C000FC0115AB324600F0B5FA2B78162B00F032
:1056D000B7801422FFF7F9B81A2B06D003F0FD02A9
:1056E000082A02D0172B40F0AB80574B303CA7F173
:1056F0003001E40018780122022344EA81018DE898
:105700000C0001F0FC0115AB324600F093FA2B7847
:10571000172B00F095801522FFF7D7B84C4821468B
:105720001222FDF762FF002838D011342046464986
:105730000DF12302FDF728FF9DF82330434F01337D
:105740001C44204609A90DF12302FDF71DFF3B78FB
:105750001F2B05D003F0FD02242A01D0142B0AD1FF
:10576000394B012218783421099B0092019200F0F4
:10577000D1F8142310E0202B03D0252A01D0152BBB
:1057800059D1314B0122187802238DE80C003421C5
:10579000099B00F0BFF815233B704CE02D482146D3
:1057A0000D22FDF722FF10B11822FFF78EB82A480C
:1057B00021461522FDF719FF50B1244B18221A700B
:1057C00007F034FF254A00231380254A138037E071
:1057D000244821460E22FDF708FFB0B1059B069A2A
:1057E00093420AD0B8F802207B889A4205D01E4B1B
:1057F0009A881E4B9B889A4222D11D4A002313701F
:10580000124A13701B4A13701AE01B4821460E22DD
:10581000FDF7EBFE10B10B22FFF757B817482146F2
:105820001122FDF7E2FE30B1084B154A19781170CC
:105830000C22FFF74BB801340AF1010AFEF79ABFB8
:105840001FB0BDE8F08F00BF30600010560E001092
:10585000EAF80100FCF8010009F90100FC5F001002
:10586000045500101EF901001A010010786600109E
:10587000E00E00105E6400102CF901003AF90100FE
:105880003E0E001000231A4610B5032A09D003EB80
:1058900043010E4811440024013220F81140D2B2D5
:1058A000F3E70133042BFCD100221346022B08D06E
:1058B000074903EB42000024013321F81040DBB21A
:1058C000F4E70132042AFCD110BD00BF3C1C0010DB
:1058D000B664001030B50C4B421E9C5C0CB9012420
:1058E0009C540A4B0A4C197032235A430325A318BF
:1058F000D970694058704840FF219D7018715971E6
:105900000523A35430BD00BF68620010FC120010D4
:1059100000C007202DE9F74F14469DF834208E462D
:10592000012A9DF8305040F0B880B6490E78B6494B
:10593000097831445A2900F36281FC2838D1B34EEA
:10594000327802F0FF075AB100277A1CB25C3AB1F4
:10595000312F05D8AD4AD25D01321744FFB2F4E7CA
:10596000A01DC1197A1C3129D2B21DDCFC21B15411
:105970004FF0020C511C06F801C044EAC51502EBB9
:105980000C0106F801E0EDB2D11C75541D46E91A70
:10599000A14280F0C380C3F104011144294415F8E9
:1059A00001EB06F801E0F2E70420FC210122C2E04D
:1059B0009749471ECE5D06B9CA55964ADFF85C8204
:1059C000D15D9246012912D1934A002610703222ED
:1059D0007A4308EB02013144497849B1312E07D8A6
:1059E0008E4932448A5C01321644F6B2EFE7002653
:1059F0004FF0320909FB07F90122B118C9B20AF8C0
:105A0000072009EB010C08EB090208F80C000A4416
:105A10000220507044EAC51082F802E0D0700022E3
:105A2000A24208D213F802E002EB0C00404480F8D6
:105A300004E00132F4E732237B43E21C08EB030C61
:105A40000A446046D2B201F1040B0193CDF800C0C4
:105A500001F0E2FF019BA344DDF800C003EB0B0261
:105A600008F802001E44DC44FF2206348CF80120B2
:105A7000002308F80640C8440BF10202934205D205
:105A800018F80310664A99540133F5E7002D00F029
:105A9000B68000230AF80730B1E0022A40F0AF8058
:105AA000584A1178584A12780A445A2A00F3A780B3
:105AB000FC2845D15B4E327802F0FF075AB100272F
:105AC0007A1CB25C3AB1312F05D8564AD25D013208
:105AD0001744FFB2F4E7A01DC1197A1C3129D2B2D4
:105AE00026DCFC21B1544FF0020C511C06F801C019
:105AF00044EAC51502EB0C0106F801E0EDB2D11C39
:105B000075541D46E91AA14208D2C3F1040111449B
:105B1000294415F801EB06F801E0F3E704321444D8
:105B200000233355C0B20134FF233355F05566E0EE
:105B30000420FC21022205F0C5FB0023F3555EE0A2
:105B4000394A471ED15D09B90121D155374A00268E
:105B5000D15D91460129DFF8D8800FD132227A43F6
:105B600008EB02013144497841B1312E06D8304961
:105B700032448A5C01321644F6B2EFE70122B118D2
:105B800009F8072032227A43C9B202EB010C4244E1
:105B900008F80C000A440220507044EAC51082F84C
:105BA00002E0D0700022A24208D213F802E002EB19
:105BB0000C00404480F804E00132F4E74FF0320B6F
:105BC0000BFB07FBE21C08EB0B030A441846D2B29E
:105BD00001F1040A009301F01FFF009BA2440BEBAC
:105BE0000A025E449A440634FF2308F802008AF849
:105BF000013008F8064015B1002309F8073003B05A
:105C0000BDE8F08F596100102C700010081C0010C6
:105C1000340C0010280800101E7700105A1C0010C9
:105C2000E9760010CF1B001068620010367000107B
:105C300000C007202DE9F04F8FB014469DF8642076
:105C40008346012A1F469DF860608DF80F1040F0D2
:105C5000D780C64B1978C64B1B780B445A2B00F3E0
:105C6000BA81FC2843D1C34D2B7803F0FF0883B1E0
:105C70004FF0000808F10103EB5C53B1B8F1310FAC
:105C800007D8BC4B13F80830013398445FFA88F802
:105C9000F0E704F1080101EB0803312B23DC08F1E4
:105CA0000102D2B2FC23AB540220531CE854131857
:105CB0003020E854A31C43EAC616D01CF6B22E547A
:105CC0009DF80F00131DE8543846531DEC54C31BB8
:105CD000A34280F0E180C7F106031344034410F8A7
:105CE000016BEE54F3E70420FC210122E2E005AD54
:105CF00028460DF10F0108F035FA7A1E0023013312
:105D000012F8011F232BE954F9D19B4B0BF1FF35FE
:105D10005A5D0AB901225A55984B4FF0000C5A5D52
:105D20009A46012ADFF8588211D132236B4308EBDF
:105D300003026244527852B1BCF1310F07D8904A45
:105D40006344D35C013363445FFA83FCEDE74FF0B7
:105D5000320909FB05F901230CEB0301C9B208EB79
:105D600009020A440AF8053009EB0100022308F889
:105D700000B0537030239370A31C43EAC613D37052
:105D80009DF80F30547113710023A34207D217F806
:105D900003E01A18424482F806E00133F5E73223A3
:105DA00003FB05FB621D08EB0B030A441846D2B245
:105DB000CDF808C08F1D019301F02EFE2744019BF2
:105DC0000BEB0702DDF808C008F802003B44FF2295
:105DD0005A7008340BEB0C0308F80340C844002346
:105DE000BA1C934205D218F80310664A995401333D
:105DF000F6E7002E00F0EF8000230AF80530EAE015
:105E0000022A40F0E880594B1A78594B1B7813440A
:105E10005A2B00F3E080FC2852D15B4D2B7803F025
:105E2000FF0883B14FF0000808F10103EB5C53B1A8
:105E3000B8F1310F07D8544B13F8083001339844A8
:105E40005FFA88F8F0E704F1080101EB0803312B51
:105E50002DDC08F10102D2B2FC23AB540220531C0A
:105E6000E85413183020E854A31C43EAC616D01C8B
:105E7000F6B22E549DF80F00131DE8543846531DFA
:105E8000EC54C31BA34207D2C7F1060313440344D7
:105E900010F8016BEE54F4E70632144400232B553E
:105EA000C9B20134FF232B5505F8081093E00420F4
:105EB000FC21022205F006FA002305F808308AE0EA
:105EC00005AD012228460DF10F0108F04BF97A1EAD
:105ED0000023013312F8011F232BE954F9D12B4B76
:105EE0000BF1FF355A5D0AB901225A55284B4FF084
:105EF000000A5A5D9946012ADFF8988011D13223B1
:105F00006B4308EB03025244527852B1BAF1310F9D
:105F100007D8204A5344D35C013353445FFA83FAD1
:105F2000EDE732226A4301230AEB0301C9B250189C
:105F300042440A4409F80530022308F800B05370BF
:105F400030239370A31C43EAC613D3709DF80F301F
:105F5000547113710023A3421ED217F803E01A18DC
:105F6000424482F806E00133F5E700BF59610010B2
:105F70002C700010081C0010340C001028080010B1
:105F80005A1C0010E9760010CF1B00106862001048
:105F90003670001000C00720322303FB05FB621D92
:105FA00008EB0B030A441846D2B28F1D019301F08F
:105FB00033FD019B27440BEB07021F44FF2308F826
:105FC000020008347B700BEB0A0308F8034016B19B
:105FD000002309F805300FB0BDE8F08F012A30B575
:105FE0000B46044616D1411E0E48455C05B9425485
:105FF0000D4A0E4813703222514303254218D370C4
:106000006B4063401371FF235371052354709570E7
:10601000435430BD022A03D1BDE83040FFF75ABCDB
:1060200030BD00BF340C0010FC1200105A1C0010D0
:10603000F8B59DF820400546012C0E469DF8180045
:106040009DF81C106AD8012D20D1FC2E28D06B4C55
:1060500025706B4C2478092C14D11B01694C43F03A
:106060000103DBB226706570A370E2702071052217
:1060700061712046002101F0CFFCFF23A071E37184
:10608000002069E0604B1E70604B6EE0022D05D071
:10609000042D03D0FC2E40F0AF8001E0FC2E03D194
:1060A000564CFC27277003E0544C2570584C227046
:1060B000534F3C78092C40F09F80524C45EA031323
:1060C0004FF0010EDBB2267084F801E0A370E2709D
:1060D0002071052261712046002101F09DFCFF2303
:1060E000A0710020E37101F09DFA022D03D1494B0C
:1060F00000221A600FE0042D0DD1474A454B0A20BB
:106100001A603E4A00231370414A137004F05DF98F
:1061100007233B70F8BDFC2E6ED1EEE7012D26D192
:10612000FC2E2DD03D4C25703D4C2478092C19D1E6
:106130001B013C4C43F00103DBB226706570A37079
:10614000E2702071052261712046002101F064FC9B
:10615000FF23A071E371022001F064FA324B0022A8
:106160001A60F8BD314B1E70314B1A70F8BD022D0C
:1061700004D0042D02D0FC2E3ED101E0FC2E03D130
:10618000264CFC27277003E0244C2570294C2270F4
:10619000234C2778092F2FD1224F45EA03134FF0C4
:1061A000010EDBB23E7087F801E0BB70FA70387107
:1061B000052279713846002101F02EFCFF23B871C9
:1061C0000220FB7101F02EFA022D03D1114B0022A7
:1061D0001A600FE0042D0DD10F4A0E4B0A201A60F1
:1061E0000E4A00231370134A137004F0EEF80723CD
:1061F0002370F8BDFC2EEFD0F8BD00BF206000106A
:1062000004570010D1000010E87600104C11001067
:10621000387100106062001000A60E000A0700101E
:106220004D110010101000106462001004070010DF
:10623000F80600100E070010012938B50D4628D1C8
:106240002B4B421E33F81230DA0714D5294B1B783A
:1062500003F0FF017BB9284B1B7863B1274C042363
:1062600020702A462046637001F0D6FBFF23A07001
:10627000E370284637E0224C04232070002120469A
:106280000122637001F0C8FBFF23A070E3700020BF
:1062900029E002292BD11B4B421E33F81230DB07B9
:1062A00014D5194B1B7803F0FF017BB9174B1B78F2
:1062B00063B1174C0423207001222046637001F063
:1062C000ABFBFF23A070E37003200CE0114C042310
:1062D0002070002120460122637001F09DFBFF2306
:1062E000A070E3700220BDE8384001F09BB938BDD2
:1062F0002E6E0010510E0010580E0010A20E00104D
:10630000D10000100855001010600010310C001072
:10631000700E0010101000102DE9F04F0478BBB083
:106320000023012A054690468DF82C308DF82D303B
:106330008DF82E308DF830308DF831308DF83230C8
:10634000467804F1FF3733D8B54BDA5D994612F041
:10635000020F0DD0B349622091F8282091F8243023
:1063600091F82010009101210191214607F0FEFBD8
:1063700019F80730002203F0FD0309F80730FA216D
:1063800001FB0271A848013230F81130042A23F0D1
:1063900004034FEA03434FEA134320F81130EED1D0
:1063A000A24BA34A1B780021013BD154A14A32E001
:1063B000A14BDA5D994612F0020F0DD09949622087
:1063C00091F8282091F8243091F8201000910221B2
:1063D0000191214607F0CAFB19F80730002203F0AB
:1063E000FD0309F80730FA2101FB027193480132DD
:1063F00030F81130042A23F004034FEA03434FEA34
:10640000134320F81130EED18D4B8E4A1B780021BA
:10641000013BD1548C4A13780133DBB2137033093A
:106420000F2B00F0F38706F00F00042840F04084A3
:1064300095F802904FEA191B09F00F09A9F1020320
:10644000012B2DD8B8F1010F4FF000030FD87F4A70
:10645000734ED355F35D580771D5724991F82820D2
:1064600091F8243091F82010009101210EE0784A33
:10647000714ED355F35D590761D56A4991F82820CB
:1064800091F8243091F820100091022101916420AC
:10649000214607F06BFBF35D03F0FB03F3554EE081
:1064A000B9F1010F4BD0B8F1010F20D8674AD35D85
:1064B000092B42D8D35D0133DBB2D355D35D092B11
:1064C0003BD9574EF35D5A070DD45649032091F836
:1064D000282091F8243091F8201000910121019199
:1064E000214607F043FB0320214601221FE0584AC2
:1064F000D35D092B21D8D35D0133DBB2D355D35DF6
:10650000092B1AD94C4EF35D5B070DD44549032086
:1065100091F8282091F8243091F820100091022160
:106520000191214607F022FB21460320022204F0BC
:10653000C9FEF35D43F00403F3554FF00409BBF1CA
:10654000070F03D0BBF10A0F40F06081414B0026DA
:10655000DA5D4046934518BF4FF00409B8F1010FCA
:1065600088BF3D4B494603F807B05A46BBB2009678
:1065700007F0BEF895F90430B34280F24E81EB7813
:106580000DF1340A0493354B04270593344B0693DD
:10659000F3B207932B7903F07F033C2B00F22681A3
:1065A00000232A79DFB202F07F02974203F1010350
:1065B0002C4A04DAE91949793A445170F1E72A4B37
:1065C00017701B781D2B01D0222B02D1274B0122E3
:1065D0001A7006237343214A9B5A3BB9059B5B887B
:1065E00023B9059B9B88002B00F0F3801C4B33F8EC
:1065F000263023B9069B5B88002B00F0EA802046FA
:106600000CA90A2208F0F6FA9DF8303083BB30233B
:106610008DF830308DF831308DF832303DE000BFEC
:10662000160F0010004002402858001020010010F2
:10663000380D0010115700102D570010FE120010D9
:106640000260001064630010240C00102309001085
:106650001E070010D51A0010521000103C1C00102C
:10666000B66400101C610010560E0010F9060010F0
:106670009DF831203AB98DF8323030238DF8303022
:106680008DF8313009E09DF8321031B98DF8313094
:1066900030238DF832208DF83030A84BB8F1010F3F
:1066A0001A88A74B29791A803AAA4FF02D0303FBC9
:1066B00006234FF0020203F8B42C9DF830204FF06F
:1066C00040038AF803209DF831208AF801308AF8C7
:1066D00004209DF832204FF005038AF8052094BF6E
:1066E000312232228AF802308AF806308AF80720EE
:1066F0008AF8083001F07F010020C7B28F4223DA08
:10670000EB195B792D22022B05D13AAB02FB063245
:106710001123174414E0032B05D13AAB02FB0632D8
:10672000122317440CE0052B0BBF3AAB0DF1E80E1A
:1067300002FB063202FB06E206BFBF181323BF1896
:1067400007F8AB3C0130D8E73AAA2D2303FB062318
:1067500003223B4403F8AB2CEB195B793A1D284626
:106760000021D2B2089301F057F9089B83422CD143
:10677000744B9DF81C2005991A707348062207F087
:10678000F1FC04227148069907F0ECFC6D4B704A4D
:106790001B7812F803C007F10A03BCF1000F0FD1F8
:1067A000D9B25046CDF824C00892079304F000FAFD
:1067B000644B089A1978DDF824C0079B02F801C0E1
:1067C0005046D9B204F0F4F903E0624A1368013389
:1067D0001360059B013606330593069B042E03F1D7
:1067E000040306930AF12D0A7FF4D2AE544B5022D3
:1067F0001A8059490622544807F0B4FC0026534831
:106800005649042207F0AEFCB24609E0EB7895F851
:1068100004A004936E79022702E0B246042704968E
:10682000EB191B79FA1C28460021D2B2059301F01E
:10683000F3F8059B834240F01582B8F1010F94BF35
:10684000474B484B651E5B5D40469B4518BF4FF06C
:106850000409049B494600935A46ABB206F048FF30
:10686000414BB8F1010F1B6800F216819C421AD10E
:106870003E4B1A78B2423E4A02D11178514512D0AD
:106880001E703C4B82F800A01B78192B01D0072BFF
:1068900002D10122384B05E01A2B01D0082B02D17E
:1068A000364B01221A70364B33F81560354B06F41F
:1068B0007F4633F8153003F47F439E4280F2A6856D
:1068C000F6434FF00008C246049B2F4FDFF8BC9000
:1068D00003EA26260DAD3B885FFA8AFC2BB97B883C
:1068E0001BB9BB88002B00F0C580284B33F82A3039
:1068F00023B9B9F80230002B00F0BC8020460CA967
:106900000A22CDF810C008F075F99DF83030DDF896
:1069100010C03BB930238DF830308DF831308DF810
:1069200032303FE09DF8312092BB8DF83230302379
:106930008DF830308DF8313034E000BF2C6000101D
:10694000581C0010000700104C10001012600010BE
:10695000FE5F00100401001046100010EE0600104B
:10696000D51A00105210001030600010286000107E
:10697000380E0010560E0010F90600109C00001092
:106980002E6E00107E6600103C1C0010B6640010D5
:106990009DF8321031B98DF8313030238DF8322026
:1069A0008DF83030B24B022E1A88B24B1A804FF05D
:1069B00002030DAA02F808309DF830204FF036038C
:1069C000EA709DF831206B702A719DF832204FF0EB
:1069D0000503AB706A71AB714FF031022B720BF192
:1069E0003003EA716B7206F130024FF02C03AB7288
:1069F000EA722B7301D1562311E0012E01D12B2312
:106A00000DE0082E01D12D2309E0042E01D14623EB
:106A100005E0102E05BF3523EB723F2358236B731F
:106A20000323AB73944B39460622944883F800C085
:106A3000049307F097FB49460422914807F092FB24
:106A4000049B904A197812F801C0BCF1000F0DD1D7
:106A500028460F21CDF818C0059204F0A9F8049B30
:106A6000059A1B78DDF818C002F803C028460F21EC
:106A700004F09EF808F12D08B8F1B40F0AF1010AEC
:106A800007F1060709F1040905F12D057FF423AF8D
:106A9000784B50221A8077E29C4213D17A4B1A78B5
:106AA000B2427A4A02D1117851450BD01E70784B10
:106AB00082F800A01B781A2B01D0082B02D1754B4D
:106AC00001221A70744B754A33F8153032F81520CC
:106AD00003F47F4302F47F429A4280F29784704B22
:106AE0004FF0000833F81560C24606F47F46F643BF
:106AF000049B6C4FDFF8B09103EA26260DAD3B886E
:106B00005FFA8AFC2BB97B881BB9BB88002B00F08D
:106B10009A80654B33F82A3023B9B9F80230002B3C
:106B200000F0918020460CA90A22CDF810C008F090
:106B300061F89DF83030DDF810C03BB930238DF896
:106B400030308DF831308DF8323014E09DF831203E
:106B50003AB98DF8323030238DF830308DF831303D
:106B600009E09DF8321031B98DF8313030238DF8BD
:106B700032208DF830303E4B022E1A883D4B1A8061
:106B80004FF002030DAA02F808309DF830204FF0B4
:106B90003603EA709DF831206B702A719DF832201F
:106BA0004FF00503AB706A71AB714FF032022B727C
:106BB0000BF13003EA716B7206F130024FF02C03D7
:106BC000AB72EA722B7301D1562311E0012E01D171
:106BD0002B230DE0082E01D12D2309E0042E01D135
:106BE000462305E0102E05BF3523EB723F235823C3
:106BF0006B730323AB73204B394606221F4883F87F
:106C000000C0049307F0AEFA494604221C4807F07E
:106C1000A9FA049B1B4A197812F801C0BCF1000FB5
:106C20000DD128460F21CDF818C0059203F0C0FF02
:106C3000049B059A1B78DDF818C002F803C02846AB
:106C40000F2103F0B5FF08F12D08B8F1B40F0AF1D8
:106C5000010A07F1060709F1040905F12D057FF482
:106C60004EAF15E7114A136801331360CEE300BF3E
:106C70002C600010581C0010000700104C10001071
:106C800012600010FE5F001028600010380E001027
:106C9000560E00109C0000101E0A0010085500102F
:106CA0002E6E00103C1C0010B66400100401001091
:106CB000032840F00182B8F1010F31D8B84BB94E2A
:106CC0001A78324412F8012C002A5FD01978B64A9B
:106CD000481E3221414312F801E000275FFA87F98C
:106CE000CEF13001894507F101074ADC187893F8A5
:106CF00000800EF101014FF0320C494408F1FF38D9
:106D00000CFB081801380CFB009012F8088002F800
:106D10000080187801380CFB001100205054DDE78A
:106D2000A24BA34E1A78324412F8012C72B3197890
:106D3000A04A481E3221414312F801E000275FFAC1
:106D400087F9CEF13001894507F1010719DC187880
:106D500093F800800EF101014FF0320C494408F124
:106D6000FF380CFB081801380CFB009012F8088063
:106D700002F80080187801380CFB001100205054F4
:106D8000DDE71B781E44012306F8013C8A4F3B785F
:106D9000002B00F02781894ADFF844821288884955
:106DA000013B0626DFF82C9206FB0311A8F8002011
:106DB0008448324689F8003007F0D4F93B7882499C
:106DC000013B01EB83010422804807F0CBF93A78BC
:106DD0003AAB013A4FF02D0A0AFB0232022302F8C5
:106DE000B43C4FF0050B382302F8B33C02F8B2BCB8
:106DF0000BA90A22204607F0FDFE9DF82E109DF8F3
:106E00002D20C1B99DF82C105AB129B33B783AA86E
:106E1000013B0AFB03035C4603F8B11C03F8B02CEA
:106E20001BE0C9B13B783AAA013B0AFB03230424C7
:106E300003F8B11C11E07AB19DF82C0060B13B78E9
:106E40003AAC013B0AFB0343344603F8B10C03F8A8
:106E5000B02C03F8AF1C00E003243B782D22013B4B
:106E60003AA902FB031300262344052203F8B42C9D
:106E700001348DF82C608DF82D608DF82E60013571
:106E80000BA90A2215F8010F07F0B4FE9DF82E1089
:106E90009DF82D20E9B99DF82C1072B171B33B78A3
:106EA0002D20013B0DF1E80E00FB03E3234403F822
:106EB000B41C03F8B32C02341FE0F9B13B782D2247
:106EC000013B3AA802FB0303234403F8B41C01343A
:106ED00013E09AB19DF82C0080B13B784FF02D0E55
:106EE000013B0DF1E80C0EFB03C3234403F8B40C83
:106EF00003F8B32C03F8B21C0334E4B2052E4FF0B0
:106F000000038DF82C308DF82D308DF82E3017BF02
:106F10003A783B7802F1FF323AAB04BF03F1FF331A
:106F20003AAA4FF02D0114BF01FB023301FB0323EA
:106F300006F1010615BF1B191B192C22032201346F
:106F4000062E03F8B42CE4B29AD1214E99F8003001
:106F5000F55C5DB93B780DAA013B2D2000FB0320B9
:106F6000214603F025FE1B4B1B78F5543B780DAAF8
:106F7000013B2D2000FB0320214603F019FE0023D6
:106F80003B705023A8F80030134906220D4807F043
:106F9000E9F8124904220D4807F0E4F836E200BF90
:106FA00020010010340C00105A1C00100260001068
:106FB0006862001000C00720357000102C600010BF
:106FC0003C1C00104C100010B66400101260001041
:106FD000FE5F00100007001046100010EE060010C3
:106FE000581C0010A64B1B78032B1CD1A549AA786E
:106FF000A54807F0F5F8EB782A79A4481A43A44984
:1070000007F0EEF8A34B1B78192B01D01F2B02D1F0
:107010002046062125E01A2B02D0202B40F0F681D5
:107020002046062126E0062B27D1AB78EA789A483D
:107030001A432B79994913436A791A4307F0D0F818
:10704000944B1B78192B02D10122954B03E01A2B8C
:1070500003D1944B01221A70D8E11F2B05D1204691
:1070600030210122FEF7BAFFD0E1202B40F0CE8183
:1070700020463021FEF72EFCC8E1302B40F0C681BF
:107080008949AA78894807F0ABF88749EA7888489F
:1070900007F0A6F887492A79874807F0A1F88748BA
:1070A0008149AA7907F09CF87A4B1B781F2BCBD02B
:1070B000202B40F0AB81CCE7022862D1B8F1010F60
:1070C0002CD87F4B7F4D1A782A4412F8012C002AC5
:1070D00000F09C8119787C4A481E32214143575C5C
:1070E00000265FFA86FCC7F130018C4506F10106E7
:1070F00041DC18781C78791C4FF0320E6144013C59
:107100000EFB041401380EFB00C0145D14541878F3
:1071100001380EFB001100205054E2E76B4B6C4D20
:107120001A782A4412F8012C002A00F06F8119788D
:10713000684A481E32214143575C00265FFA86FCAC
:10714000C7F130018C4506F1010614DC18781C7873
:10715000791C4FF0320E6144013C0EFB04140138DF
:107160000EFB00C0145D1454187801380EFB00119A
:1071700000205054E2E71B781D44012305F8013C30
:1071800044E1012840F04281B8F1010F54D8524E39
:107190003278092A40F03A81012B40F024814F4A8D
:1071A00013781046022B06D14D4BAA781C804D4B0C
:1071B0001C704D4B53E0012B40F028814B4B4FF49A
:1071C0007A721A604A4B1C883CBB4A4A464913787B
:1071D0000470013BCC54484B14701C70AB78E62013
:1071E000FA22CB5502F030FE444A611C1378E4B217
:1071F0009C424FF0000303D2414A13550C46F3E77B
:1072000040485C1C0178DBB28B424FF0000180F0FB
:10721000B8803D48C1542346F2E73C4A30491488BF
:1072200008880D468442164640F2CA800021198023
:10723000304B1970304BB8E0354E3278092A40F0A7
:10724000E580012B40F0CF80324A13781046022BA4
:1072500066D1234BAA781C802F4B1C702F4BDA551C
:10726000002C00F0D3800021621C00910191CDF828
:1072700008800220D2B20423FEF7DAFEC6E000BF87
:10728000FC1200106DF60100227000104E6000101C
:10729000E7A50200560E001034600010ECA50200B5
:1072A000F90600109C000010F1A50200D50E001098
:1072B000520E0010F6A50200420E00101001001040
:1072C00020010010340C00105A1C00100260001045
:1072D0006862001000C007200457001020600010F2
:1072E0007066001038710010D51A0010646200102A
:1072F000EC060010E87600104C1100102C6E001007
:107300004E1100103F0E00105D6100100C070010C0
:107310004D1100100A0700100E0700105210001047
:10732000012B73D13B4B4FF47A721A603A4B1C8895
:1073300074BB3A4A3A4913780470013BCC54394B38
:1073400014701C70AB784FF48770FA22CB5502F0A2
:107350007BFD354A611C1378E4B29C424FF0000378
:1073600003D2324A13550C46F3E731485C1C0178CE
:10737000DBB28B424FF0000103D22E48C1542346AA
:10738000F3E70170117006F083F9072333703DE0D5
:10739000294A2A49148808880D46844216460FD97E
:1073A000002119801D4B19701E4B1970244B0220AF
:1073B0001A7800910191CDF808800423FEF738FE79
:1073C00031882B881C4C8B4220D30022042300924E
:1073D0000192CDF808800120C9B2FEF729FE23886A
:1073E0000133238012E0022B10D10B4B00221880B6
:1073F000134BA5B21D802146042300920192CDF8C3
:107400000880FEF715FE0C4B01351D803BB0BDE832
:10741000F08F00BF64620010EC060010040700103B
:1074200052100010F80600102C6E00104E110010C3
:107430003F0E00105D6100100C0700107066001018
:107440001E080010002830D16E4B10211A6822F05F
:10745000F0021A601A6842F050021A601A6822F4A8
:1074600040621A60684A136843F020031360674B58
:107470008322D3F8A831664B1A73032218711A704D
:1074800083F828101A7307221A721A7D197D604A30
:107490004806FBD5137B202143F0380313735D4B63
:1074A0001960002183F80513A5E0012838D1554B58
:1074B00010211A6822F00F021A601A6842F00A02BC
:1074C0001A601A6822F440721A604F4A136843F037
:1074D000100313604D4BD3F8C42042F00072C3F880
:1074E000C420D3F8AC314C4B83221A7300221A719A
:1074F00003221A7083F828101A7307221A721A7D51
:10750000197D454A4906FBD5137B4FF4807143F042
:10751000380313733F4B1960182183F808136AE08E
:10752000022830D1374B10211A6922F00F021A615C
:107530001A6942F00A021A611A6822F440421A607B
:10754000314A136843F080031360304B8322D3F831
:10755000A831324B1A7300221A7103221A709962F1
:107560001A7307221A721A7D197D2C4A4806FBD518
:10757000137B402143F038031373264B1960082115
:1075800083F8061337E0032839D11E4B1A6822F41A
:1075900070021A601A6842F4A0021A601A6822F493
:1075A00040521A60184A136843F040031360174BA7
:1075B000D3F8C42042F08072C3F8C420D3F8AC31B1
:1075C000174B83221A7300221A711022187083F845
:1075D0002820072218731A721A7D197D104A49064D
:1075E000FBD5137B802143F038031373094B1960DB
:1075F000102183F8071307235360012070470020F0
:10760000704700BF00C0024000C0092000C00F400A
:1076100000C0004000E100E000C00940000001405F
:107620000080094070B50346002879D1884A0120BE
:107630001070884A884913600A780244D2B20A70EE
:107640000A78642A02D90B7005F000FA834B1A7D80
:107650001A46117D814B4906FBD58149814D002297
:107660000A702A602A68804C0120A25CD2B21A708B
:107670001A7B02F0EF021A731A7B42F008021A73A7
:1076800006F076FB6378012B01D108220BE06378CA
:10769000022B04D1E37803F07F0306330AE063781A
:1076A000032B03D10522714B1A7005E06378DBB21E
:1076B000042B01D16D4A13706D4B1A78C2B1092A9F
:1076C0000CBF0A2201221A706A4A127842B96A4A29
:1076D00012782AB929682A686848A25CD2B2425452
:1076E0002A680021A1542A6801322A60644A117074
:1076F0001B78002B40F073815D4A2B600321614BA6
:1077000011701A7D1A7D5F4E5206FBD5012006F0DE
:107710002FFB337B5A4A43F038033373002304E1D1
:10772000012851D1584A594B107000214A4A19601A
:1077300053780133DBB253705378642B03D90220A2
:10774000517005F083F94F4B1A7D197D4D4A4D0656
:10775000FBD5434B01204E4D187000232B602B6846
:10776000464CE35CDBB21370137B03F0EF0313733F
:10777000137B43F00803137306F0FAFA6378012BC6
:10778000234601D108210BE06278022A04D1E27875
:1077900002F07F0206320AE06278032A03D1052153
:1077A0003C4A117005E06278D2B2042A01D139490D
:1077B0000A70394900220A7029685A542B68062237
:1077C00001332B602A4B09E1022840F0B280334B91
:1077D00001221A70324B204A00211960937801333C
:1077E000DBB293709378642B03D90320917005F07A
:1077F0002DF92C4B1A7D197D2A4A4C06FBD52A4BB4
:1078000002202A4D187000232B602B68284CE35C63
:10781000DBB21370137B03F0EF031373137B43F09E
:107820000803137306F0A4FA6378012B01D1082230
:107830000BE06378022B04D1E37803F07F03063377
:107840003EE06378032B37D105221A4B1A7039E0DA
:107850005F640010DC0E00102F0D001000C000400F
:107860007800001088000010D100001010570010A0
:1078700004570010510E0010580E0010A20E0010F8
:107880000000001000C0094001570010240800103B
:1078900084000010320C001001000010D000001015
:1078A0002870001000000140790000107C000010DA
:1078B00010100010736600106378DBB2042B01D146
:1078C000474A1370474A13781146C3B1092B0CBFBE
:1078D0000A2301231370444B1B7843B9434B1B7895
:1078E0002BB92A682B684248E35CDBB283542B68CF
:1078F0000022E2542B6801332B603E4B1A700B7848
:10790000002B6CD1374A2B6003213B4B11701A7D41
:107910001A7D394E5006FBD5022006F029FA337B3A
:10792000344A43F038033373002313702A68A35496
:1079300070BD032853D1314B01221A70304B314AAC
:1079400000211960D3780133DBB2D370D378642B74
:1079500003D90420D17005F079F8274B1A7D197DE1
:10796000254A4906FBD5284B0321284D19700023D1
:107970002B602B681E4C0220E35CDBB21370137B80
:1079800003F0EF031373137B43F00803137306F044
:10799000EFF96378012B234601D108210BE06278CF
:1079A000022A04D1E27802F07F0206320AE062780D
:1079B000032A03D10521164A117005E06278D2B27C
:1079C000042A01D112490A70124900220A7029685A
:1079D0005A542B68062201332B60024B1A7070BD7B
:1079E000736600104D11001010600010310C001073
:1079F000700E00100200001000800940541C00109E
:107A0000046000102F0D001079000010800000109D
:107A1000065500100300001010B50023914204D851
:107A2000445C0131634089B2F8E7184610BD00009C
:107A30002DE9F0439B4C85B023782646072B28D1AF
:107A4000994B1B78072B40F0908205F0B3FD974BC4
:107A50001B782BB12378092B02D00823237084E2F2
:107A6000934A9449137823B90B7853B101231370C7
:107A700007E0002313700020C8540133322BFAD1E1
:107A8000F2E78D4B002018708C4BFE221A7030707C
:107A900040E2052B5ED1844B1B7803F0FD03052BE0
:107AA00004D0874B1B789C0740F15F82824C23787F
:107AB000EBB9844B1A7852B9834A117839B11178ED
:107AC000042904D813780133DBB213700FE01A785D
:107AD00002F0FF012AB97C4A1078042801D91170FC
:107AE00005E01B78012B02D1022005F017F823785E
:107AF0007649DBB2CB5C704A13B11378FA2B13D101
:107B000005F024FE00232370072333706D4B1B7890
:107B1000002B40F02A826C4A1378002B40F025821B
:107B200013780133DBB2A3E01378DBB2CB5C684996
:107B3000DBB20B7013780133DBB21370604A137839
:107B400043F0010313700878012105B0BDE8F0434C
:107B5000FEF772BB022B40F09F815E4B1B68642BCB
:107B600040F203825C4B5D4A19680120914296BF46
:107B70001A68002201321A60554F0523237006F05F
:107B80002BF9012006F008F93B78554A013BD35CFC
:107B9000092B29D839780139535C0133DBB25354AE
:107BA0003B78013BD35C092B1ED93B784D4C013B04
:107BB000E35C98070DD44C48397890F8282090F869
:107BC000243090F82000009001200190022005F060
:107BD000CDFF01223978022003F074FB3B78013B92
:107BE000E25C42F00202E2543B78404C38492344C4
:107BF00013F8013C4BB30B78013BE25C0132E254D9
:107C00000B78234413F8013C052B1ED9384B334A1B
:107C100019680620914297BF1A681B6801321A60E2
:107C20003978012203F04EFB00223B783221013BE0
:107C300001FB03232F4801320021322AC154F4D121
:107C4000234B1B781C4404F8011C194B1B78002B98
:107C500000F08B81284A13781546052B0AD9052395
:107C60002649337000230B601370254A1370254A90
:107C700013707AE13B78244A013B32F81330D9077C
:107C800000F193801F4B1A78984622B11C4B1B7849
:107C9000DBB288F8003098F800300649B3BB022404
:107CA00049E000BF045700104D1100102060001083
:107CB000C7640010081C0010266E0010D1000010D0
:107CC0001A600010510E0010580E00104E110010D6
:107CD0002001001058620010FC560010FEFFFF004B
:107CE000380D0010160F001000400240340C001038
:107CF0006C6600105A1C00103D0E00107C00001035
:107D0000440E0010065700107E6600100022144634
:107D100098F80030D0B298420BD22346085D204438
:107D2000834203F1010301DADBB2F7E7DCB201328F
:107D3000EEE70234E4B23A788D4FA31ED2B2DBB242
:107D40003A704FF0010EC85C5FFA8EF2184484421C
:107D5000DFF82C920BDC312C71D819F80420013497
:107D6000D2B207F80E20E4B20EF1010EEBE7312C8F
:107D700065D8961E033AD2B27D480021FFF74CFE2B
:107D8000B85598F800307B4ADBB2137098F8003091
:107D900001340133DBB288F8003019F8043013B92C
:107DA000754B0A221A7000206FE0744B1B78013B60
:107DB00032F81330DB0740F1D8806F4B1A789846C1
:107DC00022B16C4B1B78DBB288F8003098F8003099
:107DD0006B490BB9022414E00022144698F80030D5
:107DE000D0B298420BD22346085D2044834203F16F
:107DF000010301DADBB2F7E7DCB20132EEE702346D
:107E0000E4B23A785F4FA31ED2B2DBB23A704FF0C1
:107E1000010EC85C5FFA8EF218448442DFF860916C
:107E20000BDC312C0BD819F804200134D2B207F83E
:107E30000E20E4B20EF1010EEBE7312C0AD9052336
:107E4000514A3370002313604A4A2B70137088F82C
:107E500000308AE0961E033AD2B24A480021FFF76A
:107E6000DBFDB85598F80030424ADBB2137098F841
:107E7000003001340133DBB288F8003019F80430E7
:107E800013B93D4B0A221A700120FFF7CBFB2B7868
:107E90000133DBB22B7068E0032B2ED13B4B1B6808
:107EA000642B62D93A4B00221A703A4B1B78CBB143
:107EB000394C217811F001010BD1384890F8282075
:107EC00090F8243090F8200000900120019005F0F7
:107ED0004DFE01200146024603F0F4F9237843F0F9
:107EE0000103237005230120337005F075FF012085
:107EF00005B0BDE8F04305F04FBF042B0FD1234B75
:107F00001B68642B31D9012005F066FF012005F0C4
:107F100043FF012005B0BDE8F043FFF783BB082B0A
:107F200023D1092323701E4B1B78012B08D11D4A36
:107F3000002011781C4A127800900190029007E00E
:107F4000022B07D1194A0021127800910191029168
:107F5000184607E0FC2B08D1194600220092019236
:107F6000029201200423FEF763F805B0BDE8F08318
:107F7000D1000010440E0010065700102001001020
:107F8000081C0010A20E001088000010586200109B
:107F9000510E00104E110010160F0010004002404C
:107FA00020600010E87600104C11001038710010AD
:107FB0002DE9F0439C4C85B023782646072B9B4A3D
:107FC0002BD11178032928D105F000FB984B1B78A1
:107FD0002BB12378092B02D0082323708FE2954A16
:107FE0009549137823B90B7853B10123137007E037
:107FF000002313700020C8540133322BFAD1F2E76A
:108000008E4A002313708E4AFE21022011703370B5
:1080100005B0BDE8F043FFF705BB1278052A05D08F
:1080200088490978CC0701D4072A55D1052B53D1AB
:10803000824C2378EBB9844B1A7852B9834A117871
:1080400039B11178042904D813780133DBB21370E5
:108050000FE01A7802F0FF012AB97C4A1078042850
:1080600001D9117005E01B78012B02D1042004F026
:1080700055FD23787649DBB2CB5C704A13B1137897
:10808000FA2B13D105F068FC00232370072333700B
:108090006D4B1B78002B40F032826C4A1378002B1A
:1080A00040F02D8213780133DBB2A4E01378DBB209
:1080B000CB5C6849DBB20B7013780133DBB2137011
:1080C000604A137843F0020313700878022105B068
:1080D000BDE8F043FEF7B0B8022B40F09F815E4B45
:1080E0001B68642B40F20B825C4B5D4A1968514D52
:1080F000914296BF1A68002201321A602B780BB9A0
:10810000052333700220534F05F066FE022005F070
:1081100043FE3B78534A013BD35C092B28D839787E
:108120000139535C0133DBB253543B78013BD35CE0
:10813000092B1DD93B784C4C013BE35C98070CD4D0
:108140004A48397890F8282090F8243090F8200098
:1081500000900220019005F009FD022002463978C6
:1081600003F0B0F83B78013BE25C42F00202E254DB
:108170003B783F4C3749234413F8013C4BB30B7811
:10818000013BE25C0132E2540B78234413F8013CDA
:10819000052B1ED9374B324A19680620914297BFEA
:1081A0001A681B6801321A603978022203F08AF8D3
:1081B00000223B783221013B01FB03232E48013290
:1081C0000021322AC154F4D1224B1B781C4404F8FC
:1081D000011C2B78002B00F09281284A1378154659
:1081E000052B0AD905232649337000230B60137031
:1081F000244A1370244A137081E13B78234A013BDF
:1082000032F81330D90700F192801F4B1A78984644
:1082100022B11C4B1B78DBB288F8003098F8003094
:108220000549ABBB022448E04D1100100457001073
:108230000A07001003010010CF1B0010561C00108D
:10824000101000101A60001010600010310C0010A7
:108250005D61001002600010FC060010FC5600106A
:10826000FEFFFF00646300102D5700100040024025
:10827000686200106C66001000C00720FA5F0010F2
:108280007C000010D41A00101C0800101E0A0010F8
:108290000022144698F80030D0B298420BD2234600
:1082A000085D2044834203F1010301DADBB2F7E702
:1082B000DCB20132EEE70234E4B23A78914FA31E09
:1082C000D2B2DBB23A704FF0010EC85C5FFA8EF2A8
:1082D00018448442DFF83C920BDC312C71D819F839
:1082E00004200134D2B207F80E20E4B20EF1010EE0
:1082F000EBE7312C65D8961E033AD2B281480021B3
:10830000FFF78AFBB85598F800307F4ADBB213704C
:1083100098F8003001340133DBB288F8003019F8E6
:10832000043013B9794B0A221A7002206FE0784B9F
:108330001B78013B32F81330DB0740F1E080734BD0
:108340001A78984622B1704B1B78DBB288F800305F
:1083500098F800306F490BB9022414E0002214464B
:1083600098F80030D0B298420BD22346085D2044E2
:10837000834203F1010301DADBB2F7E7DCB2013239
:10838000EEE70234E4B23A78634FA31ED2B2DBB216
:108390003A704FF0010EC85C5FFA8EF218448442C6
:1083A000DFF870910BDC312C0BD819F80420013464
:1083B000D2B207F80E20E4B20EF1010EEBE7312C39
:1083C0000AD90523554A3370002313604E4A2B7097
:1083D000137088F8003092E0961E033AD2B24E48ED
:1083E0000021FFF719FBB85598F80030464ADBB278
:1083F000137098F8003001340133DBB288F8003094
:1084000019F8043013B9414B0A221A700320FFF700
:1084100009F92B780133DBB22B7070E0032B2FD1DD
:108420003F4B1B68642B6AD93E4B00221A703E4BAF
:108430001B78D3B13D4C217811F001010CD13C489F
:1084400090F8282090F8243090F820000090022026
:108450000190012005F08AFB01200146022202F072
:1084600031FF237843F0010323700523022033708A
:1084700005F0B2FC022005B0BDE8F04305F08CBC6D
:10848000042B14D1264B1B68642B38D9022005F02D
:10849000A3FC022005F080FC0320FFF7C3F8254A67
:1084A00013780133DBB2642B88BF0023A3E6082BCB
:1084B00025D109233370204B1B78012B09D11F4A8A
:1084C000002011781E4A127800900190022002903C
:1084D00007E0022B07D11B4A00211278009101917D
:1084E0000293184608E0FC2B09D10221029119469B
:1084F00000220092019201200423FDF799FD05B0AE
:10850000BDE8F08310100010D41A00101C080010F1
:1085100002600010CF1B0010700E00107C000010D5
:10852000FC060010106000105D6100102D57001057
:10853000004002402E7000100A07001004070010CF
:10854000F80600100E0700102DE9F041424C0123FF
:108550002278424E9A423370DFF82881404F01D092
:108560000A2A72D188F80030012000233B6005F010
:1085700033FC012005F010FC3A483B4D0378DFF84E
:10858000FCE04BB9394B1B7833B92A682B68384962
:108590001EF80330DBB28B54002131702B68324A55
:1085A0001EF803E0334B5FFA8EFE83F800E0D5F847
:1085B00000E0314D314E2D78013DAE4532D188F885
:1085C000001039601D7B05F0EF051D731D7B45F024
:1085D00008051D731368F154237811600A2B1E4A95
:1085E00012D027490B7803F0FE030B7003782BB9E8
:1085F0001E4B1B7813B90423137001E00223237070
:10860000012005F0B5FB01E009231370194B1A7D19
:10861000197D184A4906FBD5137B43F038031373C1
:10862000BDE8F081187B40F010001873187B40F013
:10863000080018731368F15413680133136013684A
:10864000322B06D11160BDE8F081002388F800309C
:108650003B60BDE8F08100BF04570010000000102F
:10866000DC0E0010510E001088000010580E001093
:10867000A20E001000C0004010570010D1000010E2
:108680001A6000105F6400102DE9F047B34B9A6840
:108690001946C2F34202032A40F0CC811E7DF6B295
:1086A00016F09E0F00F0AF8116F0840F00F0A88145
:1086B000AB4DAC4C2A681B78DBB2A3542B68E35C4F
:1086C000FF2B40F09081A84B1B78002B40F08B8152
:1086D0000120A64F05F080FB012005F05DFBA44AB8
:1086E0003B789046134413F8019CB9F1000F02D176
:1086F0002B68022B06D89F4B05221A7000232B6093
:10870000BDE8F0872B682046013B14F803A02A68D7
:108710004946023AD2B2FFF77FF95FFA8AFA8245F8
:1087200006D1296820464A46FDF7F6FD002333E0CE
:10873000914A3B789146134413F8013C002BF5D045
:108740003B78013BD25C013209F803203B784B4473
:1087500013F8013C052BE9D9884B894A1968062092
:10876000914297BF1A681B6801321A60397801225A
:1087700002F0A8FD00223B783221013B01FB0323DC
:10878000804801320021322AC154F4D1774B1B7842
:10879000994409F8011CC9E72A68591CDBB29342C5
:1087A00003D80022E2540B46F6E7724B1A7899463A
:1087B0000A2A00F071816A4B00221A603B786E4AE7
:1087C0006A49134413F8013C9246002B53D00A78AF
:1087D0003220013A42436B4CA35C002B00F08D80A9
:1087E0000B78013B00FB03435B78002B00F0858096
:1087F0000B78984418F8013C002B40F04D813A78F2
:10880000D8B2591C013A32235A43A25C82420CD995
:10881000564ADFF870E11278013A03FB02E30344A1
:108820005A78594B1A540B46E9E7302861D9534B13
:10883000534A19680620914297BF1A681B68013293
:108840001A603978012202F03DFD00223B78322186
:10885000013B01FB032301320021322AE154F5D10F
:10886000424B1B7829609A440AF8011C052389F8B9
:108870000030BDE8F087454ADFF81C811278002AF5
:1088800000F0A58098F800200A2A00F0A08098F84F
:1088900000203F49002A4BD102243A783A4FA31EC8
:1088A000BA46D2B2DBB23A70012011F803E0C2B28C
:1088B0009E447445364F73DD312C7BD8A2F10209FA
:1088C000033AD2B230480021FFF7A6F80AF80900AF
:1088D00098F800302F4ADBB2137098F8003001345A
:1088E0000133DBB288F800303B5D13B92A4B0A2212
:1088F0001A700020FEF796FE78E0052389F8003014
:1089000000232B6039784A1E322101FB02310133EA
:108910000022322B6254F5D1144B1B789A441F4B22
:108920000AF8012C1A701B4B1A701B4B1A705DE071
:108930001C4698F80020D8B290420BD22246085D1F
:108940002044824202F1010201DAD2B2F7E7D4B246
:108950000133EEE70234E4B29FE700BF00C00040FD
:10896000880000105C7700107800001020010010D3
:108970002808001004570010340C00106C6600101A
:10898000FEFFFF005A1C0010D1000010C764001049
:10899000081C0010440E0010065700103D0E001079
:1089A000312C07D83A5D0134D2B20AF80020E4B283
:1089B00001307AE70523394A89F8003000232B601B
:1089C0001370374A137088F80030BDE8F08705232C
:1089D000324A89F8003000232B601370304A13703C
:1089E00088F8003002E02B6801332B602B68322BB3
:1089F00002BF2C4B00221A602B4B1E60BDE8F08793
:108A0000294A166034E0F20746D5284A127802F067
:108A1000FF01002A40D1234A254C10681B78DBB2A5
:108A200023541368013313601368322B34D111605F
:108A3000BDE8F087022A14D11C4A127802F0FF0028
:108A40004ABB184A1A4C11681B78DBB2635413688E
:108A500001331360174B1B68322B1DD11060BDE82A
:108A6000F087062A07D110490A6842F480720A602A
:108A70001B78BDE8F087012A0DD11B7D03F0200390
:108A800003F0FF021BB1BDE8F047FFF75DBD0A4BE5
:108A90001A70BDE8F0870B78BDE8F0873D0E001036
:108AA000440E001088000010F877001078000010C5
:108AB0005C77001084000010000000102DE9F041E8
:108AC000434C01232278434E9A423370DFF82C81C5
:108AD000414F01D00A2A74D188F8003002200023C7
:108AE0003B6005F079F9022005F056F93B483C4D12
:108AF0000378DFF800E14BB93A4B1B7833B92A68A9
:108B00002B6839491EF80330DBB28B5400213170D9
:108B10002B68334A1EF803E0344B5FFA8EFE83F86D
:108B200000E0D5F800E0324D324E2D78013DAE45E3
:108B300034D188F8001039601D7B05F0EF051D73F6
:108B40001D7B45F008051D731368F15423781160EF
:108B50000A2B1F4A12D028490B7803F0FD030B7033
:108B600003782BB91F4B1B7813B90423137001E052
:108B700002232370022005F0FBF801E009231370A3
:108B80001A4B1A7D197D194A4906FBD5137B43F010
:108B90003803137307235360BDE8F081187B40F05E
:108BA00010001873187B40F0080018731368F15414
:108BB0001368013313601368322B06D11160BDE8CE
:108BC000F081002388F800303B60BDE8F08100BFF1
:108BD0004D110010020000102870001010600010ED
:108BE0007C000010310C0010700E001000000140DD
:108BF00073660010101000101A600010D0000010F2
:108C00002DE9F047B54B9A681946C2F34202032A90
:108C100040F0CE811D7DEDB215F09E0100F0B381D4
:108C200015F0840F00F0AC81AD4E31681A78AD4B71
:108C3000D2B25A54326899469A5CFF2A40F0938126
:108C4000A94B93F800805FFA88F8B8F1020F40F062
:108C50008A814046A54F05F0BFF8404605F09CF8D4
:108C6000A34C3B78234413F8011C11B93368022B41
:108C700006D8A04B05221A7000233360BDE8F087A8
:108C800033684846013B19F803A032685FFA8AFA54
:108C9000023AD2B2FEF7C0FE824506D1316848469C
:108CA0004246FDF739FB002333E0934A3B78904678
:108CB000134413F8013C002BF5D03B78013BD25C08
:108CC000013208F803203B78434413F8013C052B9C
:108CD000E9D98A4B8A4A19680620914297BF1A68D7
:108CE0001B6801321A603978022202F0EBFA002286
:108CF0003B783221013B01FB0323824801320021F2
:108D0000322AC154F4D1794B1B78984408F8011CDD
:108D1000C9E73268591CDBB2934204D2002209F839
:108D200003200B46F5E7734B1A7898460A2A00F0A1
:108D300070816B4B00221A606F493B786B4A0B4481
:108D400013F8013C8946002B56D0117832200139A6
:108D50004143DFF8B0A11AF80130002B00F08E80FB
:108D60001378013B00FB03A35B78002B00F08680A7
:108D700013781C4414F8013C002B40F04A813A78E7
:108D8000D8B2591C013A32235A431AF802208242BF
:108D90000BD9564A5B4C1278013A03FB0243034459
:108DA0005A78594B1A540B46E9E7302862D9534B8D
:108DB000534A19680620914297BF1A681B6801320E
:108DC0001A603978022202F07DFA00223B783221C3
:108DD000013B01FB032301320021322A0AF8031070
:108DE000F4D1424B1B783160994409F8011C0523EA
:108DF00088F80030BDE8F087444ADFF81C9112780B
:108E0000002A00F0A48099F800200A2A00F09F8030
:108E100099F800203E49002A4BD102243A783A4F73
:108E2000A31EBA46D2B2DBB23A70012011F803E0B9
:108E3000C2B29E447445364F72DD312C7AD8A2F10D
:108E40000208033AD2B230480021FEF7E5FD0AF8E5
:108E5000080099F800302F4ADBB2137099F80030FF
:108E600001340133DBB289F800303B5D13B92A4B82
:108E70000A221A700220FEF7D5FB77E039784A1EE5
:108E8000322101FB023101330022322B0AF801208A
:108E9000F4D1052388F80030144B32601B789944D4
:108EA0001E4B09F8012C1A701A4B1A701A4B1A70C3
:108EB0005CE01C4699F80020D8B290420BD22246C2
:108EC000085D2044824202F1010201DAD2B2F7E7E2
:108ED000D4B20133EEE70234E4B29FE70000014070
:108EE0007C000010C67700107900001002600010AE
:108EF000367000104D110010686200106C66001092
:108F0000FEFFFF0000C0072010100010030100103A
:108F1000CF1B0010D41A00101C080010FA5F0010BC
:108F2000312C07D83A5D0134D2B20AF80020E4B2FD
:108F300001307BE70523384A88F80030002333608E
:108F40001370364A137089F80030BDE8F0870523A6
:108F5000314A88F800300023336013702F4A1370B1
:108F600089F8003002E03368013333603368322B14
:108F700002BF2B4B00221A602A4B1D60BDE8F08710
:108F8000284A156031E0EA0743D5274A1278022AB9
:108F90003FD1234A254C10681B78DBB22354136859
:108FA000013313601368322B33D11160BDE8F087B1
:108FB000022A13D11C4A1278022A29D1184A1B48C6
:108FC00011681B78DBB243541368013313601368D4
:108FD000322B1ED100231360BDE8F087062A07D18B
:108FE00010490A6842F480720A601B78BDE8F08775
:108FF000012A0DD11B7D03F0200303F0FF021BB1FA
:10900000BDE8F047FFF75ABD094B1A70BDE8F0877D
:109010000B78BDE8F08700BFFA5F0010D41A00108B
:109020007C0000105477001079000010C677001003
:10903000020000102DE9F843DFF8CC80DFF8CC9077
:1090400098F80020294F2A4E01230025062A89F886
:1090500000303B70356047D1022004F0BDFE022095
:1090600004F09AFE234B244A1968244C515CC9B27F
:109070002170234989F8005018680978013988421D
:1090800023D120483D703560017801F0FD01017069
:10909000217B022001F0EF012173217B41F00801C7
:1090A0002173196888F8000055541D6004F060FEB3
:1090B000237D124B1A7D5206FBD51A7B42F03802F3
:1090C0001A7307225A60BDE8F883217B41F0100132
:1090D0002173217B41F008012173196855541A68E6
:1090E00001321A60BDE8F883BDE8F883541C001013
:1090F0000460001080000010700E00100080094015
:10910000065500101A6000104D11001003000010E9
:109110002DE9F04F9B4B85B09A681946C2F3420285
:10912000032A40F005821D7DEDB215F09E0100F08E
:10913000EB8115F0840F00F0E481934E934C32687C
:109140001B78DBB2A3543368E35CFE2B3CD1904B1D
:109150001F78FFB2022F37D1384604F03DFE384663
:1091600004F01AFE8B4B01228B4C1A702378D9071E
:109170000CD58A49612091F8282091F8243091F883
:1091800020108DE88200002104F0F0FC23780022FA
:1091900003F0FE0323704FF4FA715143804801320B
:1091A000435A042A23F002034FEA03434FEA1343CE
:1091B0004352F0D17B4A00231370724A0721117287
:1091C00033600522784BDFE13368DFF8BCA1E35C54
:1091D000DFF8B8B1FF2B40F084816D4B93F800901D
:1091E0005FFA89F9B9F1030F40F07B8102206F4FDC
:1091F00004F0F2FD022004F0CFFD6D4A3B7890466A
:10920000134413F8011C19B9DAF80030022B05D801
:10921000654B05221A7000233360B8E1DAF800309C
:109220005846013B1BF80330DAF80020DBB2023A63
:10923000D2B20393FEF7F0FB039B834207D1DAF827
:10924000001058464A46FDF767F8002333E0594AB4
:109250003B789146134413F8013C002BF5D03B7842
:10926000013BD25C013209F803203B784B4413F8F0
:10927000013C052BE9D9504B504A19680620914210
:1092800097BF1A681B6801321A603978022202F00F
:1092900019F800223B783221013B01FB03234848A7
:1092A00001320021322AC154F4D1404B1B78994439
:1092B00009F8011CC9E73268591CDBB2934203D29A
:1092C0000022E2540B46F6E73A4A3B78374913440A
:1092D00013F8013C9146002B76D00A783220013AEF
:1092E0004243374CA35C002B00F0AF800B78013B6E
:1092F00000FB03435B78002B00F0A7800B789844B9
:1093000018F8013C002B40F042813A78D8B2591C41
:10931000013A32235A43A25C82420CD9234ADFF835
:10932000A0E01278013A03FB02E303445A78254B8C
:109330001A540B46E9E7302840F283801E4B1F4A3F
:1093400019680620914297BF1A681B6801321A609B
:109350003978022201F0B6FF00223B783221013B2E
:1093600001FB032301320021322AE154F5D10F4BD6
:1093700005221B78316099440B4B09F8011C1A70C7
:1093800005E100BF008009408000001094770010C4
:1093900079000010106000102D57001000400240AE
:1093A000FE120010310C00104D1100100260001070
:1093B00036700010686200106C660010FEFFFF003F
:1093C00000C00720700E0010724ADFF8D8811278B2
:1093D000002A7AD098F800200A2A76D098F800203F
:1093E0006D49002A45D102243A786C4FA31ED2B2AF
:1093F000DBB23A70012011F803E0C2B29E4474451A
:10940000DFF894914ADD312C52D8A2F1020A033AD6
:10941000D2B262480021FEF7FFFA07F80A0098F876
:1094200000305F4ADBB2137098F80030013401332A
:10943000DBB288F8003019F8043013B9594B0A220E
:109440001A700320FEF7EEF852E03A783221013A22
:1094500001FB023201330021322BA154F5D1524BD2
:1094600005221A70514B31601B78994409F8011C90
:109470003EE01C4698F80020D8B290420BD222461B
:10948000085D2044824202F1010201DAD2B2F7E71C
:10949000D4B20133EEE70234E4B2A5E7312C07D8A9
:1094A00019F804200134D2B23A54E4B20130A2E7F0
:1094B0003D4B05221A703E4A002313603D4A13704B
:1094C000374A137088F8003061E0374B05221A7074
:1094D000384A00231370324A137088F80030336022
:1094E00006E03368344AE35C13B113680133136058
:1094F0003368322B02BF304B00221A602F4B1D60A5
:1095000045E02E4A15602FE0EA0740D52C4A127834
:10951000032A3CD1284A2B4C10681B78DBB2235419
:109520001368013313601368322B30D111602EE0C1
:10953000022A12D1224A1278032A27D11E4A214830
:1095400011681B78DBB2435413680133136013684E
:10955000322B1CD10023136019E0062A06D11749CB
:109560000A6842F480720A601B7810E0012A0DD16B
:109570001B7D03F0200303F0FF0223B105B0BDE81B
:10958000F04FFFF757BD104B1A7000E00B7805B095
:10959000BDE8F08F03010010CF1B0010700E00100B
:1095A000D41A00101C0800104D11001002600010A9
:1095B0007C000010FA5F0010800000105877001047
:1095C0007900001094770010030000102DE9F04797
:1095D000DFF8D090DFF8D0A099F80030DFF8CC8029
:1095E0002A4F01260025062B8AF8006088F80060C3
:1095F0003D6049D1304604F0EFFB304604F0CCFB2F
:10960000234B244A1968244C515CC9B22170234968
:109610008AF80050186809780139884225D1204815
:1096200088F800503D60017801F0FE010170217B57
:10963000304601F0EF012173217B41F008012173D5
:10964000196855541D60022389F8003004F090FB1E
:10965000237D114B1A7D5206FBD51A7B42F038024E
:109660001A7307225A60BDE8F087217B41F0100190
:109670002173217B41F008012173196855541A6840
:1096800001321A60BDE8F087BDE8F08724080010B9
:1096900084000010A20E001000C00940320C00101F
:1096A0001A6000100457001001000010015700104C
:1096B0002DE9F04F9E4B85B09A681946C2F34202DD
:1096C000032A40F01C821F7DFFB217F09E0100F0BC
:1096D000028217F0840F00F0FB81964E964C3268A0
:1096E0001B78DBB2A3543368E35CFE2B934B3CD175
:1096F0001A7802F0FF08002A37D1012004F06CFB31
:10970000012004F049FB8E4B01258E4C1D702378FF
:10971000D9070CD58C4890F8282090F8243090F880
:10972000201061208DE82200414604F01FFA2378C2
:10973000002203F0FE0323704FF4FA715143834873
:109740000132435A042A23F002034FEA03434FEA4B
:1097500013434352F0D17E4A00231370744A072109
:109760001172336005227B4BF5E13268DFF8C4A14A
:10977000A25CDFF8C4B1FF2A40F0978193F8008023
:109780005FFA88F8B8F1010F40F08F814046724DC2
:1097900004F022FB404604F0FFFA704A2B78914611
:1097A000134413F8011C19B9DAF80030022B04D85D
:1097B000684B05221A700023B7E0DAF800305846EB
:1097C000013B1BF80330DAF80020DBB2023AD2B2D8
:1097D0000393FEF721F9039B834207D1DAF80010C7
:1097E00058464246FCF798FD002333E05C4A2B784C
:1097F0009046134413F8013C002BF5D02B78013B25
:10980000D25C013208F803202B78434413F8013C62
:10981000052BE9D9534B544A19680620914297BF4A
:109820001A681B6801321A602978012201F04AFD8A
:1098300000222B783221013B01FB03234B480132EC
:109840000021322AC154F4D1434B1B78984408F8C4
:10985000011CC9E73268591CDBB2934203D20022D3
:10986000E2540B46F6E73E4A2B783B49134413F883
:10987000013C9046002B00F083800A783220013AA8
:1098800042433A4CA35C002B00F0BC800B78013BB8
:1098900000FB03435B78002B00F0B4800B78994405
:1098A00019F8013C002B40F059812A78D8B2591C94
:1098B000013A32235A43A25C82420CD9264ADFF88D
:1098C000ACE01278013A03FB02E303445A78284BD8
:1098D0001A540B46E9E7302840F29080214B224A87
:1098E00019680620914297BF1A681B6801321A60F6
:1098F0002978012201F0E6FC00212A78531E322249
:1099000002FB0312013100233229A354F5D1124A7C
:109910000521127890440F4A08F8013C1170154A4D
:109920001370154A1370154A1370336016E100BFA7
:1099300000C009408400001020770010780000105B
:10994000510E0010160F0010004002402858001061
:10995000580E0010045700102001001028080010B5
:10996000340C00106C660010FEFFFF005A1C001043
:10997000A20E00103D0E0010440E001006570010FD
:10998000784ADFF8F0811278002A00F0828098F897
:1099900000200A2A7DD098F800207349002A4CD173
:1099A00002242A78714DA31ED2B2DBB22A700120A4
:1099B00011F803E0C2B29E447445DFF8AC9151DD6A
:1099C000312C59D8A2F1020A033AD2B267480021D9
:1099D000FEF722F805F80A0098F80030644ADBB276
:1099E000137098F8003001340133DBB288F800308E
:1099F00019F8043013B95F4B0A221A700120FDF7E1
:109A000011FE5CE05C4B05221A700023336029785C
:109A10004A1E322101FB023101330022322B6254F3
:109A2000F5D1564B1B789844554B08F8012C1A7009
:109A30004F4B1A704F4B1A7041E01C4698F80020AB
:109A4000D8B290420BD22246085D2044824202F1F5
:109A5000010201DAD2B2F7E7D4B20133EEE7023401
:109A6000E4B29EE7312C07D819F804200134D2B2B1
:109A70002A54E4B201309BE73F4B05221A70414A59
:109A8000002313603E4A1370394A137088F800307F
:109A900064E0394B05221A70394A00233360137091
:109AA000334A137088F8003009E01B78012B06D187
:109AB0003368354AE35C13B11368013313603368CC
:109AC000322B02BF304B00221A60304B1F6045E042
:109AD0002E4A17602FE0FA0740D52D4A1278012A46
:109AE0003CD1294A2B4C10681B78DBB223541368F5
:109AF000013313601368322B30D111602EE0022A3B
:109B000012D1234A1278012A27D11F4A214811680D
:109B10001B78DBB243541368013313601368322B94
:109B20001CD10023136019E0062A06D117490A68E0
:109B300042F480720A601B7810E0012A0DD11B7D6F
:109B400003F0200303F0FF0223B105B0BDE8F04F9E
:109B5000FFF73CBD104B1A7000E00B7805B0BDE874
:109B6000F08F00BFC7640010081C0010A20E001088
:109B7000440E00100657001004570010200100107A
:109B80003D0E001088000010840000109077001037
:109B90007800001020770010010000100C4B032209
:109BA0009A6059680A4A0906FBD5916890605A681C
:109BB0001106FCD5064BFF229A60054B5A68120627
:109BC000FBD59A689A689A689868C0B2704700BFD7
:109BD000000002402DE9F3410024264625461E4B95
:109BE0004FF480329A61E0431B4F4FF48008C7F86E
:109BF0001C80C0B2FFF7D2FF0DF80400C7F8188030
:109C000010B90135EDB203E0FF2804BF0136F6B20A
:109C10000134062CE7D1062E01D0062D0ED10223E9
:109C20008DF8013046238DF8023038238DF803304B
:109C30002F238DF8043003238DF805302C238DF865
:109C4000003000231DF80310044A99540133062BF9
:109C5000F8D102B0BDE8F08100C00920F206001082
:109C600010B50824FF2000F0B1FAFF2803D1013C11
:109C700014F0FF04F6D110BD07B50A0E8DF80220CE
:109C80000A0C8DF803200A0A8DF804208DF80510BF
:109C900040F0400008219522FF238DF801008DF847
:109CA000062068460A468DF800308DF8073000F02F
:109CB000A1FA03B05DF804FB38B500F00BFA204BB5
:109CC0004FF48032DA61652400200146FFF7D4FFAB
:109CD000FFF7C6FF012808D0013CF5D1FF280CBFD3
:109CE0004FF0FF306FF0010038BD41F289340120A0
:109CF0000021FFF7C1FFFFF7B3FF012802D1013CAC
:109D0000F5D117E0B0B9FE2000F0DAF965250021A1
:109D10000D20FFF7B1FFFFF7A3FF0446FF2000F07F
:109D200055FA40EA042080B238B1013DEFD16FF01E
:109D3000010038BD6FF0020038BD002038BD00BF03
:109D400000C0092038B50E4B4FF400121D469A6131
:109D50000024DA61FFF7B0FF50B1062C0AD00134BD
:109D6000E4B2032C02BF4FF40013AB61EB61F1E7E7
:109D7000062C01D1002000E00120024B187038BDF4
:109D800020C00920D21A001038B51446154A0346DF
:109D900012780D46012A01D0002038BD5902182042
:109DA000FFF76AFFFFF75CFFFE2000F00FFA224684
:109DB0004FF40071284600F01DFAFF2000F006FA6B
:109DC000FF2000F003FAFF2000F000FAC924FF2072
:109DD00000F0FCF9FF28DFD0013CA4B2002CF6D142
:109DE000012038BDD21A0010F8B51646154A0346B0
:109DF00012780F46012A20D111205902FFF73CFFAB
:109E0000FFF72EFF04464FF48055FFF729FFFF2888
:109E100004D1013DADB2002DF7D110E07CB9FE2890
:109E20000DD138464FF40071324600F003FAFF209E
:109E300000F0CCF9FF2000F0C9F90020F8BD4FF088
:109E4000FF30F8BDD21A00102DE9F843D31D23F0DE
:109E5000070300AFADEB030D8046894615466E46FD
:109E6000002449462A464046FFF78EFFFFF76AFF67
:109E70002A4640463146FFF7B7FF00221346AB4261
:109E800007D219F80300F15C0133884218BF0122A0
:109E9000F5E772B10134E4B2032C0CD1FFF752FFA5
:109EA0000128DED0074A0020137843F0080313701E
:109EB00004E0012002E0062CD3D1F3E7BD46BDE863
:109EC000F88300BF0960001073B5FFF73BFF01285E
:109ED00004D0634E3388002B3AD045E00424614916
:109EE000FA22E620FFF780FF5D4904220020FFF7F9
:109EF0007BFF5D490422FA20FFF776FF5B490422CD
:109F00004FF48270FFF770FF5949FA224FF48770BF
:109F1000FFF76AFF574902224FF49670FFF764FF7C
:109F2000554901224FF49B70FFF75EFF69460722F7
:109F30004FF4A070FFF758FF68465049072205F01C
:109F400031FE0028C5D0013C14F0FF04C7D1C0E7A2
:109F5000708848B94AF6C0033146338004224FF472
:109F600048437380FFF770FF3F4D2B885BB96B88C8
:109F70004BB94FF6FF73FA202B802946FF230422AA
:109F80006B80FFF761FF394C23886BB963885BB93D
:109F90004AF6C0034FF48270238021464FF4807349
:109FA00004226380FFF750FF354B1A68127832B9EC
:109FB00034494FF48C7008221960FFF745FF324B8B
:109FC0001A68127832B92F494FF49170082219603B
:109FD000FFF73AFF27490B7873B94B7863B940F61E
:109FE000D6320B230B70D6234B70284B4FF4967050
:109FF0001A800222FFF728FF68462049072205F051
:10A00000D1FD28B14FF4A0701C490722FFF71CFFB7
:10A0100033881F4A012013701E4A1B0A137073886D
:10A020001D4A13701D4A1B0A13702B881C4A13709B
:10A030001C4A1B0A13706B881B4A13701B4A1B0AAD
:10A04000137023881A4A13701A4A1B0A1370638804
:10A05000194A1370194A1B0A137002B070BD00BF71
:10A0600030700010D51A0010340D0010680E00106A
:10A0700052100010011C00101B610010FBA5020013
:10A080006C0E0010900C0100185700102C6000108E
:10A090002C5700101C5700101B7700101B6000107D
:10A0A0005B61001029600010CF1A0010571C0010CF
:10A0B000AA640010CE1A00103A1C0010B4640010FC
:10A0C00000F0FE000728024B98BF0820D8607047B8
:10A0D00000000240394B10B5D3F8C420384C42F48C
:10A0E0008072C3F8C420D3F8A8214FF4803022F442
:10A0F0004032C3F8A821D3F8A82142F48032C3F833
:10A10000A821304B1A6842F48B021A601A6822F4B4
:10A1100000321A602C4A116821F040411160116828
:10A1200041F040411160516821F4405121F03F015C
:10A130005160516841F03C015160202121604FF491
:10A14000800198619961516821F0300151601A686D
:10A1500042F480221A604FF480229A61FE22E2606B
:10A16000D8616423164AFF219160506814490006A3
:10A17000FBD5013B13F0FF038A68F3D1114B4FF479
:10A1800080329A61FF238B600D4B5A681106FBD514
:10A190009A68FF229A605A681206FCD5084B9B68A1
:10A1A0001523074A013B13F0FF039268F9D1064AD1
:10A1B000536843F03003536010BD00BF00C00F4030
:10A1C0000000024000C0092000C00240074B4FF4CD
:10A1D0008032DA61064A906051680906FCD5044A6B
:10A1E00090684FF480329A61C0B2704700C0092075
:10A1F000000002400D4B30B508294FF48034DC617B
:10A2000018BF4FF4007100239342094CB4BFC55CE2
:10A210000025A56065682D06FCD501338B42F3D17E
:10A22000024B4FF480329A6130BD00BF00C009205C
:10A23000000002400C4B70B54FF48034DC61002309
:10A240008B420CDA094CFF25A5606668074D36067F
:10A25000FBD5AC689342B8BFC4540133F0E7024B5E
:10A260004FF480329A6170BD00C0092000000240A6
:10A27000C0F1FA7202F1FA03B3F5FA7F0E4B05D87A
:10A280001A7A002042F010021A7211E0FA2A4FF0F6
:10A29000FA71C8BFB1FBF2F01A7ADCBFA0F1FA7014
:10A2A000B1FBF0F002F0EF02D8BF40F400301A72B8
:10A2B000014B1864704700BF0040024010B5094CC4
:10A2C000022323720848FFF7D3FF237A03F0FD032C
:10A2D00023720023A38684F8283084F8243084F87D
:10A2E000203010BD0040024000008A02024B1A7A62
:10A2F00042F001021A727047004002402DE9F0411D
:10A30000044600F00F000D461F461646DDF8188083
:10A3100000F082F8C4F3021040F0100000F07CF866
:10A3200005F00F0040F0600000F076F8C5F3031070
:10A3300040F0700000F070F8E4B2F42000F06CF827
:10A34000204600F069F8EDB2F52000F065F82846E7
:10A3500000F062F8013CF62000F05EF8E019C0B2AF
:10A3600008FB07F700F058F8013DF72000F054F81B
:10A3700005EB0800C0B24FF0030800F04DF808FBF1
:10A3800007F700241CE016F8023C16F8035C16F8E8
:10A39000012C1B0243EA05431343C3F38525DA0C62
:10A3A0006D0145EAC225C3F3C4031D43AF2000F08D
:10A3B00033F8280A00F018F8E8B200F015F8033472
:10A3C0000336BC42DFDBBDE8F081002382B001939D
:10A3D00040F6B8335843019B834203DA019B0133B3
:10A3E0000193F8E702B0704700F0010300F00202A9
:10A3F0001B0143EA8203064A00F0FC009375054BFB
:10A400004FF420521875DA6100BF9A61704700BF9F
:10A4100000C0092040C0092000F0010300F0020242
:10A420001B0143EA8203064A00F0FC009375054BCA
:10A430004FF424521875DA6100BF9A61704700BF6B
:10A4400000C0092040C00920194B1A4A19690A4066
:10A450001A61DA69184922F44022DA611A6822F096
:10A46000C0021A60154B1A6842F4675242F03C026F
:10A470001A600A6842F000720A60114A106840F4DB
:10A48000C01010604FF4005098614FF480709861D4
:10A490004FF4006098614FF4805098614FF0007065
:10A4A00088613F21D9614FF4C013D361704700BF69
:10A4B00000C002400F003CF060C0092040C00920ED
:10A4C00000C009202DE9F0478146C0F3072A002685
:10A4D000351145F01005EDB20024F7B207F00F007A
:10A4E000FFF79AFF2846FFF797FF04F00F0040F0B0
:10A4F0006000FFF791FF201140F07000C0B2FFF73D
:10A500008BFFF420FFF788FF3846FFF785FF5FFADF
:10A5100084F8F520FFF780FF4046FFF77DFFF62027
:10A52000FFF77AFF07F10800C0B2FFF775FFF720C9
:10A53000FFF772FF08F11000C0B2FFF76DFFAF2008
:10A54000FFF76AFF5046FFF74FFF01345FFA89F0CB
:10A55000FFF74AFF802CC0D10136802EB8D1BDE86C
:10A56000F0870000F8B5284C284E4FF000754FF4E6
:10A570000057FFF769FFF7611420A561FFF725FF7A
:10A58000E5611420FFF721FFA561C820FFF71DFF3B
:10A59000B761E220FFF740FF6420FFF716FFEB20D2
:10A5A000FFF73AFF8120FFF737FF8820FFF734FFDE
:10A5B0002F20FFF731FF2420FFF72EFF2B20FFF77E
:10A5C0002BFFA320FFF728FF8420FFF725FF89201A
:10A5D000FFF722FFD120FFF71FFFD620FFF71CFF58
:10A5E000C820FFF719FF4220FFF716FFC020FFF732
:10A5F00013FFDE20FFF710FFAF20FFF70DFFBDE8D0
:10A60000F8400020FFF75EBF60C0092040C009206D
:10A6100037B5574C2378990734D540F29F357F21C1
:10A620000B46009500201A2200F0C4F800954FF662
:10A63000FF7508201B210222162300F00DF91D20B2
:10A64000302102221623009500F006F9022215237C
:10A6500000953220452100F0FFF8464A0023137090
:10A66000454A1370454A1370454A1360454A1370B2
:10A67000454A1370454A1370454A1370237823F0F6
:10A6800002032370434B444D1C88A4B2A4B12C7820
:10A6900034BB58200C2108224FF4784300F040F9D5
:10A6A0004FF4784300935420234606213B4A00F0A0
:10A6B00051FA01232B7013E02B78012B10D1582075
:10A6C0000C2108224FF4FC6300F02AF94FF4FC63DC
:10A6D000009354200621314A234600F03BFA2C70A7
:10A6E0002F4B304D1C88A4B2A4B12C7834BB6D2004
:10A6F0000C2108224FF4784300F012F94FF478430C
:10A7000000936A2023460621274A00F023FA0123FA
:10A710002B7013E02B78012B10D16D200C21082217
:10A720004FF4FC6300F0FCF84FF4FC6300936A20E4
:10A7300006211D4A234600F00DFA2C701B4B5A6966
:10A74000D20110D45B6913F080530FD10C4A116809
:10A75000B1F1806F1FBF09490B7015490B604FF0B5
:10A760008063136002E0064B00221A6003B030BD24
:10A77000380100100F600010446000100A600010E3
:10A7800018080010D31A0010D40E0010500E00103C
:10A7900002570010045500102D700010A9F601009A
:10A7A000FC5F001022090010ACF6010020C0092057
:10A7B000285700102DE9F0471646044600F00F0018
:10A7C0000D469846089F06F1010AFFF725FEC4F3DF
:10A7D00002105FFA8AF940F01000FFF71DFE09F041
:10A7E0000F0040F06000CAF3031AFFF715FE4AF0AD
:10A7F0007000FFF711FEF420FFF70EFEE0B2FFF746
:10A800000BFEF520FFF708FE4846FFF705FEF62091
:10A81000FFF702FEE8B2FFF7FFFD2D1BF720C6EBA6
:10A820000804FFF7F9FD01355FFA88F001346C4345
:10A83000FFF7F2FDC7F30725FFB209E0AF20FFF7EE
:10A84000EBFD2846FFF7D0FD3846FFF7CDFD013C74
:10A85000002CF3DCBDE8F0872DE9F341089E0546A6
:10A860000C461746984629460096FFF7A3FF204658
:10A8700021463A4643460096FFF79CFF284621466C
:10A880003A463B460096FFF795FF2846214642464A
:10A890004346089602B0BDE8F041FFF78BBFF8B51C
:10A8A0000D46044600F00F0017460135FFF7B4FDD2
:10A8B000C4F30210EEB240F01000FFF7ADFD06F059
:10A8C0000F0040F06000C5F30315FFF7A5FD45F04C
:10A8D0007000FFF7A1FDE4B2F420FFF79DFD2046D4
:10A8E000FFF79AFDF520FFF797FD3046FFF794FD3F
:10A8F000F620FFF791FD2046FFF78EFDF720FFF7CA
:10A900008BFD3046FFF788FDAF20FFF785FDC7F3CD
:10A910000720FFF769FDF8B2BDE8F840FFF764BD16
:10A920002DE9F04F064617466FF0010A85B00D4637
:10A930009846C2F10109CB190AFB02FA8A1A31467C
:10A94000CDF80080FFF736FFF01BF1192A462B46A1
:10A95000CDF800800124FFF72DFF3BE0B9F1000F97
:10A9600003DB0AF1020A013FD14404EB060CC4EBFD
:10A97000060BEA19584661461346CDF80CC0CDF8CF
:10A980000080FFF717FFDDF80CC0EA1B5846614650
:10A990001346C7EB060BCDF80080FFF70BFF06EB65
:10A9A000070C6219614613465846CDF80CC0CDF825
:10A9B0000080FFF7FFFEDDF80CC02A1B58466146F9
:10A9C0001346CDF80080FFF7F5FE09EB440909F1C5
:10A9D00001090134631EBB42C0DB05B0BDE8F08F46
:10A9E0002DE9F74F9F1A0E1A044638460D46914638
:10A9F0009A4605F08DF88046304605F089F8804586
:10AA0000B4BF4FF000084FF00108B8F1000F0DD0AF
:10AA100089EA04048AEA050589EA040985EA0A073D
:10AA20007D4089EA04042E1BC9EB0707002E03DAD8
:10AA300076424FF0FF3B01E04FF0010B002F03DAAD
:10AA40007F424FF0FF3A01E04FF0010A7F00A7EB91
:10AA50004603BE1B12E0B8F1000F02D02146484663
:10AA600001E0494620460C9A0193FFF718FF019B2D
:10AA7000002EC6BFF618D144F6195C44AC42EAD1A8
:10AA8000BDE8FE8F2DE9F74F044600F00F000E469B
:10AA9000994615460E9FDDF83480FFF7BDFCC4F3E0
:10AAA000021040F01000FFF7B7FC06F00F0040F076
:10AAB0006000FFF7B1FCC6F3031040F07000FFF731
:10AAC000ABFCF420FFF7A8FCE0B2FFF7A5FCF520F3
:10AAD000FFF7A2FCF0B2FFF79FFCF620FFF79CFC0B
:10AAE00004EB09000138C0B2FFF796FCF720FFF72E
:10AAF00093FC70190138C0B2FFF78EFCC8F307232E
:10AB00000093C7F3072B00245FFA87FA1EE00C9B23
:10AB100000261F5D5FFA88F3019314E0AF203B0627
:10AB200006D5FFF779FC0098FFF75EFC019805E079
:10AB3000FFF772FC5846FFF757FC5046FFF754FCEE
:10AB40007F00FFB201364E45E8DB0134AC42DEDB6C
:10AB5000BDE8FE8F2DE9F04F054685B010460F4643
:10AB60001646984604F0F9FF00248146DFF83CA021
:10AB70004FF00F0B12E0335D93B11AF803300A4A1D
:10AB800028460BFB03238DE808010E9B39460293F0
:10AB90000F220823FFF776FF083501344C45EADB26
:10ABA00005B0BDE8F08F00BF29A60200C9AB0200C6
:10ABB0002DE9F041284E294D33780746EA5C0C46D2
:10ABC0000AB9024619E0264931F81320C2F13202CF
:10ABD000A2423FDB2348322202FB03000022D5B20F
:10ABE000A54208D2BD5C855431F8135001320135BD
:10ABF00021F81350F3E7BDE8F081D01BC1B2A142A8
:10AC000008D22D2101FB030112F801EB164800F8D0
:10AC100001E0F2E739462246144803F0A5FA144B46
:10AC2000144A00271F60DFF85880A3B21380363320
:10AC3000A8F80030F7F70CFEB8F80000F6F7F6FDBC
:10AC4000F7F76AFB33780C4AD4540C4A42F8237065
:10AC50000122EA54BDE8F08100070010FE5F0010F9
:10AC60001201001053600010481200107201001011
:10AC7000480E0010F85F001074660010A00000106D
:10AC80000207001030B5144C25780DB1134B1B781A
:10AC90000A44934202DDB2F5A06F19DB217801F07E
:10ACA000FF02B9B91B1ADBB2D1B2994209D23B29D2
:10ACB0009FBF0B4909188C5C0A4998BF5454013254
:10ACC000F2E7094A1178094A1170044A137001E049
:10ACD000002030BD012030BD4C7900108D000010E7
:10ACE000344D00100C790010000700108E00001089
:10ACF00070B5184D2D232978174A4B430220D118DF
:10AD0000D05432234B70154B05241B788C70303394
:10AD1000DBB2CB702246032311480B7103F024FAF7
:10AD2000104B114E1C803B233380F7F791FD308888
:10AD3000F6F77CFDF7F7F0FA2B780C4A0021D45493
:10AD40000B4A42F823100B490122CA540A4B1A70CD
:10AD500070BD00BF0007001048120010D11A00108B
:10AD600072010010F85F00100207001074660010F6
:10AD7000A0000010FE5F00105C61001070B5174D60
:10AD80002D232978164A4B430220D118D054312361
:10AD900005224B708A70CB702E230B7138234B71B8
:10ADA000072203230F488B7103F0DEF90E4B0724B3
:10ADB0000E4E1C803D233380F7F74AFD3088F6F7AE
:10ADC00035FDF7F7A9FA2B78094A0021D454094A2E
:10ADD00042F82310084A0121D15470BD0007001029
:10ADE0004812001072010010F85F001002070010F6
:10ADF00074660010A0000010FE5F00102DE9F743FC
:10AE0000BD4BBE4F1B880024BD490622BD48BE4E27
:10AE10003B808DF804408DF805408DF8064003F026
:10AE2000A1F9BA48BA49042203F09CF93388002BEF
:10AE30004BD1B84C022284F83620392284F83720CE
:10AE400002A9052284F838208DF8063031228DF8C9
:10AE5000053001F8043DB04B84F839202C2284F8E9
:10AE60003A2018780A2203F0C5FE9DF804303BB959
:10AE700030238DF804308DF805308DF8063014E05D
:10AE80009DF805203AB98DF8063030238DF804304E
:10AE90008DF8053009E09DF8061031B98DF80530C0
:10AEA00030238DF806208DF804309DF8043084F8A6
:10AEB0003B309DF8053084F83C309DF8063084F82E
:10AEC0003D30052384F83E300924B6F800805FEA5F
:10AED000182340F093805FFA88F8B8F1F90F00F278
:10AEE0008780338823F0FF0348EA030333808B4BCA
:10AEF00013F8083003F0FF0923B9834B4FF4807235
:10AF00001A807BE0B4F56B7F4FF0000500F3988169
:10AF100002A901F8045D48460A228DF806508DF812
:10AF2000055003F067FE9DF804303BB930238DF8DF
:10AF300004308DF805308DF8063014E09DF80520BA
:10AF40003AB98DF8063030238DF804308DF805308D
:10AF500009E09DF8061031B98DF8053030238DF8E1
:10AF600006208DF804306E499DF804309DF80520C8
:10AF70006354631C9BB25A549DF80620A31C9BB2D9
:10AF80005A54E31C9BB24FF02C0E03F801E0654BC2
:10AF900009F1FF3033F81030221DC3F3420092B2A2
:10AFA00030305054621D92B2C3F3031302F801E033
:10AFB000A3F10B02A51D082AADB204F1080004F1AB
:10AFC00007020CD826334FF0310E92B205F801E09B
:10AFD00080B2535409340523A4B2435405E03033FE
:10AFE0006B5492B2052384B2535408F1010872E7FE
:10AFF000B8F1FA0F04BF4FF48073338035882B0A01
:10B00000012B40F01C8115F0FF0559D1B4F5697F83
:10B0100000F31681DFF80881052304F80830631C6B
:10B020009BB2322203F80820A31C9BB22C2203F807
:10B0300008203D4B02A9187801F8045D0A228DF81A
:10B0400006508DF8055003F0D5FD9DF8043004F14D
:10B0500003091FFA89F93BB930238DF804308DF8C4
:10B0600005308DF8063014E09DF805203AB98DF8CA
:10B07000063030238DF804308DF8053009E09DF856
:10B08000061031B98DF8053030238DF806208DF883
:10B0900004309DF804309DF8052008F80930231D80
:10B0A0009BB208F803209DF80610621DA31D92B202
:10B0B00008F802109BB207340522A4B208F8032056
:10B0C00096F80080B8F1F90F00F2AA80338823F0D7
:10B0D000FF0348EA03033380144B13F8083003F0EE
:10B0E000FF092BBB084B0E4AA3F800900321631CF9
:10B0F000A15401259CB297E03A0E0010581C001094
:10B10000307100104C10001026600010126000100A
:10B11000060700103C0100102C6E00104E110010AC
:10B12000720100102E6E00103F0E00105D610010C5
:10B13000B4F56B7F4FF0000580F2828002A901F820
:10B14000045D48460A228DF806508DF8055003F03C
:10B1500051FD9DF804303BB930238DF804308DF853
:10B1600005308DF8063014E09DF805203AB98DF8C9
:10B17000063030238DF804308DF8053009E09DF855
:10B18000061031B98DF8053030238DF806208DF882
:10B19000043041499DF804309DF805206354631C38
:10B1A0009BB25A549DF80620A31C9BB25A54E31C30
:10B1B0009BB24FF02C0E03F801E0384B09F1FF3041
:10B1C00033F81030221DC3F3420092B23030505495
:10B1D000621D92B2C3F3031302F801E0A3F10B0264
:10B1E000A51D082AADB204F1080004F107020CD82D
:10B1F00026334FF0310E92B205F801E080B253547D
:10B2000009340523A4B2435405E030336B5492B2A1
:10B21000052384B2535408F101085FFA88F851E716
:10B22000B8F1FA0F02D0002533884BB900231A4A2F
:10B2300033800321631CA15401259CB200E000254A
:10B24000174B184E1C8036343480F7F701FB3088DA
:10B25000F6F7ECFAF7F760F83088F6F7E7FAF7F761
:10B260005BF850231049062210483B8002F07AFF19
:10B2700004220F480F4902F075FF0F4B0F4A1B784D
:10B2800015B10021D15404E00221D1540C4A42F8F6
:10B29000235003B0BDE8F083720100100855001080
:10B2A000F85F001002070010461000104C1000104C
:10B2B00012600010EE06001000070010FE5F001084
:10B2C000A00000102DE9F04F0127B5B007FA00F3F8
:10B2D0000093BDF8003005460393009B8946DB438D
:10B2E00000249BB2B24EDFF8CC8201928DF8184058
:10B2F0008DF819408DF81A40029307AF33885FFA32
:10B3000084FB2BB973881BB9B388002B00F04181F3
:10B31000A84B33F8243023B9B8F80230002B00F0E2
:10B320003881019B012B40F0938009F1FF3AFA2309
:10B3300003FB04A3A04A32F81330009A9BB21342D5
:10B3400003D06B1E012B40F224819C4B48461A8887
:10B350009B4B06A91A8002233B7033237B70052385
:10B36000BB700A2203F046FC9DF818303BB930232D
:10B370008DF818308DF819308DF81A3014E09DF8DA
:10B3800019203AB98DF81A3030238DF818308DF81D
:10B39000193009E09DF81A1031B98DF819303023B1
:10B3A0008DF81A208DF81830082D01D0012D06D106
:10B3B00030238DF81A308DF819308DF818309DF83B
:10B3C00018303122FB709DF81930FA713B719DF8ED
:10B3D0001A3031467B710523BB713B7205F1300396
:10B3E0007B720323BB72774B0622774883F800B049
:10B3F000049302F0B7FE04227448414602F0B2FE04
:10B40000049BDFF8DCB11A781BF802204AB93846F1
:10B410000B210592FFF7CCFB049B059A1B780BF8D8
:10B42000032038460B21FFF7C3FB654B50221A80DF
:10B4300067490622644802F095FE04226348654984
:10B4400002F090FE6B1E012B5B4A4FF0FA0393E073
:10B45000019B022B40F09D8009F1FF3AFA2303FB88
:10B4600004A35D4A32F81330009A9BB2134240F0B5
:10B470009080524B48461A88514B06A91A809DF875
:10B4800004300A223B7033237B700523BB7003F02A
:10B49000B1FB9DF818303BB930238DF818308DF88A
:10B4A00019308DF81A3014E09DF819203AB98DF84A
:10B4B0001A3030238DF818308DF8193009E09DF8D6
:10B4C0001A1031B98DF8193030238DF81A208DF803
:10B4D0001830082D01D0012D06D130238DF81A30F7
:10B4E0008DF819308DF818309DF818303222FB7025
:10B4F0009DF81930FA713B719DF81A3031467B7115
:10B500000523BB713B7205F130037B720323BB72D1
:10B510002C4B06222C4883F800B0049302F022FE44
:10B5200004222A48414602F01DFE049BDFF8B0B019
:10B530001A781BF802204AB938460B210592FFF70A
:10B5400037FB049B059A1B780BF8032038460B2128
:10B55000FFF72EFB1A4B50221A801D4906221A486B
:10B5600002F000FE042219481A4902F0FBFD6B1E8E
:10B57000194A012B4FF0FA0303FB04AA32F81A30E0
:10B580008DBF029903999BB20B4098BF0B4322F8E1
:10B590001A30124B06369E4204F1010408F10408E9
:10B5A00007F12D077FF4AAAE35B0BDE8F08F00BFDC
:10B5B0003C1C0010B6640010285800102C600010CD
:10B5C000581C0010000700104C10001012600010F2
:10B5D00046100010EE060010FE120010541C001061
:10B5E000FE5F00102DE9F04F002491B006A821461F
:10B5F00028228DF814408DF815408DF8164002F081
:10B60000B5FDB54DDFF8F082B44BB8F800002988DD
:10B6100017221B88FFF736FBA946002840F0AB81B4
:10B62000AF4FB04EBA46012333702B8838600233D7
:10B630002B80AD4B19680293B9F80030C85C05281F
:10B6400004D1022232703A6882B92AE0DAF8002086
:10B65000022AF6D80DF1400E96440EF82C0CA048A4
:10B66000013202609C4A01331380E5E79DF8140023
:10B670003038092800F20581012A12D99DF81500F9
:10B680003038092800F2FD80022A0AD09DF8160001
:10B690003038092800F2F580032A02D00420002166
:10B6A00032E0032232705A1C92B22A808A5CA2F1E4
:10B6B0003004313A012AE4B200F2E380864A0333CF
:10B6C0001380884B042205A81A7004F0F5F9874B03
:10B6D0000146186000238DF816308DF815308DF86E
:10B6E0001430002800F0CD80FA2802D9FC2840F060
:10B6F000C8800520012C30700AD17D4A4B1ED35CD6
:10B700005BB9FC2909D0C9B22246FFF7DBFDB8E0DE
:10B71000022C02D14B1E774AF1E706233370002337
:10B720003B60029BB9F800101B68DFF8ACC15A5CA3
:10B730002C2A08D1072333703B681E2B26D96B4B6C
:10B7400004201978E0E7DAF80030DFF894B11E2B16
:10B75000F0D810A8034403F8282C674B012218885E
:10B760005E4BCDF80CC01B88FFF78CFA002840F028
:10B770000281DDF80CC0BCF800300133ACF80030B9
:10B78000DBF800300133CBF80030CAE7554B082214
:10B79000012C1A7005D1554B1B68FC2B17D0574A4A
:10B7A00006E0022C13D1514B1B68FC2B0FD0544ADE
:10B7B0001A4412F8012C002A63D1524A1078524AD6
:10B7C00012780244592A02DD0620D9B29CE70923E7
:10B7D0003370424BB8F800000E221B88FFF752FA74
:10B7E000DFF800A10146002840F0C5803F4E0A2343
:10B7F0003A788AF80030307806AB8DE81200FAF714
:10B8000019FA2B88384A03F1010E10681FFA8EFED0
:10B81000A5F800E000EB0E073A79B978303A3039F4
:10B82000520042EA810210F80E1030391143BA7901
:10B83000303A41EAC2028DF8192003F1090292B2AE
:10B840002A80825C0B339BB2303A2B808DF81A2011
:10B85000C25C03449B78303A303B43EA82038DF864
:10B8600018300B238AF80030182101233078032286
:10B870008DE818000DEB0103FAF74CF82B8805331F
:10B880002B80184A21480C2313700378164616495A
:10B8900043B11F4B0B60002303701E48A8F8003013
:10B8A0002B8003700F680D490D2313700B88013B2B
:10B8B000B9F80020B85C032804D10B88591E8A42CD
:10B8C0002ADB56E09A42F8DA40F2FE408242F4D88F
:10B8D000014801320280EBE790000010766800100A
:10B8E000007900109400001004790010FC7800101A
:10B8F000D51A00105210001092000010340C0010E5
:10B9000068620010596100102C7000104C79001012
:10B91000344D00108D00001040F2FE40824228D8C5
:10B92000164A0F201070B9F800003A5C022A03D1C1
:10B930008842124F0ADB1CE08842F9DA40F2FE42EC
:10B940009042F5D80E4A01301080ECE740F2FE42FA
:10B9500090420ED811223A7001460A22A8F800003F
:10B96000FFF790F928B92B8801332B8012233B7005
:10B9700047E61323337011B0BDE8F08F9400001038
:10B98000900000102DE9F04F414EC5B03268414D96
:10B99000002303AC023223706370A37032602B600B
:10B9A00033683B491A4612F8017B052F05D02B68F6
:10B9B0000A60E75401332B60F2E70A6093F80180D4
:10B9C000204603330B6004F077F8334BC1B21860A4
:10B9D00032484A1E825CA8F130085FFA88F89A461D
:10B9E00022B938464246FFF76DFC4EE00023A370B3
:10B9F000637023702B603368254F19782C2906D08B
:10BA00002A680133A15401322A603B60F3E72046E3
:10BA100004F052F8224A3B68914601333B60214FC3
:10BA200000231060A370637023703B60336813F8C9
:10BA3000013C032B1ED000232B60336819782C297E
:10BA400009D0032907D02A680133A15401322A60A2
:10BA50000F4A1360F1E72046D7F800B004F02CF845
:10BA600004AB03F80B003B6801333B6033680133E0
:10BA70003360DBE701239AF8000099F800103A7868
:10BA80008DE8080104ABF9F745FF45B0BDE8F08F3C
:10BA90004879001000790010FC780010D51A0010C9
:10BAA00008790010F87800102DE9F341324A334E3E
:10BAB0001278334901320A703268324D0023023263
:10BAC0008DF804308DF805308DF8063032602B602B
:10BAD00033682A491A4612F8018BB8F1050F08D0CD
:10BAE0002B6802A81844013300F8048C2B600A600C
:10BAF000EEE70A605C7801A803330B6003F0DCFF1B
:10BB0000303CE4B2204F012C386003D1C1B24B1E4F
:10BB10001E4A04E0022C09D1C1B21D4A4B1ED35C5F
:10BB200023B940462246FFF7CDFB21E000232B60DE
:10BB30008DF806308DF805308DF8043033681978AB
:10BB400003290AD02A6802A8104401322A600B4A4D
:10BB5000013300F8041C1360F0E701A803F0ACFF08
:10BB600001460C4BC9B2186022463878FAF736FA0B
:10BB700002B0BDE8F08100BF000700104879001056
:10BB80003570001000790010FC780010D51A0010F4
:10BB90005210001008790010F0B52E4D2E4C2D8853
:10BBA0008DB0258090F800E02C4E8DF803E090F8E1
:10BBB00001E0807830318DF80500107837788DF805
:10BBC00007005078927802258DF80D1024498DF8E1
:10BBD00000508DF8092042250622303302FB071160
:10BBE0008DF801508DF8080005258DF80B301D48A3
:10BBF00003238DF80E308DF802508DF804E08DF897
:10BC000006508DF80A508DF80C5002F0ABFA164928
:10BC1000164801EB8701042202F0A4FA144D337890
:10BC2000EF5C2FB968460F21FEF7C2FF3378EF545F
:10BC300068460F21FEF7BCFF50230E490622094833
:10BC4000238002F08FFA0C490422084802F08AFA95
:10BC50000DB0F0BD2C600010581C00100007001043
:10BC60003C1C00104C100010B66400101260001054
:10BC7000FE5F001046100010EE0600102DE9F04F98
:10BC8000002491B006A8214628228DF810408DF896
:10BC900011408DF812408DF814408DF815408DF844
:10BCA000164002F063FADFF884B29C4FDFF894820A
:10BCB0003888BBF800101B22B8F80030FEF7E2FF0E
:10BCC000DA46002840F01082954E964DB146012389
:10BCD0002B70BBF8003030600233ABF80030924B71
:10BCE00019680293BAF80030C85C052804D1022212
:10BCF0002A70326882B927E0D9F80020022AF6D8E3
:10BD00000DF1400E96440EF82C0C8548013202606D
:10BD1000864A01331380E5E79DF81400303809287E
:10BD200000F28581012A0FD99DF8150030380928C5
:10BD300000F27D81022A07D09DF8160030380928CC
:10BD400000F27581032A3AD10133ABF800300023A9
:10BD500033608DF812308DF811308DF81030BAF84C
:10BD60000030C85C052802D1326882B92FE0D9F8CA
:10BD70000020022AF8D80DF1400E96440EF8300C3F
:10BD8000674801320260694A01331380E7E79DF892
:10BD900010003038092800F24A81012A17D99DF88D
:10BDA00011003038092800F24281022A0FD09DF894
:10BDB00012003038092800F23A81032A07D03023D4
:10BDC0008DF810308DF811308DF812307CE00322A0
:10BDD0002A705A1C92B2ABF800208A5CA2F130049F
:10BDE000313A012AE4B200F22281504A033313802F
:10BDF0004C4B042204A81A7003F05EFE4C4B1860F2
:10BE0000002800F01481FA2802D9FC2840F00F81A4
:10BE10000521012C29700ED1FC281FD0454B01387B
:10BE20001B5C83B1444B33F8103013F00E0F15D167
:10BE300005A802216CE0022C10D1FC280ED03F4B4B
:10BE400001381B5C0BB905A862E03D4B33F810309C
:10BE500013F00E0F02D105A8214659E006232B70DE
:10BE600000233360029BBAF800101B68DFF8BCC0E7
:10BE70005A5C2C2A05D107232B7033681E2B26D938
:10BE800022E0D9F80030DFF898B01E2BF3D810A8C4
:10BE9000034403F8282C214B01221888294BCDF8A4
:10BEA0000CC01B88FEF7EEFE002840F01D81DDF877
:10BEB0000CC0BCF800300133ACF80030DBF80030C7
:10BEC0000133CBF80030CDE705A8042120E0154B65
:10BED0000822012C1A7005D1154B1B68FC2B3BD096
:10BEE000194A06E0022C37D1114B1B68FC2B33D0CA
:10BEF000164A134413F8013C002B40F09880144B71
:10BF00001A78144B1B781344592B25DD05A80621FC
:10BF100004AA2346FFF740FE89E000BF920000100C
:10BF200000790010940000100479001090000010B7
:10BF3000FC780010D51A00102E6E00105210001060
:10BF40000855001076680010340C0010686200106C
:10BF5000596100102C7000104FF0090938880E222A
:10BF6000B8F8003085F80090FEF78CFE604E05466C
:10BF7000002840F0B9800A234946337005A804AA76
:10BF80002346FFF709FEDFF888815A4B4FF00B0973
:10BF90001A7898F8000086F8009029460095564DCA
:10BFA00006AB0194F9F746FE2B88544A03F1010CC5
:10BFB00010681FFA8CFCA5F800C000EB0C0E9EF870
:10BFC00004209EF80210303A3039520042EA8102D1
:10BFD00010F80C10303911439EF80620303A41EA2F
:10BFE000C2028DF8192003F1090292B22A80825C04
:10BFF0004B449BB2303A2B808DF81A20C25C03442C
:10C000009B78303A303B43EA82038DF81830182190
:10C01000012386F8009098F8000003228DE81800AC
:10C020000DEB0103F9F776FC2B8805332B80304AA2
:10C0300033480C23137003782F4D16462F493BB11C
:10C04000304B0B60002303702F483B802B80037024
:10C05000D1F800E02D490D2313700B88013B2A888D
:10C060001EF80200032804D10B88591E8A420ADBFD
:10C0700038E09A42F8DA40F2FE408242F4D81E4894
:10C0800001320280EBE740F2FE4082422AD8184A91
:10C090000F20107028881EF80020022A04D1884240
:10C0A000DFF84C800ADB1DE08842F8DA40F2FE42FD
:10C0B0009042F4D8104A01301080EBE740F2FE4283
:10C0C00090420FD8112288F8002001460A223880B9
:10C0D000FEF7D8FD30B92B8801332B80122388F866
:10C0E0000030E0E51323337011B0BDE8F08F00BFDE
:10C0F00094000010007900109000001004790010E6
:10C100004C790010344D00108D000010766800103E
:10C11000FC780010F0B51F4B1F4D1B881F4C8DB0D5
:10C1200030312E7823808DF8031002231C4906221B
:10C130008DF80030052302FB06118DF801008DF803
:10C140000230184803238DF8043002F00BF816492A
:10C15000164801EB8601042202F004F8144E2B78F5
:10C16000F75C2FB968460F21FEF722FD2B78F754B4
:10C1700068460F21FEF71CFD50230E490622094890
:10C18000238001F0EFFF0C490422084801F0EAFF88
:10C190000DB0F0BD2C60001000070010581C0010FE
:10C1A0003C1C00104C100010B6640010126000100F
:10C1B000FE5F001046100010EE060010F7B57A4B37
:10C1C00000241A88794B7A491A807A4D06227A48D7
:10C1D0008DF804408DF805408DF8064001F0C2FF4F
:10C1E00004227648764901F0BDFF2B689A1C2A602C
:10C1F0009E78A6F13102012A03D804332B6023462E
:10C2000014E023466F4A002199540133FA2BF9D1E7
:10C21000042000210122FFF755F8C3E0032B0BD0C7
:10C2200001AA9854634A0131116001332968DAB2D6
:10C2300008780528F2D101E01A4600E0F2B19DF835
:10C240000430303B092B94BF00230123012A0CD971
:10C250009DF805103039092988BF0123032A04D12C
:10C260009DF80620303A092A00D83BB10023554AF0
:10C27000002199540133FA2BF9D1C9E701AF3846AF
:10C2800003F01AFCC4B2FA2C07D900234D4A00214E
:10C2900099540133FA2BF9D1BAE7A4BB312E2246C7
:10C2A000484D13D1AB5C48498B540132FA2AF9D17D
:10C2B000E620FDF7C9FD002344490022CA5401339A
:10C2C000FA2BF9D1424B1A70002312E0AB5C4149C2
:10C2D0008B540132FA2AF9D14FF48770FDF7B4FD7F
:10C2E00000233D490022CA540133FA2BF9D13B4BBC
:10C2F000E9E70022EA540133FA2BFAD101F0C8F938
:10C3000001F0ACF947E02B68002601332B60F3B253
:10C31000A34240D200232A68D9B210782C2809D031
:10C32000032B05D023490132F8540A600133F2E7A8
:10C33000194600E0A1B39DF80430303B092B94BFAF
:10C3400000230123012911D99DF80520303A092A3B
:10C3500002D803290AD103E003297FF459AF01234E
:10C360009DF80620303A092A3FF652AF012B06F11C
:10C3700001063FF44DAF384603F09EFB2B680138B1
:10C380005A1C2A605A780F4900F0FF00303A0333F4
:10C390000A542B60BBE73A200921FFF7BBFE01E0FE
:10C3A0000B46E3E703B0F0BD3A0E0010581C001036
:10C3B00030710010487900104C100010126000100D
:10C3C00006070010FC770010D51A00104E1100105F
:10C3D0002C6E0010521000105D6100103F0E001016
:10C3E00070B55A4A86B013680021981C10608DF809
:10C3F00010108DF811108DF812108DF814108DF8A2
:10C4000015108DF816109C78A4F13100012800F267
:10C410009680043313604E4B196011680D78052D1A
:10C4200002D11D6875B927E018680228F9D806AE50
:10C43000064406F8085C464D013028604348013147
:10C440000160EAE79DF810003038092894BF002009
:10C450000120012D0ED99DF81160303E092E88BFB4
:10C460000120022D06D09DF81260303E092E66D8BC
:10C47000032D64D1002862D10131116000211960BF
:10C4800010680578052D0DD0196802290AD806AE66
:10C490000E4406F8045C2E4D013129602B49013011
:10C4A0000860EDE71A68C2B19DF81430303B092BE3
:10C4B00094BF00230123012A0ED99DF815103039AD
:10C4C000092988BF0123022A06D09DF816103039A9
:10C4D000092934D8032A32D18BBB05A803F0ECFA22
:10C4E000054604A803F0E8FA0023312C0646C1B241
:10C4F000EAB2009301930CD1029301200423F9F7CF
:10C5000097FDFC2E18D1BDB901F06CF8E620114959
:10C510000DE00223029301200423F9F789FDFC2E8C
:10C520000AD14DB901F070F80B494FF48770FA2227
:10C53000FDF78AFC01F092F83B20092101E03B2045
:10C540000421FFF7E7FD06B070BD00BF4879001079
:10C5500000790010D51A00105210001070B5664C0A
:10C5600086B023680022991C21608DF814208DF874
:10C5700015208DF816209D78A5F13101012900F2D2
:10C58000B480043323605D4B1A6021680878052865
:10C590000DD01A68022A0AD806AE164406F8040C12
:10C5A000564801320260544A01311160EDE71A68C1
:10C5B000DAB19DF81430303B092B94BF00230123DE
:10C5C000012A10D99DF815103039092988BF012397
:10C5D000022A08D09DF816103039092900F285800A
:10C5E000032A40F08280002B7FD105A803F064FA73
:10C5F00023685A1C22605B78A3F13102012A74D8A7
:10C60000312B0FD1312D4FF00001C2B218BF0220E3
:10C610000091019106BF0291022002900423F9F7D4
:10C6200007FD5FE0364B1B78092B17D0354B1B7885
:10C63000092B5ED10024022302930420FC21224610
:10C64000234600940194F9F7F3FCFA224FF4877023
:10C650002D49FDF7F9FB2D4A146027E00024042042
:10C66000FC2122462346009401940294F9F7E0FC51
:10C67000FA22E6202649FDF7E7FB244A1460254903
:10C68000601C0B789C424FF0000303D222490B55EB
:10C690000446F4E71360214C5D1C207883424FF080
:10C6A00000001AD21E4CE0542B46F4E71949601CD6
:10C6B0000B789C424FF0000303D217490B550446F8
:10C6C000F4E71360154C5D1C207883424FF00000A6
:10C6D00003D2134CE0542B46F4E72070136008702B
:10C6E00000F0D6FF3C20092101E03C200421FFF7A7
:10C6F00011FD06B070BD00BF487900100079001030
:10C70000045700104D11001052100010F87800105E
:10C71000D51A00102C6E00104E1100103F0E0010A4
:10C720005D6100102DE9F84F9149924C924AA44660
:10C7300089469046914D0123DFF880E21370256011
:10C740000D600023411E8B4226D2EC5CEA18022CBD
:10C7500040F2FF4604D1B342CEF8003004D1AAE043
:10C76000B34219D00133EDE788F80040844C002330
:10C77000844823700678CCF80020002E51D0824ED9
:10C78000824F36783F78B7424BD1EE5C022E09D00B
:10C7900040F2FF46B34202D1CEF800308BE00133C5
:10C7A0008B42F2D340F2FF46B342CEF8003000F0A5
:10C7B00082808B427FD2764E00213746316099428B
:10C7C0000CD83B299FBF734E15F801B090F800A01C
:10C7D000761898BF06F80AB00131F0E739600121F8
:10C7E00021700478664F2344DBB20370664800244E
:10C7F000684B04706848634E01801978C9F80030AE
:10C8000002290CD15B78342B02D1FEF7EBFE03E05A
:10C81000422B04D1FFF732FA3C7034704BE0C9F878
:10C820000050BEF800305D4915780B805A49042449
:10C83000022D0B80504888F800403CD101330B801A
:10C84000052303705378551C312BCCF8005007D1C9
:10C8500093782F2B2FD806230370FEF78FFA84E0EE
:10C86000322B04D107230370FEF742FA7DE0342B0C
:10C8700004D108230370FEF7B5FE1CE0422B04D15F
:10C8800008230370FFF7FAF915E0352B16D1D3789A
:10C890004FF40021312B424B02F10B020CBF996186
:10C8A000D96112F8061C31294FF480110CBF99612F
:10C8B000D961CCF800200020BDE8F88F372B02D1D9
:10C8C000FFF760F8F7E7382B02D1FFF7EDF8F2E752
:10C8D000392B12D109230370324B33491A88334B59
:10C8E00033481A80062201F03DFC32492246324884
:10C8F00001F038FCFEF782FA37E03A2B10D1294BD1
:10C9000029491A88294B2A481A80062201F02AFC54
:10C9100028490422284801F025FCFFF74FFC24E0B9
:10C920003B2B10D11F4B20491A88204B20481A80DE
:10C93000062201F017FC1F4904221F4801F012FCD7
:10C94000FFF74EFD11E03C2BB5D1164B16491A8866
:10C95000164B17481A80062201F004FC15490422E0
:10C96000154801F0FFFBFFF7F9FD0120BDE8F88F46
:10C9700004790010487900108C000010344D00102C
:10C980004C7900108D0000108E0000100007001080
:10C99000F87800100C790010900000109200001040
:10C9A00020C00920581C00104C1000103A0E001036
:10C9B000307100101260001006070010007900109E
:10C9C0001D4BDA6822F47042DA60D9681B4A0A40CB
:10C9D000DA601A681A4922F470221A605A6A22F040
:10C9E00070625A62DA6922F44022DA610A6822F03F
:10C9F00080620A605A6822F440525A60114A1368F1
:10CA000043F04053136052F8603C43F0035343F447
:10CA1000601342F8603C0C4B196841F44071196096
:10CA2000196841F48001196052F8603C23F0985372
:10CA300042F8603C704700BF00C002403F00F0F089
:10CA400060C0092080C0092000C0092001380528E5
:10CA500031D8DFE800F0030C151E2727164A53696A
:10CA6000D94301F40071916103F4007322E0124A8A
:10CA70005369D94301F48071916103F4807319E023
:10CA80000E4A5369D94301F00051916103F00053FC
:10CA900010E00A4A5369D94301F08051916103F0D3
:10CAA000805307E0064A5369D94301F400019161BC
:10CAB00003F40003D361704700C0092080C009203F
:10CAC00020C00920013805281ED8DFE800F0030641
:10CAD0000A0D11194FF4007201E04FF480720B4BF4
:10CAE00011E04FF0005201E04FF08052084B0AE095
:10CAF000084B4FF400029A61074B00221A607047FE
:10CB0000044B4FF480029A61704700BF00C00920B7
:10CB100080C0092020C00920340E001001380528EB
:10CB200019D8DFE800F003060A0D11144FF4007263
:10CB300001E04FF48072084B0CE04FF0005201E02E
:10CB40004FF08052054B05E04FF4000201E04FF436
:10CB50008002034BDA61704700C0092080C00920C1
:10CB600020C00920584B00201A7802F0FE021A70EB
:10CB7000564A115C013011F0020F11461EBF1A789F
:10CB800042F001021A70FA28F2D11A7802F0FB0280
:10CB90001A700022885C0132800742BF187840F08A
:10CBA00004001870FA2AF5D11A78474912F0010FDB
:10CBB000474A02D10878400727D51168642907D968
:10CBC00043490968C7299EBF42494FF480008861E4
:10CBD0001168C82908D93E490968B1F5967F3EBF5A
:10CBE0003C494FF48000C8611168B1F5967F08D9BF
:10CBF00037490968B1F5C87F3EBF36494FF4800018
:10CC000088611168B1F5C87F42E00978880744D58A
:10CC10001168642906D91168C7299EBF2D494FF4B0
:10CC2000800088611168C82908D929490968B1F5C7
:10CC3000967F3EBF27494FF48000C8611168B1F567
:10CC4000967F08D922490968B1F5C87F3EBF2149BE
:10CC50004FF4800088611168B1F5C87F08D91C497C
:10CC60000968B1F5FA7F3EBF1A494FF48000C861E8
:10CC70001168B1F5FA7F08D915490968B1F5167F31
:10CC80003EBF14494FF4800088611168B1F5167FEA
:10CC900082BF10494FF48000C8611978090742BF6C
:10CCA0000C494FF4800088611B781B0702BF094BB9
:10CCB0004FF48001D9611368B3F57A7F82BF044BCA
:10CCC00000221A60704700BF09600010160F0010A4
:10CCD000304D001020C009202DE9F04F43688668D0
:10CCE0000268C568C94FD1F800C025EA0304D71906
:10CCF00006EA030222436744C468C54DBF184A6868
:10CD00008FB003EB77676519019226EA0704AD1827
:10CD100007EA03022243D0F80880AD18BD4A8E68A6
:10CD200007EB3555424405EA07049219029623EAB7
:10CD300005062643B84C9619CA6805EBF6361C1949
:10CD400027EA0608A418039206EA050248EA020246
:10CD5000A2180C6906EBB2220494DDF81080AF4CE7
:10CD60004444E71925EA020802EA060448EA0404F2
:10CD70003C194F6902EB74640597DDF81480A84FE5
:10CD800047447D1926EA040804EA020748EA07082E
:10CD9000A8448D6904EB38580695069FA14D7D196E
:10CDA000AE1922EA080708EA04053D437619CD6961
:10CDB00008EBF6360095009F9B4D24EA06097D1985
:10CDC000AA1806EA080549EA050555190A6A06EB94
:10CDD000B5250792079F954A28EA0509BA1814193C
:10CDE00005EA060249EA0202A4184A6A05EB7464DD
:10CDF0000892089F8E4A26EA0409BA1890448F6A5E
:10CE000004EA050249EA02024244A7F5244804EB79
:10CE10003252A8F14F0825EA0209464402EA040802
:10CE200049EA08080997B044CE6A02EBF8380A9636
:10CE30000A9F804E24EA080BBE19751908EA0206FB
:10CE40004BEA060BAB440D6B08EBBB2B0B950B9E13
:10CE5000794D4F6B75192C1922EA0B060BEA080560
:10CE600035436519754C0BEB75653C1928EA0506C9
:10CE7000A21805EA0B04344314198E6B704A05EBB3
:10CE800034546FEA0409B218CDF83490904409EA9A
:10CE90000B0904EA050249EA0202C96B4244DFF8C1
:10CEA000D09104EBF2326FEA0208894408EA050ADD
:10CEB000CB4402EA04090C974AEA0909019FDFF80A
:10CEC000B4A1CB44BA440D9F02EBBB2B0BEA04097F
:10CED000AA4402EA070549EA0505AA44DDF81890C4
:10CEE000584D0BEBFA6A4D442D190BEA08080AEA73
:10CEF000020444EA08040A9F2C19534D0AEBF45427
:10CF00007D1904EA0B08AA182AEA0B0548EA050568
:10CF100052194E4D04EBB242654402EA0A08AB4492
:10CF200024EA0A0548EA0505AB44DDF81480484DBB
:10CF300002EB3B3B4544AA440BEA040822EA040501
:10CF400048EA0505DDF82490AA44424D0BEBFA6A45
:10CF50004D440AEA02082C192BEA020548EA0505A5
:10CF600065193D4C0AEBF5550C19A21805EA0B089A
:10CF70002AEA0B0448EA04089044049C374A05EB6B
:10CF8000B848A218934408EA0A0425EA0A02224390
:10CF9000089F9344324A08EB3B3BBA180BEA05045E
:10CFA000924428EA050222432E4C52440BEBF262D3
:10CFB000341902EA080965192BEA080449EA04044D
:10CFC0002D19DDF80C90284C02EBF5554C44A0448B
:10CFD00005EA0B0922EA0B0449EA0404079FA0446E
:10CFE000224C05EBB8483C1908EA0209A34425EA9B
:10CFF00002040C9F49EA0404DFF87C905C4408EBCF
:10D000003434B94404EA050A4A4437E078A46AD7BC
:10D0100056B7C7E8DB702024EECEBDC1AF0F7CF55C
:10D020002AC68747134630A8019546FDD8988069DF
:10D03000AFF7448BBED75C892211906B937198FD3A
:10D040008E4379A640B340C0515A5E26AAC7B6E9BE
:10D050005D102FD65314440281E6A1D8C8FBD3E754
:10D06000E6CDE121D60737C3870DD5F4ED145A4537
:10D070002108B44962251EF605E9E3A928EA050955
:10D080004AEA0909029F4A44DFF8B09304EBF262CE
:10D09000B94402EA080A4D4424EA08094AEA09099F
:10D0A000009F4D44DFF8989302EBF555B94405EA2B
:10D0B000040AC84422EA04094AEA09090B9FC84441
:10D0C000DFF8809305EBB848B94408EA020A4C44FB
:10D0D00025EA02094AEA09094C44DFF86CB3DDF895
:10D0E000149008EB3434CB4488EA050989EA040932
:10D0F000079F9344B54ACB4404EB3B7BBA1884EAC0
:10D10000080989EA0B0955194D44B14ADDF8289000
:10D110000BEB75554A448BEA040989EA05099044EA
:10D12000AC4AC84405EB3848B21885EA0B0989EACD
:10D130000809019F1419A84A4C4408EB7424BA1832
:10D1400088EA050989EA04099344CB44A34ADDF837
:10D15000109004EB3B7B4A4484EA080989EA0B09F6
:10D16000009F55199E4A4D440BEB75558BEA0409F7
:10D17000BA1889EA050942444A44DFF8D082DDF84A
:10D18000249005EB3242C84485EA0B0989EA02097A
:10D190000C9FA044934CC84402EB78283C1982EAC7
:10D1A000050989EA0809A3448F4CCB4408EB3B7B73
:10D1B000644488EA0209651989EA0B094D448B4CDD
:10D1C000DDF80C900BEB75554C448BEA0809A2185E
:10D1D00089EA0509069C9144854A05EB3949A2185C
:10D1E00085EA0B0A8AEA090A089F9044814CD044D8
:10D1F00009EB782889EA05023C1982EA08025C44B6
:10D200000B9FA4187C4A08EB3474BA1888EA090A00
:10D210008AEA040A5519794A554404EB75558A1867
:10D2200084EA080A8AEA050A029F9144744AD144B2
:10D2300005EB394985EA040ABA1842448AEA090A20
:10D240005244DFF80C8209EB7222E04462EA050CDA
:10D250008CEA090C44446444DDF80080DFF8F4C132
:10D2600002EBB464C44464EA090757406544ED190D
:10D27000644F04EBB555F71965EA020666404F4462
:10D28000BF19DDF81490604E05EB77474E4467EA0E
:10D29000040C8CEA050CB21862445C4EDDF82CC01C
:10D2A00007EBF222664462EA050C8CEA070C34199B
:10D2B000DDF80C806444564E02EBB464464464EAE4
:10D2C000070888EA02087519DDF824904544514E94
:10D2D00004EBB5554E4465EA020C8CEA040CF719D0
:10D2E00067444D4EDDF804C005EB7747664467EAB6
:10D2F000040C8CEA050CB218DDF81C806244474E21
:10D3000007EBF222464462EA050C8CEA070C34195A
:10D310006444434E02EBB4648E1964EA0701514041
:10D320007519DDF818906D183E4904EBB55565EA9E
:10D33000020C49448CEA040CC91961443A4EDDF8E8
:10D3400030C005EB7141664461EA04076F40B218D2
:10D35000D219364E049F01EBF222BE1962EA05078C
:10D360004F403419DDF82880E419314E02EBB464E3
:10D37000464464EA010757407519ED19DDF8089035
:10D380002C4E04EBB55565EA020C4E448CEA040CB5
:10D3900071186144284EDDF820C005EB71416644E8
:10D3A000B218066861EA04076F40A4190460D21934
:10D3B000D0F80C808768CB1803EBF223C9194544D9
:10D3C00043608160C5600FB0BDE8F08F81F6718762
:10D3D00022619D6D0C38E5FD44EABEA4A9CFDE4B69
:10D3E000604BBBF6C67E9B28FA27A1EA8530EFD4B6
:10D3F000051D880439D0D4D9E599DBE6F87CA21F55
:10D400006556ACC4A72394AB39A093FCC3595B65A4
:10D4100092CC0C8F7DF4EFFFD15D84854F7EA86F99
:10D42000E0E62CFE144301A3A111084E827E53F7BF
:10D4300035F23ABDBBD2D72A91D386EBF8A3EFFCE5
:10D44000D9026F678A4C2A8D4239FAFF70BCBFBE81
:10D45000442229F497FF2A43002343600360054BCD
:10D46000836003F18833C360034B0361A3F1883306
:10D470004361704701234567FEDCBA98F0B5164654
:10D4800002680D4602EBC601914291B00446C2F318
:10D49000C50302D24268013242606268216002EB39
:10D4A0005672626004F108071EE0E21815F8011BCD
:10D4B0000133402B117616D123460022997ED87E67
:10D4C000090441EA0061187E0143587E043341EAB1
:10D4D00000214DF802100432402AEFD13846694647
:10D4E000FFF7FAFB0023013E002EDED111B0F0BDA4
:10D4F00030B5026891B00E92C2F3C502372A436874
:10D500000446D4BFC2F13802C2F1780217490F9322
:10D510002546FFF7B3FF23460022997ED87E0904F3
:10D5200041EA0061187E0143587E043341EA00213C
:10D530004DF802100432382AEFD104F10800694690
:10D54000FFF7CAFB0022AB680432190A85F858308D
:10D5500085F85910190C1B0E85F85A1085F85B30A8
:10D560000435102AEFD111B030BD00BF24000010E7
:10D5700030B59BB0054668460C46FFF76DFF284660
:10D5800002F0EBFA294602466846FFF777FF684645
:10D59000FFF7AEFF0DF15702002312F8011F080933
:10D5A000E054E018023301F00F01202B4170F4D158
:10D5B0001BB030BD0023044A002122F813100133B0
:10D5C000FA2BF8D1704700BF7E6600100023044A92
:10D5D000002122F813100133FA2BF8D1704700BF55
:10D5E0001E0A0010002305490022CA540449CA54E7
:10D5F0000133FA2BF7D1034B1A707047D51A00107C
:10D600004E1100102C6E0010002305490022CA5450
:10D610000449CA540133FA2BF7D1034B1A707047EF
:10D62000521000105D6100103F0E00100023084AE8
:10D63000F92B4FF03001D154DFBF06490022CA5404
:10D640000549D8BFCA540133B3F5D17FEFD1704734
:10D65000CA640010160F00102D5700100023084A4E
:10D660000849D25C120121F81320074A0749D25C0D
:10D67000120121F813200133FA2BF0D1704700BFBB
:10D68000D51A00102E6E0010521000100855001010
:10D69000002319461A4630B50F485C1CC05C48B1DF
:10D6A0000E4DE0B2A8540E4D01322878D2B20130AE
:10D6B000C0B228700B48C35C4BB10B48E3B2435473
:10D6C0000A4801310378C9B20133DBB20370FA2C86
:10D6D0002346E1D130BD00BFD51A00104E11001015
:10D6E0002C6E0010521000105D6100103F0E0010F3
:10D6F00030B501289DF80C4009D8120124024900D8
:10D70000104DB8B914430C4325F8134030BD02281E
:10D7100003D1240244EA021206E0032810D12002B9
:10D7200040F0010040EA021242EA4101064A22F8B2
:10D73000131030BD44F001041443214325F81310A5
:10D7400030BD00BF7E6600101E0A00102DE9F74FA5
:10D75000744A754910780B78DFF8ECE1984218BFED
:10D760001378724E1CBFDBB20B7000231946137086
:10D770006F4A704F1478704A9EF800C01068357870
:10D7800097F800906D4A0138CDF804E0DFF8BC81CD
:10D7900032F802EF18F803A02EF0F00E1FFA8EFEFA
:10D7A000BAF10B0FA2F800E002D14EF0600E0AE0D1
:10D7B00018F803A0BAF10A0F16BF18F803804EF04C
:10D7C000700E4EEA081EDFF87C81A2F800E038F8FF
:10D7D00013E01EF0010F08D138F813E00EF00E0E22
:10D7E000BEF1000F01D00131C9B2B2F800E038F843
:10D7F0001380DFF850A18EEA080818F00F0F10D13F
:10D80000DFF848B13AF813801BF803B0C8F30318E7
:10D81000D84506D13AF813808EEA080818F47F4FED
:10D820002AD0DFF8208138F813A01AF00E0F06D1A5
:10D83000DFF81CA11AF803A01AF0020F1CD01B2C51
:10D840002DD0052C2BD0192C33D0072C31D0DFF85C
:10D85000FCA01AF803E0BEF10B0F3DD138F813E03D
:10D8600038F813800EF00F0A08F47F4E4AEA0E0EC5
:10D870004EF0600EA2F800E00133FA2B86D1019B36
:10D88000357083F800C02E4B87F800901B789942C2
:10D8900045D1022003B0BDE8F04FFFF73FB938F89B
:10D8A00013A08EEA0A0E1EF00E0F18BF4FF0010CE7
:10D8B000C9E7DFF8A0E038F810A03EF810E08AEAE7
:10D8C0000E0E1EF47F4F1FBF1E4D4FF0010935F89D
:10D8D0001050C5F30325BAE71AF803E0BEF10A0FAA
:10D8E0000CD138F813E038F813800EF00F0A08F462
:10D8F0007F4E4AEA0E0E4EF0700EBBE7DFF844E0B2
:10D900003EF813801AF803A03EF813E008F00F0861
:10D910000EF47F4E4EEA080E4EEA0A1EAAE703B046
:10D92000BDE8F08F11570010EA0600107266001073
:10D93000560E0010F9060010306000102C6E00101A
:10D940002C6E00107E660010330D0010D51A0010EA
:10D95000160F00102E6E00102DE9F74F764A77490A
:10D9600010780B78DFF8F4E1984218BF1378744E02
:10D970001CBFDBB20B70002319461370714A724F43
:10D980001478724A9EF800C01068357897F80090B5
:10D990006F4A0138CDF804E0DFF8C48132F802EFB5
:10D9A00018F803A02EF0F00E1FFA8EFEBAF10B0F3E
:10D9B000A2F800E002D14EF0600E0AE018F803A0D1
:10D9C000BAF10A0F16BF18F803804EF0700E4EEA37
:10D9D000081EDFF88481A2F800E038F813E01EF09A
:10D9E000010F08D138F813E00EF00E0EBEF1000F53
:10D9F00001D00131C9B2B2F800E038F81380DFF885
:10DA000058A18EEA080818F00F0F10D1DFF850B1B6
:10DA10003AF813801BF803B0C8F30318D84506D1B1
:10DA20003AF813808EEA080818F47F4F3FD0DFF8E9
:10DA3000288138F813A01AF00E0F06D1DFF824A1C0
:10DA40001AF803A01AF0020F31D01C2C43D0062C78
:10DA500041D01A2C49D0082C47D0DFF804E11EF839
:10DA600003E0BEF10B0F0DD138F813A038F813E026
:10DA70000AF00F0A0EF47F4E4AEA0E0E4EF0600EC8
:10DA8000A2F800E0DFF8D8E01EF803A0BAF10A0F10
:10DA90003ED138F813E038F813800EF00F0A08F47E
:10DAA0007F4E4AEA0E0E4EF0700EA2F800E00133EF
:10DAB000FA2B7FF471AF019B357083F800C0254BC2
:10DAC00087F800901B78994233D1042003B0BDE859
:10DAD000F04FFFF723B838F813A08EEA0A0E1EF0B5
:10DAE0000E0F18BF4FF0010CB3E7DFF87CE038F8F9
:10DAF00010A03EF810E08AEA0E0E1EF47F4F1FBF02
:10DB0000154D4FF0010935F81050C5F30325A4E772
:10DB1000DFF844A03AF813801EF803B03AF813E097
:10DB20000EF47F4A08F00F0E4AEA0E0E4EEA0B1E64
:10DB3000BBE703B0BDE8F08F240C0010031C0010FD
:10DB400072660010560E00109C000010306000102D
:10DB5000065500102C6E00101E0A0010330C001029
:10DB6000521000102D57001008550010F0B5044653
:10DB700085B0092898BF3034084617461E4603A9C9
:10DB80004FF000034FF00A028DF80C308DF80D3085
:10DB90008DF80E308DF800308DF801308DF804309E
:10DBA0008DF805308DF808308DF809309DF82C502F
:10DBB00098BFE4B201F01EF89DF80C303BB9302359
:10DBC0008DF80C308DF80D308DF80E3014E09DF886
:10DBD0000D203AB98DF80E3030238DF80C308DF8C9
:10DBE0000D3009E09DF80E1031B98DF80D3030235D
:10DBF0008DF80E208DF80C30384669460A2200F068
:10DC0000F9FF9DF8013033B99DF800308DF80130EF
:10DC100030238DF80030304601A90A2200F0EAFFD7
:10DC20009DF8053033B99DF804308DF80530302368
:10DC30008DF804309DF8280002A90A2200F0DAFFCE
:10DC40009DF8093033B99DF808308DF8093030233C
:10DC50008DF80830414B1B7863B930238DF80930BB
:10DC60008DF808308DF805308DF804308DF80130CE
:10DC70008DF800303A4B1A8892B2B2F5D17F394A0A
:10DC800013D1002101F10B00105CC0B2505440F2DE
:10DC9000971001318142F5D1302050540131B1F556
:10DCA000D17FF9D140F297111980198805F1300020
:10DCB00089B2C0B2505419889DF8000089B2013170
:10DCC000505419889DF8010089B2023150541988C6
:10DCD0009DF8040089B20331505419889DF805005D
:10DCE00089B20431505419889DF8080089B2053171
:10DCF000505419889DF8090089B20631505419888A
:10DD00009DF80C0089B2073154541988313C89B20E
:10DD10000831505419889DF80D0089B209315054CA
:10DD200019889DF80E0089B20A3150541A88072CC0
:10DD300002F10B0292B21A8006D8012D0CBF0A4ADA
:10DD40000A4A1388013305E0012D0CBF064A074A31
:10DD50001388013B9BB2138005B0F0BDE00E0010AC
:10DD600018600010CA64001004550010FC5F001019
:10DD700018B901224FF0402308E0012802D1044BDA
:10DD800058607047022802D1024B01225A60704746
:10DD9000008000400000094028B90A4B18604FF08D
:10DDA000402358607047012804D1074A00231360BC
:10DDB000064A05E0022804D1054A00231360054AFB
:10DDC00053607047085700105862001000800040F0
:10DDD000FC0600100000094010B94FF0402206E098
:10DDE000012801D1044A02E0022804D1034A536801
:10DDF00043F0020353607047008000400000094078
:10DE000068B91A4B032218604FF0402399615A6198
:10DE1000174B02221A60202283F801237047012841
:10DE20000DD1144B00221A60134B032299615A61E1
:10DE30000F4B04221A60282283F80223704702281D
:10DE400013D10E4B00221A600D4AD2F8C43043F4AD
:10DE50008003C2F8C4300B4B032299615A61044B12
:10DE600008221A60302283F80323704708570010F5
:10DE700000E100E05862001000800040FC06001045
:10DE800000C00F400000094001224FF040231A60FB
:10DE9000024A136801331360704700BF085700102F
:10DEA000124B01221A60124A136801331360114A9F
:10DEB000127D91060AD5104A1278062A06D10F4A19
:10DEC00052781AB1052B01D9FBF780BB0C4A127DA1
:10DED00092060AD5084A1278012A06D1094A5278D0
:10DEE0001AB1052B01D9FAF72FBB7047008000400B
:10DEF0005862001000C0094004570010A20E001024
:10DF000000C00040D1000010124B01221A60124ADA
:10DF1000136801331360114A127D91060AD5104A25
:10DF20001278062A06D10F4A52781AB1052B01D968
:10DF3000FBF780B80C4A127D92060AD5084A12787F
:10DF4000012A06D1094A52781AB1052B01D9FAF7EC
:10DF5000B5BD704700000940FC0600100080094074
:10DF60004D110010700E0010000001401010001044
:10DF70004FF08043AA221A7255221A72704700008D
:10DF80004FF0804301221A61044A1268120950437B
:10DF9000032258601A70FFF7EBBF00BF6400001047
:10DFA00038B52C4BD3F88820C2F30162032A39D14B
:10DFB000D3F80C21D3F8880002F003024004400C8F
:10DFC0000130012A08D0022A234CD3F88820D3F844
:10DFD000045116D0214B16E0D3F88820D3F8044121
:10DFE0001F4BC2F30742A0FB030101320023E4B23E
:10DFF00002F090F90023621C02F08CF9164B1860B5
:10E0000038BD4FF47A43C2F30742A0FB030101324B
:10E010000023EDB202F07EF96A1C002302F07AF9C7
:10E02000206038BDD3F80C11D3F8043101F003019E
:10E03000DBB201330129084A03D0022903D0094980
:10E0400003E0094901E04FF4FA41B1FBF3F3136037
:10E0500038BD00BF00C00F406400001000127A00FD
:10E0600000366E0100093D00001BB700354B202231
:10E07000C3F8A0211A46D2F8A011324B4906FAD5AE
:10E080000322C3F804210022C3F8A821C3F8AC215D
:10E090002D4A0120C3F80C01AA21C3F8842055227F
:10E0A000C3F88C10C3F88C20C3F88000C3F88C1020
:10E0B000C3F88C20D3F8882012F0806F214AF9D061
:10E0C0000323C2F88030AA23C2F88C305523C2F84B
:10E0D0008C30D2F888101B4B11F0407FF9D02322EE
:10E0E000C3F8A420AA2155220120C3F8AC10C3F81C
:10E0F000AC20C3F8A000C3F8AC10C3F8AC20D3F830
:10E10000A82012F4806F0F4AF9D00323C2F8A03080
:10E11000AA23C2F8AC305523C2F8AC30D2F8A8100C
:10E12000084B11F4407FF9D0084AC3F8C4200022FC
:10E13000C3F8C8211A6822F4704242F480421A607F
:10E14000704700BF00C00F401F000100DE87280499
:10E1500008B500200146024600F0FAFCBDE8084080
:10E16000F2F79ABD02F03EBD02F056BD02F062BD6C
:10E17000425C4318342A01DC00207047352A06D15E
:10E18000194611F8012F302AFBD0002AF4D01A4684
:10E1900012F8011D392902D130211170F8E701313F
:10E1A00011700278302AE7D01A1A002A03DB13F81C
:10E1B00001299A70F8E70120704710B58C1FA14221
:10E1C0000DD00A2390FBF3F3C3EB43123030C3EBC3
:10E1D000820200EB420001F801091846EFE710BD8A
:10E1E0000EB430B5054690B013AB53F8044B002184
:10E1F000282206A80593FFF7B9FF0A2309936FF0B9
:10E2000000430893059B009401930F4B06A80293CB
:10E210004FF0FF326FF00043069500F03BFD089B86
:10E220000446013B002B089303DB069B00221A7077
:10E2300003E0002006A901F002FD204610B0BDE871
:10E24000304003B0704700BF51E200000000000002
:10E250002DE9F04F144647F6F0724E689FB00693D2
:10E26000C6F30F4323F00F035B040F685B0C93426C
:10E270000590DDF8A4B00897079627D10023E37036
:10E28000C6F313033B434FF06E0315D1692263704D
:10E29000002E4FF066032270A37001DA844B10E069
:10E2A000069B9A0706D4834A13F0040F824B08BFDB
:10E2B000134606E0814B04E023706122A3707D4B7E
:10E2C0006270289A0320136000F03FBC059B23F086
:10E2D0002003412B00F044823846314600220023BF
:10E2E00002F0F6FB38B106F10043089A1E460123FE
:10E2F0001746099300E00990384631460022002372
:10E3000002F0D0FB002840F00D8240F22D1511AA3A
:10E310003846314601F095FD119ACDE91201554379
:10E32000A5F5AB531C3B4FF47A7593FBF5F5002034
:10E330006349AA1A01F0B2FD002DCDE91C0106DAED
:10E3400055A3D3E900236E42CDE9182306E05D4BC7
:10E350004FF00002CDE9182316D02E46F30709D559
:10E36000DDE91823DDE91C0102F090F8012ECDE96A
:10E370001C0109D0DDE91823DDE9180102F086F857
:10E380007610CDE91801E9E7DDE91201DDE91C238A
:10E3900002F00CF9CDE91401DDE9140140A3D3E941
:10E3A000002302F095FB88B1DDE914010022464B01
:10E3B00002F06CF8CDE91401DDE91C010022424BAA
:10E3C00002F0F4F8013DCDE91C01E5E7DDE91401B7
:10E3D00035A3D3E9002302F0D7FB88B1DDE91401AE
:10E3E0000022394B02F0E2F8CDE91401DDE91C010D
:10E3F0000022354B02F04AF80135CDE91C01E5E772
:10E40000DDE9140102F000FB6B4213EA250338BF7B
:10E410002B4682460E93504602F03AFB119AAA1AF6
:10E4200001F03CFD00220023002DCDE91401CDE9CF
:10E4300016234BDA18A1D1E90001CDE91801CDE985
:10E440001A23DDE91889DDE918014FF0000842467A
:10E45000DDE91A674B4602F051F902460B46304699
:10E46000394602F037FACDE91A01CDE91889DDE91C
:10E4700018010022134B02F009F802460B46002057
:10E480000F4902F03BF900220E4B02F08FF8CDE964
:10E490001A0124E0AFF300809A9999999999C93F9C
:10E4A00000000000006AF8400000000080842E4157
:10E4B00062ED02001AA60200BCF6010032ED020075
:10E4C0000000F03F0000144000002440AE494FF02F
:10E4D0000000CDE91801CDE91A2300F08980DDF8AC
:10E4E00038C01CF0010F48D0DDE91401DDE91A2322
:10E4F000DDE91667DDE91889CDF83CC0CDE90A678A
:10E50000DDE91A6701F0C2FF3246CDE90C013B4656
:10E510004046494602F0DEF902460B46DDE90A01B3
:10E5200001F0B4FF02460B46DDE90C0102F0D2F91E
:10E53000CDE91601DDE91823DDE9140101F0A6FF9C
:10E54000CDE91401DDE91489DDE914014FF000087B
:10E550004246DDE916674B4602F0D0F802460B460C
:10E560003046394602F0B6F9DDF83CC0CDE9160177
:10E57000BCF1010FCDE914893AD0DDE91801DDE9DC
:10E580001A67DDE91A8902460B46CDF828C002F069
:10E59000A1F932463B4602F09DF902460B46404641
:10E5A000494601F073FFCDE91A01DDE91823DDE9E1
:10E5B000180101F06BFFCDE91801DDE91889DDE9EB
:10E5C00018014FF000084246DDE91A674B4602F099
:10E5D00095F802460B463046394602F07BF9DDF8E5
:10E5E00028C0CDE91A014FEA6C0CCDE9188978E70B
:10E5F000DDE91401DDE9122302F098FA10B90AF1FD
:10E60000FF3A08E7DDE91423DDE9120102F076F8AC
:10E61000CDE91201DDE91623DDE9120102F06EF801
:10E62000CDE91201DDE91C23DDE9120101F0BEFF95
:10E6300053A3D3E90023CDE91201DDE9120101F072
:10E6400025FFCDE91201DDE9120102F0DDF9DDE976
:10E650001267804602F01CFA02460B4630463946E5
:10E6600002F04CF846A3D3E9002301F00FFFCDE9F7
:10E670001201DDE9120102F0C7F90646002E06DAA2
:10E6800006F5742606F5107608F1FF38F6E73F4BDD
:10E690009E4206DDA6F57426A6F5107608F101085F
:10E6A000F5E7B8F1000F06DA08F5742808F51078D8
:10E6B0000AF1FF3AF5E7984506DDA8F57428A8F5B4
:10E6C00010780AF1010AF6E7314B50469A4511DC01
:10E6D000013398FBF3F296FBF3F32E480A2100FB7B
:10E6E000028800FB036601FB0A2A01FB08384E433F
:10E6F000013D1CE0254B9A4519DD0A229AFBF2FAEE
:10E700006FF0090303FB0A002349013501FB008078
:10E7100090FBF2F803FB080301FB0366053696FB4A
:10E72000F2F604E00026B046B2466FF0040521463A
:10E73000302701F8067B5046FFF73FFD404604F1C5
:10E740000C01FFF73AFD304604F11201FFF735FDE9
:10E7500000232375099B0535E77443EA850500E02E
:10E760000025EF0701D50D4B1FE0069B9E071BD42C
:10E770000B4A13F0040F0B4B08BF134615E000BF04
:10E780000000000080842E41000014403F420F0032
:10E790009F8601006079FEFF40420F0062ED02009B
:10E7A0001AA60200BCF60100AD4B289A25F001051F
:10E7B0001360042395FBF3F5059BDBF80060612BE8
:10E7C00010D006DC452B67D0472B48D0412B44D1D5
:10E7D00008E0059B662B00F0DF80672B3FD0652BA0
:10E7E0003BD159E0079B0020C3F31301089B18435A
:10E7F000079BC3F30A5212B1A2F2FF3304E050EABE
:10E800000103984B08BF0023002A0CBF302231229D
:10E8100066B9069D2D0709D4059D20469249934C63
:10E82000612D08BF2146FFF7DBFC0CE0CDE90001BC
:10E83000029320468E4B8F49059C612C18BF1946C8
:10E840003346FFF7CDFC8C4A8C4B079933EA210302
:10E8500028BF1346289A136077E167230593069B28
:10E86000002E43F400630693DCBF0123CBF8003095
:10E87000DBF8001020461129D4BF01311221FFF727
:10E8800077FCDBF8003005449D427EDB013BCBF892
:10E890000030059B023B0593DBF80030112BC1BF14
:10E8A0002B9A113B13601123C8BFCBF80030069B95
:10E8B000DBF8006013F4006706F1020604D120467D
:10E8C0003146FFF755FC054463782370DBF80030D0
:10E8D00023B940F60803069A134013B12E23637040
:10E8E00000E001262B9B1B68002BC2BF3E23A355D3
:10E8F000013677B1069B1F070BD4A219161B12F81D
:10E90000013D302BFAD03E2BF8D02E2B08BF06F15C
:10E91000FF369DF81430002DA355B8BF6D4206F1A7
:10E92000020306F10102B5BF2D212B211E461E4612
:10E93000B5F57A7FA1540ADB4FF47A7295FBF2F2B7
:10E9400002F13001E1544E495E1C01FB0255632D7A
:10E950000ADD642395FBF3F303F13002A2556FF057
:10E96000630202FB035501360A2395FBF3F303F11F
:10E970003002A255C3EB43123035C3EB820334445B
:10E9800005EB43036370B01CDFE02A1DFFF67EAF8A
:10E99000EA431344CBF80030069A002DDBF8003030
:10E9A00002F400674CDAC5F100085A1C904509DDF5
:10E9B000302323702E236370DBF800302B9A02265D
:10E9C000136038E02B449E1C122EC1BF2B9A113BC2
:10E9D000136013265FB920463146FFF7C9FB30B1FB
:10E9E0007FEA050806F1010601D163780DE0B8F170
:10E9F000010F04EB06030CD11A1B002A03DD13F8E8
:10EA000001299A70F8E70136302323702E236370B2
:10EA100011E01A1B002A03DD13F80129DA70F8E768
:10EA2000302323702E2363702A9A3C23A37008F1AD
:10EA3000FF33023613602B9B1B68002B38DC6CE025
:10EA400005EB030808F10206122E50DDD7B9204667
:10EA50001321FFF78DFBA8B10135142613E000BF89
:10EA600032ED020001FCFFFF3CED020034ED02003C
:10EA700053ED020044ED020062ED02001AA602000E
:10EA800018FCFFFF1326721E9542234614DA13F872
:10EA9000012F03F8012C1A1BAA42F8DD63192E225C
:10EAA0005A70DBF800301D442B9B113D1D60A5B34F
:10EAB0003E23A355013630E013F8011F03F8011C73
:10EAC000191B9142F8DBA3193C2203F8012CAD1B62
:10EAD0002A9B2E2202351D60A255DBF80020731CF4
:10EAE000D2B12B9902360A603E22E25415E03FB9BA
:10EAF00020463146FFF73CFB10B1013508F1030613
:10EB0000234613F8012F03F8012C1A1BAA42F8DD43
:10EB100025442E236B7000E01E466FB1069B18073C
:10EB200012D4A019061B10F8013D302BFAD03E2B51
:10EB3000F8D02E2B08D105E0DBF8003023B9069B76
:10EB4000190701D4701E00E030461FB0BDE8F08FF9
:10EB500010B500214FF4A0722248FFF707FBC02038
:10EB600001F074FA204C0021C0222060FFF7FEFA69
:10EB7000206800231B4C2822182102FB034201FBC2
:10EB800003010133082B5162F4D1224617490020BA
:10EB900001F0F6F84FF48053204600214FF48062D4
:10EBA00000F096FF04F128021149012001F0E8F875
:10EBB0004FF4805304F1280000214FF4806200F0EC
:10EBC00087FF04F150020A49022001F0D9F804F14C
:10EBD000500000214FF480624FF48053BDE8104094
:10EBE00000F076BF5479001050790010930C0100AA
:10EBF00064ED02000A2AF0B5034601D100281FDBAC
:10EC000000200D461E46B3FBF2F32C4602FB1366B2
:10EC10000E4FBE5D04F8016B0BB12546F2E710B153
:10EC20002D23AC1C6B70002222700A46631E9A4290
:10EC300009D21878147803F8014902F8010BF6E7B5
:10EC400043420120DDE70846F0BD00BF66ED02004B
:10EC500040EA01039B0770B50ED104460B46032A18
:10EC60001946204608D906680D680434AE4203F1FF
:10EC7000040301D1043AF2E70244904207D010F8AD
:10EC8000013B11F8014BA342F7D0181B70BD0020C7
:10EC900070BD00002DE9F04F0446ADB0CDE90A2368
:10ECA000DDF8DC800022369B059218785D1C002878
:10ECB00000F04C86252802D12A46002723E0059B38
:10ECC0004FEAE37B1A465E1C5B46DDE90AAB524520
:10ECD00073EB0B0380F23686A368013B002BA36025
:10ECE00005DB23685A1C2260187000F02BBE2146F9
:10ECF00000F0A5FF00F026BE0BD9B9F12D0F11D100
:10ED000047F001072A4615F8019BB9F12B0FF3D103
:10ED10000EE0B9F1200F0ED0B9F1230F0ED147F05C
:10ED20000807EFE7B9F1300F08D147F40077E9E7BA
:10ED300047F00207E6E747F00407E3E7B9F12A0FD7
:10ED400001D000230DE0D8F8003008F10401002BB9
:10ED5000BCBF5B4287F00107951C92F80190884682
:10ED60000AE0A9F13002D1B2092905D80A2101FB34
:10ED7000032315F8019BF4E723EAE373B9F12E0F9F
:10ED80000F9324D195F80090B9F12A0F03D00023F6
:10ED90000135069308E0D8F8003095F80190069305
:10EDA00008F1040802350CE0A9F13003DAB2092AAF
:10EDB00007D806990A2202FB013315F8019B069336
:10EDC000F2E7069B002B02DB47F0100701E000236F
:10EDD0000693B9F16C0F0DD195F80090B9F16C0F55
:10EDE00003BF95F8019047F060070235013518BF61
:10EDF00047F02007B9F14C0F02D0B9F1710F04D1DF
:10EE000095F8009047F060071FE0B9F1680F0ED148
:10EE100095F80090B9F1680F03BF95F8019047F499
:10EE200080770235013518BF47F080070EE0B9F151
:10EE30006A0F02D147F0400705E0B9F17A0F02D01E
:10EE4000B9F1740F02D195F800900135B9F1670F4F
:10EE500025DCB9F1650F80F26E82B9F1470F00F041
:10EE60006A820CDCB9F1410F00F05F82B9F1450F05
:10EE700000F06182B9F1000F00F0B48031E0B9F127
:10EE8000610F00F0528204DCB9F1580F00F071817B
:10EE900027E0B9F1630F1ED0B9F1640F0CE0B9F1AE
:10EEA000700F00F0B4810ADCB9F16E0F00F09F80A2
:10EEB00000F3B681B9F1690F00F0F48111E0B9F106
:10EEC000750F00F0CD81B9F1780F00F07981B9F1BB
:10EED000730F06D1AEE008F104030E93D8F800904A
:10EEE00001E0CDF838800F9B03F1FF3A17F00103E2
:10EEF00006932ED117F4007F14BF4FF030084FF067
:10EF0000200800260027059B9A190F9BA3F1020AEF
:10EF1000BAEB060A1CD4059BF01847EBE371DDE958
:10EF20000A23904271EB03030EDAA268013A002A29
:10EF3000A26005DB2268511C216082F8008003E09A
:10EF40004046214600F07BFE013647F10007DAE734
:10EF50000592059BD9171A4603F1010B0B46DDE913
:10EF60000A0182428B410EDAA368013B002BA360A9
:10EF700005DB23685A1C226083F8009003E04846B2
:10EF8000214600F05CFE069B1BB9CDF814B000F0E2
:10EF9000D6BC00260027F34313EB0A0F1BD4DDE990
:10EFA0000A0116EB0B0247EBEB7382428B410EDA40
:10EFB000A368013B002BA36005DB23685A1C226079
:10EFC00020221A7003E02020214600F038FE01368E
:10EFD00047F10007DFE75B46BAF1000FA8BF5344D3
:10EFE00000F0ACBC013DCDF8388000F0A8BC08F1C1
:10EFF000040317F0400F0E93D8F8003006D0059A9E
:10F000001046D117C3E9000100F099BCBE060DD42B
:10F01000F80504D59DF814201A7000F090BC39064C
:10F0200004D5BDF814201A8000F089BC059A1A6036
:10F0300000F085BC08F104030E93D8F80090AB4BA8
:10F04000B9F1000F08BF9946484600F086FDFA0660
:10F05000824603D5069B9842A8BF9A460F9BCAEBEF
:10F06000030B17F00103069331D117F4007F14BF8F
:10F070004FF030084FF02008002600270BF1FF3238
:10F08000911B00291CDB059BF01847EBE371DDE9C0
:10F090000A23904271EB03030EDAA268013A002AB8
:10F0A000A26005DB2268511C216082F8008003E029
:10F0B0004046214600F0C3FD013647F10007DDE779
:10F0C000059B2BEAEB7B5B440593CBEB020B002605
:10F0D0000027B245059B1CDDDDE90A01F21847EB6C
:10F0E000E37382428B4110DAA368013B002BA360DB
:10F0F00009EB060305DB2268511C21601B781370A5
:10F1000003E01878214600F09AFD013647F1000728
:10F11000DFE7BAF1000FA8BF53440593069B002B0D
:10F1200000F00D8400260027F34313EB0B0F059B23
:10F130001AD4DDE90A01F21847EBE37382428B41EE
:10F140000EDAA368013B002BA36005DB23685A1C81
:10F15000226020221A7003E02020214600F06FFD7B
:10F16000013647F10007DFE7BBF1000FA8BF5B44A2
:10F17000E4E37B0609D508F1070828F0070808F141
:10F1800008030E93D8E9002305E008F10403D8F83A
:10F1900000200E9300233E0601D592B203E0F8054D
:10F1A00002D502F0FF020023514917F0080F514821
:10F1B00008BF0846F90640F1E28027F40077DEE058
:10F1C0007B0609D508F1070828F0070808F10803AD
:10F1D0000E93D8E9002305E008F10403D8F80020D5
:10F1E0000E9300233E0601D592B203E0F80502D546
:10F1F00002F0FF0200233E4917F0080F3E4808BF07
:10F200000846F90640F1BD8027F40077B9E008F11F
:10F2100004030E93D8F80020002338493648B3E0A1
:10F220007E0609D508F1070828F0070808F1080349
:10F230000E93D8E9002305E008F10403D8F8002074
:10F240000E930023380601D592B203E0F90502D5EA
:10F2500002F0FF02002317F0080F2549284859E063
:10F260007E0609D508F1070828F0070808F1080309
:10F270000E93D8E9002305E008F10403D8F8002034
:10F280000E930023380601D592B203E0F90502D5AA
:10F2900002F0FF02002317F0100174D027F400776A
:10F2A000002170E07B0609D508F1070828F007085F
:10F2B00008F108030E93D8E9002305E0D8F80020F0
:10F2C00008F104030E93D3173E0601D512B202E0F3
:10F2D000F80501D552B2D317002A73F1000113DAF1
:10F2E000524263EB4303074818E000BF77ED02008A
:10F2F0001AA602007EED020081ED020095ED0200EB
:10F3000077F6010062ED0200B90706D4BA49BB489E
:10F3100017F0040F08BF084600E0B94817F01001C5
:10F3200032D027F4007700212EE0FB065EBF0D23CC
:10F3300047F010070693069A17F0100F08F1070818
:10F3400008BF062228F00708069217F0200108F1EE
:10F35000080247F480630E9208D0D8E900011F46E6
:10F36000CDE9220100220023002106E0D8E9006750
:10F370000022CDE922671F460023084604E0A14988
:10F3800002E0A14900E09C48059EDDE90AABBAEB2A
:10F39000060A6BEBE67BCDE908AB069E1F904FF0AB
:10F3A000FF30209021901E9600204FF0550E24AE85
:10F3B00000F806E001302028F7D117F4826F04BF6F
:10F3C00001201E90B9F1670F1BDCB9F1650F80F2C7
:10F3D000D480B9F1470F00F0D08008DCB9F1410FBB
:10F3E00000F0CB80B9F1450F40F0D780C5E0B9F10E
:10F3F000610F00F0C280B9F1640F17D0B9F1580F56
:10F4000011E0B9F1700F14D008DCB9F1690F0DD01B
:10F41000B9F16F0F40F0C180002120E0B9F1750F04
:10F4200004D0B9F1780F40F0B88002E04FF0000E40
:10F4300027E0002052EA030E064600F0AF8002F0FB
:10F440000F0611F806E024AE00F806E0160946EAB9
:10F4500003764FEA131E324673460130EAE752EA5A
:10F4600003000E4600F09A8002F00700303024AE10
:10F470008855D00840EA4370DE0802463346013121
:10F48000EDE752EA0301764600F08880910841EAF0
:10F49000837118919908199159084FEA3200DDE9F2
:10F4A000188918EB0008404649EB0109494606094E
:10F4B00046EA097610960E091196DDE9108918EBD7
:10F4C0000008404649EB01094946060A46EA096632
:10F4D00012960E0A1396DDE9128918EB00084046D1
:10F4E00049EB01094946060C46EA094614960E0CFA
:10F4F0001596DDE9148918EB000849EB010940462F
:10F50000494600261B96CDF86890DDE91A8918EB6C
:10F51000000849EB010940464946C608C908901D44
:10F5200046EA49760D9143F100010A23A6FB0389BF
:10F530000C960D9EB0EB080003FB06994FEA1016DF
:10F5400061EB090146EA0176090916961791DDE992
:10F550001601DDE90C8910EB080000EB800302F1D5
:10F560003002A2EB430241EB090124AB0EF8032069
:10F570000EF1010E02460B4683E71FAB00931EAB54
:10F58000019320AB029321AB0393389E484622A9F6
:10F5900024AA3B46B047064600E0002617F48063E5
:10F5A0001C930ED000231E93209B002BC4BF03F19D
:10F5B000FF331E93219B002B08DD1E9A013B134451
:10F5C00003E01E9B9B1B48BF00231E931E9B1F989E
:10F5D00006EB030800F0C1FA0F9BC8EB030B07F022
:10F5E00001030F9340F201233B40C0EB0B0B6BB1C7
:10F5F00000220020002142E01AA60200BCF6010011
:10F6000032ED020084ED020095ED02004FF000089B
:10F610004FF000090BF1FF33C8EB0302002A19DB9E
:10F62000DDE90823904579EB03030EDAA368013B7B
:10F63000002BA36005DB23685A1C226020221A706D
:10F6400003E02020214600F0FAFA18F1010849F100
:10F650000009DFE72BEAEB72C2EB030BC9E7DDE938
:10F660000601801841EBE271DDE90889404571EB44
:10F67000090312DBDDE90601013041F10001CDE9AA
:10F6800006011F99069B481C1F9091F800E0D318B3
:10F690009A46BEF1000FE2D111E0A368013B002BB6
:10F6A000A36005DB2368591C216083F800E0E1E7D3
:10F6B000704621461D9200F0C2FA1D9ADAE70F9AB1
:10F6C000002A35D117F4007F14BF302720270020EF
:10F6D0000021CDE9060106990BF1FF32511A0029EC
:10F6E00020DBDDE90601DDE90889C01841EBE371A3
:10F6F000404571EB09020FDAA268013A002AA260C4
:10F7000004DB2268511C2160177005E03846214651
:10F710001D9300F094FA1D9BDDE90601013041F1D3
:10F720000001D6E72BEAEB7B03EB0B0ACBEB020BDA
:10F730001C9B002B7CD00027B74280F2D58024ABE5
:10F7400017F803E0BEF13C0F07D0BEF13E0F51D1D8
:10F750004FF000084FF0000934E04FF000084FF080
:10F760000009209A0AEB0803013A002A20925CDB88
:10F77000DDE9080118EB0A0249EBEA7382428B418A
:10F780000EDAA368013B002BA36005DB23685A1C3B
:10F79000226030221A7003E03020214600F04FFA38
:10F7A00018F1010849F10009DBE718EB0A0249EBFF
:10F7B000EA73DDE9080182428B410BDB18F1010895
:10F7C00049F10009219A0AEB0803013A002A219223
:10F7D000EBDA2AE0A368013B002BA36005DB23687A
:10F7E0005A1C226030221A70E8E72146302000F0CF
:10F7F00026FAE3E7DDE908014FEAEA79824579EB89
:10F8000001020AF1010310DAA268013A002AA2609B
:10F8100005DB2268511C216082F800E005E070469B
:10F820002146069300F00BFA069B01379A4683E7C0
:10F830004FF000084FF000091E9B0AEB0807013B40
:10F84000002B1E931CDBDDE9080118EB0A0249EBD3
:10F85000EA7382428B410EDAA368013B002BA3605E
:10F8600005DB23685A1C226030221A7003E0302026
:10F87000214600F0E4F918F1010849F10009DBE73D
:10F880002CAB03EB060AAAF1210A4FF000084FF057
:10F890000009C8EB0603002B20DDDDE9080118EBA9
:10F8A000070249EBE77382428B4110DAA368013B00
:10F8B000002BA36006DB23685A1C22609AF8002004
:10F8C0001A7004E09AF80000214600F0B8F918F127
:10F8D00001080AF1FF3A49F10009DAE7002EACBF4E
:10F8E00007EB060A07F1000A0F9B2BB3002600273F
:10F8F000F34313EB0B0F1BD4DDE9080116EB0A02EF
:10F9000047EBEA7382428B410EDAA368013B002B7E
:10F91000A36005DB23685A1C226020221A7003E0D2
:10F920002020214600F08BF9013647F10007DFE780
:10F93000BBF1000FA8BFDA44059B53440593DDF8E3
:10F940003880059E05962B46FFF7AFB905982DB078
:10F95000BDE8F08F0A4B034493F880309A0601D536
:10F96000303808E01A0701D5573804E0DB064CBFF1
:10F9700037384FF0FF308842A8BF4FF0FF30704754
:10F98000C8ED02002DE9F84F804689461646034629
:10F990001D4615F8010BD0B1274A024492F8802089
:10F9A000D20701D52B46F3E7302810D158789D1C9B
:10F9B00000F0DF02582A06D136F010073AD1DD1CDC
:10F9C0009878102608E0012736B9082604E00EB121
:10F9D000002701E037460A260024A246A346314606
:10F9E000FFF7B8FF00280EDB06FB0400030C06FB44
:10F9F0000A3ABAF5803F84B228BF4FF0010B15F8E0
:10FA0000010B0127EBE7B9F1000F05D00FB1013D64
:10FA100000E04546C9F80050BBF1000F06D0074B87
:10FA200022221A604FF0FF30BDE8F88F44EA0A4006
:10FA3000BDE8F88F0127CFE7C8ED0200980000105D
:10FA4000F7B50E46074601460D4615F8013B7BB15A
:10FA50001748184490F8804014F0010401D029465A
:10FA6000F2E72B2B06D02D2B02D14FF4007401E0CE
:10FA70000D460024284601A9FFF784FF26B1019B0B
:10FA8000AB4208BF3B463360A30508D5404200287F
:10FA90000CDD084B22221A604FF0004006E00028DF
:10FAA000BFBF044B22221A606FF0004003B0F0BDCC
:10FAB000C8ED02009800001038B5044C00212568FC
:10FAC0000A22FFF7BDFF256038BD00BF9800001077
:10FAD00070B5C468A50717D0B2F5007F09D0B2F59C
:10FAE000806F03D0B2F5807F0ED102E0416A01231E
:10FAF00003E0064D5E1EAE4206D81443016101606C
:10FB0000C361C460002070BD012070BDFEFFFF0016
:10FB10000028B8BF4042704740EA01039B0710B578
:10FB200013D10246043951F8043FA3F1013424EA09
:10FB3000030414F0803F02D142F8043BF3E7D9B24A
:10FB400002F8011B41B11B12F9E7421E11F8013BFB
:10FB500002F8013F002BF9D110BD10B5421C8307FC
:10FB600005D010F8013B002BF9D1801A10BD0346D7
:10FB700050F8041BA1F1013424EA010414F0803F81
:10FB8000F5D011F0FF0F0AD011F47F4F05D011F41A
:10FB90007F0F14BF0346033302E0023300E001335A
:10FBA000981A10BD40EA01039B0770B514D10546B1
:10FBB0000E46032A314628460ED955F8044B0B68E9
:10FBC00004369C4208D1A4F1013323EA040313F064
:10FBD000803F01D1043AECE7024490420BD010F888
:10FBE000013B11F8014BA34201D0181B70BD002B43
:10FBF000F3D1184670BD002070BDC36810B523F066
:10FC00002003C360436A82695B6804469A420FD04E
:10FC100000F0EBF8E368626A23F4405323F010032A
:10FC200043F01003E3605368A3612369936023608A
:10FC3000E36823F4804323F04003E36010BDCB6806
:10FC400070B523F400229B0605460C46CA6002D517
:10FC50000846FFF7D2FFA168E3684E1C0DDA98054D
:10FC60000BD443F49033E3606FF001022368521A1F
:10FC7000A2605A1C22601D7056E041F28A021A40AE
:10FC8000022A1E4605D0002243F08003A260E360F2
:10FC900052E04AF210011940B1F5004F0AD100219B
:10FCA000204600F031FAE368990602D52046FFF7B6
:10FCB000A4FFE66846F4903316F4706FE3601CD13D
:10FCC000606900F0D7FF50B1720508D5636A2361FF
:10FCD00023600123E36146F49233E3600DE04FF4C7
:10FCE000805000F0B3F94FF48053E268E36146F4CA
:10FCF00094331A4320612060E26013F4106F21688E
:10FD000026691CD0636A9B688B422CBFC6EB03013B
:10FD1000C6EB010151B9636A721C9A602260E26904
:10FD2000511EA160DA603570E8B270BD30462246DF
:10FD300000F0DAF80028EED04FF0FF3070BD4A1C1A
:10FD4000EDB222600D70606A216882688A422CBF21
:10FD5000C6EB0201C6EB0101E2695B05C26003D498
:10FD60000A2D01D0914209DB0023866022462660DD
:10FD7000A360304600F0B8F80028DDD1284670BDF9
:10FD800070B50D4606461046144600F06FF92B7804
:10FD9000722B0AD0772B05D0612B23D1082348F290
:10FDA000020204E00423022201E00023012215F8EC
:10FDB000011F2B2906D0622909D142F0040243F029
:10FDC0000103F4E742F0030243F00203EFE71B07ED
:10FDD000E2606661204607D50021022200F094F916
:10FDE000204670BD002070BD70BD38B50446426A23
:10FDF00005690368C068916820F40022E26000F0A1
:10FE00008202022A02D04FF0FF3038BD10F4803059
:10FE100016D0994238BF1946A94209D1636A002019
:10FE20009D60E368256023F48033A060E36038BD03
:10FE30002846491B224600F057F80028EED0E2E79A
:10FE400038BDF8B515460023002206460F4600F0DF
:10FE500029FE20B100232B6000200021F8BDC7F34C
:10FE60000A5330463946A3F2FE348BB93246C7F303
:10FE70001303D70F03F4002647EA4303C3F3130326
:10FE800052001EB163F31301104601E0013CF0E79C
:10FE900040F2FE332C6063F31E51F8BD70B50023B1
:10FEA0001646002204460D4600F0FCFD10B100206D
:10FEB000002170BD40F2FE73C5F30A5232449A42EB
:10FEC0002046294606DD064B22221A60054BD3E95F
:10FED000000170BD002AEADD62F31E5170BD00BF53
:10FEE00098000010A8ED02002DE9F041D568804689
:10FEF000EB020E461446576905D5384600F0B7FEAA
:10FF000045F01005A061114B2B4053B13846A16953
:10FF100000F0B6FE002810DB25F4003525F01005B2
:10FF2000E56032463846414600F0B0FE20F000431E
:10FF3000F61AA3691E44A66128B1E3684FF0FF30AA
:10FF400043F08003E360BDE8F08100BF10000200D1
:10FF5000F8B5314BC51C1C68AD0898B11F4600268A
:10FF600005F10A0E05F1030C05E02368B3F1805F8B
:10FF700014D02646A468002CF7D10C3000F07CF990
:10FF8000431C10D10020F8BD1168B1F1805F15D17C
:10FF900051680B44033363609368A360A26863688D
:10FFA000002AF1D10AE04FF0005380E82800846075
:10FFB0000EB9386000E0B0600C30F8BDAB4207DB32
:10FFC0009C4505DB20464FF0005340F80C3BF8BD44
:10FFD000734511D920464FF00051656040F80C1B65
:10FFE00000EB8501A1604FF0805440F825405D1B77
:10FFF000033D4D608A60F8BD002ABAD1A0EB8300B2
:020000021000EC
:1000000000F03AF90130BDD04FF0005384E82800E9
:1000100004F10C00F8BD00BF947A0010A8B14FF0B5
:10002000805340F80C3C50F8042C72B11368B3F1C3
:10003000805F0AD1536850F8081C0B44033340F822
:10004000083C936840F8043CEDE7704710B5FFF7B3
:100050007FFF044628B90449172200F017FE00F07C
:1000600002FE204610BD00BFB0ED02002DE9F041B8
:1000700000F10C0595E8A001A90788B00446466A7E
:1000800025D02A0716D400F027F8404600F0ECFDF2
:100090002B0502D53846FFF7C1FFAD0DAD0515F1B3
:1000A000A54F07D16846216A202200F0ECFD684682
:1000B00000F0D8F800211822606AFEF757F82046B1
:1000C00000212822FEF752F86662002001E04FF07E
:1000D000FF3008B0BDE8F08138B5044618B1BDE87E
:1000E000384000F0E9B805460648204400F0E4F83E
:1000F0002834002818BF4FF0FF35B4F5A07FF3D1A6
:10010000284638BD547900102DE9F843C668414BA4
:10011000044633400D469046D0F81490002B75D01D
:10012000484600F0A7FD074600286FD1B8F1010F3F
:1001300006D0B8F1020F08D0B8F1000F66D129E05F
:10014000204600F069F8054424E0484600F08FFDA1
:10015000B0F1000ED4F80CC004DA4CF08001E1607C
:10016000012754E02368606A1A46A3691946836828
:1001700093422CBFC918891823691CF0200FA1EBEA
:10018000030303D042689342B8BF13467345ACBF24
:10019000ED187544002D39DB16F4005F626A04D057
:1001A00023689168994238BF9360A1698D4210DB42
:1001B00090682368D4F810E0834238BF034658188B
:1001C000CEEB0000854204DCD06801EB000C6545F5
:1001D00006DB0023A360636046F0200655600FE055
:1001E0006D1AB10744BF281AA060F20744BFC3EBE1
:1001F0000E035B19754448BF6360256026F0200636
:1002000026F4032626F04006E66000E00227384682
:10021000BDE8F88303001000C3689A0705D1104BAE
:1002200021221A604FF0FF30704713F4002F03F0C3
:1002300020030AD013B1436A586804E00268836956
:1002400000691344181A0138704713B1436A58689B
:1002500070470268836900691344181A704700BF29
:100260009800001010B50446FFF777FC01462046C1
:10027000BDE8104000F001BD38B50C4B1A680AB952
:100280000B4A1A60C41C1D6824F003042C44204649
:1002900000F034F818B9054B28461C6038BD054BF2
:1002A0000C221A604FF0FF3038BD00BF987A001062
:1002B0009C7A001098000010C26870B512F0030319
:1002C000044619D0930604D5436A5D68FFF795FC90
:1002D00004E0056883692B4405695D1BE3682046DB
:1002E00023F44053E360FFF780FD0646294620468D
:1002F0000022FFF709FF3346184670BD044B23B1B7
:10030000984234BF0020012070471846704700BF54
:10031000000000005FF0000C30B51C0022D112007C
:100320006FD0914206D305460846002100F06FF8D1
:100330000446284600F06BF80A462146BDE83040E6
:100340001CF0404F08BF704703D54942404261F15D
:1003500000015FEA8C0C38BF70475B42524263F188
:100360000003704742D41C0C04BF1B040CF1100C9A
:1003700013F07F4F04BF1B020CF1080C13F0704FF9
:1003800004BF1B010CF1040C13F0404F04BF0CF12F
:10039000020C5FEA83035CBF0CF1010C5B00CCF143
:1003A000200E22FA0EF4234302FA0CF200FA0CF5A6
:1003B00020FA0EF001FA0CF4204321FA0EF1144653
:1003C0001A4600F024F8A4FB0023AA1A71EB0303D9
:1003D0003CBF1B190138CCF1200E22FA0CF203FAB3
:1003E0000EF4224323FA0CF30021A7E7821A71EBE3
:1003F00003033CBF02460B464FF0000141F10000F1
:100400009CE700200021BDE8304000F03DB8042307
:10041000B1EB122F09D2090241EA10610002013B3F
:1004200008BF7047B1EB122FF5D30018494134BF14
:100430009142891A4041494134BF9142891A404151
:10044000494134BF9142891A4041494134BF9142E8
:10045000891A4041494134BF9142891A404149417A
:1004600034BF9142891A4041494134BF9142891AAF
:100470004041494134BF9142891A4041A3F10103EF
:1004800013F00F0FD2D17047704700002DE9F04FE5
:10049000C1F30A54002C54D040F2FF76B44250D03D
:1004A000C3F30A55002D4CD0B5424AD0C1F3130E08
:1004B0004FEAC22A4EF4801EAEFB0A67AAFB00ABCD
:1004C00016EB0B083E464FEA525242EAC3224FF067
:1004D000000949F1000942F00042E0FB02890027CF
:1004E00016EB090647F10007EEFB02674B40B7F534
:1004F000801F2C4403F0004348EA9A084BD2B619F7
:100500004FEAD8727F41A4F5806416434FEA480849
:100510004FEAD872B61840F2FD7247F10007B8F101
:10052000004F354608BF26F00105944236D9002C0D
:10053000A4BF43F0FF4343F4E00300201946BDE8A5
:10054000F08F83EA0102490011F5001F02F000421A
:1005500013D25B0013F5001F17D313F5001F0DD83E
:10056000490D4905002069B15B0D5B0553B142F0AF
:10057000FF4242F4E001BDE8F08F0AD000200A49B2
:10058000BDE8F08F0849BDE8F08F00201146BDE8B6
:10059000F08F5B00E1E7A4F2FF34B9E73B4303EBE4
:1005A00004512846BDE8F08F0000F87FC1F30A5CD3
:1005B0002DE9F047BCF1000F53D040F2FF74A44581
:1005C0004FD0C3F30A58B8F1000F4AD0A04548D025
:1005D0004FEA505A4FEA5259C402D6024AEAC120A1
:1005E00049EAC32240F0004542F00047BD4208BF3F
:1005F000B442C8EB0C0C83EA01085DD20CF2FD3C5E
:1006000079084FEA36003423002200E0013B8D4296
:1006100008BF84424FEA420204D3241A65EB010565
:1006200042F0010224196D41202B62D0002BEDD144
:100630008D4208BF844203D3013208BF0EF1010E80
:1006400040F2FD718C4508F000433BD9BCF1000F2E
:10065000A4BF43F0FF4343F4E00300201946BDE884
:10066000F0874A0012F5001F1CD85C0014F5001F2B
:1006700018D843EA0100C0F30A504505B0B1500D47
:100680005940400501F00041A0B1600D400548B35C
:1006900014F5001F1DD112F5001F03D000221046D3
:1006A000BDE8F08700201449BDE8F08712492846CC
:1006B000BDE8F087BDE8F0876D084FEA34040CF21E
:1006C000FE3C9DE703EB0C5303EB0E011046BDE827
:1006D000F08741F0FF41002241F4E0031046194643
:1006E000BDE8F08741F0FF4141F4E0031946BDE861
:1006F000F08796468AE700BF0000F87FF0B593EADE
:1007000001040D4600F1CC809942064670D2564055
:1007100004F10041724056404D404B4040F2FF70A2
:100720002C0D24F400618142A4EB135700F0968055
:100730008F4200F09980C5F31305C3F313031F2FF5
:1007400045F4801543F4801357D8C7F1200003FA0D
:1007500000FE22FA07F14EEA0101FB40711AED1A80
:100760008E4238BF05F1FF3512FA00F306D0013989
:100770004F1CC3F1000308BF05F1FF3515F4C01F7E
:1007800058D1DB0FCA0F43EA410342EA450253EA5C
:10079000020500F09A80510BA4F1020508D1190E50
:1007A00041EA0222510BA5F108054FEA0323F6D0D6
:1007B000510C04D1190F043D41EA02121B01D10C66
:1007C00004D1990F023D41EA82029B00110D04D130
:1007D000D90F013D41EA42025B00E40AB4EBD52F98
:1007E0004FF0000006BF02EB05511846E107F0BDCF
:1007F000904293D8994291D189E7352F26D8A7F115
:10080000200023FA00F1711A8E42C7F1400722FA44
:1008100000F038BF05F1FF35BB40120643EA000384
:1008200048D043F0FF0301394E1CC3F1000308BF59
:1008300005F1FF35E8022ED4013C620537D0DE0F0A
:10084000CA0F42EA450546EA41065B00002B25F443
:10085000801511DB05EB04513046F0BD2B0317D199
:1008600087B330462946F0BD40F2FE739F42F5D86B
:100870009FB939463846F0BD013608BF0135B3F19E
:10088000004F08BF26F0010605EB04513046F0BDCD
:1008900000200F49F0BD0E46D8E729463046F0BD8E
:1008A00003F100452B46BDE8F04000F013B82105E8
:1008B0001046F0BD002BB6D1EA02BDD525F4801557
:1008C0000E46C7E702493846F0BD29462846F0BD26
:1008D0000000F87FF0B593EA01060C4600F187802E
:1008E0009942054639D340F2FF70260D26F4006187
:1008F00081423FD0A6EB13578F424CD0C4F3130470
:10090000C3F313031F2F44F4801443F4801338D827
:10091000C7F1200003FA00FE22FA07F1FB404EEA7D
:1009200001011C446D1828BF013402FA00F3A20231
:1009300029D5013508BF01340BB925F0020533056F
:1009400003EB54035A0012F5001F4FF0000040D291
:10095000E407194644EA5500F0BD40F2FF707440C8
:100960007340260D554026F400616A40814285EAB5
:100970000205BFD123034FF0000036D1214628469F
:10098000F0BD352F11D9002B06F1FF3624DB04EB27
:1009900006512846F0BD40F2FE739F42EAD8002F70
:1009A000ECD104F000413846F0BDA7F1200123FA54
:1009B00001F0C7F14007BB4022FA01F12D1843EACC
:1009C00001031BD3120604F10104B0D043F0FF036E
:1009D000ADE701363105F0BD013508BF0134B3F193
:1009E000004F08BF25F00105D1E70649F0BD03F12E
:1009F00000452B46BDE8F040FFF780BE1206E5D16A
:100A0000C1E700BF0000F87FCB020A0D43EA505057
:100A1000C2F58363063340F00040FF2B20FA03F059
:100A20000FD913F4E06F0DD011F0804009D04B00C6
:100A300013F5001F04D8C80F00F1004001387047BB
:100A40000020704740427047F0B1030C0CBF000417
:100A500001F18071030E0CBF000201F50001030FCC
:100A60000CBF000101F58001830F0CBF800001F570
:100A700000110028ACBF400001F5801101EBE0231C
:100A8000420510461946704703461946704700BF95
:100A900000F00041C30F80EAE072D01801F18041FC
:100AA000FFF7D2BF10B54C0054EA000E02D152EA53
:100AB000430E0BD0994201D0002010BD9042FBD1D3
:100AC00014F5001F8CBF0020012010BD012010BDB7
:100AD00030B453EA010409D45C0014F5001F02D8B5
:100AE000994217D319D0002030BC70474D0015F53E
:100AF000001FF8D85C0014F5001FF4D8054301D19D
:100B0000144310D0994205D8EDD1904294BF0020F3
:100B10000120E9E7012030BC704790422CBF002043
:100B2000012030BC70472046DEE700BF30B453EAF6
:100B3000010409D45C0014F5001F02D8994219D3AE
:100B40001BD0002030BC70474C0014F5001FF8D8B3
:100B50005D0015F5001FF4D899420BD808D054EA6F
:100B60000003EED155EA02030CBF01200020E9E7A3
:100B70009042F4D330BC0120704790428CBF0020DB
:100B8000012030BC704700BF30B453EA01044FEA83
:100B9000410408D414F5001F02D8994218D81AD07D
:100BA000002030BC704714F5001FF9D85D0015F522
:100BB000001FF5D899420BD308D054EA0003EFD1B7
:100BC00055EA02030CBF01200020EAE79042F4D866
:100BD00030BC01207047904234BF0020012030BC5F
:100BE000704700BF40EA0103DB0703460CD403460D
:100BF000043A22BF51F804CB43F804CBB2F104020B
:100C0000F7D2043208BF7047013A24BF11F801CB74
:100C100003F801CBF8D870478B18814238BF98424F
:100C2000BFF4E0AF81418018013A0B5C00F8013D50
:100C3000FAD87047034613F0030F0ED101F0FF01FD
:100C400041EA012141EA0141043A24BF43F8041B6F
:100C5000B2F10402F9D202F10402013A24BF03F80E
:100C6000011BFAE77047FEE74FF0FF3070474FF087
:100C7000FF3070474FF0FF3070474FF0FF30704744
:100C80004FF0FF3070474FF0FF307047104670470D
:100C9000757365720061646D696E00485454502F1D
:100CA000312E3120323030204F4B0D0A436F6E749D
:100CB000656E742D547970653A20746578742F6868
:100CC000746D6C0D0A436F6E6E656374696F6E3A76
:100CD00020636C6F73650D0A003C21444F435459E7
:100CE00050452048544D4C205055424C49432022F9
:100CF0002D2F2F5733432F2F4454442048544D4C0D
:100D000020342E3031205472616E736974696F6EB5
:100D1000616C2F2F454E222022687474703A2F2F59
:100D20007777772E77332E6F72672F54522F687430
:100D30006D6C342F6C6F6F73652E647464223E3C4F
:100D400068746D6C3E3C686561643E3C6D657461C1
:100D500020687474702D65717569763D22436F6EDD
:100D600074656E742D547970652220636F6E74659E
:100D70006E743D22746578742F68746D6C3B2063CB
:100D80006861727365743D7574662D38223E3C73DC
:100D900074796C6520747970653D22746578742F60
:100DA000637373223E20626F64797B666F6E743A60
:100DB0002031303025202254726562756368657475
:100DC000204D53222C20417269616C2C2048656CA7
:100DD0007665746963612C2073616E732D7365721F
:100DE00069663B666F6E742D73697A653A3132704D
:100DF000783B7D236172726F646F6E6972207B62D3
:100E00006F726465722D626F74746F6D2D6C6566A0
:100E1000742D7261646975733A313170783B626F19
:100E2000726465722D626F74746F6D2D726967687C
:100E3000742D7261646975733A313170783B2D6D30
:100E40006F7A2D626F726465722D72616469757359
:100E50002D626F74746F6D6C6566743A31317078A1
:100E60003B2D6D6F7A2D626F726465722D726164B5
:100E70006975732D626F74746F6D72696768743A07
:100E8000313170783B6865696768743A343830701E
:100E9000783B626F726465723A2031707820736FAC
:100EA0006C696420234143434645383B7769647449
:100EB000683A2036303070783B7D236172726F64FF
:100EC0006F6E69725F746F70207B626F726465729F
:100ED0002D746F702D6C6566742D72616469757305
:100EE0003A313170783B626F726465722D746F7045
:100EF0002D72696768742D7261646975733A313156
:100F000070783B2D6D6F7A2D626F726465722D72F1
:100F100061646975732D746F706C6566743A3131F4
:100F200070783B2D6D6F7A2D626F726465722D72D1
:100F300061646975732D746F7072696768743A3192
:100F40003170783B6865696768743A323070783B15
:100F5000626F726465722D746F703A203170782000
:100F6000736F6C696420234143434645383B626F8D
:100F7000726465722D6C6566743A203170782073E6
:100F80006F6C696420234143434645383B626F726E
:100F90006465722D72696768743A203170782073C5
:100FA0006F6C696420234143434645383B6261636B
:100FB0006B67726F756E643A202344424542463631
:100FC0003B70616464696E673A3570783B666F6E3A
:100FD000742D73697A653A313370783B666F6E743D
:100FE0002D7765696768743A20626F6C643B776936
:100FF0006474683A203539302E3570783B7D3C2F4B
:101000007374796C653E3C73637269707420747993
:1010100070653D22746578742F6A617661736372BE
:10102000697074223E66756E6374696F6E206163C9
:101030007475616C69747A6128297B6966202877E8
:10104000696E646F772E584D4C4874747052657198
:1010500075657374297B76617220786D6C68747421
:10106000703B786D6C687474703D6E657720584D78
:101070004C487474705265717565737428293B7D92
:10108000786D6C687474702E6F6E726561647973BC
:10109000746174656368616E67653D66756E6374DF
:1010A000696F6E28297B69662028786D6C68747476
:1010B000702E726561647953746174653D3D3420AE
:1010C000262620786D6C687474702E737461747544
:1010D000733D3D323030297B646F63756D656E748E
:1010E0002E676574456C656D656E74427949642838
:1010F00022636F6469676F5F66756E63696F6E22E6
:10110000292E76616C7565203D2022223B7D7D0D68
:101110000A786D6C687474702E6F70656E28224743
:101120004554222C222F65736372697572655F6462
:101130006973706C61793D222B6E6F64652B22267A
:10114000222B636164656E615F62757A7A65725F96
:101150006C65645F746578742C66616C7365293B9B
:10116000786D6C687474702E73656E6428293B7D8D
:1011700076617220636164656E615F62757A7A651B
:10118000725F6C65645F746578743B766172206E23
:101190006F64653B0D0A66756E6374696F6E2062DD
:1011A000757A7A65725F6C65645F746578742820FF
:1011B000666F726D20297B76617220444C433D300E
:1011C0003B76617220444C435F74726F626174209D
:1011D0003D2066616C73653B696628666F726D2E93
:1011E00063616E616C5F312E636865636B65642952
:1011F000636164656E615F62757A7A65725F6C6562
:10120000645F746578743D2231223B656C736520A0
:10121000636164656E615F62757A7A65725F6C6541
:10122000645F746578743D2232223B636164656E4D
:10123000615F62757A7A65725F6C65645F74657808
:10124000743D636164656E615F62757A7A65725F31
:101250006C65645F746578742E636F6E6361742867
:10126000223022293B0D0A696628666F726D2E6B4B
:101270006579626565706F6E2E636865636B656422
:1012800029636164656E615F62757A7A65725F6C0D
:1012900065645F746578743D636164656E615F6207
:1012A000757A7A65725F6C65645F746578742E63B5
:1012B0006F6E63617428223122293B656C7365204F
:1012C000636164656E615F62757A7A65725F6C6591
:1012D000645F746578743D636164656E615F6275B7
:1012E0007A7A65725F6C65645F746578742E636F7B
:1012F0006E63617428223022293B696628666F720A
:101300006D2E62656570747970652E76616C756599
:101310003D3D222229666F726D2E6265657074797B
:1013200070652E76616C75653D2230223B63616489
:10133000656E615F62757A7A65725F6C65645F7411
:101340006578743D636164656E615F62757A7A6524
:10135000725F6C65645F746578742E636F6E636131
:101360007428666F726D2E62656570747970652E73
:1013700076616C7565293B696628666F726D2E759E
:101380006E5F7365676F6E2E636865636B65642956
:10139000636164656E615F62757A7A65725F6C65C0
:1013A000645F746578743D636164656E615F6275E6
:1013B0007A7A65725F6C65645F746578742E636FAA
:1013C0006E63617428223122293B656C736520634A
:1013D0006164656E615F62757A7A65725F6C65647F
:1013E0005F746578743D636164656E615F62757A90
:1013F0007A65725F6C65645F746578742E636F6E76
:1014000063617428223022293B696628666F726DF9
:101410002E6D69675F7365676F6E2E636865636BBA
:10142000656429636164656E615F62757A7A65726D
:101430005F6C65645F746578743D636164656E615B
:101440005F62757A7A65725F6C65645F74657874E3
:101450002E636F6E63617428223122293B656C73A1
:101460006520636164656E615F62757A7A65725F3B
:101470006C65645F746578743D636164656E615F1B
:1014800062757A7A65725F6C65645F746578742ED4
:10149000636F6E63617428223022293B6966286677
:1014A0006F726D2E71756172745F7365676F6E2EEA
:1014B000636865636B656429636164656E615F621F
:1014C000757A7A65725F6C65645F746578743D6384
:1014D0006164656E615F62757A7A65725F6C65647E
:1014E0005F746578742E636F6E6361742822312295
:1014F000293B656C736520636164656E615F62752D
:101500007A7A65725F6C65645F746578743D636157
:1015100064656E615F62757A7A65725F6C65645F3F
:10152000746578742E636F6E63617428223022298B
:101530003B696628666F726D2E7665726D656C6CA0
:101540002E636865636B656429636164656E615FC2
:1015500062757A7A65725F6C65645F746578743DF4
:10156000636164656E615F62757A7A65725F6C65EE
:10157000645F746578742E636F6E636174282231C2
:1015800022293B656C736520636164656E615F62EF
:10159000757A7A65725F6C65645F746578743D63B3
:1015A0006164656E615F62757A7A65725F6C6564AD
:1015B0005F746578742E636F6E63617428223022C5
:1015C000293B696628666F726D2E766572642E639C
:1015D0006865636B656429636164656E615F6275EC
:1015E0007A7A65725F6C65645F746578743D636177
:1015F00064656E615F62757A7A65725F6C65645F5F
:10160000746578742E636F6E6361742822312229A9
:101610003B656C736520636164656E615F62757ABA
:101620007A65725F6C65645F746578743D6361644C
:10163000656E615F62757A7A65725F6C65645F740E
:101640006578742E636F6E63617428223022293BA3
:10165000696628666F726D2E626C61752E636865AF
:10166000636B656429636164656E615F62757A7A34
:1016700065725F6C65645F746578743D6361646511
:101680006E615F62757A7A65725F6C65645F7465BE
:1016900078742E636F6E63617428223122293B6552
:1016A0006C736520636164656E615F62757A7A65EB
:1016B000725F6C65645F746578743D636164656EC8
:1016C000615F62757A7A65725F6C65645F74657874
:1016D000742E636F6E63617428223022293B696621
:1016E00028666F726D2E636F6469676F5F66756ED3
:1016F00063696F6E2E76616C75653D3D2222207C9C
:101700007C20666F726D2E636F6469676F5F6675AC
:101710006E63696F6E2E76616C75652E6C656E6793
:1017200074683E3129666F726D2E636F6469676FEE
:101730005F66756E63696F6E2E76616C75653D22AE
:1017400030223B636164656E615F62757A7A6572AF
:101750005F6C65645F746578743D636164656E6138
:101760005F62757A7A65725F6C65645F74657874C0
:101770002E636F6E63617428666F726D2E636F6483
:1017800069676F5F66756E63696F6E2E76616C75E3
:1017900065293B636164656E615F62757A7A657223
:1017A0005F6C65645F746578743D636164656E61E8
:1017B0005F62757A7A65725F6C65645F7465787470
:1017C0002E636F6E63617428666F726D2E74657818
:1017D000742E76616C75652B222622293B6966285A
:1017E000666F726D2E7363726F6C6C616C7761796A
:1017F000732E636865636B656429636164656E61FC
:101800005F62757A7A65725F6C65645F746578741F
:101810003D636164656E615F62757A7A65725F6C63
:1018200065645F746578742E636F6E6361742822DB
:101830003122293B656C736520636164656E615F6D
:1018400062757A7A65725F6C65645F746578743D01
:10185000636164656E615F62757A7A65725F6C65FB
:10186000645F746578742E636F6E636174282230D0
:1018700022293B696628666F726D2E7363726F6CE6
:101880006C666173742E636865636B65642963615C
:1018900064656E615F62757A7A65725F6C65645FBC
:1018A000746578743D636164656E615F62757A7AB0
:1018B00065725F6C65645F746578742E636F6E63C8
:1018C000617428223122293B656C73652063616451
:1018D000656E615F62757A7A65725F6C65645F746C
:1018E0006578743D636164656E615F62757A7A657F
:1018F000725F6C65645F746578742E636F6E63618C
:101900007428223022293B696628666F726D2E6228
:10191000726F6164636173742E636865636B656481
:10192000296E6F64653D3939393B656C7365206E8E
:101930006F64653D666F726D2E6E6F646F2E76619B
:101940006C75653B696628666F726D2E6279746589
:10195000302E76616C7565213D2222262621284491
:101960004C435F74726F6261742929444C432B2B82
:101970003B656C736520666F726D2E62797465309D
:101980002E76616C75653D302C444C433D302C44C3
:101990004C435F74726F6261743D747275653B692C
:1019A0006628666F726D2E62797465312E76616C71
:1019B0007565213D222226262128444C435F7472FE
:1019C0006F6261742929444C432B2B3B656C736512
:1019D00020666F726D2E62797465312E76616C753A
:1019E000653D302C444C435F74726F6261743D748A
:1019F0007275653B696628666F726D2E62797465D3
:101A0000322E76616C7565213D22222626212844DE
:101A10004C435F74726F6261742929444C432B2BD1
:101A20003B656C736520666F726D2E6279746532EA
:101A30002E76616C75653D302C444C435F74726F3B
:101A40006261743D747275653B696628666F726D7C
:101A50002E62797465332E76616C7565213D222284
:101A600026262128444C435F74726F6261742929D1
:101A7000444C432B2B3B656C736520666F726D2E57
:101A800062797465332E76616C75653D302C444CFB
:101A9000435F74726F6261743D747275653B696611
:101AA00028666F726D2E62797465342E76616C755E
:101AB00065213D222226262128444C435F74726F03
:101AC0006261742929444C432B2B3B656C73652060
:101AD000666F726D2E62797465342E76616C7565F1
:101AE0003D302C444C435F74726F6261743D74727C
:101AF00075653B696628666F726D2E62797465350F
:101B00002E76616C7565213D222226262128444CC3
:101B1000435F74726F6261742929444C432B2B3BE1
:101B2000656C736520666F726D2E62797465352EF3
:101B300076616C75653D302C444C435F74726F6206
:101B400061743D747275653B636164656E615F626B
:101B5000757A7A65725F6C65645F746578743D63ED
:101B60006164656E615F62757A7A65725F6C6564E7
:101B70005F746578742E636F6E6361742822262209
:101B80002B666F726D2E616464722E76616C756562
:101B90002B222622293B636164656E615F62757A40
:101BA0007A65725F6C65645F746578743D636164C7
:101BB000656E615F62757A7A65725F6C65645F7489
:101BC0006578742E636F6E636174287061727365DB
:101BD000496E7428666F726D2E62797465302E7648
:101BE000616C75652C3136292B222622293B6361D5
:101BF00064656E615F62757A7A65725F6C65645F59
:101C0000746578743D636164656E615F62757A7A4C
