Archive member included because of file (symbol)

C:\Users\USER\Documents\Proyectos\Digital Picking Displays\DPDs\Firmware DPDs y Rabbit\DPDs serie DP\lpcxpresso_3.6.3_317\DPI\last\CMSISv2p00_LPC17xx\Release\libCMSISv2p00_LPC17xx.a(system_LPC17xx.o)
                              ./src/main.o (SystemCoreClockUpdate)
c:/nxp/lpcxpresso_5.0.12_1083/lpcxpresso/tools/bin/../lib/gcc/arm-none-eabi/4.6.2/../../../../arm-none-eabi/lib/armv7-m\libcr_nohost.a(_cr__main.o)
                              ./src/cr_startup_lpc176x.o (__main)
c:/nxp/lpcxpresso_5.0.12_1083/lpcxpresso/tools/bin/../lib/gcc/arm-none-eabi/4.6.2/../../../../arm-none-eabi/lib/armv7-m\libcr_c.a(memcpy.o)
                              ./Webserver/ew_systick.o (memcpy)
c:/nxp/lpcxpresso_5.0.12_1083/lpcxpresso/tools/bin/../lib/gcc/arm-none-eabi/4.6.2/../../../../arm-none-eabi/lib/armv7-m\libcr_c.a(memmove.o)
                              ./LCD/lcd_terminal.o (memmove)
c:/nxp/lpcxpresso_5.0.12_1083/lpcxpresso/tools/bin/../lib/gcc/arm-none-eabi/4.6.2/../../../../arm-none-eabi/lib/armv7-m\libcr_c.a(memset.o)
                              ./Webserver/tcpip.o (memset)
c:/nxp/lpcxpresso_5.0.12_1083/lpcxpresso/tools/bin/../lib/gcc/arm-none-eabi/4.6.2/../../../../arm-none-eabi/lib/armv7-m\libcr_c.a(fpprintf.o)
                              ./Webserver/webserver.o (sprintf)
c:/nxp/lpcxpresso_5.0.12_1083/lpcxpresso/tools/bin/../lib/gcc/arm-none-eabi/4.6.2/../../../../arm-none-eabi/lib/armv7-m\libcr_c.a(initio.o)
                              c:/nxp/lpcxpresso_5.0.12_1083/lpcxpresso/tools/bin/../lib/gcc/arm-none-eabi/4.6.2/../../../../arm-none-eabi/lib/armv7-m\libcr_nohost.a(_cr__main.o) (_initio)
c:/nxp/lpcxpresso_5.0.12_1083/lpcxpresso/tools/bin/../lib/gcc/arm-none-eabi/4.6.2/../../../../arm-none-eabi/lib/armv7-m\libcr_c.a(itoa.o)
                              ./UART/trames.o (itoa)
c:/nxp/lpcxpresso_5.0.12_1083/lpcxpresso/tools/bin/../lib/gcc/arm-none-eabi/4.6.2/../../../../arm-none-eabi/lib/armv7-m\libcr_c.a(memcmp.o)
                              ./Webserver/tcpip.o (memcmp)
c:/nxp/lpcxpresso_5.0.12_1083/lpcxpresso/tools/bin/../lib/gcc/arm-none-eabi/4.6.2/../../../../arm-none-eabi/lib/armv7-m\libcr_c.a(printf.o)
                              c:/nxp/lpcxpresso_5.0.12_1083/lpcxpresso/tools/bin/../lib/gcc/arm-none-eabi/4.6.2/../../../../arm-none-eabi/lib/armv7-m\libcr_c.a(fpprintf.o) (__vfprintf)
c:/nxp/lpcxpresso_5.0.12_1083/lpcxpresso/tools/bin/../lib/gcc/arm-none-eabi/4.6.2/../../../../arm-none-eabi/lib/armv7-m\libcr_c.a(scanf.o)
                              ./Ethernet/ethernet.o (atoi)
c:/nxp/lpcxpresso_5.0.12_1083/lpcxpresso/tools/bin/../lib/gcc/arm-none-eabi/4.6.2/../../../../arm-none-eabi/lib/armv7-m\libcr_c.a(setvbuf.o)
                              c:/nxp/lpcxpresso_5.0.12_1083/lpcxpresso/tools/bin/../lib/gcc/arm-none-eabi/4.6.2/../../../../arm-none-eabi/lib/armv7-m\libcr_c.a(initio.o) (setvbuf)
c:/nxp/lpcxpresso_5.0.12_1083/lpcxpresso/tools/bin/../lib/gcc/arm-none-eabi/4.6.2/../../../../arm-none-eabi/lib/armv7-m\libcr_c.a(stdio.o)
                              c:/nxp/lpcxpresso_5.0.12_1083/lpcxpresso/tools/bin/../lib/gcc/arm-none-eabi/4.6.2/../../../../arm-none-eabi/lib/armv7-m\libcr_c.a(fpprintf.o) (__Ciob)
c:/nxp/lpcxpresso_5.0.12_1083/lpcxpresso/tools/bin/../lib/gcc/arm-none-eabi/4.6.2/../../../../arm-none-eabi/lib/armv7-m\libcr_c.a(stdlib.o)
                              ./LCD/lcd_shapes.o (abs)
c:/nxp/lpcxpresso_5.0.12_1083/lpcxpresso/tools/bin/../lib/gcc/arm-none-eabi/4.6.2/../../../../arm-none-eabi/lib/armv7-m\libcr_c.a(strcpy.o)
                              ./Webserver/webserver.o (strcpy)
c:/nxp/lpcxpresso_5.0.12_1083/lpcxpresso/tools/bin/../lib/gcc/arm-none-eabi/4.6.2/../../../../arm-none-eabi/lib/armv7-m\libcr_c.a(strlen.o)
                              ./LCD/lcd_terminal.o (strlen)
c:/nxp/lpcxpresso_5.0.12_1083/lpcxpresso/tools/bin/../lib/gcc/arm-none-eabi/4.6.2/../../../../arm-none-eabi/lib/armv7-m\libcr_c.a(strncmp.o)
                              ./SD-EEPROM/blockdev_sd.o (strncmp)
c:/nxp/lpcxpresso_5.0.12_1083/lpcxpresso/tools/bin/../lib/gcc/arm-none-eabi/4.6.2/../../../../arm-none-eabi/lib/armv7-m\libcr_c.a(ungetc.o)
                              c:/nxp/lpcxpresso_5.0.12_1083/lpcxpresso/tools/bin/../lib/gcc/arm-none-eabi/4.6.2/../../../../arm-none-eabi/lib/armv7-m\libcr_c.a(scanf.o) (ungetc)
c:/nxp/lpcxpresso_5.0.12_1083/lpcxpresso/tools/bin/../lib/gcc/arm-none-eabi/4.6.2/../../../../arm-none-eabi/lib/armv7-m\libcr_c.a(__fillbuf.o)
                              c:/nxp/lpcxpresso_5.0.12_1083/lpcxpresso/tools/bin/../lib/gcc/arm-none-eabi/4.6.2/../../../../arm-none-eabi/lib/armv7-m\libcr_c.a(scanf.o) (__filbuf)
c:/nxp/lpcxpresso_5.0.12_1083/lpcxpresso/tools/bin/../lib/gcc/arm-none-eabi/4.6.2/../../../../arm-none-eabi/lib/armv7-m\libcr_c.a(_deferredlazyseek.o)
                              c:/nxp/lpcxpresso_5.0.12_1083/lpcxpresso/tools/bin/../lib/gcc/arm-none-eabi/4.6.2/../../../../arm-none-eabi/lib/armv7-m\libcr_c.a(__fillbuf.o) (_deferredlazyseek)
c:/nxp/lpcxpresso_5.0.12_1083/lpcxpresso/tools/bin/../lib/gcc/arm-none-eabi/4.6.2/../../../../arm-none-eabi/lib/armv7-m\libcr_c.a(_fdopen.o)
                              c:/nxp/lpcxpresso_5.0.12_1083/lpcxpresso/tools/bin/../lib/gcc/arm-none-eabi/4.6.2/../../../../arm-none-eabi/lib/armv7-m\libcr_c.a(initio.o) (_fdopen)
c:/nxp/lpcxpresso_5.0.12_1083/lpcxpresso/tools/bin/../lib/gcc/arm-none-eabi/4.6.2/../../../../arm-none-eabi/lib/armv7-m\libcr_c.a(_fflush.o)
                              c:/nxp/lpcxpresso_5.0.12_1083/lpcxpresso/tools/bin/../lib/gcc/arm-none-eabi/4.6.2/../../../../arm-none-eabi/lib/armv7-m\libcr_c.a(__fillbuf.o) (_fflush)
c:/nxp/lpcxpresso_5.0.12_1083/lpcxpresso/tools/bin/../lib/gcc/arm-none-eabi/4.6.2/../../../../arm-none-eabi/lib/armv7-m\libcr_c.a(_frexpl.o)
                              c:/nxp/lpcxpresso_5.0.12_1083/lpcxpresso/tools/bin/../lib/gcc/arm-none-eabi/4.6.2/../../../../arm-none-eabi/lib/armv7-m\libcr_c.a(fpprintf.o) (_frexpl)
c:/nxp/lpcxpresso_5.0.12_1083/lpcxpresso/tools/bin/../lib/gcc/arm-none-eabi/4.6.2/../../../../arm-none-eabi/lib/armv7-m\libcr_c.a(_hugeval.o)
                              c:/nxp/lpcxpresso_5.0.12_1083/lpcxpresso/tools/bin/../lib/gcc/arm-none-eabi/4.6.2/../../../../arm-none-eabi/lib/armv7-m\libcr_c.a(scanf.o) (__huge_vall)
c:/nxp/lpcxpresso_5.0.12_1083/lpcxpresso/tools/bin/../lib/gcc/arm-none-eabi/4.6.2/../../../../arm-none-eabi/lib/armv7-m\libcr_c.a(_ldexpl.o)
                              c:/nxp/lpcxpresso_5.0.12_1083/lpcxpresso/tools/bin/../lib/gcc/arm-none-eabi/4.6.2/../../../../arm-none-eabi/lib/armv7-m\libcr_c.a(fpprintf.o) (_ldexpl)
c:/nxp/lpcxpresso_5.0.12_1083/lpcxpresso/tools/bin/../lib/gcc/arm-none-eabi/4.6.2/../../../../arm-none-eabi/lib/armv7-m\libcr_c.a(_writebuf.o)
                              c:/nxp/lpcxpresso_5.0.12_1083/lpcxpresso/tools/bin/../lib/gcc/arm-none-eabi/4.6.2/../../../../arm-none-eabi/lib/armv7-m\libcr_c.a(_deferredlazyseek.o) (_Cwritebuf)
c:/nxp/lpcxpresso_5.0.12_1083/lpcxpresso/tools/bin/../lib/gcc/arm-none-eabi/4.6.2/../../../../arm-none-eabi/lib/armv7-m\libcr_c.a(alloc.o)
                              c:/nxp/lpcxpresso_5.0.12_1083/lpcxpresso/tools/bin/../lib/gcc/arm-none-eabi/4.6.2/../../../../arm-none-eabi/lib/armv7-m\libcr_c.a(fpprintf.o) (malloc)
c:/nxp/lpcxpresso_5.0.12_1083/lpcxpresso/tools/bin/../lib/gcc/arm-none-eabi/4.6.2/../../../../arm-none-eabi/lib/armv7-m\libcr_c.a(ctype.o)
                              c:/nxp/lpcxpresso_5.0.12_1083/lpcxpresso/tools/bin/../lib/gcc/arm-none-eabi/4.6.2/../../../../arm-none-eabi/lib/armv7-m\libcr_c.a(scanf.o) (__ctype)
c:/nxp/lpcxpresso_5.0.12_1083/lpcxpresso/tools/bin/../lib/gcc/arm-none-eabi/4.6.2/../../../../arm-none-eabi/lib/armv7-m\libcr_c.a(errno.o)
                              c:/nxp/lpcxpresso_5.0.12_1083/lpcxpresso/tools/bin/../lib/gcc/arm-none-eabi/4.6.2/../../../../arm-none-eabi/lib/armv7-m\libcr_c.a(scanf.o) (errno)
c:/nxp/lpcxpresso_5.0.12_1083/lpcxpresso/tools/bin/../lib/gcc/arm-none-eabi/4.6.2/../../../../arm-none-eabi/lib/armv7-m\libcr_c.a(fclose.o)
                              c:/nxp/lpcxpresso_5.0.12_1083/lpcxpresso/tools/bin/../lib/gcc/arm-none-eabi/4.6.2/../../../../arm-none-eabi/lib/armv7-m\libcr_c.a(initio.o) (fclose)
c:/nxp/lpcxpresso_5.0.12_1083/lpcxpresso/tools/bin/../lib/gcc/arm-none-eabi/4.6.2/../../../../arm-none-eabi/lib/armv7-m\libcr_c.a(fflush.o)
                              c:/nxp/lpcxpresso_5.0.12_1083/lpcxpresso/tools/bin/../lib/gcc/arm-none-eabi/4.6.2/../../../../arm-none-eabi/lib/armv7-m\libcr_c.a(fclose.o) (fflush)
c:/nxp/lpcxpresso_5.0.12_1083/lpcxpresso/tools/bin/../lib/gcc/arm-none-eabi/4.6.2/../../../../arm-none-eabi/lib/armv7-m\libcr_c.a(fseek.o)
                              c:/nxp/lpcxpresso_5.0.12_1083/lpcxpresso/tools/bin/../lib/gcc/arm-none-eabi/4.6.2/../../../../arm-none-eabi/lib/armv7-m\libcr_c.a(_deferredlazyseek.o) (fseek)
c:/nxp/lpcxpresso_5.0.12_1083/lpcxpresso/tools/bin/../lib/gcc/arm-none-eabi/4.6.2/../../../../arm-none-eabi/lib/armv7-m\libcr_c.a(ftell.o)
                              c:/nxp/lpcxpresso_5.0.12_1083/lpcxpresso/tools/bin/../lib/gcc/arm-none-eabi/4.6.2/../../../../arm-none-eabi/lib/armv7-m\libcr_c.a(fseek.o) (ftell)
c:/nxp/lpcxpresso_5.0.12_1083/lpcxpresso/tools/bin/../lib/gcc/arm-none-eabi/4.6.2/../../../../arm-none-eabi/lib/armv7-m\libcr_c.a(raise.o)
                              c:/nxp/lpcxpresso_5.0.12_1083/lpcxpresso/tools/bin/../lib/gcc/arm-none-eabi/4.6.2/../../../../arm-none-eabi/lib/armv7-m\libcr_c.a(stdlib.o) (raise)
c:/nxp/lpcxpresso_5.0.12_1083/lpcxpresso/tools/bin/../lib/gcc/arm-none-eabi/4.6.2/../../../../arm-none-eabi/lib/armv7-m\libcr_c.a(remove.o)
                              c:/nxp/lpcxpresso_5.0.12_1083/lpcxpresso/tools/bin/../lib/gcc/arm-none-eabi/4.6.2/../../../../arm-none-eabi/lib/armv7-m\libcr_c.a(fclose.o) (remove)
c:/nxp/lpcxpresso_5.0.12_1083/lpcxpresso/tools/bin/../lib/gcc/arm-none-eabi/4.6.2/../../../../arm-none-eabi/lib/armv7-m\libcr_c.a(__init_alloc.o)
                              c:/nxp/lpcxpresso_5.0.12_1083/lpcxpresso/tools/bin/../lib/gcc/arm-none-eabi/4.6.2/../../../../arm-none-eabi/lib/armv7-m\libcr_c.a(alloc.o) (__heaps)
c:/nxp/lpcxpresso_5.0.12_1083/lpcxpresso/tools/bin/../lib/gcc/arm-none-eabi/4.6.2/../../../../arm-none-eabi/lib/armv7-m\libcr_c.a(_do_fflush.o)
                              c:/nxp/lpcxpresso_5.0.12_1083/lpcxpresso/tools/bin/../lib/gcc/arm-none-eabi/4.6.2/../../../../arm-none-eabi/lib/armv7-m\libcr_c.a(fflush.o) (_do_fflush)
c:/nxp/lpcxpresso_5.0.12_1083/lpcxpresso/tools/bin/../lib/gcc/arm-none-eabi/4.6.2/armv7-m\libcr_eabihelpers.a(division.o)
                              C:\Users\USER\Documents\Proyectos\Digital Picking Displays\DPDs\Firmware DPDs y Rabbit\DPDs serie DP\lpcxpresso_3.6.3_317\DPI\last\CMSISv2p00_LPC17xx\Release\libCMSISv2p00_LPC17xx.a(system_LPC17xx.o) (__aeabi_uldivmod)
c:/nxp/lpcxpresso_5.0.12_1083/lpcxpresso/tools/bin/../lib/gcc/arm-none-eabi/4.6.2/armv7-m\libcr_eabihelpers.a(double.o)
                              c:/nxp/lpcxpresso_5.0.12_1083/lpcxpresso/tools/bin/../lib/gcc/arm-none-eabi/4.6.2/../../../../arm-none-eabi/lib/armv7-m\libcr_c.a(fpprintf.o) (__aeabi_dmul)
c:/nxp/lpcxpresso_5.0.12_1083/lpcxpresso/tools/bin/../lib/gcc/arm-none-eabi/4.6.2/armv7-m\libcr_eabihelpers.a(memcpy.o)
                              c:/nxp/lpcxpresso_5.0.12_1083/lpcxpresso/tools/bin/../lib/gcc/arm-none-eabi/4.6.2/../../../../arm-none-eabi/lib/armv7-m\libcr_c.a(memcpy.o) (__aeabi_memcpy)
c:/nxp/lpcxpresso_5.0.12_1083/lpcxpresso/tools/bin/../lib/gcc/arm-none-eabi/4.6.2/../../../../arm-none-eabi/lib/armv7-m\libcr_nohost.a(__sys_appexit.o)
                              c:/nxp/lpcxpresso_5.0.12_1083/lpcxpresso/tools/bin/../lib/gcc/arm-none-eabi/4.6.2/../../../../arm-none-eabi/lib/armv7-m\libcr_c.a(stdlib.o) (__sys_appexit)
c:/nxp/lpcxpresso_5.0.12_1083/lpcxpresso/tools/bin/../lib/gcc/arm-none-eabi/4.6.2/../../../../arm-none-eabi/lib/armv7-m\libcr_nohost.a(__sys_close.o)
                              c:/nxp/lpcxpresso_5.0.12_1083/lpcxpresso/tools/bin/../lib/gcc/arm-none-eabi/4.6.2/../../../../arm-none-eabi/lib/armv7-m\libcr_c.a(fclose.o) (__sys_close)
c:/nxp/lpcxpresso_5.0.12_1083/lpcxpresso/tools/bin/../lib/gcc/arm-none-eabi/4.6.2/../../../../arm-none-eabi/lib/armv7-m\libcr_nohost.a(__sys_flen.o)
                              c:/nxp/lpcxpresso_5.0.12_1083/lpcxpresso/tools/bin/../lib/gcc/arm-none-eabi/4.6.2/../../../../arm-none-eabi/lib/armv7-m\libcr_c.a(_writebuf.o) (__sys_flen)
c:/nxp/lpcxpresso_5.0.12_1083/lpcxpresso/tools/bin/../lib/gcc/arm-none-eabi/4.6.2/../../../../arm-none-eabi/lib/armv7-m\libcr_nohost.a(__sys_istty.o)
                              c:/nxp/lpcxpresso_5.0.12_1083/lpcxpresso/tools/bin/../lib/gcc/arm-none-eabi/4.6.2/../../../../arm-none-eabi/lib/armv7-m\libcr_c.a(_deferredlazyseek.o) (__sys_istty)
c:/nxp/lpcxpresso_5.0.12_1083/lpcxpresso/tools/bin/../lib/gcc/arm-none-eabi/4.6.2/../../../../arm-none-eabi/lib/armv7-m\libcr_nohost.a(__sys_read.o)
                              c:/nxp/lpcxpresso_5.0.12_1083/lpcxpresso/tools/bin/../lib/gcc/arm-none-eabi/4.6.2/../../../../arm-none-eabi/lib/armv7-m\libcr_c.a(__fillbuf.o) (__sys_read)
c:/nxp/lpcxpresso_5.0.12_1083/lpcxpresso/tools/bin/../lib/gcc/arm-none-eabi/4.6.2/../../../../arm-none-eabi/lib/armv7-m\libcr_nohost.a(__sys_readc.o)
                              c:/nxp/lpcxpresso_5.0.12_1083/lpcxpresso/tools/bin/../lib/gcc/arm-none-eabi/4.6.2/../../../../arm-none-eabi/lib/armv7-m\libcr_c.a(__fillbuf.o) (__sys_readc)
c:/nxp/lpcxpresso_5.0.12_1083/lpcxpresso/tools/bin/../lib/gcc/arm-none-eabi/4.6.2/../../../../arm-none-eabi/lib/armv7-m\libcr_nohost.a(__sys_remove.o)
                              c:/nxp/lpcxpresso_5.0.12_1083/lpcxpresso/tools/bin/../lib/gcc/arm-none-eabi/4.6.2/../../../../arm-none-eabi/lib/armv7-m\libcr_c.a(remove.o) (__sys_remove)
c:/nxp/lpcxpresso_5.0.12_1083/lpcxpresso/tools/bin/../lib/gcc/arm-none-eabi/4.6.2/../../../../arm-none-eabi/lib/armv7-m\libcr_nohost.a(__sys_rename.o)
                              c:/nxp/lpcxpresso_5.0.12_1083/lpcxpresso/tools/bin/../lib/gcc/arm-none-eabi/4.6.2/../../../../arm-none-eabi/lib/armv7-m\libcr_c.a(remove.o) (__sys_rename)
c:/nxp/lpcxpresso_5.0.12_1083/lpcxpresso/tools/bin/../lib/gcc/arm-none-eabi/4.6.2/../../../../arm-none-eabi/lib/armv7-m\libcr_nohost.a(__sys_seek.o)
                              c:/nxp/lpcxpresso_5.0.12_1083/lpcxpresso/tools/bin/../lib/gcc/arm-none-eabi/4.6.2/../../../../arm-none-eabi/lib/armv7-m\libcr_c.a(__fillbuf.o) (__sys_seek)
c:/nxp/lpcxpresso_5.0.12_1083/lpcxpresso/tools/bin/../lib/gcc/arm-none-eabi/4.6.2/../../../../arm-none-eabi/lib/armv7-m\libcr_nohost.a(__sys_tmpnam.o)
                              c:/nxp/lpcxpresso_5.0.12_1083/lpcxpresso/tools/bin/../lib/gcc/arm-none-eabi/4.6.2/../../../../arm-none-eabi/lib/armv7-m\libcr_c.a(fclose.o) (__sys_tmpnam)
c:/nxp/lpcxpresso_5.0.12_1083/lpcxpresso/tools/bin/../lib/gcc/arm-none-eabi/4.6.2/../../../../arm-none-eabi/lib/armv7-m\libcr_nohost.a(__sys_write.o)
                              c:/nxp/lpcxpresso_5.0.12_1083/lpcxpresso/tools/bin/../lib/gcc/arm-none-eabi/4.6.2/../../../../arm-none-eabi/lib/armv7-m\libcr_c.a(fpprintf.o) (__sys_write)
c:/nxp/lpcxpresso_5.0.12_1083/lpcxpresso/tools/bin/../lib/gcc/arm-none-eabi/4.6.2/../../../../arm-none-eabi/lib/armv7-m\libcr_nohost.a(_cr_sbrk.o)
                              c:/nxp/lpcxpresso_5.0.12_1083/lpcxpresso/tools/bin/../lib/gcc/arm-none-eabi/4.6.2/../../../../arm-none-eabi/lib/armv7-m\libcr_c.a(alloc.o) (_sbrk)
c:/nxp/lpcxpresso_5.0.12_1083/lpcxpresso/tools/bin/../lib/gcc/arm-none-eabi/4.6.2/../../../../arm-none-eabi/lib/armv7-m\libcr_nohost.a(_cr_check_heap.o)
                              c:/nxp/lpcxpresso_5.0.12_1083/lpcxpresso/tools/bin/../lib/gcc/arm-none-eabi/4.6.2/../../../../arm-none-eabi/lib/armv7-m\libcr_nohost.a(_cr_sbrk.o) (__check_heap_overflow)

Allocating common symbols
Common symbol       size              file

actualitza_display_2
                    0x1               ./src/main.o
msTicks_aplicacio   0x14              ./src/main.o
conexio_oberta      0x1               ./src/main.o
msTicks_timeout_sesio
                    0x4               ./src/main.o
param_table         0x14              ./src/main.o
contrasenya_admin   0x4               ./src/main.o
watchdog_uart_3_enable
                    0x1               ./src/main.o
UART0Transmit_Buffer
                    0x32              ./src/main.o
Broadcast_polling_2
                    0x1               ./src/main.o
counter_error_CRC   0x4               ./src/main.o
TCPTimer            0x1               ./src/main.o
PProgram            0x4               ./src/main.o
retard_LC           0x2               ./src/main.o
posicio_buffer_intermig
                    0xa               ./src/main.o
sesio_MAC           0x6               ./src/main.o
node_actual         0x1               ./src/main.o
TCPAckNr_aplicacio  0x14              ./src/main.o
j                   0x4               ./Ethernet/ethernet.o
HTTPBytesToSend     0x4               ./src/main.o
cambiar_ethernet    0x1               ./src/main.o
TCPRxDataCount      0x2               ./src/main.o
_TxFrame4           0x5ae             ./src/main.o
nodes_correctes_web
                    0x1               ./src/main.o
reprogramar         0x2               ./src/main.o
web_IP              0x4               ./src/main.o
MyMAC               0x6               ./src/main.o
new_adress_programacio1_canal2
                    0x1               ./src/main.o
actualitza_display  0x1               ./src/main.o
timer2_counter      0x4               ./src/main.o
aplicacio_actual    0x1               ./src/main.o
_extra              0x4               c:/nxp/lpcxpresso_5.0.12_1083/lpcxpresso/tools/bin/../lib/gcc/arm-none-eabi/4.6.2/../../../../arm-none-eabi/lib/armv7-m\libcr_c.a(initio.o)
TxFrame4Size        0x2               ./src/main.o
old_adress_programacio1_canal2
                    0x1               ./src/main.o
RemoteIP_xarxa      0x4               ./src/main.o
peticio_programacio_2
                    0x1               ./src/main.o
node_a_desprogramar
                    0x2               ./src/main.o
new_adress_programacio2_canal2
                    0x1               ./src/main.o
NM_LCD              0xf               ./src/main.o
UART1Buffer         0x32              ./UART/uart.o
control_alarmes_HW_2
                    0xfa              ./src/main.o
UART2Status         0x4               ./UART/uart.o
apretada            0x4               ./src/main.o
enviament_broadcast_2
                    0x1               ./src/main.o
primer_node_desprogramat
                    0x2               ./src/main.o
msTicks_control_alarmes
                    0x4               ./src/main.o
watchdog_uart_2     0x4               ./src/main.o
escrivint           0xfa              ./src/main.o
color_canal2        0x1               ./src/main.o
control_alarmes_HW  0xfa              ./src/main.o
UART3Status         0x4               ./UART/uart.o
taula_nodes_2       0x1f4             ./src/main.o
UART0Buffer         0x32              ./UART/uart.o
TCPSeqNr_aplicacio  0x14              ./src/main.o
nodes_correctes_2   0x1               ./src/main.o
new_password        0x8               ./src/main.o
RetryCounter_aplicacio
                    0x5               ./src/main.o
wire_count_2        0x1               ./src/main.o
length_UART1        0x1               ./src/main.o
actualitza_nodes_2  0x1               ./src/main.o
malloc_buffer       0xfa              ./src/main.o
prova               0x1               ./src/main.o
comptador_leds_uart
                    0x4               ./src/main.o
node                0x4               ./Ethernet/ethernet.o
actualitza_nodes    0x1               ./src/main.o
SubnetMask          0x4               ./src/main.o
control_alarmes     0xfa              ./src/main.o
HTTPStatus          0x1               ./src/main.o
msTicks_led         0x4               ./src/main.o
byte1_web           0x1               ./src/main.o
TCPLocalPort_xarxa  0x2               ./src/main.o
tipus_display       0x1               ./src/main.o
reenviaments_broadcast_1
                    0x1               ./src/main.o
CanviarPagina       0x1               ./src/main.o
NUM_NODES_2         0x1               ./src/main.o
TCPRemotePort_RST   0x2               ./src/main.o
error_LC            0x2               ./src/main.o
enviament_broadcast_1_anterior
                    0x1               ./src/main.o
msTicks_ACK         0x4               ./src/main.o
send_buffer_prova   0x4               ./src/main.o
fila                0x1               ./src/main.o
wire_correcte       0x1               ./src/main.o
detectats_LC        0x4               ./src/main.o
StatePagina         0x1               ./src/main.o
brillo              0x1               ./src/main.o
wire_count          0x1               ./src/main.o
UART1Status         0x4               ./UART/uart.o
IP_LCD              0xf               ./src/main.o
GatewayIP           0x4               ./src/main.o
usuario             0x4               ./src/main.o
UART3Transmit_Buffer
                    0x32              ./src/main.o
UART1Transmit_Buffer
                    0x32              ./src/main.o
y_config            0x1               ./src/main.o
configurats_LC      0x4               ./src/main.o
watchdog_uart_1     0x4               ./src/main.o
sesio_iniciada      0x1               ./src/main.o
GW_LCD              0xf               ./src/main.o
text                0x10              ./src/main.o
result_table        0x14              ./src/main.o
valor_actualitzat   0x1               ./Webserver/webserver.o
TCPTxDataCount      0x2               ./src/main.o
_exitvector         0x84              c:/nxp/lpcxpresso_5.0.12_1083/lpcxpresso/tools/bin/../lib/gcc/arm-none-eabi/4.6.2/../../../../arm-none-eabi/lib/armv7-m\libcr_c.a(stdlib.o)
alarmes_activades   0xfa              ./src/main.o
UART2Transmit_Buffer
                    0x32              ./src/main.o
RecdFrameIP         0x4               ./src/main.o
web_MAC             0x6               ./src/main.o
nodeGlogal          0x1               ./UART/trames.o
RemoteMAC           0x6               ./src/main.o
taula_SD_2          0xfa              ./src/main.o
i                   0x4               ./Ethernet/ethernet.o
new_adress_programacio1_canal1
                    0x1               ./src/main.o
StateUART_canal2    0x1               ./src/main.o
taula_configurats   0xfa              ./src/main.o
Ethernet_Transmit_Buffer
                    0xe1              ./src/main.o
getmem_adress       0x1               ./src/main.o
taula_errors_2      0x9c4             ./src/main.o
buf2                0x4               ./Ethernet/ethernet.o
GWIP_2              0x1               ./src/main.o
SUBMASK_3           0x1               ./src/main.o
TCPStateMachine     0x1               ./src/main.o
numero_aplicacions  0x1               ./src/main.o
SD_state            0x1               ./src/main.o
x_config            0x1               ./src/main.o
enviament_broadcast_2_anterior
                    0x1               ./src/main.o
taula_SD            0xfa              ./src/main.o
UARTTransmit_Broadcast_2
                    0x32              ./src/main.o
port_comunicacio_RAM
                    0x2               ./src/main.o
nodes_correctes_web_2
                    0x1               ./src/main.o
TCPUNASeqNr         0x4               ./src/main.o
UARTTransmit_Broadcast
                    0x32              ./src/main.o
GWIP_3              0x1               ./src/main.o
UART3Buffer         0x32              ./UART/uart.o
aplicacio_MAC       0x1e              ./src/main.o
watchdog_uart_4_enable
                    0x1               ./src/main.o
PWM_high            0x1               ./src/main.o
posicio_configurats_2
                    0x1               ./src/main.o
SUBMASK_4           0x1               ./src/main.o
TCPLocalPort        0x2               ./src/main.o
send_buffer         0x30d4            ./src/main.o
msTicks_led_error   0x4               ./src/main.o
_RxTCPBuffer        0x7d0             ./src/main.o
alarmes_activades_canal1
                    0x2               ./src/main.o
length_UART3        0x1               ./src/main.o
taula_nodes_web_2   0x1f4             ./src/main.o
counter_pollings_fallidos
                    0x4               ./src/main.o
error_flags         0x1               ./src/main.o
watchdog_uart_2_enable
                    0x1               ./src/main.o
columna             0x1               ./src/main.o
UART2Buffer         0x32              ./UART/uart.o
ICMPTypeAndCode     0x2               ./Webserver/tcpip.o
frame_display       0x1               ./src/main.o
StateUART_canal1    0x1               ./src/main.o
TCPFlags            0x1               ./src/main.o
enviament_broadcast
                    0x1               ./src/main.o
timer0_counter      0x4               ./src/main.o
counter_watchdog_uart
                    0x4               ./src/main.o
length_UART0        0x1               ./src/main.o
nodes_correctes     0x1               ./src/main.o
usuario_admin       0x4               ./src/main.o
contrasenya         0x4               ./src/main.o
MYIP_2              0x1               ./src/main.o
RecdFrameMAC        0x6               ./src/main.o
two_sending_TCP     0x1               ./src/main.o
msTicks_LCD         0x4               ./src/main.o
MYIP_1              0x1               ./src/main.o
alarmes_activades_2
                    0xfa              ./src/main.o
taula_errors        0x9c4             ./src/main.o
TCPTxDataCount_ethernet
                    0x2               ./src/main.o
reenviaments_broadcast_2
                    0x1               ./src/main.o
alarmes_activades_canal2
                    0x2               ./src/main.o
esperant_ACK        0x5               ./src/main.o
node_actual_2       0x1               ./src/main.o
watchdog_uart_4     0x4               ./src/main.o
remoto_local        0x1               ./src/main.o
gestio_led_error    0x1               ./src/main.o
cont_LCD            0x1               ./src/main.o
RecdIPFrameLength   0x2               ./src/main.o
PWM_cont            0x1               ./src/main.o
StateLCD            0x1               ./src/main.o
wire_correcte_2     0x1               ./src/main.o
password_incorrecte
                    0x1               ./src/main.o
adress              0x4               ./Ethernet/ethernet.o
RemoteIP            0x4               ./src/main.o
LastFrameSent       0x1               ./src/main.o
posicio_taula_alarms
                    0x2               ./src/main.o
despres_heartbeat   0x1               ./src/main.o
MYIP_4              0x1               ./src/main.o
counter_error_3     0x4               ./src/main.o
peticio_programacio
                    0x1               ./src/main.o
TxFrame3Size        0x2               ./src/main.o
TCPRemotePort       0x2               ./src/main.o
posicio_enviament_xarxa
                    0x2               ./src/main.o
cutFrame            0x3c              ./Ethernet/ethernet.o
byte2_web           0x1               ./src/main.o
SUBMASK_2           0x1               ./src/main.o
buf                 0x4               ./Ethernet/ethernet.o
TxFrame2Size        0x1               ./src/main.o
PORT_COMUNICACIO    0x2               ./src/main.o
_number_of_exit_functions
                    0x4               c:/nxp/lpcxpresso_5.0.12_1083/lpcxpresso/tools/bin/../lib/gcc/arm-none-eabi/4.6.2/../../../../arm-none-eabi/lib/armv7-m\libcr_c.a(stdlib.o)
node_display        0x4               ./src/main.o
numero_serie        0x9               ./src/main.o
aplicacio_sesioActiva
                    0x1               ./src/main.o
TCPAckNr            0x4               ./src/main.o
change_state        0x1               ./src/main.o
new_usuario         0x8               ./src/main.o
punter_usuari       0x1               ./src/main.o
data_fabricacio     0x5               ./src/main.o
buffer_intermig_ethernet
                    0xfa              ./src/main.o
actualitza_nodes_RAM
                    0x1               ./src/main.o
bytes_RS232         0x3d              ./src/main.o
nombre_mallocs      0x1               ./src/main.o
TransmitControl     0x1               ./src/main.o
SUBMASK_1           0x1               ./src/main.o
iniciar_sesio_aplicacio
                    0x1               ./src/main.o
taula_configurats_2
                    0xfa              ./src/main.o
timer1_counter      0x4               ./src/main.o
TxFrame1Size        0x2               ./src/main.o
msTicks_programacio2
                    0x4               ./src/main.o
msTicks_programacio1
                    0x4               ./src/main.o
__heaps             0x4               c:/nxp/lpcxpresso_5.0.12_1083/lpcxpresso/tools/bin/../lib/gcc/arm-none-eabi/4.6.2/../../../../arm-none-eabi/lib/armv7-m\libcr_c.a(__init_alloc.o)
malloc_buffer_2     0xfa              ./src/main.o
ISNGenHigh          0x2               ./src/main.o
control_alarmes_2   0xfa              ./src/main.o
tipus_usuari_web    0x1               ./src/main.o
watchdog_uart_1_enable
                    0x1               ./src/main.o
_TxFrame2           0x4a              ./src/main.o
__end_of_heap       0x4               c:/nxp/lpcxpresso_5.0.12_1083/lpcxpresso/tools/bin/../lib/gcc/arm-none-eabi/4.6.2/../../../../arm-none-eabi/lib/armv7-m\libcr_c.a(__init_alloc.o)
GWIP_1              0x1               ./src/main.o
TCPRemotePort_aplicacio
                    0xa               ./src/main.o
GWIP_4              0x1               ./src/main.o
aplicacio_IP        0x14              ./src/main.o
punter_password     0x1               ./src/main.o
Broadcast_polling   0x1               ./src/main.o
RecdFrameLength     0x2               ./src/main.o
taula_alarms        0x1a2             ./src/main.o
counter_envios_fallidos
                    0x4               ./src/main.o
isFrameCut          0x1               ./Ethernet/ethernet.o
ultim_node_programat
                    0x2               ./src/main.o
pulsadors_display   0x1               ./src/main.o
length_UART2        0x1               ./src/main.o
UART0Status         0x4               ./UART/uart.o
llargada_trama      0x5               ./src/main.o
rebut_MAC           0x6               ./src/main.o
taula_nodes         0x1f4             ./src/main.o
comptador_TCP       0x1               ./src/main.o
maxim_full_adress   0x2               ./src/main.o
NrOfDataBytes       0x2               ./src/main.o
_TxFrame1           0x5ae             ./src/main.o
posicio_configurats
                    0x1               ./src/main.o
TCPSeqNr            0x4               ./src/main.o
NUM_NODES           0x1               ./src/main.o
taula_nodes_web     0x1f4             ./src/main.o
firm_ware           0x3               ./src/main.o
watchdog_uart_3     0x4               ./src/main.o
nombre_mallocs_2    0x1               ./src/main.o
color_canal1        0x1               ./src/main.o
prova_2             0x1               ./src/main.o
RetryCounter        0x1               ./src/main.o
__Ciob              0x140             c:/nxp/lpcxpresso_5.0.12_1083/lpcxpresso/tools/bin/../lib/gcc/arm-none-eabi/4.6.2/../../../../arm-none-eabi/lib/armv7-m\libcr_c.a(stdio.o)
MyIP                0x4               ./src/main.o
SocketStatus        0x1               ./src/main.o
getmem_aplicacio    0x1               ./src/main.o
escrivint_2         0xfa              ./src/main.o
RemoteMAC_xarxa     0x6               ./src/main.o
numero_LCD          0x2               ./src/main.o
new_adress_programacio2_canal1
                    0x1               ./src/main.o
_TxFrame3           0x5ae             ./src/main.o
old_adress_programacio1_canal1
                    0x1               ./src/main.o
prova_send_buffer   0x32              ./src/main.o
MYIP_3              0x1               ./src/main.o

Discarded input sections

 .text          0x00000000        0x0 ./src/cr_startup_lpc176x.o
 .data          0x00000000        0x0 ./src/cr_startup_lpc176x.o
 .bss           0x00000000        0x0 ./src/cr_startup_lpc176x.o
 .text          0x00000000        0x0 ./src/main.o
 .data          0x00000000        0x0 ./src/main.o
 .bss           0x00000000        0x0 ./src/main.o
 .text.iap_entry
                0x00000000        0xc ./src/main.o
 .text          0x00000000        0x0 ./Webserver/ethmac.o
 .data          0x00000000        0x0 ./Webserver/ethmac.o
 .bss           0x00000000        0x0 ./Webserver/ethmac.o
 .text          0x00000000        0x0 ./Webserver/ew_systick.o
 .data          0x00000000        0x0 ./Webserver/ew_systick.o
 .bss           0x00000000        0x0 ./Webserver/ew_systick.o
 .text          0x00000000        0x0 ./Webserver/tcpip.o
 .data          0x00000000        0x0 ./Webserver/tcpip.o
 .bss           0x00000000        0x0 ./Webserver/tcpip.o
 .text.TCPClose
Memory Configuration

Name             Origin             Length             Attributes
MFlash512        0x00000000         0x00080000         xr
RamLoc32         0x10000000         0x00008000         xrw
RamAHB32         0x2007c000         0x00008000         xrw
*default*        0x00000000         0xffffffff

Linker script and memory map

LOAD ./src/cr_startup_lpc176x.o
LOAD ./src/main.o
LOAD ./Webserver/ethmac.o
LOAD ./Webserver/ew_systick.o
LOAD ./Webserver/tcpip.o
LOAD ./Webserver/webserver.o
LOAD ./UART/trames.o
LOAD ./UART/uart.o
LOAD ./SD-EEPROM/EEPROM.o
LOAD ./SD-EEPROM/blockdev_sd.o
LOAD ./SD-EEPROM/lpc2000_spi.o
LOAD ./RTC/rtc.o
LOAD ./LCD/lcd_bitmap.o
LOAD ./LCD/lcd_driver.o
LOAD ./LCD/lcd_shapes.o
LOAD ./LCD/lcd_terminal.o
LOAD ./LCD/lcd_text.o
LOAD ./LCD/system_fixed_be_8_15.o
LOAD ./Ethernet/ethernet.o
LOAD ./Bitmaps/casa.o
LOAD ./Bitmaps/logo.o
LOAD ./Bitmaps/networking.o
LOAD ./Bitmaps/settings.o
LOAD ./Altres/leds.o
LOAD ./Altres/md5.o
LOAD ./Altres/nodes.o
LOAD ./Altres/timer.o
LOAD ./Altres/watchdog.o
LOAD C:\Users\USER\Documents\Proyectos\Digital Picking Displays\DPDs\Firmware DPDs y Rabbit\DPDs serie DP\lpcxpresso_3.6.3_317\DPI\last\CMSISv2p00_LPC17xx\Release\libCMSISv2p00_LPC17xx.a
START GROUP
LOAD c:/nxp/lpcxpresso_5.0.12_1083/lpcxpresso/tools/bin/../lib/gcc/arm-none-eabi/4.6.2/../../../../arm-none-eabi/lib/armv7-m\libcr_nohost.a
LOAD c:/nxp/lpcxpresso_5.0.12_1083/lpcxpresso/tools/bin/../lib/gcc/arm-none-eabi/4.6.2/../../../../arm-none-eabi/lib/armv7-m\libcr_c.a
LOAD c:/nxp/lpcxpresso_5.0.12_1083/lpcxpresso/tools/bin/../lib/gcc/arm-none-eabi/4.6.2/armv7-m\libcr_eabihelpers.a
END GROUP
                0x00080000                __top_MFlash512 = 0x80000
                0x10008000                __top_RamLoc32 = 0x10008000
                0x20084000                __top_RamAHB32 = 0x20084000

.text           0x00000000    0x2e5f8
 FILL mask 0xff
 *(.isr_vector)
 .isr_vector    0x00000000       0xcc ./src/cr_startup_lpc176x.o
                0x00000000                g_pfnVectors
                0x000000cc                . = ALIGN (0x4)
                0x000000cc                __section_table_start = .
                0x000000cc                __data_section_table = .
                0x000000cc        0x4 LONG 0x2e5f8 LOADADDR (.data)
                0x000000d0        0x4 LONG 0x10000000 ADDR (.data)
                0x000000d4        0x4 LONG 0x68 SIZEOF (.data)
                0x000000d8        0x4 LONG 0x2e5f8 LOADADDR (.data_RAM2)
                0x000000dc        0x4 LONG 0x2007c000 ADDR (.data_RAM2)
                0x000000e0        0x4 LONG 0x0 SIZEOF (.data_RAM2)
                0x000000e4                __data_section_table_end = .
                0x000000e4                __bss_section_table = .
                0x000000e4        0x4 LONG 0x10000068 ADDR (.bss)
                0x000000e8        0x4 LONG 0x7da0 SIZEOF (.bss)
                0x000000ec        0x4 LONG 0x2007c000 ADDR (.bss_RAM2)
                0x000000f0        0x4 LONG 0x30d4 SIZEOF (.bss_RAM2)
                0x000000f4                __bss_section_table_end = .
                0x000000f4                __section_table_end = .
 *(.after_vectors*)
 .after_vectors
                0x000000f4       0x78 ./src/cr_startup_lpc176x.o
                0x000000f4                NMI_Handler
                0x000000f6                HardFault_Handler
                0x000000f8                MemManage_Handler
                0x000000fa                BusFault_Handler
                0x000000fc                UsageFault_Handler
                0x000000fe                SVCall_Handler
                0x00000100                DebugMon_Handler
                0x00000102                PendSV_Handler
                0x00000106                data_init
                0x00000118                bss_init
                0x00000128                ResetISR
                0x00000168                EINT3_IRQHandler
                0x00000168                CANActivity_IRQHandler
                0x00000168                TIMER3_IRQHandler
                0x00000168                EINT2_IRQHandler
                0x00000168                I2C0_IRQHandler
                0x00000168                IntDefaultHandler
                0x00000168                PLL0_IRQHandler
                0x00000168                CAN_IRQHandler
                0x00000168                I2C1_IRQHandler
                0x00000168                SSP0_IRQHandler
                0x00000168                I2S_IRQHandler
                0x00000168                I2C2_IRQHandler
                0x00000168                RTC_IRQHandler
                0x00000168                SPI_IRQHandler
                0x00000168                USBActivity_IRQHandler
                0x00000168                EINT1_IRQHandler
                0x00000168                ADC_IRQHandler
                0x00000168                SSP1_IRQHandler
                0x00000168                USB_IRQHandler
                0x00000168                BOD_IRQHandler
                0x00000168                RIT_IRQHandler
                0x00000168                WDT_IRQHandler
                0x00000168                QEI_IRQHandler
                0x00000168                EINT0_IRQHandler
                0x00000168                PWM1_IRQHandler
                0x00000168                DMA_IRQHandler
                0x00000168                PLL1_IRQHandler
                0x00000168                MCPWM_IRQHandler
                0x00000168                ENET_IRQHandler
                0x000002fc                . = 0x2fc
 *fill*         0x0000016c      0x190 ff
                0x000002fc                PROVIDE (__CRP_WORD_START__, .)
 *(.crp)
 .crp           0x000002fc        0x4 ./src/main.o
                0x000002fc                CRP_WORD
                0x00000300                PROVIDE (__CRP_WORD_END__, .)
                0x00000001                ASSERT (! ((__CRP_WORD_START__ == __CRP_WORD_END__)), Linker CRP Enabled, but no CRP_WORD provided within application)
 *(.text*)
 .text.Inicialitzacio
                0x00000300      0x9ac ./src/main.o
                0x00000300                Inicialitzacio
 .text.DisconnectPLL0
                0x00000cac       0x64 ./src/main.o
                0x00000cac                DisconnectPLL0
 .text.startup.main
                0x00000d10      0x724 ./src/main.o
                0x00000d10                main
 .text.WriteToPHY
                0x00001434       0x1c ./Webserver/ethmac.o
                0x00001434                WriteToPHY
 .text.ReadFromPHY
                0x00001450       0x2c ./Webserver/ethmac.o
                0x00001450                ReadFromPHY
 .text.Init_EthMAC
                0x0000147c      0x2c0 ./Webserver/ethmac.o
                0x0000147c                Init_EthMAC
 .text.WriteFrame_EthMAC
                0x0000173c       0x10 ./Webserver/ethmac.o
                0x0000173c                WriteFrame_EthMAC
 .text.CopyToFrame_EthMAC
                0x0000174c       0x32 ./Webserver/ethmac.o
                0x0000174c                CopyToFrame_EthMAC
 *fill*         0x0000177e        0x2 00
 .text.ReadFrame_EthMAC
                0x00001780       0x10 ./Webserver/ethmac.o
                0x00001780                ReadFrame_EthMAC
 .text.ReadFrameBE_EthMAC
                0x00001790       0x14 ./Webserver/ethmac.o
                0x00001790                ReadFrameBE_EthMAC
 .text.CopyFromFrame_EthMAC
                0x000017a4       0x2c ./Webserver/ethmac.o
                0x000017a4                CopyFromFrame_EthMAC
 .text.DummyReadFrame_EthMAC
                0x000017d0       0x14 ./Webserver/ethmac.o
                0x000017d0                DummyReadFrame_EthMAC
 .text.RequestSend
                0x000017e4       0x30 ./Webserver/ethmac.o
                0x000017e4                RequestSend
 .text.Rdy4Tx   0x00001814        0x4 ./Webserver/ethmac.o
                0x00001814                Rdy4Tx
 .text.StartReadingFrame
                0x00001818       0x34 ./Webserver/ethmac.o
                0x00001818                StartReadingFrame
 .text.StopReadingFrame
                0x0000184c       0x16 ./Webserver/ethmac.o
                0x0000184c                StopReadingFrame
 .text.CheckIfFrameReceived
                0x00001862       0x2a ./Webserver/ethmac.o
                0x00001862                CheckIfFrameReceived
 .text.SysTick_Handler
                0x0000188c      0x418 ./Webserver/ew_systick.o
                0x0000188c                SysTick_Handler
 .text.Start_SysTick1ms
                0x00001ca4       0x30 ./Webserver/ew_systick.o
                0x00001ca4                Start_SysTick1ms
 .text.TCPLowLevelInit
                0x00001cd4       0x30 ./Webserver/tcpip.o
                0x00001cd4                TCPLowLevelInit
 .text.TCPPassiveOpen
                0x00001d04       0xec ./Webserver/tcpip.o
                0x00001d04                TCPPassiveOpen
 .text.TCPReleaseRxBuffer
                0x00001df0       0x10 ./Webserver/tcpip.o
                0x00001df0                TCPReleaseRxBuffer
 .text.BroadcastMessage
                0x00001e00       0x48 ./Webserver/tcpip.o
                0x00001e00                BroadcastMessage
 .text.PrepareARP_REQUEST
                0x00001e48       0xb8 ./Webserver/tcpip.o
                0x00001e48                PrepareARP_REQUEST
 .text.PrepareARP_ANSWER
                0x00001f00       0x98 ./Webserver/tcpip.o
                0x00001f00                PrepareARP_ANSWER
 .text.ProcessEthBroadcastFrame
                0x00001f98       0x70 ./Webserver/tcpip.o
                0x00001f98                ProcessEthBroadcastFrame
 .text.CalcChecksum
                0x00002008       0x5c ./Webserver/tcpip.o
                0x00002008                CalcChecksum
 .text.PrepareICMP_ECHO_REPLY
                0x00002064       0xc0 ./Webserver/tcpip.o
                0x00002064                PrepareICMP_ECHO_REPLY
 .text.ProcessICMPFrame
                0x00002124       0x24 ./Webserver/tcpip.o
                0x00002124                ProcessICMPFrame
 .text.TCPStartRetryTimer
                0x00002148       0x24 ./Webserver/tcpip.o
                0x00002148                TCPStartRetryTimer
 .text.TCPTransmitTxBuffer
                0x0000216c       0x6c ./Webserver/tcpip.o
                0x0000216c                TCPTransmitTxBuffer
 .text.TCPStartTimeWaitTimer
                0x000021d8       0x20 ./Webserver/tcpip.o
                0x000021d8                TCPStartTimeWaitTimer
 .text.TCPStopTimer
                0x000021f8       0x10 ./Webserver/tcpip.o
                0x000021f8                TCPStopTimer
 .text.TCPHandleTimeout
                0x00002208       0x2c ./Webserver/tcpip.o
                0x00002208                TCPHandleTimeout
 .text.TCPClockHandler
                0x00002234       0x1c ./Webserver/tcpip.o
                0x00002234                TCPClockHandler
 .text.SendFrame1
                0x00002250       0x20 ./Webserver/tcpip.o
                0x00002250                SendFrame1
 .text.SendFrame3
                0x00002270       0x20 ./Webserver/tcpip.o
                0x00002270                SendFrame3
 .text.SendFrame4
                0x00002290       0x20 ./Webserver/tcpip.o
                0x00002290                SendFrame4
 .text.SendFrame2
                0x000022b0       0x20 ./Webserver/tcpip.o
                0x000022b0                SendFrame2
 .text.WriteDWBE
                0x000022d0       0x10 ./Webserver/tcpip.o
                0x000022d0                WriteDWBE
 .text.PrepareTCP_DATA_FRAME_ethernet
                0x000022e0       0xf8 ./Webserver/tcpip.o
                0x000022e0                PrepareTCP_DATA_FRAME_ethernet
 .text.PrepareTCP_FRAME_ethernet
                0x000023d8      0x150 ./Webserver/tcpip.o
                0x000023d8                PrepareTCP_FRAME_ethernet
 .text.PrepareTCP_DATA_FRAME_2
                0x00002528       0xf0 ./Webserver/tcpip.o
                0x00002528                PrepareTCP_DATA_FRAME_2
 .text.PrepareTCP_DATA_FRAME
                0x00002618      0x108 ./Webserver/tcpip.o
                0x00002618                PrepareTCP_DATA_FRAME
 .text.PrepareTCP_FRAME
                0x00002720      0x144 ./Webserver/tcpip.o
                0x00002720                PrepareTCP_FRAME
 .text.TCPHandleRetransmission
                0x00002864       0x38 ./Webserver/tcpip.o
                0x00002864                TCPHandleRetransmission
 .text.SwapBytes
                0x0000289c        0xa ./Webserver/tcpip.o
                0x0000289c                SwapBytes
 *fill*         0x000028a6        0x2 00
 .text.quina_aplicacio
                0x000028a8       0xa8 ./Webserver/tcpip.o
                0x000028a8                quina_aplicacio
 .text.shift_left
                0x00002950      0x104 ./Webserver/tcpip.o
                0x00002950                shift_left
 .text.Enviar_despres_ACK
                0x00002a54       0xa8 ./Webserver/tcpip.o
                0x00002a54                Enviar_despres_ACK
 .text.ProcessTCPFrame
                0x00002afc      0x6cc ./Webserver/tcpip.o
                0x00002afc                ProcessTCPFrame
 .text.ProcessEthIAFrame
                0x000031c8       0xd0 ./Webserver/tcpip.o
                0x000031c8                ProcessEthIAFrame
 .text.DoNetworkStuff
                0x00003298      0x2c0 ./Webserver/tcpip.o
                0x00003298                DoNetworkStuff
 .text.pasar_caracter_numero_3
                0x00003558       0x6a ./Webserver/webserver.o
                0x00003558                pasar_caracter_numero_3
 .text.comprovar
                0x000035c2       0x1e ./Webserver/webserver.o
                0x000035c2                comprovar
 .text.InsertDynamicNodes
                0x000035e0      0x9e4 ./Webserver/webserver.o
                0x000035e0                InsertDynamicNodes
 .text.HTTPServer
                0x00003fc4      0x348 ./Webserver/webserver.o
                0x00003fc4                HTTPServer
 .text.InsertDynamicValues
                0x0000430c      0x304 ./Webserver/webserver.o
                0x0000430c                InsertDynamicValues
 .text.HTTPServer_petit
                0x00004610      0x15c ./Webserver/webserver.o
                0x00004610                HTTPServer_petit
 .text.comprovar_password
                0x0000476c       0x60 ./Webserver/webserver.o
                0x0000476c                comprovar_password
 .text.tractament_pagina
                0x000047cc     0x1140 ./Webserver/webserver.o
                0x000047cc                tractament_pagina
 .text.ini_aplicacio
                0x0000590c       0x44 ./Webserver/webserver.o
                0x0000590c                ini_aplicacio
 .text.setmem   0x00005950      0x33c ./UART/trames.o
                0x00005950                setmem
 .text.setmem_display
                0x00005c8c      0x394 ./UART/trames.o
                0x00005c8c                setmem_display
 .text.getmem   0x00006020       0x7c ./UART/trames.o
                0x00006020                getmem
 .text.programacio
                0x0000609c      0x1fc ./UART/trames.o
                0x0000609c                programacio
 .text.heartbeat
                0x00006298       0xd8 ./UART/trames.o
                0x00006298                heartbeat
 .text.process_data
                0x00006370     0x1110 ./UART/trames.o
                0x00006370                process_data
 .text.NVIC_EnableIRQ
                0x00007480       0x18 ./UART/uart.o
 .text.NVIC_SetPriority
                0x00007498       0x2c ./UART/uart.o
 .text.CRC.constprop.0
                0x000074c4       0x18 ./UART/uart.o
 .text.UARTInit
                0x000074dc      0x1d8 ./UART/uart.o
                0x000074dc                UARTInit
 .text.UARTSend
                0x000076b4      0x414 ./UART/uart.o
                0x000076b4                UARTSend
 .text.CRC      0x00007ac8       0x16 ./UART/uart.o
                0x00007ac8                CRC
 *fill*         0x00007ade        0x2 00
 .text.process_UART_canal1
                0x00007ae0      0x54c ./UART/uart.o
                0x00007ae0                process_UART_canal1
 .text.process_UART_canal2
                0x0000802c      0x574 ./UART/uart.o
                0x0000802c                process_UART_canal2
 .text.UART0_THRE
                0x000085a0      0x130 ./UART/uart.o
                0x000085a0                UART0_THRE
 .text.UART0_IRQHandler
                0x000086d0      0x410 ./UART/uart.o
                0x000086d0                UART0_IRQHandler
 .text.UART1_THRE
                0x00008ae0      0x134 ./UART/uart.o
                0x00008ae0                UART1_THRE
 .text.UART1_IRQHandler
                0x00008c14      0x400 ./UART/uart.o
                0x00008c14                UART1_IRQHandler
 .text.UART2_THRE
                0x00009014       0xdc ./UART/uart.o
                0x00009014                UART2_THRE
 .text.UART2_IRQHandler
                0x000090f0      0x48c ./UART/uart.o
                0x000090f0                UART2_IRQHandler
 .text.UART3_THRE
                0x0000957c       0xe4 ./UART/uart.o
                0x0000957c                UART3_THRE
 .text.UART3_IRQHandler
                0x00009660      0x4c0 ./UART/uart.o
                0x00009660                UART3_IRQHandler
 .text.llegir_EEPROM
                0x00009b20       0x38 ./SD-EEPROM/EEPROM.o
                0x00009b20                llegir_EEPROM
 .text.llegirMAC_EEPROM
                0x00009b58       0x90 ./SD-EEPROM/EEPROM.o
                0x00009b58                llegirMAC_EEPROM
 .text.Resp8b   0x00009be8       0x18 ./SD-EEPROM/blockdev_sd.o
 .text.Command  0x00009c00       0x3c ./SD-EEPROM/blockdev_sd.o
 .text.BlockDevInit
                0x00009c3c       0x8c ./SD-EEPROM/blockdev_sd.o
                0x00009c3c                BlockDevInit
 .text.resetSD  0x00009cc8       0x44 ./SD-EEPROM/blockdev_sd.o
                0x00009cc8                resetSD
 .text.BlockSDWrite
                0x00009d0c       0x60 ./SD-EEPROM/blockdev_sd.o
                0x00009d0c                BlockSDWrite
 .text.BlockDevRead
                0x00009d6c       0x68 ./SD-EEPROM/blockdev_sd.o
                0x00009d6c                BlockDevRead
 .text.BlockDevWrite
                0x00009dd4       0x80 ./SD-EEPROM/blockdev_sd.o
                0x00009dd4                BlockDevWrite
 .text.tarjetaSDinit
                0x00009e54      0x1ec ./SD-EEPROM/blockdev_sd.o
                0x00009e54                tarjetaSDinit
 .text.SPISetSpeed
                0x0000a040       0x14 ./SD-EEPROM/lpc2000_spi.o
                0x0000a040                SPISetSpeed
 .text.SPIInit  0x0000a054       0xf4 ./SD-EEPROM/lpc2000_spi.o
                0x0000a054                SPIInit
 .text.SPISend  0x0000a148       0x28 ./SD-EEPROM/lpc2000_spi.o
                0x0000a148                SPISend
 .text.SPISendN
                0x0000a170       0x44 ./SD-EEPROM/lpc2000_spi.o
                0x0000a170                SPISendN
 .text.SPIRecvN
                0x0000a1b4       0x3c ./SD-EEPROM/lpc2000_spi.o
                0x0000a1b4                SPIRecvN
 .text.init_calibration_val_dir
                0x0000a1f0       0x4c ./RTC/rtc.o
                0x0000a1f0                init_calibration_val_dir
 .text.InitRTC  0x0000a23c       0x30 ./RTC/rtc.o
                0x0000a23c                InitRTC
 .text.StartRTC
                0x0000a26c       0x10 ./RTC/rtc.o
                0x0000a26c                StartRTC
 .text.LCD_PlotBitmap24
                0x0000a27c       0xce ./LCD/lcd_bitmap.o
                0x0000a27c                LCD_PlotBitmap24
 .text.ms_delay
                0x0000a34a       0x1e ./LCD/lcd_driver.o
                0x0000a34a                ms_delay
 .text.LCDdriver_WriteData
                0x0000a368       0x2c ./LCD/lcd_driver.o
                0x0000a368                LCDdriver_WriteData
 .text.LCDdriver_WriteCom
                0x0000a394       0x2c ./LCD/lcd_driver.o
                0x0000a394                LCDdriver_WriteCom
 .text.LCDdriver_ConfigGPIOtoLCD
                0x0000a3c0       0x7c ./LCD/lcd_driver.o
                0x0000a3c0                LCDdriver_ConfigGPIOtoLCD
 .text.LCD_ClearScreen
                0x0000a43c       0xaa ./LCD/lcd_driver.o
                0x0000a43c                LCD_ClearScreen
 *fill*         0x0000a4e6        0x2 00
 .text.LCDdriver_initialisation
                0x0000a4e8       0xac ./LCD/lcd_driver.o
                0x0000a4e8                LCDdriver_initialisation
 .text.process_menu_LCD
                0x0000a594      0x1a4 ./LCD/lcd_driver.o
                0x0000a594                process_menu_LCD
 .text.LCD_FilledRect
                0x0000a738       0xa4 ./LCD/lcd_shapes.o
                0x0000a738                LCD_FilledRect
 .text.LCD_Rect
                0x0000a7dc       0x46 ./LCD/lcd_shapes.o
                0x0000a7dc                LCD_Rect
 .text.LCD_PlotPoint
                0x0000a822       0x82 ./LCD/lcd_shapes.o
                0x0000a822                LCD_PlotPoint
 .text.LCD_FilledCircle
                0x0000a8a4       0xc0 ./LCD/lcd_shapes.o
                0x0000a8a4                LCD_FilledCircle
 .text.LCD_Line
                0x0000a964       0xa4 ./LCD/lcd_shapes.o
                0x0000a964                LCD_Line
 .text.LCD_WriteBitMap8x15
                0x0000aa08       0xd0 ./LCD/lcd_text.o
                0x0000aa08                LCD_WriteBitMap8x15
 .text.LCD_PrintString
                0x0000aad8       0x5c ./LCD/lcd_text.o
                0x0000aad8                LCD_PrintString
 .text.Enviar_Ethernet
                0x0000ab34       0xc8 ./Ethernet/ethernet.o
                0x0000ab34                Enviar_Ethernet
 .text.checkCutFrame
                0x0000abfc       0x68 ./Ethernet/ethernet.o
                0x0000abfc                checkCutFrame
 .text.receive_frameOPENSESSION
                0x0000ac64       0x8c ./Ethernet/ethernet.o
                0x0000ac64                receive_frameOPENSESSION
 .text.receive_frameVERSION
                0x0000acf0       0x84 ./Ethernet/ethernet.o
                0x0000acf0                receive_frameVERSION
 .text.convert_BYTE_to_CHAR3
                0x0000ad74       0x3c ./Ethernet/ethernet.o
                0x0000ad74                convert_BYTE_to_CHAR3
 .text.receive_frameINFOXARXA_old
                0x0000adb0      0x494 ./Ethernet/ethernet.o
                0x0000adb0                receive_frameINFOXARXA_old
 .text.Error_aplicacio
                0x0000b244      0x37c ./Ethernet/ethernet.o
                0x0000b244                Error_aplicacio
 .text.receive_frameNETWORKDISTRIBUTION
                0x0000b5c0      0x198 ./Ethernet/ethernet.o
                0x0000b5c0                receive_frameNETWORKDISTRIBUTION
 .text.receive_frameGETMEM
                0x0000b758       0xec ./Ethernet/ethernet.o
                0x0000b758                receive_frameGETMEM
 .text.receive_frameSETMEM
                0x0000b844      0x148 ./Ethernet/ethernet.o
                0x0000b844                receive_frameSETMEM
 .text.receive_frameDISPLAY
                0x0000b98c      0x384 ./Ethernet/ethernet.o
                0x0000b98c                receive_frameDISPLAY
 .text.process_frame
                0x0000bd10      0x264 ./Ethernet/ethernet.o
                0x0000bd10                process_frame
 .text.leds_joystick_init
                0x0000bf74       0x8c ./Altres/leds.o
                0x0000bf74                leds_joystick_init
 .text.leds_invert
                0x0000c000       0x8c ./Altres/leds.o
                0x0000c000                leds_invert
 .text.led_on   0x0000c08c       0x58 ./Altres/leds.o
                0x0000c08c                led_on
 .text.led_off  0x0000c0e4       0x4c ./Altres/leds.o
                0x0000c0e4                led_off
 .text.led_error
                0x0000c130      0x160 ./Altres/leds.o
                0x0000c130                led_error
 .text.Transform
                0x0000c290      0x780 ./Altres/md5.o
 .text.MD5Init  0x0000ca10       0x24 ./Altres/md5.o
                0x0000ca10                MD5Init
 .text.MD5Update
                0x0000ca34       0x74 ./Altres/md5.o
                0x0000ca34                MD5Update
 .text.MD5Final
                0x0000caa8       0x80 ./Altres/md5.o
                0x0000caa8                MD5Final
 .text.md5      0x0000cb28       0x44 ./Altres/md5.o
                0x0000cb28                md5
 .text.ini_nodes
                0x0000cb6c       0x18 ./Altres/nodes.o
                0x0000cb6c                ini_nodes
 .text.ini_nodes_2
                0x0000cb84       0x18 ./Altres/nodes.o
                0x0000cb84                ini_nodes_2
 .text.ini_SD   0x0000cb9c       0x28 ./Altres/nodes.o
                0x0000cb9c                ini_SD
 .text.ini_SD_2
                0x0000cbc4       0x28 ./Altres/nodes.o
                0x0000cbc4                ini_SD_2
 .text.ini_taula_alarms
                0x0000cbec       0x30 ./Altres/nodes.o
                0x0000cbec                ini_taula_alarms
 .text.ini_taula_web
                0x0000cc1c       0x34 ./Altres/nodes.o
                0x0000cc1c                ini_taula_web
 .text.ini_taula_configurats
                0x0000cc50       0x84 ./Altres/nodes.o
                0x0000cc50                ini_taula_configurats
 .text.actualitza_node
                0x0000ccd4       0x5c ./Altres/nodes.o
                0x0000ccd4                actualitza_node
 .text.canviar_taula_nodes_web
                0x0000cd30      0x1ec ./Altres/nodes.o
                0x0000cd30                canviar_taula_nodes_web
 .text.canviar_taula_nodes_web_2
                0x0000cf1c      0x1ec ./Altres/nodes.o
                0x0000cf1c                canviar_taula_nodes_web_2
 .text.alarm    0x0000d108      0x204 ./Altres/nodes.o
                0x0000d108                alarm
 .text.NVIC_SetPriority
                0x0000d30c       0x2c ./Altres/timer.o
 .text.enable_timer
                0x0000d338       0x2c ./Altres/timer.o
                0x0000d338                enable_timer
 .text.disable_timer
                0x0000d364       0x44 ./Altres/timer.o
                0x0000d364                disable_timer
 .text.reset_timer
                0x0000d3a8       0x30 ./Altres/timer.o
                0x0000d3a8                reset_timer
 .text.init_timer
                0x0000d3d8       0x84 ./Altres/timer.o
                0x0000d3d8                init_timer
 .text.TIMER0_IRQHandler
                0x0000d45c       0x18 ./Altres/timer.o
                0x0000d45c                TIMER0_IRQHandler
 .text.TIMER1_IRQHandler
                0x0000d474       0x68 ./Altres/timer.o
                0x0000d474                TIMER1_IRQHandler
 .text.TIMER2_IRQHandler
                0x0000d4dc       0x68 ./Altres/timer.o
                0x0000d4dc                TIMER2_IRQHandler
 .text.SystemCoreClockUpdate
                0x0000d544       0xcc C:\Users\USER\Documents\Proyectos\Digital Picking Displays\DPDs\Firmware DPDs y Rabbit\DPDs serie DP\lpcxpresso_3.6.3_317\DPI\last\CMSISv2p00_LPC17xx\Release\libCMSISv2p00_LPC17xx.a(system_LPC17xx.o)
                0x0000d544                SystemCoreClockUpdate
 .text.SystemInit
                0x0000d610       0xe4 C:\Users\USER\Documents\Proyectos\Digital Picking Displays\DPDs\Firmware DPDs y Rabbit\DPDs serie DP\lpcxpresso_3.6.3_317\DPI\last\CMSISv2p00_LPC17xx\Release\libCMSISv2p00_LPC17xx.a(system_LPC17xx.o)
                0x0000d610                SystemInit
 .text.__main   0x0000d6f4       0x14 c:/nxp/lpcxpresso_5.0.12_1083/lpcxpresso/tools/bin/../lib/gcc/arm-none-eabi/4.6.2/../../../../arm-none-eabi/lib/armv7-m\libcr_nohost.a(_cr__main.o)
                0x0000d6f4                __main
 .text.memcpy   0x0000d708        0x4 c:/nxp/lpcxpresso_5.0.12_1083/lpcxpresso/tools/bin/../lib/gcc/arm-none-eabi/4.6.2/../../../../arm-none-eabi/lib/armv7-m\libcr_c.a(memcpy.o)
                0x0000d708                memcpy
 .text.memmove  0x0000d70c        0x4 c:/nxp/lpcxpresso_5.0.12_1083/lpcxpresso/tools/bin/../lib/gcc/arm-none-eabi/4.6.2/../../../../arm-none-eabi/lib/armv7-m\libcr_c.a(memmove.o)
                0x0000d70c                memmove
 .text.memset   0x0000d710        0x4 c:/nxp/lpcxpresso_5.0.12_1083/lpcxpresso/tools/bin/../lib/gcc/arm-none-eabi/4.6.2/../../../../arm-none-eabi/lib/armv7-m\libcr_c.a(memset.o)
                0x0000d710                memset
 .text.lose_trailing_zeros
                0x0000d714       0x1e c:/nxp/lpcxpresso_5.0.12_1083/lpcxpresso/tools/bin/../lib/gcc/arm-none-eabi/4.6.2/../../../../arm-none-eabi/lib/armv7-m\libcr_c.a(fpprintf.o)
 .text.fp_round
                0x0000d732       0x54 c:/nxp/lpcxpresso_5.0.12_1083/lpcxpresso/tools/bin/../lib/gcc/arm-none-eabi/4.6.2/../../../../arm-none-eabi/lib/armv7-m\libcr_c.a(fpprintf.o)
 .text.pr_dec.constprop.1
                0x0000d786       0x22 c:/nxp/lpcxpresso_5.0.12_1083/lpcxpresso/tools/bin/../lib/gcc/arm-none-eabi/4.6.2/../../../../arm-none-eabi/lib/armv7-m\libcr_c.a(fpprintf.o)
 .text.sprintf  0x0000d7a8       0x70 c:/nxp/lpcxpresso_5.0.12_1083/lpcxpresso/tools/bin/../lib/gcc/arm-none-eabi/4.6.2/../../../../arm-none-eabi/lib/armv7-m\libcr_c.a(fpprintf.o)
                0x0000d7a8                sprintf
 .text.fp_display
                0x0000d818      0x908 c:/nxp/lpcxpresso_5.0.12_1083/lpcxpresso/tools/bin/../lib/gcc/arm-none-eabi/4.6.2/../../../../arm-none-eabi/lib/armv7-m\libcr_c.a(fpprintf.o)
 .text._initio  0x0000e120       0x9c c:/nxp/lpcxpresso_5.0.12_1083/lpcxpresso/tools/bin/../lib/gcc/arm-none-eabi/4.6.2/../../../../arm-none-eabi/lib/armv7-m\libcr_c.a(initio.o)
                0x0000e120                _initio
 .text.itoa     0x0000e1bc       0x60 c:/nxp/lpcxpresso_5.0.12_1083/lpcxpresso/tools/bin/../lib/gcc/arm-none-eabi/4.6.2/../../../../arm-none-eabi/lib/armv7-m\libcr_c.a(itoa.o)
                0x0000e1bc                itoa
 .text.memcmp   0x0000e21c       0x38 c:/nxp/lpcxpresso_5.0.12_1083/lpcxpresso/tools/bin/../lib/gcc/arm-none-eabi/4.6.2/../../../../arm-none-eabi/lib/armv7-m\libcr_c.a(memcmp.o)
                0x0000e21c                memcmp
 .text.__vfprintf
                0x0000e254      0xd54 c:/nxp/lpcxpresso_5.0.12_1083/lpcxpresso/tools/bin/../lib/gcc/arm-none-eabi/4.6.2/../../../../arm-none-eabi/lib/armv7-m\libcr_c.a(printf.o)
                0x0000e254                __vfprintf
 .text.ch_val   0x0000efa8       0x34 c:/nxp/lpcxpresso_5.0.12_1083/lpcxpresso/tools/bin/../lib/gcc/arm-none-eabi/4.6.2/../../../../arm-none-eabi/lib/armv7-m\libcr_c.a(scanf.o)
 .text._strtoul
                0x0000efdc       0xc8 c:/nxp/lpcxpresso_5.0.12_1083/lpcxpresso/tools/bin/../lib/gcc/arm-none-eabi/4.6.2/../../../../arm-none-eabi/lib/armv7-m\libcr_c.a(scanf.o)
 .text.strtol   0x0000f0a4       0x7c c:/nxp/lpcxpresso_5.0.12_1083/lpcxpresso/tools/bin/../lib/gcc/arm-none-eabi/4.6.2/../../../../arm-none-eabi/lib/armv7-m\libcr_c.a(scanf.o)
                0x0000f0a4                strtol
 .text.atoi     0x0000f120       0x18 c:/nxp/lpcxpresso_5.0.12_1083/lpcxpresso/tools/bin/../lib/gcc/arm-none-eabi/4.6.2/../../../../arm-none-eabi/lib/armv7-m\libcr_c.a(scanf.o)
                0x0000f120                atoi
 .text.setvbuf  0x0000f138       0x48 c:/nxp/lpcxpresso_5.0.12_1083/lpcxpresso/tools/bin/../lib/gcc/arm-none-eabi/4.6.2/../../../../arm-none-eabi/lib/armv7-m\libcr_c.a(setvbuf.o)
                0x0000f138                setvbuf
 .text.abs      0x0000f180        0x8 c:/nxp/lpcxpresso_5.0.12_1083/lpcxpresso/tools/bin/../lib/gcc/arm-none-eabi/4.6.2/../../../../arm-none-eabi/lib/armv7-m\libcr_c.a(stdlib.o)
                0x0000f180                abs
 .text.strcpy   0x0000f188       0x44 c:/nxp/lpcxpresso_5.0.12_1083/lpcxpresso/tools/bin/../lib/gcc/arm-none-eabi/4.6.2/../../../../arm-none-eabi/lib/armv7-m\libcr_c.a(strcpy.o)
                0x0000f188                strcpy
 .text.strlen   0x0000f1cc       0x4c c:/nxp/lpcxpresso_5.0.12_1083/lpcxpresso/tools/bin/../lib/gcc/arm-none-eabi/4.6.2/../../../../arm-none-eabi/lib/armv7-m\libcr_c.a(strlen.o)
                0x0000f1cc                strlen
 .text.strncmp  0x0000f218       0x4e c:/nxp/lpcxpresso_5.0.12_1083/lpcxpresso/tools/bin/../lib/gcc/arm-none-eabi/4.6.2/../../../../arm-none-eabi/lib/armv7-m\libcr_c.a(strncmp.o)
                0x0000f218                strncmp
 .text._deferredlazyseek
                0x0000f266       0x44 c:/nxp/lpcxpresso_5.0.12_1083/lpcxpresso/tools/bin/../lib/gcc/arm-none-eabi/4.6.2/../../../../arm-none-eabi/lib/armv7-m\libcr_c.a(_deferredlazyseek.o)
                0x0000f266                _deferredlazyseek
 .text.__flsbuf
                0x0000f2aa      0x14e c:/nxp/lpcxpresso_5.0.12_1083/lpcxpresso/tools/bin/../lib/gcc/arm-none-eabi/4.6.2/../../../../arm-none-eabi/lib/armv7-m\libcr_c.a(_deferredlazyseek.o)
                0x0000f2aa                __flsbuf
 .text._fdopen  0x0000f3f8       0x6c c:/nxp/lpcxpresso_5.0.12_1083/lpcxpresso/tools/bin/../lib/gcc/arm-none-eabi/4.6.2/../../../../arm-none-eabi/lib/armv7-m\libcr_c.a(_fdopen.o)
                0x0000f3f8                _fdopen
 .text._fflush  0x0000f464       0x58 c:/nxp/lpcxpresso_5.0.12_1083/lpcxpresso/tools/bin/../lib/gcc/arm-none-eabi/4.6.2/../../../../arm-none-eabi/lib/armv7-m\libcr_c.a(_fflush.o)
                0x0000f464                _fflush
 .text._frexpl  0x0000f4bc       0x60 c:/nxp/lpcxpresso_5.0.12_1083/lpcxpresso/tools/bin/../lib/gcc/arm-none-eabi/4.6.2/../../../../arm-none-eabi/lib/armv7-m\libcr_c.a(_frexpl.o)
                0x0000f4bc                _frexpl
 .text._ldexpl  0x0000f51c       0x50 c:/nxp/lpcxpresso_5.0.12_1083/lpcxpresso/tools/bin/../lib/gcc/arm-none-eabi/4.6.2/../../../../arm-none-eabi/lib/armv7-m\libcr_c.a(_ldexpl.o)
                0x0000f51c                _ldexpl
 .text._Cwritebuf
                0x0000f56c       0x84 c:/nxp/lpcxpresso_5.0.12_1083/lpcxpresso/tools/bin/../lib/gcc/arm-none-eabi/4.6.2/../../../../arm-none-eabi/lib/armv7-m\libcr_c.a(_writebuf.o)
                0x0000f56c                _Cwritebuf
 .text.malloc   0x0000f5f0       0xbc c:/nxp/lpcxpresso_5.0.12_1083/lpcxpresso/tools/bin/../lib/gcc/arm-none-eabi/4.6.2/../../../../arm-none-eabi/lib/armv7-m\libcr_c.a(alloc.o)
                0x0000f5f0                malloc
 .text.free     0x0000f6ac        0xa c:/nxp/lpcxpresso_5.0.12_1083/lpcxpresso/tools/bin/../lib/gcc/arm-none-eabi/4.6.2/../../../../arm-none-eabi/lib/armv7-m\libcr_c.a(alloc.o)
                0x0000f6ac                free
 *fill*         0x0000f6b6        0x2 00
 .text._Csys_alloc
                0x0000f6b8       0x20 c:/nxp/lpcxpresso_5.0.12_1083/lpcxpresso/tools/bin/../lib/gcc/arm-none-eabi/4.6.2/../../../../arm-none-eabi/lib/armv7-m\libcr_c.a(alloc.o)
                0x0000f6b8                _Csys_alloc
 .text.fclose   0x0000f6d8       0x6c c:/nxp/lpcxpresso_5.0.12_1083/lpcxpresso/tools/bin/../lib/gcc/arm-none-eabi/4.6.2/../../../../arm-none-eabi/lib/armv7-m\libcr_c.a(fclose.o)
                0x0000f6d8                fclose
 .text.fflush   0x0000f744       0x34 c:/nxp/lpcxpresso_5.0.12_1083/lpcxpresso/tools/bin/../lib/gcc/arm-none-eabi/4.6.2/../../../../arm-none-eabi/lib/armv7-m\libcr_c.a(fflush.o)
                0x0000f744                fflush
 .text.fseek    0x0000f778      0x104 c:/nxp/lpcxpresso_5.0.12_1083/lpcxpresso/tools/bin/../lib/gcc/arm-none-eabi/4.6.2/../../../../arm-none-eabi/lib/armv7-m\libcr_c.a(fseek.o)
                0x0000f778                fseek
 .text.ftell    0x0000f87c       0x4c c:/nxp/lpcxpresso_5.0.12_1083/lpcxpresso/tools/bin/../lib/gcc/arm-none-eabi/4.6.2/../../../../arm-none-eabi/lib/armv7-m\libcr_c.a(ftell.o)
                0x0000f87c                ftell
 .text.remove   0x0000f8c8       0x14 c:/nxp/lpcxpresso_5.0.12_1083/lpcxpresso/tools/bin/../lib/gcc/arm-none-eabi/4.6.2/../../../../arm-none-eabi/lib/armv7-m\libcr_c.a(remove.o)
                0x0000f8c8                remove
 .text._do_fflush
                0x0000f8dc       0x42 c:/nxp/lpcxpresso_5.0.12_1083/lpcxpresso/tools/bin/../lib/gcc/arm-none-eabi/4.6.2/../../../../arm-none-eabi/lib/armv7-m\libcr_c.a(_do_fflush.o)
                0x0000f8dc                _do_fflush
 .text.__aeabi_division_uldivmod
                0x0000f91e      0x174 c:/nxp/lpcxpresso_5.0.12_1083/lpcxpresso/tools/bin/../lib/gcc/arm-none-eabi/4.6.2/armv7-m\libcr_eabihelpers.a(division.o)
                0x0000f91e                __aeabi_uldivmod
                0x0000f922                __bhs_ldivmod1
 .text.__aeabi_division_idiv0
                0x0000fa92        0x2 c:/nxp/lpcxpresso_5.0.12_1083/lpcxpresso/tools/bin/../lib/gcc/arm-none-eabi/4.6.2/armv7-m\libcr_eabihelpers.a(division.o)
                0x0000fa92                __aeabi_idiv0
 .text.__aeabi_dmul
                0x0000fa94      0x138 c:/nxp/lpcxpresso_5.0.12_1083/lpcxpresso/tools/bin/../lib/gcc/arm-none-eabi/4.6.2/armv7-m\libcr_eabihelpers.a(double.o)
                0x0000fa94                __aeabi_dmul
 .text.__aeabi_ddiv
                0x0000fbcc      0x168 c:/nxp/lpcxpresso_5.0.12_1083/lpcxpresso/tools/bin/../lib/gcc/arm-none-eabi/4.6.2/armv7-m\libcr_eabihelpers.a(double.o)
                0x0000fbcc                __aeabi_ddiv
 .text.__aeabi_dsub
                0x0000fd34      0x1f4 c:/nxp/lpcxpresso_5.0.12_1083/lpcxpresso/tools/bin/../lib/gcc/arm-none-eabi/4.6.2/armv7-m\libcr_eabihelpers.a(double.o)
                0x0000fd34                __aeabi_dsub
 .text.__aeabi_dadd
                0x0000ff28      0x154 c:/nxp/lpcxpresso_5.0.12_1083/lpcxpresso/tools/bin/../lib/gcc/arm-none-eabi/4.6.2/armv7-m\libcr_eabihelpers.a(double.o)
                0x0000ff28                __aeabi_dadd
 .text.__aeabi_d2iz
                0x0001007c       0x40 c:/nxp/lpcxpresso_5.0.12_1083/lpcxpresso/tools/bin/../lib/gcc/arm-none-eabi/4.6.2/armv7-m\libcr_eabihelpers.a(double.o)
                0x0001007c                __aeabi_d2iz
 .text.__bhs_ui2d
                0x000100bc       0x5c c:/nxp/lpcxpresso_5.0.12_1083/lpcxpresso/tools/bin/../lib/gcc/arm-none-eabi/4.6.2/armv7-m\libcr_eabihelpers.a(double.o)
                0x000100bc                __bhs_ui2d
 .text.__aeabi_i2d
                0x00010118       0x10 c:/nxp/lpcxpresso_5.0.12_1083/lpcxpresso/tools/bin/../lib/gcc/arm-none-eabi/4.6.2/armv7-m\libcr_eabihelpers.a(double.o)
                0x00010118                __aeabi_i2d
 .text.__aeabi_dcmpeq
                0x00010128       0x3c c:/nxp/lpcxpresso_5.0.12_1083/lpcxpresso/tools/bin/../lib/gcc/arm-none-eabi/4.6.2/armv7-m\libcr_eabihelpers.a(double.o)
                0x00010128                __aeabi_dcmpeq
 .text.__aeabi_dcmplt
                0x00010164       0x5c c:/nxp/lpcxpresso_5.0.12_1083/lpcxpresso/tools/bin/../lib/gcc/arm-none-eabi/4.6.2/armv7-m\libcr_eabihelpers.a(double.o)
                0x00010164                __aeabi_dcmplt
 .text.__aeabi_dcmple
                0x000101c0       0x58 c:/nxp/lpcxpresso_5.0.12_1083/lpcxpresso/tools/bin/../lib/gcc/arm-none-eabi/4.6.2/armv7-m\libcr_eabihelpers.a(double.o)
                0x000101c0                __aeabi_dcmple
 .text.__aeabi_dcmpge
                0x00010218       0x5c c:/nxp/lpcxpresso_5.0.12_1083/lpcxpresso/tools/bin/../lib/gcc/arm-none-eabi/4.6.2/armv7-m\libcr_eabihelpers.a(double.o)
                0x00010218                __aeabi_dcmpge
 .text.__aeabi_memcpy
                0x00010274       0x26 c:/nxp/lpcxpresso_5.0.12_1083/lpcxpresso/tools/bin/../lib/gcc/arm-none-eabi/4.6.2/armv7-m\libcr_eabihelpers.a(memcpy.o)
                0x00010274                __aeabi_memcpy4
                0x00010274                __aeabi_memcpy8
                0x00010274                __aeabi_memcpy
 .text.__aeabi_memmove
                0x0001029a       0x1c c:/nxp/lpcxpresso_5.0.12_1083/lpcxpresso/tools/bin/../lib/gcc/arm-none-eabi/4.6.2/armv7-m\libcr_eabihelpers.a(memcpy.o)
                0x0001029a                __aeabi_memmove
                0x0001029a                __aeabi_memmove4
                0x0001029a                __aeabi_memmove8
 .text.__aeabi_memset_lowlevel
                0x000102b6       0x24 c:/nxp/lpcxpresso_5.0.12_1083/lpcxpresso/tools/bin/../lib/gcc/arm-none-eabi/4.6.2/armv7-m\libcr_eabihelpers.a(memcpy.o)
                0x000102b6                __aeabi_lowlevel_memset
 .text.__sys_appexit
                0x000102da        0x2 c:/nxp/lpcxpresso_5.0.12_1083/lpcxpresso/tools/bin/../lib/gcc/arm-none-eabi/4.6.2/../../../../arm-none-eabi/lib/armv7-m\libcr_nohost.a(__sys_appexit.o)
                0x000102da                __sys_appexit
                0x000102da                __exit
 .text.__sys_close
                0x000102dc        0x6 c:/nxp/lpcxpresso_5.0.12_1083/lpcxpresso/tools/bin/../lib/gcc/arm-none-eabi/4.6.2/../../../../arm-none-eabi/lib/armv7-m\libcr_nohost.a(__sys_close.o)
                0x000102dc                __sys_close
 .text.__sys_flen
                0x000102e2        0x6 c:/nxp/lpcxpresso_5.0.12_1083/lpcxpresso/tools/bin/../lib/gcc/arm-none-eabi/4.6.2/../../../../arm-none-eabi/lib/armv7-m\libcr_nohost.a(__sys_flen.o)
                0x000102e2                __sys_flen
 .text.__sys_istty
                0x000102e8        0x6 c:/nxp/lpcxpresso_5.0.12_1083/lpcxpresso/tools/bin/../lib/gcc/arm-none-eabi/4.6.2/../../../../arm-none-eabi/lib/armv7-m\libcr_nohost.a(__sys_istty.o)
                0x000102e8                __sys_istty
 .text.__sys_remove
                0x000102ee        0x6 c:/nxp/lpcxpresso_5.0.12_1083/lpcxpresso/tools/bin/../lib/gcc/arm-none-eabi/4.6.2/../../../../arm-none-eabi/lib/armv7-m\libcr_nohost.a(__sys_remove.o)
                0x000102ee                __sys_remove
 .text.__sys_seek
                0x000102f4        0x6 c:/nxp/lpcxpresso_5.0.12_1083/lpcxpresso/tools/bin/../lib/gcc/arm-none-eabi/4.6.2/../../../../arm-none-eabi/lib/armv7-m\libcr_nohost.a(__sys_seek.o)
                0x000102f4                __sys_seek
 .text.__sys_tmpnam
                0x000102fa        0x6 c:/nxp/lpcxpresso_5.0.12_1083/lpcxpresso/tools/bin/../lib/gcc/arm-none-eabi/4.6.2/../../../../arm-none-eabi/lib/armv7-m\libcr_nohost.a(__sys_tmpnam.o)
                0x000102fa                __sys_tmpnam
 .text.__sys_write
                0x00010300        0x4 c:/nxp/lpcxpresso_5.0.12_1083/lpcxpresso/tools/bin/../lib/gcc/arm-none-eabi/4.6.2/../../../../arm-none-eabi/lib/armv7-m\libcr_nohost.a(__sys_write.o)
                0x00010300                __sys_write
                0x00010300                __write
 .text._sbrk    0x00010304       0x40 c:/nxp/lpcxpresso_5.0.12_1083/lpcxpresso/tools/bin/../lib/gcc/arm-none-eabi/4.6.2/../../../../arm-none-eabi/lib/armv7-m\libcr_nohost.a(_cr_sbrk.o)
                0x00010304                _sbrk
 .text.__check_heap_overflow
                0x00010344       0x2c c:/nxp/lpcxpresso_5.0.12_1083/lpcxpresso/tools/bin/../lib/gcc/arm-none-eabi/4.6.2/../../../../arm-none-eabi/lib/armv7-m\libcr_nohost.a(_cr_check_heap.o)
                0x00010344                __check_heap_overflow
 *(.rodata .rodata.*)
 .rodata.str1.1
                0x00010370        0xb ./src/main.o
                                  0xf (size before relaxing)
 .rodata.str1.1
                0x00000000        0x5 ./Webserver/ew_systick.o
 .rodata.GetResponse_petit
                0x0001037b       0x3e ./Webserver/webserver.o
                0x0001037b                GetResponse_petit
 .rodata.Direccion_varios_nodos
                0x000103b9     0x23a9 ./Webserver/webserver.o
                0x000103b9                Direccion_varios_nodos
 .rodata.Configuracion_general
                0x00012762      0x587 ./Webserver/webserver.o
                0x00012762                Configuracion_general
 .rodata.Menu   0x00012ce9      0xc6e ./Webserver/webserver.o
                0x00012ce9                Menu
 .rodata.Alarms
                0x00013957     0x147f ./Webserver/webserver.o
                0x00013957                Alarms
 .rodata.Canvi_usuari
                0x00014dd6      0x637 ./Webserver/webserver.o
                0x00014dd6                Canvi_usuari
 .rodata.Can1   0x0001540d     0x1943 ./Webserver/webserver.o
                0x0001540d                Can1
 .rodata.GetResponse_image
                0x00016d50       0x41 ./Webserver/webserver.o
                0x00016d50                GetResponse_image
 .rodata.Display
                0x00016d91     0x79db ./Webserver/webserver.o
                0x00016d91                Display
 .rodata.Operation
                0x0001e76c      0xaad ./Webserver/webserver.o
                0x0001e76c                Operation
 .rodata.Blanc  0x0001f219       0x3e ./Webserver/webserver.o
                0x0001f219                Blanc
 .rodata.str1.1
                0x0001f257      0x2ef ./Webserver/webserver.o
                                0x306 (size before relaxing)
 .rodata.GetResponse_favicon
                0x0001f546       0x75 ./Webserver/webserver.o
                0x0001f546                GetResponse_favicon
 .rodata.Actualitza_LC
                0x0001f5bb       0x2f ./Webserver/webserver.o
                0x0001f5bb                Actualitza_LC
 .rodata.RS232_pagina
                0x0001f5ea     0x180f ./Webserver/webserver.o
                0x0001f5ea                RS232_pagina
 .rodata.Direccion_un_nodo
                0x00020df9      0x881 ./Webserver/webserver.o
                0x00020df9                Direccion_un_nodo
 .rodata.Favicon
                0x0002167a      0x13e ./Webserver/webserver.o
                0x0002167a                Favicon
 .rodata.Actualitza_node
                0x000217b8       0x61 ./Webserver/webserver.o
                0x000217b8                Actualitza_node
 .rodata.Password_inicial
                0x00021819     0x1e43 ./Webserver/webserver.o
                0x00021819                Password_inicial
 .rodata.Imatge
                0x0002365c     0x1413 ./Webserver/webserver.o
                0x0002365c                Imatge
 .rodata.GetResponse
                0x00024a6f       0x40 ./Webserver/webserver.o
                0x00024a6f                GetResponse
 .rodata.Error  0x00024aaf      0x57d ./Webserver/webserver.o
                0x00024aaf                Error
 .rodata.Resumen_operation
                0x0002502c      0xc39 ./Webserver/webserver.o
                0x0002502c                Resumen_operation
 .rodata.Actualitza
                0x00025c65      0x112 ./Webserver/webserver.o
                0x00025c65                Actualitza
 .rodata.Nodos_arranque
                0x00025d77      0xe10 ./Webserver/webserver.o
                0x00025d77                Nodos_arranque
 .rodata.Actualitza_display
                0x00026b87       0x2e ./Webserver/webserver.o
                0x00026b87                Actualitza_display
 .rodata.LC_pagina
                0x00026bb5     0x1ca2 ./Webserver/webserver.o
                0x00026bb5                LC_pagina
 .rodata.Configuracion_ethernet
                0x00028857      0xcfb ./Webserver/webserver.o
                0x00028857                Configuracion_ethernet
 .rodata.Inici  0x00029552      0x747 ./Webserver/webserver.o
                0x00029552                Inici
 .rodata.str1.1
                0x00029c99       0x14 ./UART/trames.o
                                 0x19 (size before relaxing)
 .rodata.str1.1
                0x00000000        0x5 ./SD-EEPROM/blockdev_sd.o
 .rodata.cadenaElectro.5644
                0x00029cad        0x7 ./SD-EEPROM/blockdev_sd.o
 .rodata.str1.1
                0x00029cb4       0x27 ./LCD/lcd_driver.o
                                 0x2e (size before relaxing)
 .rodata.font_data_table
                0x00029cdb      0x5a0 ./LCD/system_fixed_be_8_15.o
                0x00029cdb                font_data_table
 .rodata.font_index_table
                0x0002a27b      0x100 ./LCD/system_fixed_be_8_15.o
                0x0002a27b                font_index_table
 .rodata.casa_pixel_data
                0x0002a37b      0x301 ./Bitmaps/casa.o
                0x0002a37b                casa_pixel_data
 .rodata.logo_pixel_data
                0x0002a67c     0x37c3 ./Bitmaps/logo.o
                0x0002a67c                logo_pixel_data
 .rodata.networking_pixel_data
                0x0002de3f      0x301 ./Bitmaps/networking.o
                0x0002de3f                networking_pixel_data
 .rodata.settings_pixel_data
                0x0002e140      0x2a4 ./Bitmaps/settings.o
                0x0002e140                settings_pixel_data
 .rodata.str1.1
                0x0002e3e4       0x32 c:/nxp/lpcxpresso_5.0.12_1083/lpcxpresso/tools/bin/../lib/gcc/arm-none-eabi/4.6.2/../../../../arm-none-eabi/lib/armv7-m\libcr_c.a(fpprintf.o)
                                 0x35 (size before relaxing)
 .rodata.str1.1
                0x0002e416        0x2 c:/nxp/lpcxpresso_5.0.12_1083/lpcxpresso/tools/bin/../lib/gcc/arm-none-eabi/4.6.2/../../../../arm-none-eabi/lib/armv7-m\libcr_c.a(initio.o)
                                  0x4 (size before relaxing)
 .rodata.digits
                0x0002e418       0x11 c:/nxp/lpcxpresso_5.0.12_1083/lpcxpresso/tools/bin/../lib/gcc/arm-none-eabi/4.6.2/../../../../arm-none-eabi/lib/armv7-m\libcr_c.a(itoa.o)
 .rodata.str1.1
                0x0002e429       0x2f c:/nxp/lpcxpresso_5.0.12_1083/lpcxpresso/tools/bin/../lib/gcc/arm-none-eabi/4.6.2/../../../../arm-none-eabi/lib/armv7-m\libcr_c.a(printf.o)
                                 0x38 (size before relaxing)
 .rodata.__huge_vall
                0x0002e458        0x8 c:/nxp/lpcxpresso_5.0.12_1083/lpcxpresso/tools/bin/../lib/gcc/arm-none-eabi/4.6.2/../../../../arm-none-eabi/lib/armv7-m\libcr_c.a(_hugeval.o)
                0x0002e458                __huge_vall
 .rodata.str1.1
                0x0002e460       0x18 c:/nxp/lpcxpresso_5.0.12_1083/lpcxpresso/tools/bin/../lib/gcc/arm-none-eabi/4.6.2/../../../../arm-none-eabi/lib/armv7-m\libcr_c.a(alloc.o)
 .rodata.__ctype
                0x0002e478      0x180 c:/nxp/lpcxpresso_5.0.12_1083/lpcxpresso/tools/bin/../lib/gcc/arm-none-eabi/4.6.2/../../../../arm-none-eabi/lib/armv7-m\libcr_c.a(ctype.o)
                0x0002e478                __ctype
                0x0002e5f8                . = ALIGN (0x4)

.glue_7         0x0002e5f8        0x0
 .glue_7        0x00000000        0x0 linker stubs

.glue_7t        0x0002e5f8        0x0
 .glue_7t       0x00000000        0x0 linker stubs

.vfp11_veneer   0x0002e5f8        0x0
 .vfp11_veneer  0x00000000        0x0 linker stubs

.v4_bx          0x0002e5f8        0x0
 .v4_bx         0x00000000        0x0 linker stubs

.ARM.extab
 *(.ARM.extab* .gnu.linkonce.armextab.*)
                0x0002e5f8                __exidx_start = .

.ARM.exidx
 *(.ARM.exidx* .gnu.linkonce.armexidx.*)
                0x0002e5f8                __exidx_end = .
                0x0002e5f8                _etext = .

.data_RAM2      0x2007c000        0x0 load address 0x0002e5f8
 FILL mask 0xff
 *(.data.$RAM2*)
 *(.data.$RamAHB32*)
                0x2007c000                . = ALIGN (0x4)

.uninit_RESERVED
                0x10000000        0x0
 *(.bss.$RESERVED*)
                0x10000000                . = ALIGN (0x4)
                0x10000000                _end_uninit_RESERVED = .

.data           0x10000000       0x68 load address 0x0002e5f8
 FILL mask 0xff
                0x10000000                _data = .
 *(vtable)
 *(.data*)
 .data.UART0TxEmpty
                0x10000000        0x1 ./UART/uart.o
                0x10000000                UART0TxEmpty
 .data.UART1TxEmpty
                0x10000001        0x1 ./UART/uart.o
                0x10000001                UART1TxEmpty
 .data.UART2TxEmpty
                0x10000002        0x1 ./UART/uart.o
                0x10000002                UART2TxEmpty
 .data.UART3TxEmpty
                0x10000003        0x1 ./UART/uart.o
                0x10000003                UART3TxEmpty
 .data.casa_width
                0x10000004        0x4 ./Bitmaps/casa.o
                0x10000004                casa_width
 .data.casa_height
                0x10000008        0x4 ./Bitmaps/casa.o
                0x10000008                casa_height
 .data.logo_height
                0x1000000c        0x4 ./Bitmaps/logo.o
                0x1000000c                logo_height
 .data.logo_width
                0x10000010        0x4 ./Bitmaps/logo.o
                0x10000010                logo_width
 .data.networking_width
                0x10000014        0x4 ./Bitmaps/networking.o
                0x10000014                networking_width
 .data.networking_height
                0x10000018        0x4 ./Bitmaps/networking.o
                0x10000018                networking_height
 .data.settings_width
                0x1000001c        0x4 ./Bitmaps/settings.o
                0x1000001c                settings_width
 .data.settings_height
                0x10000020        0x4 ./Bitmaps/settings.o
                0x10000020                settings_height
 .data.PADDING  0x10000024       0x40 ./Altres/md5.o
 .data.SystemCoreClock
                0x10000064        0x4 C:\Users\USER\Documents\Proyectos\Digital Picking Displays\DPDs\Firmware DPDs y Rabbit\DPDs serie DP\lpcxpresso_3.6.3_317\DPI\last\CMSISv2p00_LPC17xx\Release\libCMSISv2p00_LPC17xx.a(system_LPC17xx.o)
                0x10000064                SystemCoreClock
                0x10000068                . = ALIGN (0x4)
                0x10000068                _edata = .

.bss_RAM2       0x2007c000     0x30d4
 *(.bss.$RAM2*)
 *(.bss.$RamAHB32*)
 .bss.$RamAHB32*
                0x2007c000     0x30d4 ./src/main.o
                0x2007c000                send_buffer_2
                0x2007f0d4                . = ALIGN (0x4)

.bss            0x10000068     0x7da0
                0x10000068                _bss = .
 *(.bss*)
 .bss.txptr     0x10000068        0x4 ./Webserver/ethmac.o
 .bss.rxptr     0x1000006c        0x4 ./Webserver/ethmac.o
 .bss.TimeTick2
                0x10000070        0x4 ./Webserver/ew_systick.o
                0x10000070                TimeTick2
 .bss.TimeTick  0x10000074        0x4 ./Webserver/ew_systick.o
                0x10000074                TimeTick
 .bss.usedPORTCanal1
                0x10000078        0x1 ./UART/uart.o
                0x10000078                usedPORTCanal1
 .bss.usedPORTCanal2
                0x10000079        0x1 ./UART/uart.o
                0x10000079                usedPORTCanal2
 *fill*         0x1000007a        0x2 00
 .bss.UART2Count
                0x1000007c        0x4 ./UART/uart.o
                0x1000007c                UART2Count
 .bss.UART3Count
                0x10000080        0x4 ./UART/uart.o
                0x10000080                UART3Count
 .bss.UART1Count
                0x10000084        0x4 ./UART/uart.o
                0x10000084                UART1Count
 .bss.UART0Count
                0x10000088        0x4 ./UART/uart.o
                0x10000088                UART0Count
 .bss.lineaHardFault2
                0x1000008c        0x1 ./Ethernet/ethernet.o
                0x1000008c                lineaHardFault2
 .bss.idxCutFrame
                0x1000008d        0x1 ./Ethernet/ethernet.o
                0x1000008d                idxCutFrame
 .bss.numAPPcutFrame
                0x1000008e        0x1 ./Ethernet/ethernet.o
                0x1000008e                numAPPcutFrame
 *fill*         0x1000008f        0x1 00
 .bss.indexData
                0x10000090        0x2 ./Ethernet/ethernet.o
                0x10000090                indexData
 .bss.idxiniciTrama
                0x10000092        0x2 ./Ethernet/ethernet.o
                0x10000092                idxiniciTrama
 .bss.lineaHardFault
                0x10000094        0x1 ./Ethernet/ethernet.o
                0x10000094                lineaHardFault
 *fill*         0x10000095        0x3 00
 .bss.errno     0x10000098        0x4 c:/nxp/lpcxpresso_5.0.12_1083/lpcxpresso/tools/bin/../lib/gcc/arm-none-eabi/4.6.2/../../../../arm-none-eabi/lib/armv7-m\libcr_c.a(errno.o)
                0x10000098                errno
 *(COMMON)
 COMMON         0x1000009c     0x7ae8 ./src/main.o
                0x1000009c                actualitza_display_2
                0x100000a0                msTicks_aplicacio
                0x100000b4                conexio_oberta
                0x100000b8                msTicks_timeout_sesio
                0x100000bc                param_table
                0x100000d0                contrasenya_admin
                0x100000d4                watchdog_uart_3_enable
                0x100000d5                UART0Transmit_Buffer
                0x10000107                Broadcast_polling_2
                0x10000108                counter_error_CRC
                0x1000010c                TCPTimer
                0x10000110                PProgram
                0x10000114                retard_LC
                0x10000116                posicio_buffer_intermig
                0x10000120                sesio_MAC
                0x10000126                node_actual
                0x10000128                TCPAckNr_aplicacio
                0x1000013c                HTTPBytesToSend
                0x10000140                cambiar_ethernet
                0x10000142                TCPRxDataCount
                0x10000144                _TxFrame4
                0x100006f2                nodes_correctes_web
                0x100006f4                reprogramar
                0x100006f6                web_IP
                0x100006fa                MyMAC
                0x10000700                new_adress_programacio1_canal2
                0x10000701                actualitza_display
                0x10000704                timer2_counter
                0x10000708                aplicacio_actual
                0x1000070a                TxFrame4Size
                0x1000070c                old_adress_programacio1_canal2
                0x1000070e                RemoteIP_xarxa
                0x10000712                peticio_programacio_2
                0x10000714                node_a_desprogramar
                0x10000716                new_adress_programacio2_canal2
                0x10000717                NM_LCD
                0x10000726                control_alarmes_HW_2
                0x10000820                apretada
                0x10000824                enviament_broadcast_2
                0x10000826                primer_node_desprogramat
                0x10000828                msTicks_control_alarmes
                0x1000082c                watchdog_uart_2
                0x10000830                escrivint
                0x1000092a                color_canal2
                0x1000092b                control_alarmes_HW
                0x10000a26                taula_nodes_2
                0x10000c1c                TCPSeqNr_aplicacio
                0x10000c30                nodes_correctes_2
                0x10000c31                new_password
                0x10000c39                RetryCounter_aplicacio
                0x10000c3e                wire_count_2
                0x10000c3f                length_UART1
                0x10000c40                actualitza_nodes_2
                0x10000c41                malloc_buffer
                0x10000d3b                prova
                0x10000d3c                comptador_leds_uart
                0x10000d40                actualitza_nodes
                0x10000d42                SubnetMask
                0x10000d46                control_alarmes
                0x10000e40                HTTPStatus
                0x10000e44                msTicks_led
                0x10000e48                byte1_web
                0x10000e4a                TCPLocalPort_xarxa
                0x10000e4c                tipus_display
                0x10000e4d                reenviaments_broadcast_1
                0x10000e4e                CanviarPagina
                0x10000e4f                NUM_NODES_2
                0x10000e50                TCPRemotePort_RST
                0x10000e52                error_LC
                0x10000e54                enviament_broadcast_1_anterior
                0x10000e58                msTicks_ACK
                0x10000e5c                send_buffer_prova
                0x10000e60                fila
                0x10000e61                wire_correcte
                0x10000e62                detectats_LC
                0x10000e66                StatePagina
                0x10000e67                brillo
                0x10000e68                wire_count
                0x10000e69                IP_LCD
                0x10000e78                GatewayIP
                0x10000e7c                usuario
                0x10000e80                UART3Transmit_Buffer
                0x10000eb2                UART1Transmit_Buffer
                0x10000ee4                y_config
                0x10000ee5                configurats_LC
                0x10000eec                watchdog_uart_1
                0x10000ef0                sesio_iniciada
                0x10000ef1                GW_LCD
                0x10000f00                text
                0x10000f10                result_table
                0x10000f24                TCPTxDataCount
                0x10000f26                alarmes_activades
                0x10001020                UART2Transmit_Buffer
                0x10001052                RecdFrameIP
                0x10001056                web_MAC
                0x1000105c                RemoteMAC
                0x10001062                taula_SD_2
                0x1000115c                new_adress_programacio1_canal1
                0x1000115d                StateUART_canal2
                0x1000115e                taula_configurats
                0x10001258                Ethernet_Transmit_Buffer
                0x10001339                getmem_adress
                0x1000133a                taula_errors_2
                0x10001cfe                GWIP_2
                0x10001cff                SUBMASK_3
                0x10001d00                TCPStateMachine
                0x10001d01                numero_aplicacions
                0x10001d02                SD_state
                0x10001d03                x_config
                0x10001d04                enviament_broadcast_2_anterior
                0x10001d05                taula_SD
                0x10001dff                UARTTransmit_Broadcast_2
                0x10001e31                port_comunicacio_RAM
                0x10001e33                nodes_correctes_web_2
                0x10001e34                TCPUNASeqNr
                0x10001e38                UARTTransmit_Broadcast
                0x10001e6a                GWIP_3
                0x10001e6c                aplicacio_MAC
                0x10001e8a                watchdog_uart_4_enable
                0x10001e8b                PWM_high
                0x10001e8c                posicio_configurats_2
                0x10001e8d                SUBMASK_4
                0x10001e8e                TCPLocalPort
                0x10001e90                send_buffer
                0x10004f64                msTicks_led_error
                0x10004f68                _RxTCPBuffer
                0x10005738                alarmes_activades_canal1
                0x1000573a                length_UART3
                0x1000573c                taula_nodes_web_2
                0x10005930                counter_pollings_fallidos
                0x10005934                error_flags
                0x10005935                watchdog_uart_2_enable
                0x10005936                columna
                0x10005937                frame_display
                0x10005938                StateUART_canal1
                0x10005939                TCPFlags
                0x1000593a                enviament_broadcast
                0x1000593c                timer0_counter
                0x10005940                counter_watchdog_uart
                0x10005944                length_UART0
                0x10005945                nodes_correctes
                0x10005948                usuario_admin
                0x1000594c                contrasenya
                0x10005950                MYIP_2
                0x10005952                RecdFrameMAC
                0x10005958                two_sending_TCP
                0x1000595c                msTicks_LCD
                0x10005960                MYIP_1
                0x10005961                alarmes_activades_2
                0x10005a5c                taula_errors
                0x10006420                TCPTxDataCount_ethernet
                0x10006422                reenviaments_broadcast_2
                0x10006424                alarmes_activades_canal2
                0x10006426                esperant_ACK
                0x1000642b                node_actual_2
                0x1000642c                watchdog_uart_4
                0x10006430                remoto_local
                0x10006431                gestio_led_error
                0x10006432                cont_LCD
                0x10006434                RecdIPFrameLength
                0x10006436                PWM_cont
                0x10006437                StateLCD
                0x10006438                wire_correcte_2
                0x10006439                password_incorrecte
                0x1000643a                RemoteIP
                0x1000643e                LastFrameSent
                0x10006440                posicio_taula_alarms
                0x10006442                despres_heartbeat
                0x10006443                MYIP_4
                0x10006444                counter_error_3
                0x10006448                peticio_programacio
                0x1000644a                TxFrame3Size
                0x1000644c                TCPRemotePort
                0x1000644e                posicio_enviament_xarxa
                0x10006450                byte2_web
                0x10006451                SUBMASK_2
                0x10006452                TxFrame2Size
                0x10006454                PORT_COMUNICACIO
                0x10006458                node_display
                0x1000645c                numero_serie
                0x10006465                aplicacio_sesioActiva
                0x10006468                TCPAckNr
                0x1000646c                change_state
                0x1000646d                new_usuario
                0x10006475                punter_usuari
                0x10006476                data_fabricacio
                0x1000647b                buffer_intermig_ethernet
                0x10006575                actualitza_nodes_RAM
                0x10006576                bytes_RS232
                0x100065b3                nombre_mallocs
                0x100065b4                TransmitControl
                0x100065b5                SUBMASK_1
                0x100065b6                iniciar_sesio_aplicacio
                0x100065b7                taula_configurats_2
                0x100066b4                timer1_counter
                0x100066b8                TxFrame1Size
                0x100066bc                msTicks_programacio2
                0x100066c0                msTicks_programacio1
                0x100066c4                malloc_buffer_2
                0x100067be                ISNGenHigh
                0x100067c0                control_alarmes_2
                0x100068ba                tipus_usuari_web
                0x100068bb                watchdog_uart_1_enable
                0x100068bc                _TxFrame2
                0x10006906                GWIP_1
                0x10006908                TCPRemotePort_aplicacio
                0x10006912                GWIP_4
                0x10006914                aplicacio_IP
                0x10006928                punter_password
                0x10006929                Broadcast_polling
                0x1000692a                RecdFrameLength
                0x1000692c                taula_alarms
                0x10006ad0                counter_envios_fallidos
                0x10006ad4                ultim_node_programat
                0x10006ad6                pulsadors_display
                0x10006ad7                length_UART2
                0x10006ad8                llargada_trama
                0x10006ade                rebut_MAC
                0x10006ae4                taula_nodes
                0x10006cd8                comptador_TCP
                0x10006cda                maxim_full_adress
                0x10006cdc                NrOfDataBytes
                0x10006cde                _TxFrame1
                0x1000728c                posicio_configurats
                0x10007290                TCPSeqNr
                0x10007294                NUM_NODES
                0x10007296                taula_nodes_web
                0x1000748a                firm_ware
                0x10007490                watchdog_uart_3
                0x10007494                nombre_mallocs_2
                0x10007495                color_canal1
                0x10007496                prova_2
                0x10007497                RetryCounter
                0x10007498                MyIP
                0x1000749c                SocketStatus
                0x1000749d                getmem_aplicacio
                0x1000749e                escrivint_2
                0x10007598                RemoteMAC_xarxa
                0x1000759e                numero_LCD
                0x100075a0                new_adress_programacio2_canal1
                0x100075a2                _TxFrame3
                0x10007b50                old_adress_programacio1_canal1
                0x10007b51                prova_send_buffer
                0x10007b83                MYIP_3
 COMMON         0x10007b84        0x2 ./Webserver/tcpip.o
                0x10007b84                ICMPTypeAndCode
 COMMON         0x10007b86        0x1 ./UART/trames.o
                0x10007b86                nodeGlogal
 *fill*         0x10007b87        0x1 00
 COMMON         0x10007b88       0xdc ./UART/uart.o
                0x10007b88                UART1Buffer
                0x10007bbc                UART2Status
                0x10007bc0                UART3Status
                0x10007bc4                UART0Buffer
                0x10007bf8                UART1Status
                0x10007bfc                UART3Buffer
                0x10007c2e                UART2Buffer
                0x10007c60                UART0Status
 COMMON         0x10007c64       0x55 ./Ethernet/ethernet.o
                0x10007c64                j
                0x10007c68                node
                0x10007c6c                i
                0x10007c70                buf2
                0x10007c74                adress
                0x10007c78                cutFrame
                0x10007cb4                buf
                0x10007cb8                isFrameCut
 *fill*         0x10007cb9        0x3 00
 COMMON         0x10007cbc        0x4 c:/nxp/lpcxpresso_5.0.12_1083/lpcxpresso/tools/bin/../lib/gcc/arm-none-eabi/4.6.2/../../../../arm-none-eabi/lib/armv7-m\libcr_c.a(initio.o)
                0x10007cbc                _extra
 COMMON         0x10007cc0      0x140 c:/nxp/lpcxpresso_5.0.12_1083/lpcxpresso/tools/bin/../lib/gcc/arm-none-eabi/4.6.2/../../../../arm-none-eabi/lib/armv7-m\libcr_c.a(stdio.o)
                0x10007cc0                __Ciob
 COMMON         0x10007e00        0x8 c:/nxp/lpcxpresso_5.0.12_1083/lpcxpresso/tools/bin/../lib/gcc/arm-none-eabi/4.6.2/../../../../arm-none-eabi/lib/armv7-m\libcr_c.a(__init_alloc.o)
                0x10007e00                __heaps
                0x10007e04                __end_of_heap
                0x10007e08                . = ALIGN (0x4)
                0x10007e08                _ebss = .
                0x10007e08                PROVIDE (end, .)
                0x10007e08                PROVIDE (_pvHeapStart, .)
                0x10008000                PROVIDE (_vStackTop, (__top_RamLoc32 - 0x0))
OUTPUT(DPI-V1.5.axf elf32-littlearm)

.debug_info     0x00000000    0x128eb
 .debug_info    0x00000000      0x2d9 ./src/cr_startup_lpc176x.o
 .debug_info    0x000002d9     0x2eff ./src/main.o
 .debug_info    0x000031d8      0xc86 ./Webserver/ethmac.o
 .debug_info    0x00003e5e      0xc49 ./Webserver/ew_systick.o
 .debug_info    0x00004aa7     0x15f8 ./Webserver/tcpip.o
 .debug_info    0x0000609f     0x16d8 ./Webserver/webserver.o
 .debug_info    0x00007777     0x14ab ./UART/trames.o
 .debug_info    0x00008c22     0x274e ./UART/uart.o
 .debug_info    0x0000b370      0x5a5 ./SD-EEPROM/EEPROM.o
 .debug_info    0x0000b915      0xc0d ./SD-EEPROM/blockdev_sd.o
 .debug_info    0x0000c522      0xa94 ./SD-EEPROM/lpc2000_spi.o
 .debug_info    0x0000cfb6      0x4ac ./RTC/rtc.o
 .debug_info    0x0000d462      0x200 ./LCD/lcd_bitmap.o
 .debug_info    0x0000d662      0xb05 ./LCD/lcd_driver.o
 .debug_info    0x0000e167      0x40a ./LCD/lcd_shapes.o
 .debug_info    0x0000e571      0x2a2 ./LCD/lcd_terminal.o
 .debug_info    0x0000e813      0x331 ./LCD/lcd_text.o
 .debug_info    0x0000eb44       0x84 ./LCD/system_fixed_be_8_15.o
 .debug_info    0x0000ebc8     0x1031 ./Ethernet/ethernet.o
 .debug_info    0x0000fbf9       0x80 ./Bitmaps/casa.o
 .debug_info    0x0000fc79       0x80 ./Bitmaps/logo.o
 .debug_info    0x0000fcf9       0x80 ./Bitmaps/networking.o
 .debug_info    0x0000fd79       0x80 ./Bitmaps/settings.o
 .debug_info    0x0000fdf9      0x712 ./Altres/leds.o
 .debug_info    0x0001050b      0x332 ./Altres/md5.o
 .debug_info    0x0001083d      0x8d8 ./Altres/nodes.o
 .debug_info    0x00011115     0x1293 ./Altres/timer.o
 .debug_info    0x000123a8      0x1b8 ./Altres/watchdog.o
 .debug_info    0x00012560      0x38b C:\Users\USER\Documents\Proyectos\Digital Picking Displays\DPDs\Firmware DPDs y Rabbit\DPDs serie DP\lpcxpresso_3.6.3_317\DPI\last\CMSISv2p00_LPC17xx\Release\libCMSISv2p00_LPC17xx.a(system_LPC17xx.o)

.debug_abbrev   0x00000000     0x2a85
 .debug_abbrev  0x00000000      0x129 ./src/cr_startup_lpc176x.o
 .debug_abbrev  0x00000129      0x226 ./src/main.o
 .debug_abbrev  0x0000034f      0x24c ./Webserver/ethmac.o
 .debug_abbrev  0x0000059b      0x1d8 ./Webserver/ew_systick.o
 .debug_abbrev  0x00000773      0x330 ./Webserver/tcpip.o
 .debug_abbrev  0x00000aa3      0x21a ./Webserver/webserver.o
 .debug_abbrev  0x00000cbd      0x223 ./UART/trames.o
 .debug_abbrev  0x00000ee0      0x2c4 ./UART/uart.o
 .debug_abbrev  0x000011a4      0x1bc ./SD-EEPROM/EEPROM.o
 .debug_abbrev  0x00001360      0x313 ./SD-EEPROM/blockdev_sd.o
 .debug_abbrev  0x00001673      0x1f1 ./SD-EEPROM/lpc2000_spi.o
 .debug_abbrev  0x00001864      0x101 ./RTC/rtc.o
 .debug_abbrev  0x00001965       0xbc ./LCD/lcd_bitmap.o
 .debug_abbrev  0x00001a21      0x1de ./LCD/lcd_driver.o
 .debug_abbrev  0x00001bff       0xca ./LCD/lcd_shapes.o
 .debug_abbrev  0x00001cc9       0xb8 ./LCD/lcd_terminal.o
 .debug_abbrev  0x00001d81       0xe8 ./LCD/lcd_text.o
 .debug_abbrev  0x00001e69       0x63 ./LCD/system_fixed_be_8_15.o
 .debug_abbrev  0x00001ecc      0x265 ./Ethernet/ethernet.o
 .debug_abbrev  0x00002131       0x49 ./Bitmaps/casa.o
 .debug_abbrev  0x0000217a       0x49 ./Bitmaps/logo.o
 .debug_abbrev  0x000021c3       0x49 ./Bitmaps/networking.o
 .debug_abbrev  0x0000220c       0x49 ./Bitmaps/settings.o
 .debug_abbrev  0x00002255      0x153 ./Altres/leds.o
 .debug_abbrev  0x000023a8      0x194 ./Altres/md5.o
 .debug_abbrev  0x0000253c      0x155 ./Altres/nodes.o
 .debug_abbrev  0x00002691      0x227 ./Altres/timer.o
 .debug_abbrev  0x000028b8       0xec ./Altres/watchdog.o
 .debug_abbrev  0x000029a4       0xe1 C:\Users\USER\Documents\Proyectos\Digital Picking Displays\DPDs\Firmware DPDs y Rabbit\DPDs serie DP\lpcxpresso_3.6.3_317\DPI\last\CMSISv2p00_LPC17xx\Release\libCMSISv2p00_LPC17xx.a(system_LPC17xx.o)

.debug_loc      0x00000000     0x773f
 .debug_loc     0x00000000      0x102 ./src/cr_startup_lpc176x.o
 .debug_loc     0x00000102      0x846 ./src/main.o
 .debug_loc     0x00000948      0x3a5 ./Webserver/ethmac.o
 .debug_loc     0x00000ced       0xb1 ./Webserver/ew_systick.o
 .debug_loc     0x00000d9e      0x9ab ./Webserver/tcpip.o
 .debug_loc     0x00001749     0x1589 ./Webserver/webserver.o
 .debug_loc     0x00002cd2     0x1052 ./UART/trames.o
 .debug_loc     0x00003d24      0xe3c ./UART/uart.o
 .debug_loc     0x00004b60       0xbb ./SD-EEPROM/EEPROM.o
 .debug_loc     0x00004c1b      0x5b1 ./SD-EEPROM/blockdev_sd.o
 .debug_loc     0x000051cc      0x11e ./SD-EEPROM/lpc2000_spi.o
 .debug_loc     0x000052ea       0x8e ./RTC/rtc.o
 .debug_loc     0x00005378      0x1f8 ./LCD/lcd_bitmap.o
 .debug_loc     0x00005570      0x1c8 ./LCD/lcd_driver.o
 .debug_loc     0x00005738      0x5e0 ./LCD/lcd_shapes.o
 .debug_loc     0x00005d18      0x354 ./LCD/lcd_terminal.o
 .debug_loc     0x0000606c      0x31e ./LCD/lcd_text.o
 .debug_loc     0x0000638a      0x88e ./Ethernet/ethernet.o
 .debug_loc     0x00006c18       0xea ./Altres/leds.o
 .debug_loc     0x00006d02      0x574 ./Altres/md5.o
 .debug_loc     0x00007276      0x385 ./Altres/nodes.o
 .debug_loc     0x000075fb      0x111 ./Altres/timer.o
 .debug_loc     0x0000770c       0x13 ./Altres/watchdog.o
 .debug_loc     0x0000771f       0x20 C:\Users\USER\Documents\Proyectos\Digital Picking Displays\DPDs\Firmware DPDs y Rabbit\DPDs serie DP\lpcxpresso_3.6.3_317\DPI\last\CMSISv2p00_LPC17xx\Release\libCMSISv2p00_LPC17xx.a(system_LPC17xx.o)

.debug_aranges  0x00000000      0x888
 .debug_aranges
                0x00000000       0x80 ./src/cr_startup_lpc176x.o
 .debug_aranges
                0x00000080       0x38 ./src/main.o
 .debug_aranges
                0x000000b8       0x88 ./Webserver/ethmac.o
 .debug_aranges
                0x00000140       0x28 ./Webserver/ew_systick.o
 .debug_aranges
                0x00000168      0x150 ./Webserver/tcpip.o
 .debug_aranges
                0x000002b8       0x60 ./Webserver/webserver.o
 .debug_aranges
                0x00000318       0x48 ./UART/trames.o
 .debug_aranges
                0x00000360       0x98 ./UART/uart.o
 .debug_aranges
                0x000003f8       0x38 ./SD-EEPROM/EEPROM.o
 .debug_aranges
                0x00000430       0x70 ./SD-EEPROM/blockdev_sd.o
 .debug_aranges
                0x000004a0       0x40 ./SD-EEPROM/lpc2000_spi.o
 .debug_aranges
                0x000004e0       0x38 ./RTC/rtc.o
 .debug_aranges
                0x00000518       0x28 ./LCD/lcd_bitmap.o
 .debug_aranges
                0x00000540       0x68 ./LCD/lcd_driver.o
 .debug_aranges
                0x000005a8       0x48 ./LCD/lcd_shapes.o
 .debug_aranges
                0x000005f0       0x38 ./LCD/lcd_terminal.o
 .debug_aranges
                0x00000628       0x30 ./LCD/lcd_text.o
 .debug_aranges
                0x00000658       0x80 ./Ethernet/ethernet.o
 .debug_aranges
                0x000006d8       0x50 ./Altres/leds.o
 .debug_aranges
                0x00000728       0x40 ./Altres/md5.o
 .debug_aranges
                0x00000768       0x78 ./Altres/nodes.o
 .debug_aranges
                0x000007e0       0x58 ./Altres/timer.o
 .debug_aranges
                0x00000838       0x28 ./Altres/watchdog.o
 .debug_aranges
                0x00000860       0x28 C:\Users\USER\Documents\Proyectos\Digital Picking Displays\DPDs\Firmware DPDs y Rabbit\DPDs serie DP\lpcxpresso_3.6.3_317\DPI\last\CMSISv2p00_LPC17xx\Release\libCMSISv2p00_LPC17xx.a(system_LPC17xx.o)

.debug_ranges   0x00000000      0x8e8
 .debug_ranges  0x00000000       0x70 ./src/cr_startup_lpc176x.o
 .debug_ranges  0x00000070       0x28 ./src/main.o
 .debug_ranges  0x00000098       0x78 ./Webserver/ethmac.o
 .debug_ranges  0x00000110       0x48 ./Webserver/ew_systick.o
 .debug_ranges  0x00000158      0x270 ./Webserver/tcpip.o
 .debug_ranges  0x000003c8       0x50 ./Webserver/webserver.o
 .debug_ranges  0x00000418       0x38 ./UART/trames.o
 .debug_ranges  0x00000450       0xe8 ./UART/uart.o
 .debug_ranges  0x00000538       0x28 ./SD-EEPROM/EEPROM.o
 .debug_ranges  0x00000560       0x60 ./SD-EEPROM/blockdev_sd.o
 .debug_ranges  0x000005c0       0x50 ./SD-EEPROM/lpc2000_spi.o
 .debug_ranges  0x00000610       0x28 ./RTC/rtc.o
 .debug_ranges  0x00000638       0x18 ./LCD/lcd_bitmap.o
 .debug_ranges  0x00000650       0x58 ./LCD/lcd_driver.o
 .debug_ranges  0x000006a8       0x38 ./LCD/lcd_shapes.o
 .debug_ranges  0x000006e0       0x28 ./LCD/lcd_terminal.o
 .debug_ranges  0x00000708       0x20 ./LCD/lcd_text.o
 .debug_ranges  0x00000728       0x70 ./Ethernet/ethernet.o
 .debug_ranges  0x00000798       0x40 ./Altres/leds.o
 .debug_ranges  0x000007d8       0x30 ./Altres/md5.o
 .debug_ranges  0x00000808       0x68 ./Altres/nodes.o
 .debug_ranges  0x00000870       0x48 ./Altres/timer.o
 .debug_ranges  0x000008b8       0x18 ./Altres/watchdog.o
 .debug_ranges  0x000008d0       0x18 C:\Users\USER\Documents\Proyectos\Digital Picking Displays\DPDs\Firmware DPDs y Rabbit\DPDs serie DP\lpcxpresso_3.6.3_317\DPI\last\CMSISv2p00_LPC17xx\Release\libCMSISv2p00_LPC17xx.a(system_LPC17xx.o)

.debug_line     0x00000000     0x8797
 .debug_line    0x00000000       0xad ./src/cr_startup_lpc176x.o
 .debug_line    0x000000ad      0xd1e ./src/main.o
 .debug_line    0x00000dcb      0x4c9 ./Webserver/ethmac.o
 .debug_line    0x00001294      0x544 ./Webserver/ew_systick.o
 .debug_line    0x000017d8      0xaee ./Webserver/tcpip.o
 .debug_line    0x000022c6      0xc52 ./Webserver/webserver.o
 .debug_line    0x00002f18      0xc63 ./UART/trames.o
 .debug_line    0x00003b7b     0x1075 ./UART/uart.o
 .debug_line    0x00004bf0      0x29a ./SD-EEPROM/EEPROM.o
 .debug_line    0x00004e8a      0x5a6 ./SD-EEPROM/blockdev_sd.o
 .debug_line    0x00005430      0x43d ./SD-EEPROM/lpc2000_spi.o
 .debug_line    0x0000586d      0x1c8 ./RTC/rtc.o
 .debug_line    0x00005a35      0x172 ./LCD/lcd_bitmap.o
 .debug_line    0x00005ba7      0x4e1 ./LCD/lcd_driver.o
 .debug_line    0x00006088      0x236 ./LCD/lcd_shapes.o
 .debug_line    0x000062be      0x248 ./LCD/lcd_terminal.o
 .debug_line    0x00006506      0x180 ./LCD/lcd_text.o
 .debug_line    0x00006686       0x3e ./LCD/system_fixed_be_8_15.o
 .debug_line    0x000066c4      0xb40 ./Ethernet/ethernet.o
 .debug_line    0x00007204       0x32 ./Bitmaps/casa.o
 .debug_line    0x00007236       0x32 ./Bitmaps/logo.o
 .debug_line    0x00007268       0x38 ./Bitmaps/networking.o
 .debug_line    0x000072a0       0x36 ./Bitmaps/settings.o
 .debug_line    0x000072d6      0x3e2 ./Altres/leds.o
 .debug_line    0x000076b8      0x33e ./Altres/md5.o
 .debug_line    0x000079f6      0x5fc ./Altres/nodes.o
 .debug_line    0x00007ff2      0x46f ./Altres/timer.o
 .debug_line    0x00008461      0x1ac ./Altres/watchdog.o
 .debug_line    0x0000860d      0x18a C:\Users\USER\Documents\Proyectos\Digital Picking Displays\DPDs\Firmware DPDs y Rabbit\DPDs serie DP\lpcxpresso_3.6.3_317\DPI\last\CMSISv2p00_LPC17xx\Release\libCMSISv2p00_LPC17xx.a(system_LPC17xx.o)

.debug_str      0x00000000     0x370a
 .debug_str     0x00000000      0x2ae ./src/cr_startup_lpc176x.o
                                0x2d6 (size before relaxing)
 .debug_str     0x000002ae     0x1696 ./src/main.o
                               0x1908 (size before relaxing)
 .debug_str     0x00001944      0x30e ./Webserver/ethmac.o
                                0x76d (size before relaxing)
 .debug_str     0x00001c52      0x2ce ./Webserver/ew_systick.o
                                0x8ad (size before relaxing)
 .debug_str     0x00001f20      0x36e ./Webserver/tcpip.o
                                0xc5c (size before relaxing)
 .debug_str     0x0000228e      0x321 ./Webserver/webserver.o
                                0xbd0 (size before relaxing)
 .debug_str     0x000025af      0x270 ./UART/trames.o
                                0xd01 (size before relaxing)
 .debug_str     0x0000281f      0x255 ./UART/uart.o
                               0x114c (size before relaxing)
 .debug_str     0x00002a74       0x9e ./SD-EEPROM/EEPROM.o
                                0x3a4 (size before relaxing)
 .debug_str     0x00002b12      0x14e ./SD-EEPROM/blockdev_sd.o
                                0x54b (size before relaxing)
 .debug_str     0x00002c60       0x90 ./SD-EEPROM/lpc2000_spi.o
                                0x61b (size before relaxing)
 .debug_str     0x00002cf0       0x7d ./RTC/rtc.o
                                0x3a9 (size before relaxing)
 .debug_str     0x00002d6d       0x5b ./LCD/lcd_bitmap.o
                                0x1e5 (size before relaxing)
 .debug_str     0x00002dc8       0xfa ./LCD/lcd_driver.o
                                0x65d (size before relaxing)
 .debug_str     0x00002ec2       0xb5 ./LCD/lcd_shapes.o
                                0x245 (size before relaxing)
 .debug_str     0x00002f77       0xeb ./LCD/lcd_terminal.o
                                0x28d (size before relaxing)
 .debug_str     0x00003062       0x8e ./LCD/lcd_text.o
                                0x259 (size before relaxing)
 .debug_str     0x000030f0       0x1e ./LCD/system_fixed_be_8_15.o
                                0x137 (size before relaxing)
 .debug_str     0x0000310e      0x1f3 ./Ethernet/ethernet.o
                                0x7f0 (size before relaxing)
 .debug_str     0x00003301       0x12 ./Bitmaps/casa.o
                                0x131 (size before relaxing)
 .debug_str     0x00003313       0x12 ./Bitmaps/logo.o
                                0x131 (size before relaxing)
 .debug_str     0x00003325       0x18 ./Bitmaps/networking.o
                                0x149 (size before relaxing)
 .debug_str     0x0000333d       0x16 ./Bitmaps/settings.o
                                0x141 (size before relaxing)
 .debug_str     0x00003353       0x61 ./Altres/leds.o
                                0x4a2 (size before relaxing)
 .debug_str     0x000033b4       0x76 ./Altres/md5.o
                                0x1eb (size before relaxing)
 .debug_str     0x0000342a      0x115 ./Altres/nodes.o
                                0x701 (size before relaxing)
 .debug_str     0x0000353f       0x99 ./Altres/timer.o
                                0x849 (size before relaxing)
 .debug_str     0x000035d8       0x5b ./Altres/watchdog.o
                                0x20d (size before relaxing)
 .debug_str     0x00003633       0xd7 C:\Users\USER\Documents\Proyectos\Digital Picking Displays\DPDs\Firmware DPDs y Rabbit\DPDs serie DP\lpcxpresso_3.6.3_317\DPI\last\CMSISv2p00_LPC17xx\Release\libCMSISv2p00_LPC17xx.a(system_LPC17xx.o)
                                0x311 (size before relaxing)

.comment        0x00000000       0x70
 .comment       0x00000000       0x70 ./src/cr_startup_lpc176x.o
                                 0x71 (size before relaxing)
 .comment       0x00000000       0x71 ./src/main.o
 .comment       0x00000000       0x71 ./Webserver/ethmac.o
 .comment       0x00000000       0x71 ./Webserver/ew_systick.o
 .comment       0x00000000       0x71 ./Webserver/tcpip.o
 .comment       0x00000000       0x71 ./Webserver/webserver.o
 .comment       0x00000000       0x71 ./UART/trames.o
 .comment       0x00000000       0x71 ./UART/uart.o
 .comment       0x00000000       0x71 ./SD-EEPROM/EEPROM.o
 .comment       0x00000000       0x71 ./SD-EEPROM/blockdev_sd.o
 .comment       0x00000000       0x71 ./SD-EEPROM/lpc2000_spi.o
 .comment       0x00000000       0x71 ./RTC/rtc.o
 .comment       0x00000000       0x71 ./LCD/lcd_bitmap.o
 .comment       0x00000000       0x71 ./LCD/lcd_driver.o
 .comment       0x00000000       0x71 ./LCD/lcd_shapes.o
 .comment       0x00000000       0x71 ./LCD/lcd_terminal.o
 .comment       0x00000000       0x71 ./LCD/lcd_text.o
 .comment       0x00000000       0x71 ./LCD/system_fixed_be_8_15.o
 .comment       0x00000000       0x71 ./Ethernet/ethernet.o
 .comment       0x00000000       0x71 ./Bitmaps/casa.o
 .comment       0x00000000       0x71 ./Bitmaps/logo.o
 .comment       0x00000000       0x71 ./Bitmaps/networking.o
 .comment       0x00000000       0x71 ./Bitmaps/settings.o
 .comment       0x00000000       0x71 ./Altres/leds.o
 .comment       0x00000000       0x71 ./Altres/md5.o
 .comment       0x00000000       0x71 ./Altres/nodes.o
 .comment       0x00000000       0x71 ./Altres/timer.o
 .comment       0x00000000       0x71 ./Altres/watchdog.o
 .comment       0x00000000       0x71 C:\Users\USER\Documents\Proyectos\Digital Picking Displays\DPDs\Firmware DPDs y Rabbit\DPDs serie DP\lpcxpresso_3.6.3_317\DPI\last\CMSISv2p00_LPC17xx\Release\libCMSISv2p00_LPC17xx.a(system_LPC17xx.o)
 .comment       0x00000000       0x71 c:/nxp/lpcxpresso_5.0.12_1083/lpcxpresso/tools/bin/../lib/gcc/arm-none-eabi/4.6.2/../../../../arm-none-eabi/lib/armv7-m\libcr_nohost.a(_cr__main.o)
 .comment       0x00000000       0x71 c:/nxp/lpcxpresso_5.0.12_1083/lpcxpresso/tools/bin/../lib/gcc/arm-none-eabi/4.6.2/../../../../arm-none-eabi/lib/armv7-m\libcr_c.a(memcpy.o)
 .comment       0x00000000       0x71 c:/nxp/lpcxpresso_5.0.12_1083/lpcxpresso/tools/bin/../lib/gcc/arm-none-eabi/4.6.2/../../../../arm-none-eabi/lib/armv7-m\libcr_c.a(memmove.o)
 .comment       0x00000000       0x71 c:/nxp/lpcxpresso_5.0.12_1083/lpcxpresso/tools/bin/../lib/gcc/arm-none-eabi/4.6.2/../../../../arm-none-eabi/lib/armv7-m\libcr_c.a(memset.o)
 .comment       0x00000000       0x71 c:/nxp/lpcxpresso_5.0.12_1083/lpcxpresso/tools/bin/../lib/gcc/arm-none-eabi/4.6.2/../../../../arm-none-eabi/lib/armv7-m\libcr_c.a(fpprintf.o)
 .comment       0x00000000       0x71 c:/nxp/lpcxpresso_5.0.12_1083/lpcxpresso/tools/bin/../lib/gcc/arm-none-eabi/4.6.2/../../../../arm-none-eabi/lib/armv7-m\libcr_c.a(initio.o)
 .comment       0x00000000       0x71 c:/nxp/lpcxpresso_5.0.12_1083/lpcxpresso/tools/bin/../lib/gcc/arm-none-eabi/4.6.2/../../../../arm-none-eabi/lib/armv7-m\libcr_c.a(itoa.o)
 .comment       0x00000000       0x71 c:/nxp/lpcxpresso_5.0.12_1083/lpcxpresso/tools/bin/../lib/gcc/arm-none-eabi/4.6.2/../../../../arm-none-eabi/lib/armv7-m\libcr_c.a(memcmp.o)
 .comment       0x00000000       0x71 c:/nxp/lpcxpresso_5.0.12_1083/lpcxpresso/tools/bin/../lib/gcc/arm-none-eabi/4.6.2/../../../../arm-none-eabi/lib/armv7-m\libcr_c.a(printf.o)
 .comment       0x00000000       0x71 c:/nxp/lpcxpresso_5.0.12_1083/lpcxpresso/tools/bin/../lib/gcc/arm-none-eabi/4.6.2/../../../../arm-none-eabi/lib/armv7-m\libcr_c.a(scanf.o)
 .comment       0x00000000       0x71 c:/nxp/lpcxpresso_5.0.12_1083/lpcxpresso/tools/bin/../lib/gcc/arm-none-eabi/4.6.2/../../../../arm-none-eabi/lib/armv7-m\libcr_c.a(setvbuf.o)
 .comment       0x00000000       0x71 c:/nxp/lpcxpresso_5.0.12_1083/lpcxpresso/tools/bin/../lib/gcc/arm-none-eabi/4.6.2/../../../../arm-none-eabi/lib/armv7-m\libcr_c.a(stdio.o)
 .comment       0x00000000       0x71 c:/nxp/lpcxpresso_5.0.12_1083/lpcxpresso/tools/bin/../lib/gcc/arm-none-eabi/4.6.2/../../../../arm-none-eabi/lib/armv7-m\libcr_c.a(stdlib.o)
 .comment       0x00000000       0x71 c:/nxp/lpcxpresso_5.0.12_1083/lpcxpresso/tools/bin/../lib/gcc/arm-none-eabi/4.6.2/../../../../arm-none-eabi/lib/armv7-m\libcr_c.a(strcpy.o)
 .comment       0x00000000       0x71 c:/nxp/lpcxpresso_5.0.12_1083/lpcxpresso/tools/bin/../lib/gcc/arm-none-eabi/4.6.2/../../../../arm-none-eabi/lib/armv7-m\libcr_c.a(strlen.o)
 .comment       0x00000000       0x71 c:/nxp/lpcxpresso_5.0.12_1083/lpcxpresso/tools/bin/../lib/gcc/arm-none-eabi/4.6.2/../../../../arm-none-eabi/lib/armv7-m\libcr_c.a(strncmp.o)
 .comment       0x00000000       0x71 c:/nxp/lpcxpresso_5.0.12_1083/lpcxpresso/tools/bin/../lib/gcc/arm-none-eabi/4.6.2/../../../../arm-none-eabi/lib/armv7-m\libcr_c.a(ungetc.o)
 .comment       0x00000000       0x71 c:/nxp/lpcxpresso_5.0.12_1083/lpcxpresso/tools/bin/../lib/gcc/arm-none-eabi/4.6.2/../../../../arm-none-eabi/lib/armv7-m\libcr_c.a(__fillbuf.o)
 .comment       0x00000000       0x71 c:/nxp/lpcxpresso_5.0.12_1083/lpcxpresso/tools/bin/../lib/gcc/arm-none-eabi/4.6.2/../../../../arm-none-eabi/lib/armv7-m\libcr_c.a(_deferredlazyseek.o)
 .comment       0x00000000       0x71 c:/nxp/lpcxpresso_5.0.12_1083/lpcxpresso/tools/bin/../lib/gcc/arm-none-eabi/4.6.2/../../../../arm-none-eabi/lib/armv7-m\libcr_c.a(_fdopen.o)
 .comment       0x00000000       0x71 c:/nxp/lpcxpresso_5.0.12_1083/lpcxpresso/tools/bin/../lib/gcc/arm-none-eabi/4.6.2/../../../../arm-none-eabi/lib/armv7-m\libcr_c.a(_fflush.o)
 .comment       0x00000000       0x71 c:/nxp/lpcxpresso_5.0.12_1083/lpcxpresso/tools/bin/../lib/gcc/arm-none-eabi/4.6.2/../../../../arm-none-eabi/lib/armv7-m\libcr_c.a(_frexpl.o)
 .comment       0x00000000       0x71 c:/nxp/lpcxpresso_5.0.12_1083/lpcxpresso/tools/bin/../lib/gcc/arm-none-eabi/4.6.2/../../../../arm-none-eabi/lib/armv7-m\libcr_c.a(_hugeval.o)
 .comment       0x00000000       0x71 c:/nxp/lpcxpresso_5.0.12_1083/lpcxpresso/tools/bin/../lib/gcc/arm-none-eabi/4.6.2/../../../../arm-none-eabi/lib/armv7-m\libcr_c.a(_ldexpl.o)
 .comment       0x00000000       0x71 c:/nxp/lpcxpresso_5.0.12_1083/lpcxpresso/tools/bin/../lib/gcc/arm-none-eabi/4.6.2/../../../../arm-none-eabi/lib/armv7-m\libcr_c.a(_writebuf.o)
 .comment       0x00000000       0x71 c:/nxp/lpcxpresso_5.0.12_1083/lpcxpresso/tools/bin/../lib/gcc/arm-none-eabi/4.6.2/../../../../arm-none-eabi/lib/armv7-m\libcr_c.a(alloc.o)
 .comment       0x00000000       0x71 c:/nxp/lpcxpresso_5.0.12_1083/lpcxpresso/tools/bin/../lib/gcc/arm-none-eabi/4.6.2/../../../../arm-none-eabi/lib/armv7-m\libcr_c.a(ctype.o)
 .comment       0x00000000       0x71 c:/nxp/lpcxpresso_5.0.12_1083/lpcxpresso/tools/bin/../lib/gcc/arm-none-eabi/4.6.2/../../../../arm-none-eabi/lib/armv7-m\libcr_c.a(errno.o)
 .comment       0x00000000       0x71 c:/nxp/lpcxpresso_5.0.12_1083/lpcxpresso/tools/bin/../lib/gcc/arm-none-eabi/4.6.2/../../../../arm-none-eabi/lib/armv7-m\libcr_c.a(fclose.o)
 .comment       0x00000000       0x71 c:/nxp/lpcxpresso_5.0.12_1083/lpcxpresso/tools/bin/../lib/gcc/arm-none-eabi/4.6.2/../../../../arm-none-eabi/lib/armv7-m\libcr_c.a(fflush.o)
 .comment       0x00000000       0x71 c:/nxp/lpcxpresso_5.0.12_1083/lpcxpresso/tools/bin/../lib/gcc/arm-none-eabi/4.6.2/../../../../arm-none-eabi/lib/armv7-m\libcr_c.a(fseek.o)
 .comment       0x00000000       0x71 c:/nxp/lpcxpresso_5.0.12_1083/lpcxpresso/tools/bin/../lib/gcc/arm-none-eabi/4.6.2/../../../../arm-none-eabi/lib/armv7-m\libcr_c.a(ftell.o)
 .comment       0x00000000       0x71 c:/nxp/lpcxpresso_5.0.12_1083/lpcxpresso/tools/bin/../lib/gcc/arm-none-eabi/4.6.2/../../../../arm-none-eabi/lib/armv7-m\libcr_c.a(raise.o)
 .comment       0x00000000       0x71 c:/nxp/lpcxpresso_5.0.12_1083/lpcxpresso/tools/bin/../lib/gcc/arm-none-eabi/4.6.2/../../../../arm-none-eabi/lib/armv7-m\libcr_c.a(remove.o)
 .comment       0x00000000       0x71 c:/nxp/lpcxpresso_5.0.12_1083/lpcxpresso/tools/bin/../lib/gcc/arm-none-eabi/4.6.2/../../../../arm-none-eabi/lib/armv7-m\libcr_c.a(__init_alloc.o)
 .comment       0x00000000       0x71 c:/nxp/lpcxpresso_5.0.12_1083/lpcxpresso/tools/bin/../lib/gcc/arm-none-eabi/4.6.2/../../../../arm-none-eabi/lib/armv7-m\libcr_c.a(_do_fflush.o)
 .comment       0x00000000       0x71 c:/nxp/lpcxpresso_5.0.12_1083/lpcxpresso/tools/bin/../lib/gcc/arm-none-eabi/4.6.2/armv7-m\libcr_eabihelpers.a(double.o)
 .comment       0x00000000       0x71 c:/nxp/lpcxpresso_5.0.12_1083/lpcxpresso/tools/bin/../lib/gcc/arm-none-eabi/4.6.2/../../../../arm-none-eabi/lib/armv7-m\libcr_nohost.a(__sys_appexit.o)
 .comment       0x00000000       0x71 c:/nxp/lpcxpresso_5.0.12_1083/lpcxpresso/tools/bin/../lib/gcc/arm-none-eabi/4.6.2/../../../../arm-none-eabi/lib/armv7-m\libcr_nohost.a(__sys_close.o)
 .comment       0x00000000       0x71 c:/nxp/lpcxpresso_5.0.12_1083/lpcxpresso/tools/bin/../lib/gcc/arm-none-eabi/4.6.2/../../../../arm-none-eabi/lib/armv7-m\libcr_nohost.a(__sys_flen.o)
 .comment       0x00000000       0x71 c:/nxp/lpcxpresso_5.0.12_1083/lpcxpresso/tools/bin/../lib/gcc/arm-none-eabi/4.6.2/../../../../arm-none-eabi/lib/armv7-m\libcr_nohost.a(__sys_istty.o)
 .comment       0x00000000       0x71 c:/nxp/lpcxpresso_5.0.12_1083/lpcxpresso/tools/bin/../lib/gcc/arm-none-eabi/4.6.2/../../../../arm-none-eabi/lib/armv7-m\libcr_nohost.a(__sys_read.o)
 .comment       0x00000000       0x71 c:/nxp/lpcxpresso_5.0.12_1083/lpcxpresso/tools/bin/../lib/gcc/arm-none-eabi/4.6.2/../../../../arm-none-eabi/lib/armv7-m\libcr_nohost.a(__sys_readc.o)
 .comment       0x00000000       0x71 c:/nxp/lpcxpresso_5.0.12_1083/lpcxpresso/tools/bin/../lib/gcc/arm-none-eabi/4.6.2/../../../../arm-none-eabi/lib/armv7-m\libcr_nohost.a(__sys_remove.o)
 .comment       0x00000000       0x71 c:/nxp/lpcxpresso_5.0.12_1083/lpcxpresso/tools/bin/../lib/gcc/arm-none-eabi/4.6.2/../../../../arm-none-eabi/lib/armv7-m\libcr_nohost.a(__sys_rename.o)
 .comment       0x00000000       0x71 c:/nxp/lpcxpresso_5.0.12_1083/lpcxpresso/tools/bin/../lib/gcc/arm-none-eabi/4.6.2/../../../../arm-none-eabi/lib/armv7-m\libcr_nohost.a(__sys_seek.o)
 .comment       0x00000000       0x71 c:/nxp/lpcxpresso_5.0.12_1083/lpcxpresso/tools/bin/../lib/gcc/arm-none-eabi/4.6.2/../../../../arm-none-eabi/lib/armv7-m\libcr_nohost.a(__sys_tmpnam.o)
 .comment       0x00000000       0x71 c:/nxp/lpcxpresso_5.0.12_1083/lpcxpresso/tools/bin/../lib/gcc/arm-none-eabi/4.6.2/../../../../arm-none-eabi/lib/armv7-m\libcr_nohost.a(__sys_write.o)
 .comment       0x00000000       0x71 c:/nxp/lpcxpresso_5.0.12_1083/lpcxpresso/tools/bin/../lib/gcc/arm-none-eabi/4.6.2/../../../../arm-none-eabi/lib/armv7-m\libcr_nohost.a(_cr_sbrk.o)
 .comment       0x00000000       0x71 c:/nxp/lpcxpresso_5.0.12_1083/lpcxpresso/tools/bin/../lib/gcc/arm-none-eabi/4.6.2/../../../../arm-none-eabi/lib/armv7-m\libcr_nohost.a(_cr_check_heap.o)

.ARM.attributes
                0x00000000       0x31
 .ARM.attributes
                0x00000000       0x33 ./src/cr_startup_lpc176x.o
 .ARM.attributes
                0x00000033       0x33 ./src/main.o
 .ARM.attributes
                0x00000066       0x33 ./Webserver/ethmac.o
 .ARM.attributes
                0x00000099       0x33 ./Webserver/ew_systick.o
 .ARM.attributes
                0x000000cc       0x33 ./Webserver/tcpip.o
 .ARM.attributes
                0x000000ff       0x33 ./Webserver/webserver.o
 .ARM.attributes
                0x00000132       0x33 ./UART/trames.o
 .ARM.attributes
                0x00000165       0x33 ./UART/uart.o
 .ARM.attributes
                0x00000198       0x33 ./SD-EEPROM/EEPROM.o
 .ARM.attributes
                0x000001cb       0x33 ./SD-EEPROM/blockdev_sd.o
 .ARM.attributes
                0x000001fe       0x33 ./SD-EEPROM/lpc2000_spi.o
 .ARM.attributes
                0x00000231       0x33 ./RTC/rtc.o
 .ARM.attributes
                0x00000264       0x33 ./LCD/lcd_bitmap.o
 .ARM.attributes
                0x00000297       0x33 ./LCD/lcd_driver.o
 .ARM.attributes
                0x000002ca       0x33 ./LCD/lcd_shapes.o
 .ARM.attributes
                0x000002fd       0x33 ./LCD/lcd_terminal.o
 .ARM.attributes
                0x00000330       0x33 ./LCD/lcd_text.o
 .ARM.attributes
                0x00000363       0x33 ./LCD/system_fixed_be_8_15.o
 .ARM.attributes
                0x00000396       0x33 ./Ethernet/ethernet.o
 .ARM.attributes
                0x000003c9       0x33 ./Bitmaps/casa.o
 .ARM.attributes
                0x000003fc       0x33 ./Bitmaps/logo.o
 .ARM.attributes
                0x0000042f       0x33 ./Bitmaps/networking.o
 .ARM.attributes
                0x00000462       0x33 ./Bitmaps/settings.o
 .ARM.attributes
                0x00000495       0x33 ./Altres/leds.o
 .ARM.attributes
                0x000004c8       0x33 ./Altres/md5.o
 .ARM.attributes
                0x000004fb       0x33 ./Altres/nodes.o
 .ARM.attributes
                0x0000052e       0x33 ./Altres/timer.o
 .ARM.attributes
                0x00000561       0x33 ./Altres/watchdog.o
 .ARM.attributes
                0x00000594       0x33 C:\Users\USER\Documents\Proyectos\Digital Picking Displays\DPDs\Firmware DPDs y Rabbit\DPDs serie DP\lpcxpresso_3.6.3_317\DPI\last\CMSISv2p00_LPC17xx\Release\libCMSISv2p00_LPC17xx.a(system_LPC17xx.o)
 .ARM.attributes
                0x000005c7       0x33 c:/nxp/lpcxpresso_5.0.12_1083/lpcxpresso/tools/bin/../lib/gcc/arm-none-eabi/4.6.2/../../../../arm-none-eabi/lib/armv7-m\libcr_nohost.a(_cr__main.o)
 .ARM.attributes
                0x000005fa       0x33 c:/nxp/lpcxpresso_5.0.12_1083/lpcxpresso/tools/bin/../lib/gcc/arm-none-eabi/4.6.2/../../../../arm-none-eabi/lib/armv7-m\libcr_c.a(memcpy.o)
 .ARM.attributes
                0x0000062d       0x33 c:/nxp/lpcxpresso_5.0.12_1083/lpcxpresso/tools/bin/../lib/gcc/arm-none-eabi/4.6.2/../../../../arm-none-eabi/lib/armv7-m\libcr_c.a(memmove.o)
 .ARM.attributes
                0x00000660       0x33 c:/nxp/lpcxpresso_5.0.12_1083/lpcxpresso/tools/bin/../lib/gcc/arm-none-eabi/4.6.2/../../../../arm-none-eabi/lib/armv7-m\libcr_c.a(memset.o)
 .ARM.attributes
                0x00000693       0x33 c:/nxp/lpcxpresso_5.0.12_1083/lpcxpresso/tools/bin/../lib/gcc/arm-none-eabi/4.6.2/../../../../arm-none-eabi/lib/armv7-m\libcr_c.a(fpprintf.o)
 .ARM.attributes
                0x000006c6       0x33 c:/nxp/lpcxpresso_5.0.12_1083/lpcxpresso/tools/bin/../lib/gcc/arm-none-eabi/4.6.2/../../../../arm-none-eabi/lib/armv7-m\libcr_c.a(initio.o)
 .ARM.attributes
                0x000006f9       0x33 c:/nxp/lpcxpresso_5.0.12_1083/lpcxpresso/tools/bin/../lib/gcc/arm-none-eabi/4.6.2/../../../../arm-none-eabi/lib/armv7-m\libcr_c.a(itoa.o)
 .ARM.attributes
                0x0000072c       0x33 c:/nxp/lpcxpresso_5.0.12_1083/lpcxpresso/tools/bin/../lib/gcc/arm-none-eabi/4.6.2/../../../../arm-none-eabi/lib/armv7-m\libcr_c.a(memcmp.o)
 .ARM.attributes
                0x0000075f       0x33 c:/nxp/lpcxpresso_5.0.12_1083/lpcxpresso/tools/bin/../lib/gcc/arm-none-eabi/4.6.2/../../../../arm-none-eabi/lib/armv7-m\libcr_c.a(printf.o)
 .ARM.attributes
                0x00000792       0x33 c:/nxp/lpcxpresso_5.0.12_1083/lpcxpresso/tools/bin/../lib/gcc/arm-none-eabi/4.6.2/../../../../arm-none-eabi/lib/armv7-m\libcr_c.a(scanf.o)
 .ARM.attributes
                0x000007c5       0x33 c:/nxp/lpcxpresso_5.0.12_1083/lpcxpresso/tools/bin/../lib/gcc/arm-none-eabi/4.6.2/../../../../arm-none-eabi/lib/armv7-m\libcr_c.a(setvbuf.o)
 .ARM.attributes
                0x000007f8       0x33 c:/nxp/lpcxpresso_5.0.12_1083/lpcxpresso/tools/bin/../lib/gcc/arm-none-eabi/4.6.2/../../../../arm-none-eabi/lib/armv7-m\libcr_c.a(stdio.o)
 .ARM.attributes
                0x0000082b       0x33 c:/nxp/lpcxpresso_5.0.12_1083/lpcxpresso/tools/bin/../lib/gcc/arm-none-eabi/4.6.2/../../../../arm-none-eabi/lib/armv7-m\libcr_c.a(stdlib.o)
 .ARM.attributes
                0x0000085e       0x33 c:/nxp/lpcxpresso_5.0.12_1083/lpcxpresso/tools/bin/../lib/gcc/arm-none-eabi/4.6.2/../../../../arm-none-eabi/lib/armv7-m\libcr_c.a(strcpy.o)
 .ARM.attributes
                0x00000891       0x33 c:/nxp/lpcxpresso_5.0.12_1083/lpcxpresso/tools/bin/../lib/gcc/arm-none-eabi/4.6.2/../../../../arm-none-eabi/lib/armv7-m\libcr_c.a(strlen.o)
 .ARM.attributes
                0x000008c4       0x33 c:/nxp/lpcxpresso_5.0.12_1083/lpcxpresso/tools/bin/../lib/gcc/arm-none-eabi/4.6.2/../../../../arm-none-eabi/lib/armv7-m\libcr_c.a(strncmp.o)
 .ARM.attributes
                0x000008f7       0x33 c:/nxp/lpcxpresso_5.0.12_1083/lpcxpresso/tools/bin/../lib/gcc/arm-none-eabi/4.6.2/../../../../arm-none-eabi/lib/armv7-m\libcr_c.a(ungetc.o)
 .ARM.attributes
                0x0000092a       0x33 c:/nxp/lpcxpresso_5.0.12_1083/lpcxpresso/tools/bin/../lib/gcc/arm-none-eabi/4.6.2/../../../../arm-none-eabi/lib/armv7-m\libcr_c.a(__fillbuf.o)
 .ARM.attributes
                0x0000095d       0x33 c:/nxp/lpcxpresso_5.0.12_1083/lpcxpresso/tools/bin/../lib/gcc/arm-none-eabi/4.6.2/../../../../arm-none-eabi/lib/armv7-m\libcr_c.a(_deferredlazyseek.o)
 .ARM.attributes
                0x00000990       0x33 c:/nxp/lpcxpresso_5.0.12_1083/lpcxpresso/tools/bin/../lib/gcc/arm-none-eabi/4.6.2/../../../../arm-none-eabi/lib/armv7-m\libcr_c.a(_fdopen.o)
 .ARM.attributes
                0x000009c3       0x33 c:/nxp/lpcxpresso_5.0.12_1083/lpcxpresso/tools/bin/../lib/gcc/arm-none-eabi/4.6.2/../../../../arm-none-eabi/lib/armv7-m\libcr_c.a(_fflush.o)
 .ARM.attributes
                0x000009f6       0x33 c:/nxp/lpcxpresso_5.0.12_1083/lpcxpresso/tools/bin/../lib/gcc/arm-none-eabi/4.6.2/../../../../arm-none-eabi/lib/armv7-m\libcr_c.a(_frexpl.o)
 .ARM.attributes
                0x00000a29       0x33 c:/nxp/lpcxpresso_5.0.12_1083/lpcxpresso/tools/bin/../lib/gcc/arm-none-eabi/4.6.2/../../../../arm-none-eabi/lib/armv7-m\libcr_c.a(_hugeval.o)
 .ARM.attributes
                0x00000a5c       0x33 c:/nxp/lpcxpresso_5.0.12_1083/lpcxpresso/tools/bin/../lib/gcc/arm-none-eabi/4.6.2/../../../../arm-none-eabi/lib/armv7-m\libcr_c.a(_ldexpl.o)
 .ARM.attributes
                0x00000a8f       0x33 c:/nxp/lpcxpresso_5.0.12_1083/lpcxpresso/tools/bin/../lib/gcc/arm-none-eabi/4.6.2/../../../../arm-none-eabi/lib/armv7-m\libcr_c.a(_writebuf.o)
 .ARM.attributes
                0x00000ac2       0x33 c:/nxp/lpcxpresso_5.0.12_1083/lpcxpresso/tools/bin/../lib/gcc/arm-none-eabi/4.6.2/../../../../arm-none-eabi/lib/armv7-m\libcr_c.a(alloc.o)
 .ARM.attributes
                0x00000af5       0x33 c:/nxp/lpcxpresso_5.0.12_1083/lpcxpresso/tools/bin/../lib/gcc/arm-none-eabi/4.6.2/../../../../arm-none-eabi/lib/armv7-m\libcr_c.a(ctype.o)
 .ARM.attributes
                0x00000b28       0x33 c:/nxp/lpcxpresso_5.0.12_1083/lpcxpresso/tools/bin/../lib/gcc/arm-none-eabi/4.6.2/../../../../arm-none-eabi/lib/armv7-m\libcr_c.a(errno.o)
 .ARM.attributes
                0x00000b5b       0x33 c:/nxp/lpcxpresso_5.0.12_1083/lpcxpresso/tools/bin/../lib/gcc/arm-none-eabi/4.6.2/../../../../arm-none-eabi/lib/armv7-m\libcr_c.a(fclose.o)
 .ARM.attributes
                0x00000b8e       0x33 c:/nxp/lpcxpresso_5.0.12_1083/lpcxpresso/tools/bin/../lib/gcc/arm-none-eabi/4.6.2/../../../../arm-none-eabi/lib/armv7-m\libcr_c.a(fflush.o)
 .ARM.attributes
                0x00000bc1       0x33 c:/nxp/lpcxpresso_5.0.12_1083/lpcxpresso/tools/bin/../lib/gcc/arm-none-eabi/4.6.2/../../../../arm-none-eabi/lib/armv7-m\libcr_c.a(fseek.o)
 .ARM.attributes
                0x00000bf4       0x33 c:/nxp/lpcxpresso_5.0.12_1083/lpcxpresso/tools/bin/../lib/gcc/arm-none-eabi/4.6.2/../../../../arm-none-eabi/lib/armv7-m\libcr_c.a(ftell.o)
 .ARM.attributes
                0x00000c27       0x33 c:/nxp/lpcxpresso_5.0.12_1083/lpcxpresso/tools/bin/../lib/gcc/arm-none-eabi/4.6.2/../../../../arm-none-eabi/lib/armv7-m\libcr_c.a(raise.o)
 .ARM.attributes
                0x00000c5a       0x33 c:/nxp/lpcxpresso_5.0.12_1083/lpcxpresso/tools/bin/../lib/gcc/arm-none-eabi/4.6.2/../../../../arm-none-eabi/lib/armv7-m\libcr_c.a(remove.o)
 .ARM.attributes
                0x00000c8d       0x33 c:/nxp/lpcxpresso_5.0.12_1083/lpcxpresso/tools/bin/../lib/gcc/arm-none-eabi/4.6.2/../../../../arm-none-eabi/lib/armv7-m\libcr_c.a(__init_alloc.o)
 .ARM.attributes
                0x00000cc0       0x33 c:/nxp/lpcxpresso_5.0.12_1083/lpcxpresso/tools/bin/../lib/gcc/arm-none-eabi/4.6.2/../../../../arm-none-eabi/lib/armv7-m\libcr_c.a(_do_fflush.o)
 .ARM.attributes
                0x00000cf3       0x21 c:/nxp/lpcxpresso_5.0.12_1083/lpcxpresso/tools/bin/../lib/gcc/arm-none-eabi/4.6.2/armv7-m\libcr_eabihelpers.a(division.o)
 .ARM.attributes
                0x00000d14       0x33 c:/nxp/lpcxpresso_5.0.12_1083/lpcxpresso/tools/bin/../lib/gcc/arm-none-eabi/4.6.2/armv7-m\libcr_eabihelpers.a(double.o)
 .ARM.attributes
                0x00000d47       0x21 c:/nxp/lpcxpresso_5.0.12_1083/lpcxpresso/tools/bin/../lib/gcc/arm-none-eabi/4.6.2/armv7-m\libcr_eabihelpers.a(memcpy.o)
 .ARM.attributes
                0x00000d68       0x33 c:/nxp/lpcxpresso_5.0.12_1083/lpcxpresso/tools/bin/../lib/gcc/arm-none-eabi/4.6.2/../../../../arm-none-eabi/lib/armv7-m\libcr_nohost.a(__sys_appexit.o)
 .ARM.attributes
                0x00000d9b       0x33 c:/nxp/lpcxpresso_5.0.12_1083/lpcxpresso/tools/bin/../lib/gcc/arm-none-eabi/4.6.2/../../../../arm-none-eabi/lib/armv7-m\libcr_nohost.a(__sys_close.o)
 .ARM.attributes
                0x00000dce       0x33 c:/nxp/lpcxpresso_5.0.12_1083/lpcxpresso/tools/bin/../lib/gcc/arm-none-eabi/4.6.2/../../../../arm-none-eabi/lib/armv7-m\libcr_nohost.a(__sys_flen.o)
 .ARM.attributes
                0x00000e01       0x33 c:/nxp/lpcxpresso_5.0.12_1083/lpcxpresso/tools/bin/../lib/gcc/arm-none-eabi/4.6.2/../../../../arm-none-eabi/lib/armv7-m\libcr_nohost.a(__sys_istty.o)
 .ARM.attributes
                0x00000e34       0x33 c:/nxp/lpcxpresso_5.0.12_1083/lpcxpresso/tools/bin/../lib/gcc/arm-none-eabi/4.6.2/../../../../arm-none-eabi/lib/armv7-m\libcr_nohost.a(__sys_read.o)
 .ARM.attributes
                0x00000e67       0x33 c:/nxp/lpcxpresso_5.0.12_1083/lpcxpresso/tools/bin/../lib/gcc/arm-none-eabi/4.6.2/../../../../arm-none-eabi/lib/armv7-m\libcr_nohost.a(__sys_readc.o)
 .ARM.attributes
                0x00000e9a       0x33 c:/nxp/lpcxpresso_5.0.12_1083/lpcxpresso/tools/bin/../lib/gcc/arm-none-eabi/4.6.2/../../../../arm-none-eabi/lib/armv7-m\libcr_nohost.a(__sys_remove.o)
 .ARM.attributes
                0x00000ecd       0x33 c:/nxp/lpcxpresso_5.0.12_1083/lpcxpresso/tools/bin/../lib/gcc/arm-none-eabi/4.6.2/../../../../arm-none-eabi/lib/armv7-m\libcr_nohost.a(__sys_rename.o)
 .ARM.attributes
                0x00000f00       0x33 c:/nxp/lpcxpresso_5.0.12_1083/lpcxpresso/tools/bin/../lib/gcc/arm-none-eabi/4.6.2/../../../../arm-none-eabi/lib/armv7-m\libcr_nohost.a(__sys_seek.o)
 .ARM.attributes
                0x00000f33       0x33 c:/nxp/lpcxpresso_5.0.12_1083/lpcxpresso/tools/bin/../lib/gcc/arm-none-eabi/4.6.2/../../../../arm-none-eabi/lib/armv7-m\libcr_nohost.a(__sys_tmpnam.o)
 .ARM.attributes
                0x00000f66       0x33 c:/nxp/lpcxpresso_5.0.12_1083/lpcxpresso/tools/bin/../lib/gcc/arm-none-eabi/4.6.2/../../../../arm-none-eabi/lib/armv7-m\libcr_nohost.a(__sys_write.o)
 .ARM.attributes
                0x00000f99       0x33 c:/nxp/lpcxpresso_5.0.12_1083/lpcxpresso/tools/bin/../lib/gcc/arm-none-eabi/4.6.2/../../../../arm-none-eabi/lib/armv7-m\libcr_nohost.a(_cr_sbrk.o)
 .ARM.attributes
                0x00000fcc       0x33 c:/nxp/lpcxpresso_5.0.12_1083/lpcxpresso/tools/bin/../lib/gcc/arm-none-eabi/4.6.2/../../../../arm-none-eabi/lib/armv7-m\libcr_nohost.a(_cr_check_heap.o)

.debug_frame    0x00000000     0x15cc
 .debug_frame   0x00000000       0xf4 ./src/cr_startup_lpc176x.o
 .debug_frame   0x000000f4       0x7c ./src/main.o
 .debug_frame   0x00000170      0x128 ./Webserver/ethmac.o
 .debug_frame   0x00000298       0x48 ./Webserver/ew_systick.o
 .debug_frame   0x000002e0      0x3cc ./Webserver/tcpip.o
 .debug_frame   0x000006ac      0x130 ./Webserver/webserver.o
 .debug_frame   0x000007dc       0xe0 ./UART/trames.o
 .debug_frame   0x000008bc      0x1f0 ./UART/uart.o
 .debug_frame   0x00000aac       0x68 ./SD-EEPROM/EEPROM.o
 .debug_frame   0x00000b14      0x138 ./SD-EEPROM/blockdev_sd.o
 .debug_frame   0x00000c4c       0x88 ./SD-EEPROM/lpc2000_spi.o
 .debug_frame   0x00000cd4       0x58 ./RTC/rtc.o
 .debug_frame   0x00000d2c       0x50 ./LCD/lcd_bitmap.o
 .debug_frame   0x00000d7c      0x10c ./LCD/lcd_driver.o
 .debug_frame   0x00000e88       0xf8 ./LCD/lcd_shapes.o
 .debug_frame   0x00000f80       0x9c ./LCD/lcd_terminal.o
 .debug_frame   0x0000101c       0x80 ./LCD/lcd_text.o
 .debug_frame   0x0000109c      0x1c4 ./Ethernet/ethernet.o
 .debug_frame   0x00001260       0x88 ./Altres/leds.o
 .debug_frame   0x000012e8       0xa0 ./Altres/md5.o
 .debug_frame   0x00001388      0x148 ./Altres/nodes.o
 .debug_frame   0x000014d0       0x90 ./Altres/timer.o
 .debug_frame   0x00001560       0x30 ./Altres/watchdog.o
 .debug_frame   0x00001590       0x3c C:\Users\USER\Documents\Proyectos\Digital Picking Displays\DPDs\Firmware DPDs y Rabbit\DPDs serie DP\lpcxpresso_3.6.3_317\DPI\last\CMSISv2p00_LPC17xx\Release\libCMSISv2p00_LPC17xx.a(system_LPC17xx.o)
