:100000000080001029010000F5000000F70000004A
:10001000F9000000FB000000FD000000FA79FFEF8E
:10002000000000000000000000000000FF000000D1
:100030000101000000000000030100006918000039
:100040006901000001D9000019D9000081D9000020
:100050006901000045870000898C0000659100005F
:10006000B596000069010000690100006901000007
:1000700069010000690100006901000069010000D8
:1000800069010000690100006901000069010000C8
:1000900069010000690100006901000069010000B8
:1000A00069010000690100006901000069010000A8
:1000B0006901000069010000690100006901000098
:1000C000690100006901000069010000A8EA02005E
:1000D0000000001068000000A8EA020000C007202D
:1000E0000000000068000010987D000000C007209C
:1000F000D4300000FEE7FEE7FEE7FEE7FEE7FEE79E
:10010000FEE7FEE7FEE710B5002302E01C585C5056
:1001100004339342FAD310BD00231A4601E01A506B
:1001200004338B42FBD3704738B50C4C0C4D04E0C4
:1001300094E807000C34FFF7E6FFAC42F8D305E083
:1001400094E803000834FFF7E7FF00E0054DAC42F8
:10015000F6D30DF0AFFC0DF01FFDFEE7CC00000064
:10016000E4000000F4000000FEE700BFFFFFFFFF17
:10017000FFFFFFFFFFFFFFFFFFFFFFFFFFFFFFFF8F
:10018000FFFFFFFFFFFFFFFFFFFFFFFFFFFFFFFF7F
:10019000FFFFFFFFFFFFFFFFFFFFFFFFFFFFFFFF6F
:1001A000FFFFFFFFFFFFFFFFFFFFFFFFFFFFFFFF5F
:1001B000FFFFFFFFFFFFFFFFFFFFFFFFFFFFFFFF4F
:1001C000FFFFFFFFFFFFFFFFFFFFFFFFFFFFFFFF3F
:1001D000FFFFFFFFFFFFFFFFFFFFFFFFFFFFFFFF2F
:1001E000FFFFFFFFFFFFFFFFFFFFFFFFFFFFFFFF1F
:1001F000FFFFFFFFFFFFFFFFFFFFFFFFFFFFFFFF0F
:10020000FFFFFFFFFFFFFFFFFFFFFFFFFFFFFFFFFE
:10021000FFFFFFFFFFFFFFFFFFFFFFFFFFFFFFFFEE
:10022000FFFFFFFFFFFFFFFFFFFFFFFFFFFFFFFFDE
:10023000FFFFFFFFFFFFFFFFFFFFFFFFFFFFFFFFCE
:10024000FFFFFFFFFFFFFFFFFFFFFFFFFFFFFFFFBE
:10025000FFFFFFFFFFFFFFFFFFFFFFFFFFFFFFFFAE
:10026000FFFFFFFFFFFFFFFFFFFFFFFFFFFFFFFF9E
:10027000FFFFFFFFFFFFFFFFFFFFFFFFFFFFFFFF8E
:10028000FFFFFFFFFFFFFFFFFFFFFFFFFFFFFFFF7E
:10029000FFFFFFFFFFFFFFFFFFFFFFFFFFFFFFFF6E
:1002A000FFFFFFFFFFFFFFFFFFFFFFFFFFFFFFFF5E
:1002B000FFFFFFFFFFFFFFFFFFFFFFFFFFFFFFFF4E
:1002C000FFFFFFFFFFFFFFFFFFFFFFFFFFFFFFFF3E
:1002D000FFFFFFFFFFFFFFFFFFFFFFFFFFFFFFFF2E
:1002E000FFFFFFFFFFFFFFFFFFFFFFFFFFFFFFFF1E
:1002F000FFFFFFFFFFFFFFFFFFFFFFFFFFFFFFFF0E
:100300004B4B00212DE9F04719704A4BDFF87891EB
:100310001970494BDFF874811970484BDFF870C1D0
:100320001970474B474F1970474B484E484D494C41
:1003300019700A460B460846DFF858A109F8032051
:1003400008F803200CF80320FA54F254EA5424F875
:1003500013202AF81320DFF840A121F80A20DFF843
:100360003CA121F80A20DFF838A102310AF8030085
:10037000DFF830A10AF80300DFF82CA10AF8030027
:10038000DFF828A10AF803000133FA2BD4D1324B4D
:1003900000221A7031480022114681540132002394
:1003A000B2F5D17FF9D12E4A1C4613802D4A2E4832
:1003B00013802E4A2D2113802D4A13602D4A13607D
:1003C0002D4A13602D4A137007E0AE1801322D2A12
:1003D0008455FAD10133052B0DD0002201FB03F522
:1003E000F3E7EE180133FA2B20F81640F9D1013269
:1003F000052A04D113E0002221481446FA210023E3
:1004000001FB02F5EDE707EB000C01300023FA28B1
:1004100025F81C60F7D10131052904D148E00021FD
:10042000184D0E461C46002004FB01F7EBE700BF09
:100430008C720010470E00103D590010280C00105F
:10044000F2060010B86700102B1E001023090010E0
:100450001E070010DC6A00102964001024690010D7
:100460003864001030570010501200101C64001047
:1004700034590010AC660010FC060010FA1C001085
:10048000545A0010321300101E0F0010595900105A
:100490003E0D00101E0A00108E720010345700101E
:1004A000FD1C00105A10001056110010AF6500100E
:1004B00098494FF4FA600B609749C0240B60974944
:1004C000C8250B609649974A0B609749974E08607C
:1004D000974900F57A700B804B808B8095490B8093
:1004E0004B8095490B8095490B8095490B60954948
:1004F0000B609549086048608860C860086193484F
:100500004FF47A710160924801609248016092480C
:10051000924908609249A8200B6092490B60924969
:100520000B7092490C709249087092490B70924975
:100530000D709249924D0B804B8092490B804B80FD
:10054000FF212970904D13802970904D904A297099
:10055000904913800B70904953800B804B808F49DA
:1005600093800C708E498F4A08708F4901200B7060
:100570008E498F4D08708F498F4C0B708F49904872
:100580000B7090490B7090490B8090490B6090491B
:100590000B604B608B60CB600B618E490B608E49AA
:1005A0000B608E490B604B608B60CB600B618C499C
:1005B0000B708C490B70138053808B4A40F2AE5104
:1005C00013801A469A535A531A531A5202338B42C3
:1005D000F8D10021854C0846085302310023B1F5BB
:1005E000FA6FF9D1824940F6D6300880814950200F
:1005F0000B704B7080491A460B7080490B80804904
:100600000B7080490B8080490B8080490B708049BA
:100610000B7080490B8080490B8080490B8080499A
:100620000B8080490880804980480B8080490B807E
:100630004B808B80CB800B817E490B807E490B8069
:100640004B808B807D490B804B807D490B804B809C
:100650008B807C490B804B807B490B707B490B70F6
:1006600019461154013200233D2AFAD1784A282133
:100670001370784A78481170784A79490A60794944
:100680000B6079490A60794A79490A6079490A60B8
:10069000794A7A4913807A4A137053709370D370F1
:1006A000137153719371D371764A137053709370B1
:1006B000D370137153719371D37104220A7072490C
:1006C0000A70724A19461360714A1370714A1370A6
:1006D00053709370704A137053709370D37013718A
:1006E0001A46115401320023092AFAD16B4A3021EB
:1006F000137053709370D370694A04201370537051
:100700009370D370674A13705370674A13705370B5
:10071000CCE000BFC86A0010285900100801001082
:1007200038590010226900103C640010D66C00108B
:100730009075001006070010420E0010466400106D
:10074000B800001054590010A00000103C0E00101A
:1007500020080010B866001000A60E00B466001055
:100760005C4F0010500E0010B400001058590010DB
:10077000485900107B7B00103B64001090740010FF
:10078000AD6500103A0D001049640010F71C001010
:100790004A590010851E0010700E0010FE680010EF
:1007A000F61C00104A100010621E00100A690010AA
:1007B000B4680010400100109A750010F81C001079
:1007C0004401001036640010B667001088720010F3
:1007D000140C00102C1E0010606400102801001082
:1007E0000C0100108F7400102C640010604F00107A
:1007F0004C640010291E00102F590010B066001024
:100800004A6400104264001002070010AC6500103A
:1008100031590010D46C0010420100101C0F001060
:1008200018640010861E0010446400106E650010ED
:1008300000690010480E00105410001032640010BF
:100840004E100010F606001094740010F91C0010F1
:100850005E0E0010460E00105464001018080100CF
:10086000740E0010540E0010445900101D080100B1
:1008700040590010D0000010D26C00106D640010C0
:1008800065640010290C00102069001050640010ED
:10089000440E0010827400106E640010DD0E001013
:1008A0005A0E00104A0E0010140100109A4A1370DC
:1008B0009A4A11709A4A9B4913709B4A0B80137095
:1008C0009A4A4B8013709A4A8B801360994A9A49CE
:1008D00013709A4A0B801370994A4B801370994A8F
:1008E0001370994A1370994A1370994A1370994A70
:1008F0001370994A1370994A13708B8098490B7042
:1009000098490B704B708B70CB700B7196490870C7
:1009100048708870C870087194490B70944901F14F
:10092000FA0407E00B54013000223228FAD13231A8
:10093000A14201D00020F5E78E498F480A804A8005
:100940008A80CA800A818D4900F11E040A704A70AB
:100950008A70CA700A718A490A7002804280828055
:1009600006300023A042F8D1864A8749138053807D
:100970009380D380138153819381D38113825382D7
:10098000824A1370824A1380824A1380824A1380FB
:10099000824A1380824A1370824A1370824A13700B
:1009A000824A1370824A1370824A1370824A13700B
:1009B000824A13701A465A540133FA2BFBD1002392
:1009C0007F491A465A540133FA2BFBD17D4B012241
:1009D0001A707D4A072313707C4A7D4913700023E7
:1009E0001A465A540133FA2BFBD10022794811469A
:1009F000115401320023FA2AFAD1774A7749137049
:100A0000774A784D1370784A784C1360784A794861
:100A10001360794A1360794A1360794A1370794AEE
:100A20001370794A1370794A1370794A1370794AAE
:100A30001370794A1370794A1370794A1370794A9E
:100A4000137001220A7078490A70784A7849137045
:100A5000784A1370784A137053709370D3701A46A3
:100A6000EA54E254C254CA540133322BF8D1002361
:100A700072491A46CA540133322BFBD10022704806
:100A80001146815401320023322AFAD16D4A642181
:100A900013706D4A13706D4A13706D4A13706D4A6E
:100AA00013706D4A13706D4A13706D4A13706D4A5E
:100AB00013706D4A13706D4A13706D4A13706D4A4E
:100AC00013706D4A11706D4904220A706C490B70E5
:100AD0006C490A706C4A252111706C4901220A7018
:100AE0006B490A706B4930220A704A706A495A543D
:100AF0000133102BFBD10023684C694869491A4621
:100B00001A551A545A5401330F2BF9D1664B00224F
:100B10001A70BDE8F08700BF2C590010286400103F
:100B2000CE6A00102001001048640010400E001032
:100B30003C010010380E0010D66A0010FB060010B1
:100B40009C000010380D0010380C001031640010AB
:100B5000D06C001050590010E80E0010B268001060
:100B600000070010D06A0010310C001095740010BE
:100B70007364001016010010641E00101E64001043
:100B8000AE6500100C690010280800103113001029
:100B9000CC6A00101E0800100C070010F4060010AC
:100BA000487B0010541100109875001004070010C5
:100BB000FA0600100E070010406400100A0700102B
:100BC000967400106D65001030590010551100101A
:100BD000390C0010BC660010AB650010590E0010F7
:100BE0008C740010D5000010E40E0010AA0E001046
:100BF00024080010181000108874001024640010DD
:100C0000B36800102D590010D4000010821E00108F
:100C10003C590010370C0010CF6A001032570010FA
:100C200084720010841E001030640010600E0010EA
:100C3000780E0010360C0010340D0010301E00101D
:100C4000F71D001021690010070100103259001033
:100C50004C0E0010450E00101C080010FC1C00106B
:100C60001A64001026010010236400103A6400107A
:100C70002F640010646400105F0E0010831E0010CB
:100C80002E640010FB1C0010DC0E0010580E00102B
:100C90002E59001096750010F80E0010610E00100D
:100CA0000F070010E90E00102A64001072B6174BEF
:100CB0000122C3F88020AA22C3F88C205522C3F851
:100CC0008C201946D1F88820104B12F00072F9D10F
:100CD000C3F88020AA22C3F88C205522C3F88C20A8
:100CE0001946D1F88820094B12F08072F9D11968A1
:100CF0000905090D1960196841F4A0411960C3F88C
:100D00000421C3F80C21C3F8A021704700C00F4094
:100D100073B5FFF7F5FA0CF067FE0BF07DFB09F0F9
:100D200035FEC74B5B699A010FD4C64C4FF0FF35B7
:100D3000C4F88050FFF7BAFFC4F8805072B6C248BA
:100D400039230360C149C24B9847C24B4FF0005250
:100D50005B694FF6FF7013F0806FB94B14BFDA6117
:100D60009A61BD4B1A6922F440221A61BB4B1A6882
:100D700042F400721A604FF400729A6109F0B0FDFB
:100D8000B74B2C211B68B74A0093B74B03201B6855
:100D900009F0C6FC05200BF0CBFB00F089FF052015
:100DA0000BF0F2FB0CF034F90CF03EF90CF070F99A
:100DB00004F0AEFD0CF044F90CF056F909F09EFA7F
:100DC000012804D0A94B1A7842F008021A70A84BE7
:100DD00064201A78A74B6FF06301B2FBF0F51D7029
:100DE00001FB05250A2495FBF4F66FF00902F6B223
:100DF00002FB06559D70A04D5E702D78B5FBF0F698
:100E000001FB06551E7195FBF4F6F6B202FB065582
:100E10009D719A4D5E712D78B5FBF0F601FB06557C
:100E20001E7295FBF4F6F6B202FB06559D72944DC8
:100E30005E722D78B5FBF0F601FB06551E7395FB2F
:100E4000F4F6F6B202FB06555E739D738D4B1D786A
:100E50008D4BB5FBF0F601FB06551E7095FBF4F6C5
:100E6000F6B202FB06559D70884D5E702D78B5FB7D
:100E7000F0F601FB06551E7195FBF4F6F6B202FB87
:100E800006559D71824D5E712D78B5FBF0F601FB24
:100E900006551E7295FBF4F6F6B202FB06559D72DE
:100EA0007C4D5E722D78B5FBF0F601FB06551E7386
:100EB00095FBF4F6F6B202FB06555E739D73764B16
:100EC0001D78764BB5FBF0F601FB06551E7095FBC1
:100ED000F4F6F6B202FB06559D70714D5E702D78EA
:100EE000B5FBF0F601FB06551E7195FBF4F6F6B264
:100EF00002FB06559D716B4D5E712D78B5FBF0F6CA
:100F000001FB06551E7295FBF4F6F6B202FB065580
:100F10009D72654D5E722D78644EB5FBF0F001FB5D
:100F20000051187391FBF4F0C0B202FB001158732A
:100F300099735F4B5F4D1A785B7843EA02225E4BF0
:100F40001A800CF0D7F80CF0BBF809F0C9FB09F0D7
:100F5000DFFB00204FF4E12106F0FAFA01204FF404
:100F6000E12106F0F5FA02204FF4E12106F0F0FA53
:100F700003204FF4E12106F0EBFA31680120B1FBC8
:100F8000F5F101390CF07AFC31680220B1FBF5F57E
:100F9000691E0CF073FC494B20461B680521009329
:100FA000474B484A1B6809F0BBFB474B1F201B6897
:100FB00005210093454B464A1B6809F0B1FB454BA0
:100FC00034201B6805210093434B444A1B6809F0F9
:100FD000A7FB40F29F351B21022216230820009513
:100FE00009F04EFE58204FF4FC630C21082209F052
:100FF000ABFE4FF4FC6454200621394A00230094D0
:1010000009F0BCFF23466D200C21082209F09CFE4C
:101010006A200621334A0023009409F0AFFF192209
:101020001F24134600208021009409F0EDFE1822B1
:10103000134600208021009409F0E6FE7F2153E052
:1010400020C0092000E100E0BC000010080F0010E3
:10105000F11FFF1F60C0092000C0024040C00920EE
:101060000C0000102CAB02001000001029640010CE
:1010700058590010610E0010485900107B7B001079
:101080003B640010AD6500100F07001049640010AC
:10109000F71C0010851E0010FE680010E90E0010FD
:1010A000F61C0010621E00100A6900106400001097
:1010B000291E0010A08601004C64001008000010DA
:1010C000040000102BA802001800001014000010EB
:1010D000EFE20200200000101C000010F0E502000A
:1010E0001DF7010020F7010000201A220B46009591
:1010F00009F074FD8B4D8C4E8C4C2B78DB0701D4A2
:1011000000F0EEFD02F0CAF83378002B54D02378BB
:10111000192B51D01B2B4FD01A2B4DD01C2B4BD041
:101120001D2B49D01F2B47D0202B45D0804A127849
:1011300032B92BB10B2B03D00C2B01D0022323701F
:101140007C4A7D4B1088198888420AD1508859887A
:10115000884206D192889B889A4202D123780C2B30
:101160000AD123780C2B07D0714A1278012A03D1B7
:10117000724A137002232370207805281AD007289A
:1011800018D0062816D0082814D0222812D01028EB
:1011900010D014280ED015280CD016280AD01728E5
:1011A00008D00C2806D0242804D0252802D002F02C
:1011B0000BFF01E003F02EFA06F0CCFC06F070FF06
:1011C0002378192B03D01D2B01D01F2B17D15C4A7C
:1011D0001278012A31D15B4A192B117821F00101D3
:1011E000117001D1072306E01D2B01D1222302E05B
:1011F0001F2B01D1242323700023514A16E01A2B00
:1012000001D0202B19D1504A1278012A15D14D4A0C
:101210001A2B117821F00101117001D1082302E08D
:10122000202B01D125232370474A002313702A78ED
:1012300042F004022A70454A137023781B2B0AD10E
:10124000434B1A78012A1BD13E4A117821F0010143
:10125000117005220BE01C2B12D13E4B1A78012A8B
:101260000ED1384A117821F0010111700622227046
:101270002A78364942F004022A7000220A701A7055
:1012800009F0DAFB344B1978092900F0B680334BAA
:101290001B78092B00F0B180314A324B106898421C
:1012A0000BD831480068984207D830480068984207
:1012B00003D82F480068984272D9274A0723137031
:1012C000264A13702B4B00221A702B4B1B7833B914
:1012D0002A4B1A781AB91A780132D2B21A70284BEE
:1012E00000221A70274B1B7833B9274B1A781AB98A
:1012F0001A780132D2B21A701D4A002313601B4AB9
:101300001360194A1360164A1360204A11680131AC
:1013100011601F4A13701F4A13701F4A13701F4A2F
:1013200013706AE094740010B40000105E0E001098
:10133000E80E001020010010D66A0010460E0010C2
:10134000FB060010380E00109C0000100C0100106D
:10135000380D0010380C00103059001055110010D5
:10136000E40E0010A086010024080010887400100C
:101370002464001084720010590E0010600E0010DA
:10138000841E001030640010360C00103859001014
:10139000821E0010D40000102D590010B3680010F8
:1013A000174B1B78012B04D1012902D1136801339B
:1013B0001360144B1B78012B07D1134B1B78062BA2
:1013C00003D1124B1A6801321A60114B1B78012BA2
:1013D00007D1104B1B78012B03D10F4B1A68013238
:1013E0001A600E4B1B78012B07D10A4B1B78062B7A
:1013F00003D10B4B1A6801321A600BF0EBF87CE654
:10140000B36800102D590010305900102408001046
:10141000D40000105511001088740010821E0010B6
:10142000246400104FF0A04340F4807098624FF4A1
:10143000A022D962596BC90701D5013AFAD1704788
:101440004FF0A043012240F4807098625A624FF43A
:10145000A022596B11F0010F4FF0A04101D0013AC9
:10146000F7D100234B62086B80B27047F7B59A4BF7
:10147000D3F8C42042F08042C3F8C420974AA3F5B1
:1014800050239A60DA6822F00F0242F00502DA6017
:101490004FF0A0434FF44F421A607822C3F8002166
:1014A000642301E0019B013B0193019B002BF9D1D7
:1014B0004FF0A04302221A6030225A604FF4C062FB
:1014C0005A6143F20F721A611222DA6048F23C024A
:1014D0001A62642301E0019B013B0193019C002CF3
:1014E000F9D14FF0A0433C221A624FF43072C3F896
:1014F000002120464FF40041FFF794FF44F61F659A
:10150000019408E00020FFF79BFF0604044605D580
:10151000019B01330193019BAB42F3D90220FFF7FA
:101520008FFF05460320FFF78BFF4FF6F073034054
:1015300043EA05456A4B9D4202D06A4B9D421ED14B
:1015400000204FF44051FFF76DFF0023019344F654
:101550001F6608E00120FFF773FF0446A00605D4CC
:10156000019B01330193019BB342F3D95D4B9D4233
:101570000CBF042501250CBF0126102601E0012522
:1015800010260023019344F61F67F6B208E03046A8
:10159000FFF756FF2842044605D1019B0133019312
:1015A000019BBB42F3D914F0040F4FF0A0430BD0C2
:1015B0005A6842F001025A60D3F8002142F4806276
:1015C000C3F80021152200E0122214F0020F9A60E5
:1015D0004FF0A04301D0002201E04FF480729A61E5
:1015E0004FF4E6421A6444F238625A6442F60472D6
:1015F0009A64002201924FF4C0603B491AE0019CBA
:10160000019D3A4B4543E318DC00394BEB1823604E
:10161000019C384BE400E3181960019C364BE31839
:10162000DB00019C1A60354BE400E3181A60019B53
:1016300001330193019B032BE1D9314A4FF0A043C1
:10164000C3F808212032C3F80C210322C3F810216B
:101650000022C3F818214FF4C061019215E00198EF
:10166000019C284B4C43C318D800274BE318036058
:101670000198264BC000C3181A600198244BC31868
:101680009B001A60019B01330193019B012BE6D95A
:10169000204A4FF0A043C3F81C211032C3F8202188
:1016A0000122C3F824210022C3F828212222C3F8F2
:1016B00000228822C3F8E42F4FF6FF72C3F8E82F08
:1016C000D3F8002142F00302C3F800211A6842F067
:1016D00001021A60FEBD00BF00C00F400501155099
:1016E000905C0020F0C00700FF05008000020104AC
:1016F00058100820041008200402010424100820B7
:10170000001008200802010458280820441008206E
:101710001404020840100820024A136823F8020B40
:10172000136070476800001038B501314FF6FE7441
:101730000C40054604E035F8020BFFF7EDFF023CD4
:10174000002CF8D14FF0A042D2F828310133022BFF
:1017500008BF0023C2F8283138BD0000024A1368D0
:1017600033F8020B136070476C000010034A1368D3
:1017700033F8020B136001F07BB800BF6C0000105F
:10178000F8B504460D4607460E4605E0FFF7E6FFAE
:10179000023E27F8020BB6B2012EF7D86E08EB070F
:1017A00003D5FFF7DBFF04F81600F8BD10B50446BB
:1017B00003E0FFF7D3FF023CA4B2012CF9D810BD1F
:1017C0004FF0A043D3F82821064B0138D318DB0093
:1017D0001968054B40F080401960044B43F8320013
:1017E000704700BF08020104680000104410082080
:1017F000012070474FF0A043D3F81821074BD318AE
:10180000DB001868064B4005D318DB001A68400D52
:10181000044B033880B21A60704700BF0402010411
:10182000000201046C0000104FF0A042D2F8183101
:101830000133042B08BF0023C2F8183170474FF062
:10184000A043D3F818211AB9D3F81421032A03D0DE
:10185000D3F81421D3F81821D3F81401D3F8183190
:10186000C01A18BF012070478F4B2DE9F04F1A683E
:10187000002601321A608D4BDFF8B4921A68DFF847
:10188000B48201321A608A4B8A4D1A68DFF828B296
:1018900001321A6087B0344640F6C31355F824204D
:1018A000E0B29A4250D855F82420013245F824205D
:1018B00055F82420B2F5FA6F46D914F80B20022A05
:1018C00008D17C4B40F6B83243F824207A4B0022F2
:1018D0001A55B4E1794F7A49E25D62B3794ADFF88B
:1018E00058A212880870AAF80020494606227648B5
:1018F00005930CF05BF94146042274480CF056F94C
:10190000734A7448A15C301809F066FBE25D7249C5
:10191000013AE255002245F824205022AAF800207E
:10192000694806220CF042F968486C4904220CF020
:101930003DF9059B08E009780BF8012040F6B83224
:1019400045F824200422E25501342D36052C09F1F6
:10195000060908F10408A1D1534B1A68B2F57A7F41
:1019600001D300221A60514B1A68C72A03D90022FA
:101970001A6000F049FC5A495A4B0A784AB11A6871
:1019800001321A601A68584B9A4203D900230B702F
:1019900000E01A60554B1A68012A02D91A68013A08
:1019A0001A60534C2368B3F57A7F0BD22368013356
:1019B000236023680A2B05D905200AF0E5FD4FF4C2
:1019C0007A7323604B4B1A68B2F57A7F03D21A6898
:1019D00001321A601B68484B1B78032B474B02D11E
:1019E0001A68013245E0464A1268B2F1806F3FD171
:1019F00019684CF24F3291423AD81A6801321A6093
:101A00001B68B3F5FA6F35D105200AF091FD062069
:101A10000AF08EFD3B493C4D3C4C4FF448424AF69F
:101A2000C0034A804FF6FF720B802A802380FF227A
:101A30004FF480736A806380354A364B0020136010
:101A4000354A1360042208F019FC29460422FA20C2
:101A500008F014FC214604224FF4827008F00EFCBA
:101A60004FF4967040F6D631022208F007FCFEE7EC
:101A700000221A60294B1A68B2F57A7F6BD21A6875
:101A800001321A601A680A2A65D14FF47A721A6014
:101A9000234A1378092B51D1224900230B70224984
:101AA0000B70224954E000BF740000107000001059
:101AB0005C4F0010A00000101E640010310C0010DC
:101AC000000700104C640010541000103264001025
:101AD000D06A0010501200104E100010F6060010D0
:101AE000E80E0010B8000010E0930400500E001043
:101AF0003C0E0010200800106464001054590010BF
:101B000018080010907400103A0D0010700E0010AC
:101B1000740E00101808010044590010B866001037
:101B20003059001040640010487B00105411001020
:101B3000641E00100C690010861E0010414A1378C4
:101B4000092B08D1404900230B7040490B704049D4
:101B50000B70072313703F4B3F4A1968914266D8B8
:101B60001A6801321A6019684EF6602291425ED1FD
:101B70003A4A1A603A4B1B78092B26D10024234697
:101B80000420FC21224600940194029404F0BEFA41
:101B90003449FA22E62008F071FB33492246334BE0
:101BA00002E01A550134E4B208788442F9D30023E4
:101BB0002F4C18462F4902E0C8540133DBB222787B
:101BC00093424FF00002F7D32BE01E4B1B78092BFA
:101BD0002DD100240223029304202346FC21224617
:101BE0000094019404F092FA2349FA224FF487708A
:101BF00008F044FB1C4922461C4B02E01A550134F4
:101C0000E4B208788442F9D30023194C18461949E4
:101C100002E0C8540133DBB2227893424FF0000255
:101C2000F7D3134B1A70104B1A700BF063FA134B67
:101C30001A68B2F5FA6F02D21A6801321A6007B058
:101C4000BDE8F08F551100100A07001004070010BE
:101C5000FA060010B4660010FFA50E0000A60E00E4
:101C600030590010FD1C00108C720010561100102D
:101C7000470E0010AF6500105A1000103C640010B1
:101C8000084BF8211A684FF47A73B2FBF3F2064B53
:101C9000013A5A60054A82F8231000229A6007220E
:101CA0001A6070476400001010E000E000ED00E0F2
:101CB00008B5FFF7E5FFFFF7D9FB054A00231370CE
:101CC000044A1370044A1370044A137008BD00BF1D
:101CD000AC65001031590010F81C0010947400100D
:101CE000274A10B51078002849D1264B264C197880
:101CF00021F00101197001231370244A1370237815
:101D0000DB073CD5224B23491A78234B1B7803EB86
:101D100002230B80214B1A78214B1B7803EB022303
:101D20004B80042208F0AAFA1E4B1F491A781F4B59
:101D3000FA201B7803EB02230B801D4B1A781D4BF6
:101D40001B7803EB02234B80042208F097FA1A4B0E
:101D50001A491A781A4B4FF482701B7803EB02234E
:101D60000B80184B1A78184B1B7803EB02234B801F
:101D7000042208F083FA237823F00103237010BDB6
:101D8000F81C00103159001040010010947400102C
:101D90004859001090740010585900103B6400100E
:101DA0007B7B0010496400103A0D0010AD650010F7
:101DB000851E0010F71C0010F61C0010700E00109D
:101DC000FE6800100A690010621E0010024B1A78AB
:101DD00022F004021A7070479474001007B5FFF7E0
:101DE00009FD0E4B062118806846FFF7C9FC062145
:101DF0000B48FFF7C5FCBDF800204FF6FF739A4271
:101E00000AD1BDF80230934206D1BDF80400C21ACF
:101E1000504240EB020000E000200EBD226900109D
:101E20004A59001038B5244CFF21062220460BF0F9
:101E3000C1FE0622A01D21490BF0B8FE08224FF476
:101E4000C16322821E4D40F20642A38162824FF49A
:101E500080730622194904F11600E381A3820BF076
:101E6000A5FE0422294604F11C000BF09FFE002170
:101E7000062204F120000BF09DFE124928880B88F1
:101E80005840114B1A88104205D168884A885B88EF
:101E900042401A4202D00D480D4901E004F12600EB
:101EA00004220BF083FE0B4B2A221A700A4B1A787D
:101EB00042F002021A7038BDB46800102308010015
:101EC00090740010326400103A0D0010DA680010AF
:101ED000700E00104A640010AC65001070B51E4C06
:101EE0001E4D1F4E2946062220460BF05FFE31464E
:101EF0000622A01D0BF05AFE4FF4C163A3814FF4DC
:101F00008073E3810823238240F2064363823146D3
:101F10004FF40073062204F11600A3820BF046FE74
:101F20001049042204F11C000BF040FE2946062251
:101F300004F120000BF03AFE042204F126000A49C5
:101F40000BF034FE094B2A221A70094B1A7842F022
:101F500002021A7070BD00BFB46800104A59001028
:101F600023080100907400104A1000104A64001009
:101F7000AC65001007B5FFF7F9FB40F60603984281
:101F800028D1FFF7F3FB012824D1FFF7EFFBB0F5D1
:101F9000006F1FD1FFF7EAFB40F20463984219D1AA
:101FA000FFF7E4FB012815D10620FFF7FFFB042112
:101FB0000948FFF7E5FB0620FFF7F8FB01A804211D
:101FC000FFF7DEFB054801A904220CF07BFB08B9F2
:101FD000FFF784FF0EBD00BF4A1000109074001080
:101FE00030B57AB1134B1A885B88D218124B02F5C0
:101FF000C0621C885B881219D2180B0A43EA0123BD
:102000009BB2D21804460B4604E034F8025B023B54
:1020100052199BB2012BF8D84B08C90704D510F808
:10202000133000E092B2D218130CFBD1D24390B21D
:1020300030BD00BF9074001032640010274B70B5A3
:102040001E883C2E02D8183EB6B200E02426244C4E
:102050002449062220460BF0A9FD23490622A01D93
:102060000BF0A4FD0823A3814523E38106F11803A7
:102070009BB21A0A0025227463741C494FF4A073A2
:10208000042204F11A00E3826582A58225830BF005
:102090008DFD1749042204F11E000BF087FD2A462E
:1020A000142104F10E00FFF79BFF3146208304F159
:1020B00026006584A584FFF763FB311D2A4689B29B
:1020C00004F12200FFF78CFF0A4B26361E700A4BE4
:1020D000A0841A7842F002021A7070BD2C640010BD
:1020E000B46800104A5900102308010090740010D1
:1020F0004A1000104A640010AC65001010B5FFF7DC
:1021000035FB0446C4F30F24FFF730FB082C03D142
:10211000BDE81040FFF792BF10BD0000054B002244
:102120001A70054B04221A70044B1A7842F00C0204
:102130001A7070470C0100108F7400103159001094
:10214000114B1B78042B01D0072B1CD10F4B1A7895
:1021500022F008021A700E4A0E4B11681B8859189B
:1021600011600D4A363312780AB10C4A00E00C4A6D
:1021700013800C4B1A7842F001021A700A4B0422A9
:102180001A70FFF7CBBF7047F81C00109474001052
:102190002C1E00101C0F0010D06C001042640010A8
:1021A000B0660010AC65001036640010054B0022CC
:1021B0001A70054B1A7842F0040222F008021A70D5
:1021C000704700BF0C01001031590010024B1A7803
:1021D00022F004021A70704731590010074B002298
:1021E0001A70074B074918781A7000F0030001288D
:1021F00014BF202010200870704700BFF81C00108A
:102200003159001094740010044B1A8801321A805E
:10221000034B1A7801321A70704700BFB66700107E
:102220000C01001008B505200AF082F9034B0448A0
:102230001988BDE80840FFF777BA00BFB066001004
:10224000D66C001008B505200AF072F9034B04485B
:102250001988BDE80840FFF767BA00BF4264001064
:102260009A75001008B505200AF062F9034B04487E
:102270001988BDE80840FFF757BA00BF02070010F1
:102280004401001008B505200AF052F9034B044838
:102290001978BDE80840FFF747BA00BF4A6400104C
:1022A000B46800100B0E03700B0C43700B0A8370A4
:1022B000C1707047F8B5324C3249062220460BF007
:1022C00075FC31490622A01D0BF070FC2F4E08232F
:1022D000A38141F24503E3813388002528339BB273
:1022E0001A0A22744022637422754FF4C863284985
:1022F000042204F11A00E3826582657525830BF0E0
:1023000055FC2449042204F11E000BF04FFC14215B
:102310002A4604F10E00FFF763FE1F4B1F4F1B8878
:1023200020831A0A84F8222084F823301C4A3B7840
:1023300004F1260032F81320110A84F82520194AE6
:1023400084F8241052F82310FFF7ACFF3A78164BAC
:1023500004F12A0053F82210FFF7A4FF318841F658
:1023600050031431E38504F12200052389B20122D0
:1023700023866586A586FFF733FE6086F8BD00BF1D
:1023800044010010541000102308010018640010CC
:102390009074001032640010861E001000070010B8
:1023A00000690010140C001028010010F8B5454C0D
:1023B00005460622444920460BF0F8FB0622A01DE4
:1023C00042490BF0F3FB0823A381452315F00207D4
:1023D000E38114BF4FF440534FF4205323824EF255
:1023E0000B43638240230026A3824FF4C863E38239
:1023F00004223749268304F11A000BF0D7FB04228C
:10240000344904F11E000BF0D1FB1421324604F1D3
:102410000E00FFF7E5FD304B20831B881A0A042DC0
:1024200084F8222084F8233005D02C4B1A782C4BCA
:1024300033F8123001E02B4B1B881A0A84F8242051
:1024400084F82530254C284B2278284853F8221050
:10245000FFF728FF2278264B1A4C53F82210254804
:10246000FFF720FF0523238600236386A3862B0224
:1024700043EA1523BFB143F07003E38540F2024302
:10248000E3864FF47F43238740F2011363874FF4C1
:1024900001730122A38704F122001C21FFF7A0FD94
:1024A0003E2260860AE043F050030122E38504F1F6
:1024B00022001421FFF794FD362260860E4B1A800D
:1024C000F8BD00BF440100105410001023080100A3
:1024D0009074001032640010861E00100007001077
:1024E00000690010480E0010140C00106A01001062
:1024F000280100106E0100100207001070B5314C69
:102500003149062220460BF051FB30490622A01D1E
:102510000BF04CFB2E4E0823A38141F24503E381CF
:102520003388002528339BB21A0A22746374294920
:102530004FF4C863042204F11A00E3826582A58285
:1025400025830BF033FB2449042204F11E000BF019
:102550002DFB14212A4604F10E00FFF741FD1F4B0D
:1025600020831B8804F126001A0A84F823301C4BB0
:1025700084F822201B881A0A84F82530194B84F825
:1025800024201968FFF78EFE174B04F12A00196802
:10259000FFF788FE318841F2501241F25003B1F545
:1025A000AF6F38BF13461431E38589B24FF6FF731E
:1025B00004F12200012223866586A586FFF710FD1F
:1025C000608670BD9A750010541000102308010039
:1025D0001C0F00109074001032640010861E001052
:1025E00044640010887200106064001038B5344CE8
:1025F0003449062220460BF0D9FA33490622A01DA1
:102600000BF0D4FA0823A38141F24503E3812F4B59
:1026100000251B882E4928339BB21A0A2274637442
:1026200004224FF4C86304F11A00E3826582A58294
:1026300025830BF0BBFA2749042204F11E000BF09E
:10264000B5FA14212A4604F10E00FFF7C9FC224B0B
:1026500020831B8804F126001A0A84F823301F4BBC
:1026600084F822201B881A0A84F825301C4B84F831
:1026700024201968FFF716FE1A4B04F12A00196886
:10268000FFF710FE184B1B6833B9184B1A6801325C
:102690001A6041F2501301E041F25003E3854FF616
:1026A000FF73238600236386A386084B104819888E
:1026B0000122143189B2FFF793FC608638BD00BF58
:1026C000D66C001054100010230801001C0F0010DD
:1026D0009074001032640010861E001044640010D4
:1026E00088720010606400103C0100102C1E001065
:1026F000F86C0010F8B5424C0546062220464149C8
:102700000BF054FAA01D06223F490BF04FFA0823A4
:10271000A381452315F00207E38114BF4FF4405312
:102720004FF4205323824EF20B4363824023A38253
:1027300000264FF4C863042204F11A003349E382EF
:1027400026830BF033FA042204F11E0030490BF00B
:102750002DFA142104F10E003246FFF741FC2D4BF7
:1027600020831B882C481A0A042D84F8233014BFB8
:102770002A4B2B4B84F822201B881A0A84F8253018
:10278000284B84F824201968FFF78CFD264B1C4C3D
:1027900019682648FFF786FD00234FF6FF7263860F
:1027A000A3862B02228643EA1523AFB143F07003C0
:1027B000E38540F20243E38640F2011322876387F8
:1027C00001224FF4017304F122001C21A387FFF7BB
:1027D00007FC3E2260860AE043F05003012204F128
:1027E00022001421E385FFF7FBFB36226086104BA5
:1027F0001A70104B1A7842F002021A70F8BD00BF2E
:10280000B4680010541000102308010090740010E8
:1028100032640010861E0010DA6800104464001054
:10282000480E00108872001060640010DE6800100E
:102830004A640010AC6500100B4B1B78042B12D8B7
:10284000DFE803F0030507090C00FFF7EBBA0220ED
:1028500002E0122000E01120FFF74CBF034B1A7872
:1028600042F001021A70704736640010AC65001027
:10287000030A43EA002080B2704700002DE9F047C8
:102880000022264E264D0346012410464FF006092D
:102890004FF0030809FB00FC06EB0C0736F80CC0F0
:1028A000BCF1000F1BD1B7F802C0BCF1000F16D16C
:1028B000BF88A7B935F820708FB905EB80077F88EE
:1028C0006FB9BDE8F08707EB020C36F81CA033F8AF
:1028D00012C00132E24518BF0024D2B201E008FB69
:1028E00000F7022AEFD964B105EB8007B7F802C000
:1028F0004F8835F82040BC450A8807D1944205D15D
:1029000009E00130C0B20124002201E000240222CB
:102910000428BFD90620BDE8F08700BF641E001060
:102920000C6900102DE9F74FDFF8ECC0354F364E3B
:10293000364DDFF8ECB03649364A5FE018D1364AFA
:10294000002313612F4A13612F4A13812F4A1371F9
:10295000324A1071324A13712D4A93835383138381
:102960002C4A538213822F4B40F6B8321A6147E04B
:10297000431C5CF82380294C4CF8208057F82380B6
:10298000DFF8A09047F8208036F8138026F81080F2
:1029900015F8038005F8008014F8038004F800801F
:1029A0001BF803800BF8008059F8238049F8208039
:1029B0004FF0060909FB03F801EB080A31F808801B
:1029C00009FB00F9CDF80480019C01EB090821F80E
:1029D000094032F8239022F82090BAF8029002EBD6
:1029E0008000A8F8029002EB8309B9F80290A0F8E1
:1029F0000290BAF80400A8F80400D8B204289DD9BF
:102A0000BDE8FE8F2801001000690010D06A001098
:102A1000641E00100C690010140C0010310C001022
:102A20001E640010A00000102DE9F843234B244A37
:102A30001B780024D454234A40F6B83142F82310BE
:102A400032222149534301E05FFA89F41A198A5C62
:102A50003226032A1C4D04F10109F5D15FFA89F9E8
:102A6000DFF85880E818494608F0B6FA98F80000F0
:102A7000134B00271F54494606FB005008F0ACFAE0
:102A800098F80020114B564333F8121005EB060C52
:102A900038190CEB00035B7813B13028C8BF002352
:102AA000F0190137FFB20139A7422B5489B2EFD98F
:102AB000064B23F81210BDE8F88300BF0007001092
:102AC0001E640010A00000107364001016010010B6
:102AD0002DE9F047FEF74AFE0746FEF747FE914B09
:102AE0001B88834203D1904B01221A7004E08F4B64
:102AF0001B88834240F03783FEF738FE8146FEF79D
:102B000035FE0646FEF732FE8046FEF72FFE0546EE
:102B1000FEF72CFE864B04461B8800F47040800AAA
:102B2000143B1B1A9BB2834AB3F5FA6F138000F271
:102B30001A83142803D9143880B2FEF737FE7A4B73
:102B400046EA09461B7845EA0845002B00F06481F7
:102B5000052009F0EDFC78487849FFF78FFEDFF893
:102B6000F481052888F8000000F2FD8272490622EF
:102B700073480BF01BF87348704904220BF016F8E9
:102B8000684BDFF8A8A11B88DFF8A891AAF80030ED
:102B9000B9F80030CBB198F800206B49F31841F830
:102BA00022306A4B062043F82250FEF7FFFD6848AA
:102BB000B9F80010FEF7E4FDB9F8000009F0FAFAE0
:102BC00018B15023AAF8003028E0A30717D5614BAD
:102BD0005D4A1B78013642F823604FF0402291682D
:102BE0005D4A89B21288122041EA0241574A42F8EE
:102BF00023105A4A22F81370FFF7D8FB41E0200750
:102C000046D5DFF85081554A98F8003022F8137005
:102C1000534A176877B1454B50221A8051494848AA
:102C200006220AF0C3FF47484F490422BDE8F04797
:102C30000AF0BCBF3F4A10201288B618424A42F838
:102C40002360424A42F82350FFF7B0FBE1060BD560
:102C500098F80030454A40F6B831D754444A42F813
:102C60002310444B04221A70434B1A78434B1B78B1
:102C7000D318322B3A4B02DD32221A60CBE7002206
:102C80001A603F4B1888FEF79BFDFFF7EBFAC2E78F
:102C900014F0050300F080803A4B1A780AB1013A2B
:102CA0001A702C4B06211B783748594300224718CD
:102CB0004FF0FA0CBA807A800CFB03FC4252334985
:102CC000DFF8D08001EB8300314F428021F82320D0
:102CD00011460CEB02000132FA2A28F8101027F8EE
:102CE0001010F6D1620700F13E82174A013642F811
:102CF0002360164A224C42F823501020FFF756FB5F
:102D00002088FEF75DFDFFF7ADFA1120FFF74EFBBF
:102D10002088FEF755FDFFF7A5FA0E4B1878FFF750
:102D200001FE78E74C6400102F590010861E001039
:102D30002C640010D46C00104A5900104A10001086
:102D4000541000103264001028010010140C001000
:102D5000604F001000070010B667001000690010F7
:102D6000500E00104E100010F60600101E640010E9
:102D7000A0000010310C0010AB6500108C74001026
:102D800002070010F91C0010641E00100C690010EE
:102D900032130010545A0010E0067FF53CAFA04AF1
:102DA0001178012915D19F4C137020789E4B062273
:102DB00002FB00309D490AF0F9FE9D4B2078042269
:102DC00003EB80009B490AF0F1FE9B4B1A7801321D
:102DD0001A70944C994A237842F82350984A42F842
:102DE000236032225343974AD35C022B01D1FFF771
:102DF0001BFE2378944AD15C022902D108F02AFAFA
:102E000009E70021D154914A40F6B83142F8231025
:102E10008F4B04221A70FEE6DFF8688298F80030C3
:102E2000012B23D003D3022B40F0A9805DE0610782
:102E300000F19981874B06221F8087497B480AF061
:102E4000B5FE04227B4885490AF0B0FE14F010025A
:102E5000834B62D11A60834BA2071B881E44824BAE
:102E60001E6001D001361E60142078E1600700F179
:102E70007A81784B06221F806C4F774938460AF0DA
:102E800095FE764904226B480AF090FEE10643D491
:102E9000A20740F16881744B01361E60734A4FF0FF
:102EA00040239B6812889BB243EA02436C4A12207B
:102EB00013606F4A01331360FFF71CFC6D4B022255
:102EC0001A70FFF72BF903233A8888F800306A4B11
:102ED00039461A807A8869485A80BA889A800622C8
:102EE0000AF064FE664853499FE652485B49042253
:102EF0000BF0E8FB002840F03681564B1B88BB42A4
:102F000040F0318114F010030AD0594A12689542FA
:102F100006D0630700F12781514B1D6004201EE19C
:102F2000600706D5002B00F01E81564A002313705F
:102F300044E0A10740F117814B4A01361660514C1D
:102F40007BB1FFF743F94A4B10201A68444B1A60D3
:102F5000FFF7D0FB042323704B4B1A7842F00A0290
:102F600030E0FFF733F91220FFF7C4FB414B022298
:102F70001A70FFF7D3F803232370BDE8F0872D48BC
:102F8000364904220BF09EFB002840F0EC80314BC8
:102F90001B88BB4240F0E780334B1B689E4240F0E9
:102FA000E28014F0020305D0384B88F80000187056
:102FB000402206E0620708D588F80030334A1370D3
:102FC0003022314B1A70BDE8F087E30640F1CB8028
:102FD000274E33689D426AD1FFF7F8F83268204BDC
:102FE0001A60284B1A78033A072A57D8DFE802F00C
:102FF00004560B56560D0F5004221A70224B1A78A5
:1030000042F0020249E0062247E00A2245E000229F
:103010001A701E4B1A701C4B1A7802F004023CE026
:10302000AE65001000070010641E00105410001060
:103030000C69001032640010F91C0010140C001010
:1030400028010010736400101E640010A00000101E
:10305000310C0010446400104A5900104A1000104E
:1030600088720010D46C001060640010B667001005
:103070002C1E001036640010D66A00104E1000108E
:10308000F6060010F81C001094740010315900105E
:103090001020FFF72FFB354B00221A70344B1B78A2
:1030A000042B04D1334B1A7842F008021A70304BCB
:1030B0001B78043BDBB2022B28D82F4E33882BB36E
:1030C0002C4D2F7817F0040720D10620FEF76EFB59
:1030D0002A483188FEF754FB294B01221A70294BEC
:1030E0001F60294B1A7822F001021A703288274B90
:1030F0001A802B7843F004032B70254B1968521863
:103100001A6001F065FB1020FFF7F4FAE0072AD5FA
:10311000174C2378033B072B1CD8DFE803F004048B
:103120000D0F1B1B1B181B4A002313701A4A237018
:103130001370104A13700DE0082302E0FFF736F811
:103140000A2323700B4B1A7822F0020201E0074B8E
:1031500000221A700E4B10201A6801321A60BDE866
:10316000F047FFF7C7BABDE8F08700BF0C010010B9
:10317000F81C001094740010D46C0010604F001004
:10318000B4000010B8000010380E0010420100100A
:1031900060640010AC6500103159001037B5FEF7BF
:1031A000E5FAB0F5006F27D040F60603984266D1E5
:1031B000334C237803F00303012B60D1FEF7D6FADA
:1031C00001285CD1FEF7D2FAB0F5006F57D1FEF7B7
:1031D000CDFA40F20463984251D1FEF7C7FA0228B3
:1031E0004DD1FEF7F3FF27480621FEF7C9FA2378F1
:1031F00043F00203237042E0FEF7B8FA00F47F4088
:10320000B0F58A4F3BD1FEF7B1FA1F4B1880FEF79D
:10321000ADFAFEF7ABFA800431D1FEF7A7FA1B4DE9
:103220000446FEF7A3FA04212846FEF7A9FA184A35
:103230002B8810885840174B1988084205D15188AF
:103240006A885B884A401A4204D010481249042216
:103250000AF0ACFC01A80421FEF792FA0C4801A97F
:1032600004220BF02FFA50B9E4B2012C02D0062C44
:1032700005D102E0FEF742FF01E0FFF729FC3EBD69
:1032800031590010541000102C6400104A10001026
:10329000907400103A0D0010700E001010B5FEF77B
:1032A000CEFA48B1FEF79AFD10B1FEF763FE01E0D9
:1032B000FFF774FFFEF7B8FA864B1A780AB10022BE
:1032C0001A70854B1A68012A07D100221A60834BB5
:1032D0001888FEF775FAFEF7C5FF814A137859077B
:1032E00021D513F008017F4B12D01A78082A1AD979
:1032F0007D4C00221A7023782BB1FFF79DFA2378BA
:10330000013B23700FE0FEF761FFFEF767FF0AE065
:103310001B78022B07D9754B11701970744B1A78F2
:1033200002F004021A70714B1A78724B072A54D8B3
:10333000DFE802F0040453272753533D684A12780C
:1033400002F00302032A48D11B7813F0020344D190
:103350004FF0402268499268098892B242EA0142DD
:10336000664902200A60664901320B60654B1A60AB
:10337000FFF7C0F9644B01221A70FEF7CFFE02225C
:1033800029E0574A1278D20627D51B789B0724D10B
:103390005A4B1A685B4B1B689A421ED15A4B032248
:1033A0001A70524B05221A70FEF710FF15E01B78B9
:1033B000980712D1514B1A68524B19688A420CD1A6
:1033C00001321A601120FFF795F94F4B03221A7052
:1033D000FEF7A4FE0922454B1A70464B1B7899074D
:1033E00049D54A4B414C1878FEF7EAF9FEF700FA46
:1033F00010B1FEF747FF05E03D4B50221A70384BE5
:10340000207018702378052B30D1414B1B78022B8C
:103410002CD1404A404B1178404A127802EB0122ED
:103420001A803F4A11783F4A127802EB01225A80F3
:103430003D4A3E4B11783E4A127802EB01221A8037
:103440003C4A11783C4A127802EB01225A803B4AEE
:103450003B4B11783B4A127802EB01221A803A4A20
:1034600011783A4A127802EB01225A80214B1A78DD
:1034700022F002021A701F4B1B78DA0729D5FFF7DA
:10348000B5F8334B1888FEF79BF9FEF7B1F910B188
:10349000FEF7C8FE06E0154B50221870144B1A7048
:1034A0000F4B18702B4C237873B1144B1A6802F52C
:1034B000AF621A60FFF722F8274B1888FEF780F9F1
:1034C000FEF7C0FE002323700A4B1A7822F0010297
:1034D0001A7010BD2F590010500E00100207001076
:1034E000315900100C0100108F740010F81C0010EE
:1034F00094740010AC650010B6670010887200105C
:10350000606400102C1E0010366400104A64001025
:103510005E0E0010485900109074001058590010A9
:103520003B6400107B7B0010496400103A0D0010D2
:10353000AD650010851E0010F71C0010F61C001071
:10354000700E0010FE6800100A690010621E001064
:10355000B0660010505900104264001000232DE99D
:10356000F0411E461F461C461FE0252D90F801C065
:103570000CD1BCF1320F09D190F80280B8F1300FB4
:1035800004D103340330E4B21D460DE0ACF1250C48
:103590005FFA8CFCBCF1010F03D9A5F1300337466B
:1035A000DEB201340130E4B22B460578262DDCD1A1
:1035B00014700A225643642202FB0767303BFB1853
:1035C0000B60BDE8F08130B50023013A04E0C55C32
:1035D000CC5CA54204D101339342F8D3012030BD25
:1035E000002030BD724B2DE9F74F1A88032A40F2B4
:1035F000D184704A70491478704E714A0025002CAD
:1036000014BF0C4614469B46B24600F0BEBC23785D
:10361000412B40F086806378442B40F08280A37871
:10362000312B7ED1674B1B78042B36D1664B1A7831
:10363000092A14D81A78654968460AF007FB20461B
:10364000694601220AF0B2FA01346149614A6846CA
:103650000AF0FCFA2046694602220AF0A7FA5A4B01
:103660001A78092A17D91A78632A14D81A785A4965
:1036700068460AF0EBFA2046694602220AF096FAFA
:1036800002345649564A68460AF0E0FA204669462E
:1036900001220AF08BFA4C4B35E0524B1A78092A7A
:1036A00014D81A78494968460AF0D0FA2046694683
:1036B00001220AF07BFA01344549464A68460AF07D
:1036C000C5FA2046694602220AF070FA454B1A787C
:1036D000092A17D91A78632A14D81A783E496846F5
:1036E0000AF0B4FA2046694602220AF05FFA023470
:1036F0003A493B4A68460AF0A9FA2046694601223F
:103700000AF054FA374B1A78632A0AD91A783649DC
:103710001A7868460AF09AFA2046694603220AF0A7
:1037200045FA2378412B40F0AB806378442B40F07E
:10373000A780A378342B40F0A380224B1B78042B66
:103740005AD12A4F3B78092B14D82149284A684678
:103750000AF07CFA2046694602220AF027FA02346F
:103760003A781A4968460AF071FA204669460122F9
:103770000AF01CFA1D4F3B78092B17D93B78632BB5
:1037800014D816491B4A68460AF060FA2046694672
:1037900001220AF00BFA01343A780F4968460AF020
:1037A00055FA2046694602220AF000FA0F4B59E00A
:1037B0001C0F001050590010D0750010D26C001072
:1037C0000C6D00105E0E0010470E001005F7010092
:1037D00009F7010037F701000DF7010011F70100AB
:1037E00038F701008C72001015F701002B1E001035
:1037F00019F701001AF70100544F3B78092B14D830
:103800005349544A68460AF021FA20466946022282
:103810000AF0CCF902343A784F4968460AF016FAB1
:103820002046694601220AF0C1F9484F3B78092B2E
:1038300017D93B78632B14D84849494A68460AF09F
:1038400005FA2046694601220AF0B0F901343A78B7
:10385000444968460AF0FAF92046694602220AF00D
:10386000A5F93A4B1A78632A0AD91A783E491A7888
:1038700068460AF0EBF92046694603220AF096F9F9
:103880002378412B49D16378442B46D1A378332B3D
:1038900043D1364B1A78092A14D81A782E4968462B
:1038A0000AF0D4F92046694601220AF07FF9013472
:1038B00027492F4A68460AF0C9F92046694602227C
:1038C0000AF074F9294B1A78092A17D91A78632A49
:1038D00014D81A78234968460AF0B8F92046694690
:1038E00002220AF063F902341C49224A68460AF0AF
:1038F000ADF92046694601220AF058F91B4B1A78A7
:10390000632A0AD91A7818491A7868460AF09EF983
:103910002046694603220AF049F92378412B7FD1DA
:103920006378442B7CD1A378322B79D1124B1B784E
:10393000032B25D132881149012331F8020F00B140
:103940009AB20133FB2BF8D126E000BFF20600103B
:1039500009F7010019F7010005F7010011F701004F
:103960001AF701000DF7010015F70100470E0010CE
:1039700037F7010038F701005E0E00108C7200105E
:10398000042B4DD132889849012331F8020F00B140
:103990009AB20133FB2BF8D1092AAAF8002014D8D7
:1039A0009249934A68460AF051F920466946022234
:1039B0000AF0FCF8023432888E4968460AF046F96B
:1039C0002046694601220AF0F1F833880A3B9BB28F
:1039D000592B14D88849894A68460AF037F9204695
:1039E000694601220AF0E2F80134328884496846C7
:1039F0000AF02CF92046694602220AF0D7F83288EC
:103A0000A2F164039BB2B3F5617F08D27D49684699
:103A10000AF01CF92046694603220AF0C7F8FA2585
:103A200023784E2B47D163784F2B44D1A378442B76
:103A300041D1754B1A68092A13D86E4968460AF0B5
:103A400005F92046694601220AF0B0F801346749B9
:103A50006E4A68460AF0FAF82046694602220AF0E1
:103A6000A5F8694B1A68A2F10A03592B13D86449C7
:103A700068460AF0EBF82046694602220AF096F8FA
:103A800002345D49624A68460AF0E0F82046694619
:103A900001220AF08BF85C4B1A68A2F16403B3F5BB
:103AA000617F08D2574968460AF0D0F82046694637
:103AB00003220AF07BF82378252B16D16378432B59
:103AC00013D1544B1B78032B03D168464749524A04
:103AD00004E0042B09D14549504A68460AF0B6F87B
:103AE0002046694602220AF061F82378252B12D17C
:103AF00063785A2B0FD14A4B1A78052A01D1032239
:103B00001A701A783E4968460AF0A0F820466946BD
:103B100002220AF04BF8434821460C22FFF753FDDE
:103B2000C0B1DFF81891A046002719F807203E49D8
:103B300068460AF08BF801374046012269460AF0D0
:103B400035F8B7F5D17F08F10108EED104F5D1744D
:103B500005F5D1752378492B7ED16378502B7BD125
:103B6000A378A3F13102D2B2032A75D8312B01D147
:103B70002E4B07E0322B01D12D4B03E0332B0CBF32
:103B80002C4B2D4B1F78092F14D81A493A466846FA
:103B90000AF05CF82046694601220AF007F8013471
:103BA00012491A4A68460AF051F82046694602222C
:103BB00009F0FCFFA7F10A03DBB2592B40D81049EA
:103BC0003A4668460AF042F820466946022209F061
:103BD000EDFF023408490E4A68460AF037F82046DD
:103BE0006946012236E000BF3257001009F7010094
:103BF00019F7010005F7010011F701001AF701009C
:103C00000DF7010015F701005064001037F70100AF
:103C100038F701005E0E00101CF701001FF70100CD
:103C2000440E001022F701002EF701005859001031
:103C3000485900107B7B00103B6400102469001081
:103C4000632F09D98A493A46684609F0FFFF2046A2
:103C50006946032209F0AAFF2378502B69D16378C3
:103C60004F2B66D1A378522B63D1E378542B60D1CC
:103C7000804B1A88092A13D87F49684609F0E6FF65
:103C800020466946012209F091FF01347B497C4AB4
:103C9000684609F0DBFF20466946032209F086FFEB
:103CA000744B1A88A2F10A039BB2592B13D8754999
:103CB000684609F0CBFF20466946022209F076FFEC
:103CC00002347149714A684609F0C0FF20466946CE
:103CD000022209F06BFF674B1A88A2F164039BB2C2
:103CE000B3F5617F13D26249684609F0AFFF204601
:103CF0006946032209F05AFF03346549654A68465C
:103D000009F0A4FF20466946012209F04FFF594BF4
:103D10001A8842F22733A2F57A7189B2994208D8FB
:103D20005D49684609F092FF20466946042209F081
:103D30003DFF2378472B51D16378572B4ED1A37881
:103D4000A3F13102D2B2032A48D8312B01D1534B0F
:103D500007E0322B01D1524B03E0332B0CBF514B08
:103D6000514B1F78092F14D843493A46684609F049
:103D70006DFF20466946012209F018FF01344249CF
:103D8000424A684609F062FF20466946022209F06D
:103D90000DFFA7F10A03DBB2592B13D839493A4674
:103DA000684609F053FF20466946022209F0FEFEEC
:103DB00002343749374A684609F048FF20466946C9
:103DC000012209E0632F09D929493A46684609F0DA
:103DD0003DFF20466946032209F0E8FE23784E2B7A
:103DE00078D163784D2B75D1A378A3F13102D2B28B
:103DF000032A6FD8312B01D12C4B07E0322B01D194
:103E00002B4B03E0332B0CBF2A4B2B4B1F78092F76
:103E100014D819493A46684609F018FF2046694601
:103E2000012209F0C3FE01341749184A684609F017
:103E30000DFF20466946022209F0B8FEA7F10A03E9
:103E4000DBB2592B3AD80F493A46684609F0FEFED4
:103E500020466946022209F0A9FE02340C490D4AA7
:103E6000684609F0F3FE20466946012230E000BFB3
:103E700015F701004C64001005F7010032F701004E
:103E800036F701000DF7010009F7010037F70100CF
:103E900011F7010038F701003AF70100FE68001041
:103EA000F61C0010621E00100A690010AD650010BB
:103EB00049640010F71C0010851E0010632F09D9FB
:103EC00035493A46684609F0C1FE20466946032254
:103ED00009F06CFE314821460C22FFF774FB0028E4
:103EE00030D02F4B1B78032B14D1DFF8D490A04691
:103EF000002719F807202B49684609F0A7FE01376B
:103F000040460122694609F051FEFA2F08F10108E6
:103F1000EFD115E0042B15D1DFF8A890A0460027BB
:103F200019F807201F49684609F090FE01374046FE
:103F30000122694609F03AFEFA2F08F10108EFD193
:103F4000FA34FA35184821460622FFF73CFB58B1EF
:103F5000164B17491A68684609F078FE20466946EC
:103F6000052209F023FE0534124821461B22FFF7E3
:103F70002AFB40B1104B13341B7823B920460F495C
:103F8000072209F013FE01350134BBF800309D42D1
:103F9000FFF43DABBDE8FE8F15F701003EF70100D1
:103FA0005E0E00104AF701004EF701003C010010C0
:103FB00054F7010058F701006D65001038F7010053
:103FC000FD1C00105A100010F8B57E4A0646137802
:103FD000144613F0020F00F08081590701D5FDF758
:103FE000F5FE23781A0740F17D81774B1B78DB07BC
:103FF00000F1B380754B1A78754B002A00F096805B
:104000002EB9744A7449116040F66D42A4E0012E45
:1040100005D1704A7149116040F6AC229CE0212E16
:1040200005D16C4A6E49116040F2837294E0032E10
:1040300001D0042E05D1674A6A49116041F6421247
:104040008AE0092E1A4605D1624A6749116047F68F
:10405000DA1281E00A2E05D15E4B6349196047F6FA
:10406000DA1350E00B2E05D15A4B6049196041F22A
:10407000134348E0182E564B05D1564A5C4911604F
:1040800041F27E4268E0112E05D1524A5949116031
:1040900040F6FA4260E00E2E05D14E4A56491160B4
:1040A00042F2A83258E00D2E05D14A4A5349116018
:1040B0004FF4086250E0292E05D1464A504911605C
:1040C00040F6384248E0122E05D1424A4D4911606F
:1040D00040F2366240E00F2E1A4605D13D4A4A4969
:1040E000116040F60F6237E0232E05D1394A474967
:1040F000116041F60E022FE0262E06D1354B4449C1
:10410000196041F6A143136027E0272E304B05D1FB
:10411000304A3F49116041F6A1421DE0132E14D1EF
:104120002C4A3C49116040F2865215E00B2E05D115
:10413000284A2E49116041F213420DE02EB9254A5A
:104140003549116041F6426206E0022E05D1214A4E
:104150003249116040F27C521A601D4C2268B2F55F
:10416000AF6F40F2A180184B2D481B78194D13F00A
:10417000010F5FD10B2E13D02A493F2209F016FD03
:104180002948296840F2395209F010FD2368A3F547
:10419000A663093B23602B6803F5A663093355E04A
:1041A0002249402209F002FD214829684FF4A76204
:1041B00009F0FCFC2368A3F5A76323602B6803F5D3
:1041C000A76343E094740010380E0010E80E00104E
:1041D0003C01001010010010973101001AEC0100A1
:1041E000009A0200BB5801003F7201000A3B020026
:1041F000053E0100058D020067080100A7120200BC
:10420000DA540200845201002562020098FA01008B
:1042100063700200102C0100C71C02005D4F0200F9
:104220000C6D00101D4F02004B6D0010FE7101005F
:104230004C6D001029684FF4AF6209F0B7FC236899
:10424000A3F5AF6323602B6803F5AF63264F4FF4EC
:10425000AF64264E2B603C80FFF7C4F9FDF770FF7A
:104260003368A34233D3224B224D01221A702968AE
:104270002246214809F09AFC33683C80A3F5AF63DD
:1042800033602B681B192B601C4B1D4C1A7842F0B5
:1042900008021A70FFF7A6F9237801332370FDF79F
:1042A0004FFF0023237012E08AB1114B00251D70CF
:1042B000104B1448196809F079FC0B4B22681A80DE
:1042C000FFF790F9FDF73CFF0F4B25601D700F4B7A
:1042D0001A7842F001021A70F8BD0C4B1A7822F0DD
:1042E00001021A70F8BD00BF1C0F00103C01001045
:1042F0005059001010010010D07500109474001077
:10430000D06C00100C6D0010B4000010380E0010BE
:104310002DE9F043A14B8FB01A88032A40F23A816D
:1043200000279F4C98462FE19E4821460522FFF723
:104330004AF900282FD09C4B1B78052B14D1DFF8AD
:10434000CC922646002535F80920984901A809F0A5
:104350007DFC02353046012201A909F027FC013617
:10436000B5F5FA7FEFD115E0062B14D1DFF8A09256
:104370002646002535F809208C4901A809F066FC7D
:1043800002353046012201A909F010FC0136B5F5CD
:10439000FA7FEFD1FA34864821460822FFF713F955
:1043A0000646002861D0834B80491A7801A809F09D
:1043B0004DFC01A90122204609F0F8FB7E4B7F4904
:1043C0001A7801A809F042FC01A90222601C09F038
:1043D000EDFB7B4B79491A7801A809F037FC01A95C
:1043E0000222E01C09F0E2FB7649774A01A809F0B5
:1043F0002DFC01A90222601D09F0D8FB734B6B490B
:104400001A7801A809F022FC01A90122E01D09F097
:10441000CDFB6F4B65491A7801A809F017FC01A97B
:10442000012204F1080009F0C1FB6649694A01A8AC
:1044300009F00CFC01A9022204F1090009F0B6FB05
:104440006549664A01A809F001FC01A9042204F1AA
:104450000B0009F0ABFB6249624A01A809F0F6FBC8
:1044600004F10F0001A9082289E05F4821460B22D0
:10447000FFF7A9F8002833D001AD5249554A284624
:1044800009F0E4FB20462946022209F08FFB52493D
:10449000524A284609F0DAFBA01C2946042209F0FA
:1044A00085FB4F494F4A284609F0D0FBA01D2946FD
:1044B000082209F07BFB0E344C4F0DE0BB195A78F3
:1044C0003A49284609F0C2FB20462946012209F054
:1044D0006DFB01360134B6B23B78B342EED859E0F9
:1044E000434821460822FFF76EF800284AD0354994
:1044F000384A01A809F0AAFB01A90222204609F0C6
:1045000055FB3549354A01A809F0A0FB01A9042251
:10451000A01C09F04BFB3249324A01A809F096FB76
:1045200001A90822A01D09F041FB3249324A01A825
:1045300009F08CFB01A9032204F10E0009F036FBFF
:104540002C492E4A01A809F081FB01A9032204F19C
:10455000110009F02BFB2A492A4A01A809F076FB31
:1045600001A9012204F1140009F020FB2149264A87
:1045700001A809F06BFB04F1150001A9032209F061
:1045800015FB07E001340137B8F80030033B9F42C8
:10459000FFF4CAAE0FB0BDE8F08300BF1C0F0010DF
:1045A0000C6D001073F701005E0E00102EF7010075
:1045B00078F70100CE6A0010400E001080F701006D
:1045C0004864001009F7010019F701002C59001088
:1045D000286400108274001085F701006E640010DA
:1045E00089F70100546400108DF701006E6500101A
:1045F00098F7010032F70100DD0E00105A0E00108E
:1046000011F701004A0E0010140100108E72001004
:104610003457001070B5434A06461378144613F019
:10462000020F79D05A0701D5FDF7D0FB23781B077D
:1046300077D53D4B1B78D80752D4052E3B4A3C4BCF
:1046400003D0072E08D0062E04D13A4911604FF44A
:10465000A77237E0082E03D1374911606A2231E092
:10466000142E04D0152E02D0162E1D4603D1334928
:1046700011607A2226E0172E04D1304B13607A2382
:104680002B6020E00C2E294C0ED12D4B2D492360A0
:104690004FF4D97374222B602B4809F087FA2A68EB
:1046A0002A48743A216819E0222E214B03D1284A66
:1046B00022609D2206E0242E01D0252E03D1254A1A
:1046C00022606B221A6024493D221F4809F06EFACD
:1046D000174B22481A68154B3D3A196809F066FADB
:1046E000134C1F4B22681A80FFF712FEFEF77AFF69
:1046F000FDF726FD1B4A0023137023600A4B1A782E
:1047000042F001021A70184B1A78282A09D017496A
:104710000A7028221A7070BD034B1A7822F0010229
:104720001A7070BD94740010380E00101001001043
:104730003C0100101361020035700200C7F6010051
:10474000281B0200F4F901000C6D0010806D0010B0
:10475000661C020069FA010029080100496D001079
:104760001C0F0010B4000010460E00105E0E00106A
:10477000002370B51D4621E04C5DA4F13006F6B271
:10478000092E04D9612C08D0622C1DD000E03346DC
:10479000632C1BD0642C08D001E00A2303E0652CB5
:1047A00005D0662C05D01C4604E00D2402E00E2442
:1047B00000E00F24435DA34204D101359542DBD3D1
:1047C000012070BD002070BD0B23ECE70C23EAE74D
:1047D0002DE9F04F00259FB008A8294622221B95FD
:1047E0001C958DF877502F4609F0E4F92E4619955F
:1047F000ADF868500795A44C01F061B8A34AA44BEA
:10480000B2F800A0B3F800B0DA4507D15088598853
:10481000884203D192889B889A4204D09D4B1B7892
:10482000002B41F051809C4821460C22FEF7CBFE24
:10483000814600287ED0994B11A9186804F10B0815
:1048400008F0C4FB11A841462022FFF791FF18B1E0
:104850002B344FF0020810E0914B11A9186808F0B2
:10486000B5FB414611A82022FFF782FF4FF0010857
:1048700008B12B3401E08B4B2DE08B4821460B22F5
:10488000FEF7A1FE002801F01880884B11A91868D6
:104890000A3408F09BFB11A821462022FFF768FF8D
:1048A000E8B1B8F1010F1AD17A4B1A78002A41F019
:1048B0000B8083F8008005F013FF05F029FF744A90
:1048C000724B118819805188928859809A80784B50
:1048D00014221A70774B83F8008000F0F5BF764BF6
:1048E00011A9186808F072FB11A821462022FFF7D1
:1048F0003FFFE0B1B8F1020F19D1664B1C78002CD4
:1049000040F0E28701221A7005F0EAFE05F000FF90
:104910005F4A5E4B118819805188928859809A802D
:10492000634B14221A70634B1C7000F0CDBF012240
:104930005C4B30E0614821460F22FEF744FE804682
:1049400020B15B4B83F8009000F0BEBF5C4821466D
:104950000B22FEF738FE50B1524A1378012B544B0C
:10496000B9D10221197082F8008000F0ADBF55481E
:1049700021460D22FEF727FE10B1212200F03CBF98
:10498000514821461022FEF71EFE48B1494B1A78C5
:10499000474B1AB902221A7000F096BF0122FAE7BB
:1049A0004A4821460522FEF70EFE002857D0414B0B
:1049B0001B78002B00F01B832379303B082B06D893
:1049C000DFE803F0080B0E113E4144474A0004346F
:1049D00000F073BF292200F02DBF0D2200F02ABF86
:1049E0000E2200F027BF324B29221A70A379312BF7
:1049F0000DD100220120FC21042300920192029299
:104A000001F084FB08F01CFBE620314911E0322B59
:104A100040F05A87022300220120FC210293042344
:104A20000092019201F072FB08F01EFB29494FF43D
:104A30008770FA2205F022FC08F042FB00F044BF28
:104A40000F2200F0F7BE102200F0F4BE112200F099
:104A5000F1BE122200F0EEBE132200F0EBBE1E48A3
:104A600021461022FEF7AFFD8046002800F08A8024
:104A7000104B1B78002B00F0BA82E37B262B00F052
:104A8000238704F10F0331E0604F00102001001074
:104A9000D66A0010E80E0010A0F70100740E001096
:104AA0004059001031640010ACF70100D000001034
:104AB0005E0E0010B268001044590010B7F70100F4
:104AC000C6F70100D1F70100DEF70100EEF70100A3
:104AD000FD1C00105A100010F3F701001978262968
:104AE00003D0A2F130010797CFB215461C4613F848
:104AF000012B262AF2D1079AA5F130034FF0640862
:104B000008FB02380A2303FB07887A48214606225D
:104B10001FFA88F8FEF757FD002800F0CE86002522
:104B200005342E46A94607E02278262A03D0A3F1B1
:104B30003002B146D6B21D46274614F8013B262B5B
:104B4000F2D16D4839460822FEF73DFD002800F0FD
:104B5000BB866422303D02FB09590A22FB7902FB25
:104B60000696312B4FF000030093019318BF0223E8
:104B70005FFA88F1F2B202930120042301F0C6FA31
:104B800000F0A2BE5D4821461E22FEF71CFD002853
:104B90003AD05B4B1B78002B00F029821D34454630
:104BA000474607E02278262A03D0A3F130022F4699
:104BB000D5B29846264614F8013B262BF2D1214661
:104BC00050480722FEF7FFFC002800F07D86642293
:104BD000A8F1300802FB07870A2202FB0572F3796D
:104BE00092B2312B06D10021D2B2009101910291F3
:104BF0000220C2E7322B40F0678600210220D2B2A9
:104C0000009101910290B8E73F4821461E22FEF72D
:104C1000DAFC002800F08A80394B1B78002B00F06A
:104C2000E6813A4B1B78092B05D0394B1B78092BB1
:104C30002BD000F049BE00240420FC21224623464C
:104C400000940194029401F061FA3249FA22E620BC
:104C500005F014FB1B9430482146304A01E0115501
:104C60002C460378651C9C424FF00003F7D31B933E
:104C70002B4C18462B4901E0C8542B4622785D1C6A
:104C800093424FF00002F7D32AE00024022302935C
:104C90000420FC21224623460094019401F036FAB8
:104CA0002149FA224FF4877005F0E8FA1B941A485C
:104CB00021461A4A01E011552C460378651C9C4296
:104CC0004FF00003F7D31B93154C1846154901E02C
:104CD000C8542B4622785D1C93424FF00002F7D354
:104CE0001B930F4B1A700C4B1A7008F003FA00F06C
:104CF000EBBD00BF03F8010009F8010011F8010045
:104D0000B26800100AF801002FF8010030590010B5
:104D100055110010FD1C00108C720010561100106F
:104D2000470E0010AF6500105A100010B148214620
:104D30001122FEF748FC002800F04D81AE4B1B7895
:104D4000002B00F05481103420461CA90DF177028D
:104D5000FEF704FC1C9AA94BA9481A709DF87730FD
:104D60000722E4182146FEF72EFC002800F0A58556
:104D7000063420461CA90DF17702FEF7EFFB1C9AC2
:104D8000A04BA1481A709DF877300722E4182146FD
:104D9000FEF719FC002800F09085063420461CA977
:104DA0000DF17702FEF7DAFB1C9A984B98481A70BF
:104DB0009DF877300722E4182146FEF704FC00280E
:104DC00000F07B85063420461CA90DF17702FEF722
:104DD000C5FB1C9A8F4B90481A709DF877300722BC
:104DE000E4182146FEF7EFFB002800F06685063444
:104DF00020461CA90DF17702FEF7B0FB1C9A874BE9
:104E000087481A709DF877300722E4182146FEF78C
:104E1000DAFB002800F05185063420461CA90DF16C
:104E20007702FEF79BFB1C9A7E4B7F481A709DF819
:104E300077300722E4182146FEF7C5FB002800F072
:104E40003C85063420461CA90DF17702FEF786FB4F
:104E50001C9A764B76481A709DF877300722E41832
:104E60002146FEF7B0FB002800F0278506342046D7
:104E70001CA90DF17702FEF771FB1C9A6D4B6E4871
:104E80001A709DF877300722E4182146FEF79BFB45
:104E9000002800F01285063420461CA90DF1770287
:104EA000FEF75CFB1C9A654B65481A709DF87730DD
:104EB0000722E4182146FEF786FB002800F0FD8457
:104EC000063420461CA90DF17702FEF747FB1C9A19
:104ED0005C4B5D481A709DF877300722E418214634
:104EE000FEF771FB002800F0E884063420461CA978
:104EF0000DF17702FEF732FB1C9A544B54481A709E
:104F00009DF877300722E4182146FEF75CFB002865
:104F100000F0D384063420461CA90DF17702FEF779
:104F20001DFB1C9A4B4B4C481A709DF8773007229A
:104F3000E4182146FEF747FB002800F0BE84063443
:104F40009DF823209DF821009DF820509DF8221007
:104F500015E0252B667807D1322E05D1A778302FA2
:104F600002D10334134609E0253EF6B2012E04D9DE
:104F7000A3F1300205460846D1B201341A4623781F
:104F8000262BE6D164238DF8210058434FF47A7321
:104F90008DF8205003FB05050A208DF8221000FB38
:104FA00001518DF82320303A8A182C4B2C491C9241
:104FB00092B21A80130A0B704A704FF49670022254
:104FC00005F05CF9274B03221A70274B14221A7044
:104FD0000022264BDFE4264821461822FEF7F3FA8A
:104FE000002800F0AB80044B1B78002B42D102223A
:104FF00000F020BC4DF80100B268001058590010B4
:105000005EF801004859001065F801007B7B001034
:105010006CF801003B64001073F80100AD650010EE
:105020007AF801004964001081F80100F71C0010B3
:1050300088F80100851E00108FF80100FE6800103E
:1050400096F80100F61C00109DF80100621E001089
:10505000A4F801000A690010ABF801004C640010CC
:10506000291E0010400100105E0E0010E80E001016
:10507000B2F80100DFF890829D4B98F80090173449
:10508000186821464A46FEF79EFA002800F015846B
:105090004C44984821460F22FEF795FA002800F06C
:1050A0000C84954B0E3493F80090944B214618686D
:1050B0004A46FEF788FA002800F0FF834C449048E7
:1050C00021460E22FEF77FFA002800F0F683002327
:1050D00004F10D0288F8003002E08A4CE1540346E6
:1050E000D15C581C262902EB0304C0B2F5D1864AD4
:1050F00086481370834A7E4B21461A600F22FEF7C2
:1051000062FA002800F0D9837B4A00230E34137022
:105110007F4901E0CA542B46E25C5D1C262AEDB2B1
:105120007B48F7D1744A00211370744B18600AF061
:105130007FFA002173480AF07BFAC5E375482146DF
:105140001C22FEF740FA804628B1734901220A70FA
:105150004FF49B700BE0714821461222FEF733FAA0
:1051600040B16D494FF49B7081F80080012205F039
:1051700085F8A9E36A4821461122FEF724FA00289F
:1051800000F0AE80237C04F110055F2B11D0654B3D
:105190001A78032A01D105220AE0042A01D1062245
:1051A00006E0052A01D11B2202E0062A01D11C22B9
:1051B0001A705D4829460A22FEF705FA002833D006
:1051C00004F1190059490DF17702FEF7C7F9554B63
:1051D0001B78092B05D0052B03D0032B01D01B2BEB
:1051E00006D1524B03211878012200F051FF12E042
:1051F0000A2B05D0062B03D0042B01D01C2B06D183
:105200004A4B03211878022200F042FF0AE0072BE4
:1052100001D0142B01D119220CE3082B02D0152B3D
:1052200040F052831A2205E3414829460922FEF73D
:10523000CAF9C8B104F118003A4C3C490DF17702A3
:10524000FEF78CF92378232B05D0052B03D0032BF5
:1052500001D01B2B05D1354B03211878012200F01A
:1052600017FF1D2323702FE3324829460522FEF73E
:10527000AAF9002800F0288304F114002B490DF14D
:105280007702FEF76BF9274B1B78262B05D0052BF1
:1052900003D0032B01D01B2B06D1244B03211878FC
:1052A000012200F0F5FE12E0272B05D0062B03D0DB
:1052B000042B01D01C2B06D11C4B03211878022291
:1052C00000F0E6FE0AE0242B01D0142B01D11F22AE
:1052D000B0E2252B02D0152B40F0F6822022A9E265
:1052E000154821460E22FEF76EF938B30322A1E2DB
:1052F000740E0010CAF80100206900104459001013
:10530000D9F80100656400106D640010E7F8010031
:10531000290C0010F6F801006D65001012F901006B
:1053200024F901005E0E001035F9010050640010F0
:105330003FF9010048F901004DF901008F4821466D
:105340000E22FEF740F908B1042273E28C48214690
:105350000922FEF738F9002850D08A4A1378032B27
:1053600003D0052B01D01B2B01D1092306E0042B10
:1053700003D0062B01D01C2B01D10A231370237AF2
:10538000202B00F0A182002308341A46194607E0BA
:105390002378262B03D0A5F130031146DAB22B4631
:1053A000264614F8015B262DF2D10A2042436420E0
:1053B00000FB0121303B7448CB1803603146734831
:1053C0000822FEF700F9002800F07E82F379704A87
:1053D000303BDBB2062B13700BD16A4B1A78092ACB
:1053E00001D11D7070E20A2A40F06E822722FFF779
:1053F000D2BA072B40F0688223221BE2654821467F
:105400001722FEF7E0F8002800F0CA815E4D16343E
:105410000DF1770220462946FEF7A0F82B689DF88B
:105420007720FA2B04D940F2E7318B4240F04C82CE
:10543000A418627840F2E731312A02D1581E564D45
:1054400003E0322A07D1554D581E285C18B98B420B
:1054500040F03A8201E08B4202D14B4BFC211960B3
:1054600048490B780E2B03D0162B01D0172B08D1EF
:10547000312A01D1162302E0322A01D117230B7001
:105480000134A37A6278303B8DF86430A378303AE7
:10549000303B9B0043EA4213E2782079303A1343D1
:1054A0008DF8653063793038303B1B0143EA40109A
:1054B000E379A179303B227A18433039637A303A64
:1054C00040EAC101303B41EA820242EA43038DF8DF
:1054D00066302C4B1B78192B05D0072B03D0092BDA
:1054E00001D0162B05D1284B1878002300930123F7
:1054F0000CE01A2B05D0082B03D00A2B01D0172B58
:105500000AD1214B1878002300930223019317211D
:10551000032219AB00F01EFAE37A04F10B09262BE3
:1055200021D141E01E4849460422FEF74CF830B133
:105530001EAB1C1904F8587C09F1030910E0052280
:1055400018484946FEF73FF81EAA141920B104F87E
:10555000588C09F1040903E004F8586C09F10109B9
:105560000135EDB203E001254FF07F08202799F8BF
:1055700000606C1E262EE4B2D4D119E05CF9010063
:1055800081F901005E0E0010506400106BF90100FB
:10559000440E001073F90100FD1C00105A10001099
:1055A0008AF901008EF9010020238DF820300124B2
:1055B00099F8033099F801A0202B99F8025000F0D7
:1055C000A88009F1040948461CA90DF17702FDF7EE
:1055D000C5FF9DF877B01CA90BF1010BD9444846D3
:1055E0000DF177029DF87070FDF7B8FF9DF877B068
:1055F0001C9B0BF1010BCB4458461CA90DF1770203
:105600004FEA0328FDF7AAFF9DF87790BDF87030A8
:1056100009F10109D94448461CA90DF177021FFA86
:1056200088F848EA0308FDF799FF9DF877601C9B0E
:1056300001364E444FEA036C30461CA90DF1770247
:10564000CDF814C0FDF78AFF9DF877B01C9B0BF1D5
:10565000010BB3441B0458461CA90DF177020693B5
:10566000FDF77CFF9DF877901CA909F10109D94449
:1056700048460DF177021C9EFDF770FF069BDDF892
:1056800014C09DF877001C9A4CEA030301301343C1
:10569000360248441CA90DF177021E43FDF75EFF58
:1056A0004FEA18238DF86430330E8DF86630C6F358
:1056B00007438DF86730C6F307238DF86830844BB5
:1056C0008DF865801B788DF86960192B05D0072B44
:1056D00003D0092B01D0162B07D17E4B9DF87020EB
:1056E00018780023009301230EE01A2B05D0082B15
:1056F00003D00A2B01D0172B0BD1764B9DF87020CD
:1057000018780023009302230193394619AB00F067
:1057100021F96F4B1B78192B05D0072B03D0092BD0
:1057200001D0162B18D16B4BAAF1300A303D4FEA4D
:10573000CA0A18784AEA8501012300930193224698
:1057400008ABC9B200F0B2FA614B1A78162A00F021
:10575000BB801422FFF71FB91A2B06D0082B04D0E8
:105760000A2B02D0172B40F0AF805A4BAAF1300A17
:10577000303D4FEACA0A18784FF0020E01234AEA78
:1057800085018DE80840224608ABC9B200F08EFAC8
:105790004F4B1A78172A00F097801522FFF7FBB8B5
:1057A0004D4821461222FDF70EFF00283BD0113450
:1057B000204648490DF17702FDF7D0FE9DF877307D
:1057C0001BA9E418013420460DF17702FDF7C6FE4F
:1057D0003F4B1B781F2B05D0242B03D0262B01D049
:1057E000142B0CD13B4B0122187834211B9B0092C7
:1057F000019200F0AFF81422354B1A705DE0202BB7
:1058000005D0252B03D0272B01D0152B55D1314B9B
:105810000122187802238DE80C0034211B9B00F034
:1058200099F81522E8E72D4821460D22FDF7CBFE19
:1058300018B11822264BFFF7AEB829482146152289
:10584000FDF7C1FE50B1224B18221A7007F020FC60
:10585000244A00231380244A138035E0234821463C
:105860000E22FDF7B0FE98B1DA4509D0204A214B4F
:1058700050885988884203D092889B889A4223D1C5
:105880001D4A00231370124A13701C4A13701BE048
:105890001B4821460E22FDF796FE08B10B22C9E7F0
:1058A000184821461122FDF78EFE30B1084B164AEA
:1058B000197811700C22FFF76EB801340136134AC3
:1058C00013889E42FEF49AAF1FB0BDE8F08F00BF70
:1058D0005E0E00105064001093F90100A5F901005C
:1058E000B2F901001C64001030570010C7F9010024
:1058F00020010010D66A0010E80E0010B2680010F7
:10590000D5F90100E3F90100460E0010D46C001037
:1059100000231A460D48194603E020F81210013200
:10592000D2B2032AF9D10133052BFCD109E020F8CA
:1059300012100132D2B2022AF9D10133052BFCD167
:10594000704700231A4602481946F4E7641E001007
:105950000C6900102DE9F74F9DF834800546B8F129
:10596000010F0E4614461F469DF830A040F0BE8041
:10597000AB4B1A78AB4B1B78D3185A2B00F39081A2
:10598000FC2838D1A84B1D7835B90BE05A5D01329F
:10599000551905F0FF0500E000256A1C9A5C0AB164
:1059A000312DF3D9A31D5B19312BDFF87C821EDC6E
:1059B0006B1CDBB2FC2208F8032002215A1C08F8F9
:1059C000021044EACA1A5A1808F802605FFA8AFA02
:1059D000DA1C08F802A00433002204E0B85C99182D
:1059E00008F801000132A2428F49F7D3C0E0042039
:1059F000FC210122C9E000913A462346414604F0C9
:105A00000FF98A4B05F1FF3913F809200AB903F899
:105A10000980874B13F80930012B18D1854B864A32
:105A20001D70322303FB09F34FF00008D11806E084
:105A300003EB0800105C0130804408F0FF0801EB24
:105A40000800407828B1B8F1310FF1D901E04FF0EA
:105A50000008774B012203F80920322303FB09F3E6
:105A600008EB0201744AC9B25818D3185B181554D0
:105A70004FF0020E9E7044EACA1683F801E0DE7011
:105A80001218002303E0FE5CD01806710133A34214
:105A9000694E4FF0320BF6D3E21C8A18013D0BFB26
:105AA0000560D2B20F1D02F049F80BFB09FB3F194C
:105AB0000BEB070306EB0B02F054FF21D319C34491
:105AC00006345970023706F80B4000235B4902E0A8
:105AD000D05C58540133BB42FAD3BAF1000F00F046
:105AE000DF80534B002203F80920D9E0B8F1020F00
:105AF00040F0D6804A4B1A784A4B1B78D3185A2B61
:105B000000F3CE80FC2846D14D4B1D7835B90BE013
:105B10005A5D0132551905F0FF0500E000256A1CA9
:105B20009A5C0AB1312DF3D9A31D5B19312BDFF833
:105B3000108127DC6B1CDBB2FC2208F80320022159
:105B40005A1C08F8021044EACA1A5A1808F80260E7
:105B50005FFA8AFADA1C08F802A00433002204E093
:105B6000B85C991808F801000132A2423449F7D311
:105B70001B1900220634CA54E4B20133FF22CA546E
:105B80004C558DE00420FC21022205F0ADFD0023E0
:105B900008F8053084E000913A464146234604F077
:105BA0003FF8284B05F1FF3813F8082012B90122FD
:105BB00003F80820244B4FF0000913F80830012B9C
:105BC00014D107E003EB0900105C0130814409F0B7
:105BD000FF0904E0322303FB08F31C4AD11801EB50
:105BE0000900407810B1B9F1310FEBD9164B012201
:105BF00003F80820322303FB08F309EB0201134AE0
:105C0000C9B25818D3185B1815544FF0020E9E7085
:105C100044EACA1683F801E0DE70121800231BE084
:105C2000AB6500108C740010301E0010390C001091
:105C3000280800107C7B0010881E0010497B001093
:105C4000F71D0010BC6600109674001000C00720FD
:105C5000FE5CD01806710133A3424FF0320B114E97
:105C6000F6D3E21C8A18013D0BFB0560D2B20F1D72
:105C700001F064FF0BFB08FB3F190BEB0703F0542B
:105C800006EB0B03DF19CB44FF2306347B7006F8C9
:105C90000B40BAF1000F03D0034B002203F8082099
:105CA000BDE8FE8F00C00720967400102DE9F04F6C
:105CB0008FB014469DF864200546012A1F469DF8C2
:105CC00060608DF80F1040F0E080B64B1978B64B4D
:105CD0001B78CB185A2B00F3D481FC2842D1B34B4C
:105CE0001D7835B90BE05A5D0132551905F0FF05F5
:105CF00000E000256A1C9A5C0AB1312DF3D904F149
:105D000008035B19312BDFF8A48227DC6B1CDBB2A4
:105D1000FC2208F8032002215A1C08F802105A1825
:105D2000302108F80210A11C41EAC616DA1CF6B2AE
:105D30009DF80F1008F802601A1D08F802105A1D8D
:105D400008F802400633002204E0B85C991808F80D
:105D500001000132A2429549F7D3E1E00420FC2181
:105D60000122EAE00DF10F0105A807F01FFF3946F7
:105D70000023013311F8010B05AA232B9854F8D105
:105D80003023009328462346012103F049FF884B26
:105D900005F1FF3813F8082012B9012203F8082092
:105DA000844B4FF0000913F80830012B14D107E0A1
:105DB00003EB0900105C0130814409F0FF0904E0A5
:105DC000322303FB08F37C4AD11801EB0900407829
:105DD00010B1B9F1310FEBD9764B012203F808204D
:105DE000322303FB08F309EB0201734AC9B25818C6
:105DF000D3185B184FF0020E155483F801E04FF0F2
:105E0000300E83F802E004F1020E4EEAC61E83F85B
:105E100003E09DF80FE05C7183F804E012180023A2
:105E200005E017F803E0D01880F806E00133A3423C
:105E3000DFF884A14FF0320BF3D3621D8A18013DC5
:105E40000BFB05A0D2B28F1D01F078FE0BFB08FB07
:105E50003F190BEB07030AEB0B020AF80300FF21C3
:105E6000D319CB440834597002370AF80B40002389
:105E7000524902E0D05C58540133BB42FAD3002EA1
:105E800000F0FF8000224B4BF9E0022A40F0F9803D
:105E9000444B1A78444B1B78D3185A2B00F3F180EB
:105EA000FC2850D1464B1D7835B90BE05A5D0132C4
:105EB000551905F0FF0500E000256A1C9A5C0AB13F
:105EC000312DF3D904F108035B19312BDFF8F08091
:105ED00030DC6B1CDBB2FC2208F8032002215A1CC8
:105EE00008F802105A18302108F80210A11C41EAE3
:105EF000C616DA1CF6B29DF80F1008F802601A1DDB
:105F000008F802105A1D08F802400633002204E087
:105F1000B85C991808F801000132A2422849F7D369
:105F20001B1900220834CA54E4B20133FF22CA54B8
:105F30004C55A6E00420FC21022205F0D5FB0023ED
:105F400008F805309DE00DF10F0105A8012207F0CA
:105F50002DFE39460023013311F8010B05AA232B2E
:105F60009854F8D13023009328462346022103F0A9
:105F700057FE144B05F1FF3813F8082012B901221F
:105F800003F80820104B4FF0000913F80830012BDC
:105F900028D11BE003EB0900105C0130814409F0BB
:105FA000FF0918E0AB6500108C740010301E001063
:105FB000390C001028080010881E0010497B0010C2
:105FC000F71D0010BC66001096740010322303FB0E
:105FD00008F32D4AD11801EB0900407810B1B9F14E
:105FE000310FD7D9294B012203F80820322303FBB4
:105FF00008F309EB0201244AC9B25818D3185B18F8
:106000004FF0020E155483F801E04FF0300E83F884
:1060100002E004F1020E4EEAC61E83F803E09DF88A
:106020000FE05C7183F804E01218002305E017F814
:1060300003E0D01880F806E00133A3424FF0320BA2
:10604000DFF844A0F3D3621D8A18013D0BFB05A0C5
:10605000D2B28F1D01F072FD0BFB08FB3F190BEB59
:1060600007030AF803000AEB0B03DF19CB44FF23F5
:1060700008347B700AF80B401EB1044B002203F871
:1060800008200FB0BDE8F08F00C007209674001004
:10609000012A30B516D1184C431EE55C05B9E2540F
:1060A000164A174C117032225A430325A318587010
:1060B0006840D97041401971FF219D7059710523C5
:1060C000A35430BD022A16D10E4A431ED45C0CB92B
:1060D0000124D454094A0C4C117032225A4303252E
:1060E000A31858706840D97041401971FF219D7004
:1060F00059710523A35430BD390C00103113001021
:10610000881E0010BC66001000C00720F8B59DF87E
:1061100020600446012E0D469DF818009DF81C10C5
:1061200067D8012C20D1FC2D28D0684E3470684EE1
:106130003678092E14D11B01664E43F00103DBB201
:1061400035707470B370F270307105227171304621
:10615000002101F0F3FCFF23B071F371002066E031
:106160005D4B1D705D4B6BE0022C05D0042C03D001
:10617000FC2D40F0AA8001E0FC2D03D1534EFC27FA
:10618000377003E0514E3470554E3270504E3678B1
:10619000092E40F09A804F4E44EA0313DBB20127E8
:1061A00035707770B370F2703071052271713046BE
:1061B000002101F0C3FCFF23B0710020F37101F056
:1061C000B3FA022C03D1474B00221A6001E0042CE1
:1061D00001D0FC2D79D1444A424B0A201A603B4A37
:1061E000002313703E4A137004F001FB0722384B62
:1061F00026E0012C26D1FC2D2DD03C4E34703C4E97
:106200003678092E19D11B013A4E43F00103DBB257
:1062100035707470B370F270307105227171304650
:10622000002101F08BFCFF23B071F371022001F01B
:106230007BFA314B00221A60F8BD304B1D70304B99
:106240001A70F8BD022C04D0042C02D0FC2D3CD1D5
:1062500001E0FC2D03D1254EFC27377003E0234ECF
:106260003470284E3270224E3678092E2DD1214EB0
:1062700044EA0313DBB2012735707770B370F27014
:106280003071052271713046002101F057FCFF2367
:10629000B0710220F37101F047FA022C03D1114BC7
:1062A00000221A6001E0042C01D0FC2D0DD10E4A11
:1062B0000C4B0A201A600D4A00231370114A137008
:1062C00004F095FA0A4B07221A70F8BD40640010DA
:1062D00030590010D5000010487B001054110010F8
:1062E00098750010B466001000A60E000A07001092
:1062F0005511001018100010B866001004070010A7
:10630000FA0600100E070010012938B50D4626D1F7
:10631000294B421E33F81230DA0712D5274B197871
:1063200079B9274B1B7863B1264C042320702A4689
:106330006370204601F002FCFF23A070E370284642
:1063400035E0214C04232070002163702046012297
:1063500001F0F4FBFF23A070E370002027E0022986
:1063600029D11A4B421E33F81230DB0712D5184BD5
:10637000197879B9174B1B7863B1174C0423207037
:1063800001226370204601F0D9FBFF23A070E37067
:1063900003200CE0114C0423207000216370204680
:1063A000012201F0CBFBFF23A070E3700220BDE8C7
:1063B000384001F0B9B938BD8E720010590E001086
:1063C000600E0010AA0E0010D50000103457001007
:1063D00030640010360C0010780E001018100010F9
:1063E0002DE9F04F04780023C9B0012A054616466E
:1063F0008DF818318DF819318DF81A318DF81C315E
:106400008DF81D318DF81E3190F8018004F1FF37B1
:106410002FD8A54BDB5D98070DD5A449622091F8D4
:10642000282091F8243091F8201000910121019149
:10643000214607F0BBF89C4B9D49DA5D4FF0FA0C02
:1064400002F0FD02DA5500220CFB027031F8103028
:10645000013223F004031B041B0C052A21F8103021
:10646000F2D1944B944A1B780021013BD154934BB9
:106470002EE0934BDB5D99070DD58C49622091F896
:10648000282091F8243091F82010009102210191E8
:10649000214607F08BF88A4B8A49DA5D4FF0FA0CF7
:1064A00002F0FD02DA5500220CFB027031F81030C8
:1064B000013223F004031B041B0C052A21F81030C1
:1064C000F2D1814B814A1B780021013BD154804B92
:1064D0001A780132D2B21A704FEA18130F2B00F05B
:1064E000E38708F00F00042840F02184AF783909D1
:1064F00007F00F07BB1EDBB2012B079137D8012E27
:106500004FF0000304F1FF3813D8724ADFF8989176
:1065100002F8083019F808305A0740F186806349BC
:1065200091F8282091F8243091F820100091012151
:1065300011E0694ADFF8889102F8083019F808304C
:106540005B0772D5594991F8282091F8243091F8C9
:1065500020100091022101916420214607F026F8C5
:1065600019F8083003F0FB0309F808305DE0012F4B
:1065700009D1012E98BF3946204688BF0221079ACB
:1065800003F014FD51E0012E04F1FF3723D8514BE5
:10659000DA5D092A48D8DA5D0132D2B2DA55DB5D1C
:1065A000092B41D9404BDB5D58070DD43F490320EF
:1065B00091F8282091F8243091F8201000910121C1
:1065C0000191214606F0F2FF03202146012205F049
:1065D0008BF8354B22E0404BDA5D092A24D8DA5D8E
:1065E0000132D2B2DA55DB5D092B1DD9344BDB5DAC
:1065F00059070DD42D49032091F8282091F8243013
:1066000091F82010009102210191214606F0CEFF61
:1066100003202146022205F067F8294BDA5D42F09B
:106620000402DA55042700E00746079A0A2A40F0D8
:1066300058812A4A631ED15C0A2918BF0427012EFB
:1066400002D80798D05402E0254A0799D154631E16
:106650004FF0000C9BB20A2230463946CDF800C0FC
:10666000CDF818C006F088FD95F90430DDF818C0A3
:10667000002B80F23F811B4B95F803A0DFF868B038
:1066800009930DF13409CDF820C04FF005080B97A0
:10669000089BDBB20A932B7903F07F033C2B00F3BA
:1066A0000E814FF000082DE01E0F00100040024048
:1066B000545A0010260100103E0D00103D590010E4
:1066C000595900103213001023640010B8670010ED
:1066D000280C0010230900101E070010FD1C0010DC
:1066E0005A1000100C690010641E001005EB08031E
:1066F000DFF8A0E25A790EEB080308F101085A709E
:106700005FFA88F82B7903F07F039845EEDBA04908
:10671000A0480B7880F800801D2B01D0222B02D1DD
:106720009D4B01221A70BBF800303BB9BBF8023018
:1067300023B9BBF80430002B00F0B380099A13880A
:106740001BB95388002B00F0AC80204647A90A22D1
:1067500007F088FF9DF81C313BB930238DF81C31C0
:106760008DF81D318DF81E3114E09DF81D213AB9C8
:106770008DF81E3130238DF81C318DF81D3109E064
:106780009DF81E1131B98DF81D3130238DF81E2171
:106790008DF81C31814B9DF81C111A88804B89F8AB
:1067A00004109DF81D111A80022389F8003089F821
:1067B000051030239DF81E11312289F8023005237F
:1067C000012E89F8012089F8033089F8061089F82C
:1067D000073002D889F8082002E0322289F809201F
:1067E0002879DDF820E048A989F80A302D2303FB39
:1067F0000E1300F07F004FF000082E2111E005EB92
:10680000080252792C2A0CBF03EB080203EB08079D
:1068100008F101080CBF02F8E21C07F8E22C5FFA4D
:1068200088F88045EBDB089A2D230DF5907E03FB5D
:1068300002E30322434403F8E22C08F1040205EBCF
:1068400008030021D2B228465F7901F077F9874228
:1068500023D10A9B534F59463B700622524807F0FA
:10686000A5F904225148099907F0A0F9504A3B784C
:10687000D35C5BB908F10B01C9B248460692059397
:1068800004F0AAFB3978069A059B535408F10B01D2
:10689000C9B2484604F0A0FB03E0464B1A68013237
:1068A0001A60089B0BF1060B01330893099B09F151
:1068B0002D0904330993089B052B7FF4E9AE384B6F
:1068C00050221A803C49062237480B9F4FF000099E
:1068D00007F06CF935483949042207F067F9CB46CF
:1068E0000DE095F803A095F804B095F805904FF0E9
:1068F000020804E04FF00508E146E346E24605EBF6
:1069000008031B7908F1030800215FFA88F2284682
:10691000059301F013F9059B834240F00382012E99
:1069200004F1FF3307D8264ADDF81CE0D35C9E450E
:1069300018BF042705E0234A0798D35C984218BF84
:106940000427631E9BB230463946079ACDF800A053
:1069500006F012FC1C4B012E1B6800F2F7809C42D3
:106960003FD11A4B1A784A451A46194B02D1197869
:10697000594536D083F800B0054B82F800901B785B
:10698000192B01D0072B25D10122034B28E000BF92
:106990005E0E00106E650010FB0600104C640010C7
:1069A000861E001000070010541000103264001002
:1069B0001E640010080100104E100010F6060010B2
:1069C000FD1C00105A1000105064001048640010A4
:1069D000400E00101A2B01D0082B02D1A74B012228
:1069E0001A70A74AA748631E32F8131030F8130034
:1069F000414011F47F4F00F0578532F8133003F413
:106A00007F43002B00F050859F4EA04F0DAD4FF0FF
:106A1000000833882BB973881BB9B388002B00F0AA
:106A200089803B881BB97B88002B00F0838020463F
:106A300047A90A2207F016FE9DF81C313BB9302306
:106A40008DF81C318DF81D318DF81E3114E09DF844
:106A50001D213AB98DF81E3130238DF81C318DF887
:106A60001D3109E09DF81E1131B98DF81D3130231B
:106A70008DF81E218DF81C318549864A0B88DDF87A
:106A80001CE013809DF81C210223EA709DF81D2153
:106A90002B702A7136239DF81E216B700523AB7075
:106AA0006A71AB7131222B720EF13003EA716B7295
:106AB0000AF130022C23BAF1020FAB72EA722B7387
:106AC00001D156230FE0BAF1010F01D12B230AE0C7
:106AD000BAF1080F01D12D2305E0BAF1040F01D15D
:106AE000462300E03F23DFF8D0916B730323AB73A1
:106AF0003146062289F80080674807F057F80422DB
:106B00006648394607F052F8654B99F8002013F8AB
:106B100002B0BBF1000F09D128460F21059304F004
:106B20005BFA99F80020059B03F802B028460F2174
:106B300004F052FA08F101085FFA88F806360437C3
:106B40002D35B8F1050F7FF464AF7BE29C4215D17F
:106B5000544B1A784A451A46534B02D11978594575
:106B60000CD083F800B0514B82F800901B781A2BA0
:106B700001D0082B02D1414B01221A704C4A4D48DA
:106B8000631E32F8131030F81300414011F47F4FA8
:106B900000F08A8432F8133003F47F43002B00F0B6
:106BA0008384394E394F0DAD4FF0000833882BB92F
:106BB00073881BB9B388002B00F0A8803B881BB9F1
:106BC0007B88002B00F0A280204647A90A2207F00C
:106BD00049FD9DF81C313BB930238DF81C318DF8EF
:106BE0001D318DF81E3114E09DF81D213AB98DF844
:106BF0001E3130238DF81C318DF81D3109E09DF8D0
:106C00001E1131B98DF81D3130238DF81E218DF8FC
:106C10001C319DF81C211E48EA709DF81D21038837
:106C20001C492A719DF81E210B806A7102233222B1
:106C30002B70EA713623079A6B700523AB70AB712A
:106C40002B7202F130036B720AF130022C23BAF17D
:106C5000020FAB72EA722B7301D156232FE0BAF107
:106C6000010F01D12B232AE0BAF1080F01D12D2306
:106C700025E0BAF1040F21D1462320E09C0000104A
:106C8000DC6A00108E720010641E00100C69001087
:106C90004C640010861E0010541000103264001066
:106CA0001E64001048640010400E00105E0E0010BC
:106CB0001E0A001034570010000700103F23DFF8B1
:106CC00020936B730323AB733146062289F800804F
:106CD000B64806F06BFF0422B548394606F066FF59
:106CE000B44B99F8002013F802B0BBF1000F09D1A2
:106CF00028460F21059304F06FF999F80020059BB1
:106D000003F802B028460F2104F066F908F10108E3
:106D10005FFA88F8063604372D35B8F1050F7FF491
:106D200045AF8FE1A44B1A6801321A60BCE3032817
:106D300040F0FD81012E36D8A048A14A0378D3182F
:106D400013F8013C002B67D003783222013B5343F8
:106D50009C49CE5C00236FEA060C0CF1310C013625
:106D600098461AE090F8009090F800A0F7180AF101
:106D7000FF3A02FB0A7A09F1FF3902FB093911F8DF
:106D80000AA0013301F809A090F80090DBB209F1E4
:106D9000FF3902FB097701F807806345E2DD874B85
:106DA000874A1B7834E08848884A0378D31813F858
:106DB000013C8BB303783222013B53438449CE5CC0
:106DC00000236FEA060C0CF1310C013698461AE0EC
:106DD00090F8009090F800A0F7180AF1FF3A02FB33
:106DE0000A7A09F1FF3902FB093911F80AA00133C7
:106DF00001F809A090F80090DBB209F1FF3902FB1D
:106E0000097701F807806345E2DD6F4B6F4A1B7815
:106E1000D318012203F8012C6E4E3178002900F0BE
:106E20001F816D4B01391A886C4B4FF006081A8090
:106E30006B4B424619706B4B5C4808FB013106F006
:106E4000B5FE3178684B013903EB810104225848C3
:106E500006F0ACFE33780DF5907E013B2D2707FB45
:106E600003E3022203F8EC2C4FF00509382203F863
:106E7000EB2C03F8EA9C0A22204646A907F0F2FB15
:106E80009DF81A219DF81931CAB99DF818215BB1F6
:106E90002AB3317848A8013907FB0107C84607F82B
:106EA000E92C07F8E83C1CE0CAB1337848A9013B5B
:106EB00007FB03174FF0040807F8E92C11E073B142
:106EC0009DF8181159B1307848AC013807FB0047DC
:106ED00007F8E91C07F8E83C07F8E72C01E04FF059
:106EE00003083C4F2D263B780DF5907E013B06FBB9
:106EF00003E30522434408F101044FF0000803F8BE
:106F0000EC2C8DF818818DF819818DF81A8105EB1C
:106F10000803987846A90A2207F0A4FB9DF81A11E5
:106F20009DF81931D1B99DF8182163B14AB3397868
:106F300048A8013906FB0101091901F8EC2C01F8F8
:106F4000EB3C02341CE0E2B13B7848A9013B06FB74
:106F500003131B1903F8EC2C013411E08BB19DF8DD
:106F6000180170B13A780DF5907E013A06FB02E205
:106F7000121902F8EC0C02F8EB3C02F8EA1C03349C
:106F8000E4B200238DF818318DF819318DF81A31DB
:106F90005FFA88F3052B3B7803F1FF3326D048A82E
:106FA00006FB03032C221B1925E000BF5410001020
:106FB000326400101E640010080100102601001049
:106FC000390C0010881E001023640010BC660010ED
:106FD00000C00720957400104C640010861E00103D
:106FE00000070010641E00100C69001048A906FB81
:106FF000031303221B1908F101080134B8F1060F2D
:1070000003F8EC2CE4B282D1A44FA54D3B78EE5CA2
:107010005EB9A44B0DAA18782D23013803FB00207C
:10702000214603F0D9FF3B78EE549E4D2D2328785E
:107030000DF1340E013803FB00E0214603F0CCFFD4
:1070400000232B70984B50221A80984906229848AA
:1070500006F0ACFD97490422974806F0A7FD23E20D
:10706000964B1B78032B1FD1AA789549954806F0BB
:10707000EDFDEB782A7994481A43944906F0E6FD31
:10708000934B1B78192B01D01F2B02D120460621D0
:1070900021E01A2B02D0202B40F006822046062148
:1070A0000222FEF7F5FFFFE1062B1CD1AB78EA7850
:1070B00088481A432B7988491A436B791A4306F09A
:1070C000C5FD834B1B78192B28D01A2B2CD01F2BD6
:1070D00003D1204630210122E3E7202B40F0E48158
:1070E00020463021DCE7302B40F0DE81AA787B4956
:1070F0007B4806F0ABFDEA7878497A4806F0A6FDB1
:107100002A797949794806F0A1FDAA797848734926
:1071100006F09CFD6E4B1B781F2B02D10122754B94
:1071200087E1202B40F0C0810122734B81E10228CE
:107130006FD1012E34D87148714A0378D31813F8EF
:10714000013C002B00F0B08103783222013B534315
:107150006C49CC5C0023E743313701341E4619E00B
:1071600090F800C090F80080E51808F1FF3802FBA5
:1071700008580CF1FF3C02FB0C3C11F8088001336D
:1071800001F80C8090F800C0DBB20CF1FF3C02FB70
:107190000C554E55BB42E3DD584B594A1B7833E042
:1071A00059485A4A0378D31813F8013C002B00F0D1
:1071B0007B8103783222013B53435549CC5C002349
:1071C000E743313701341E4619E090F800C090F8CB
:1071D0000080E51808F1FF3802FB08580CF1FF3C6D
:1071E00002FB0C3C11F80880013301F80C8090F888
:1071F00000C0DBB20CF1FF3C02FB0C554E55BB420C
:10720000E3DD414B414A1B78D318012203F8012CDE
:107210004AE1012840F04881012E00F2B0803D4A49
:107220001278092A40F04081012B40F02C813A4B22
:107230001B78022B05D1394BA9781C80384A631E74
:10724000ADE0012B40F03081364B4FF47A721A607A
:10725000354B1F88002F40F08680344B30491A7818
:107260001F70013A324B8F541F702B4AAB78013C90
:107270000B551770E620FA2203F000F82D493A4624
:107280002D4B02E0DA550137FFB208788742F9D377
:1072900000232A4C18462A4957E000BF0007001077
:1072A0001E64001095740010861E00104E10001011
:1072B00054100010F6060010326400103113001054
:1072C00080F70100827400106E64001047A1020074
:1072D0005E0E0010546400104CA1020051A1020087
:1072E000DD0E00105A0E001056A102004A0E0010CA
:1072F00014010010FB0600109C0000102601001075
:10730000390C0010881E001023640010BC660010A9
:1073100000C007203059001040640010CC6A0010F3
:10732000FD1C0010B8660010F4060010487B001029
:10733000541100108C72001056110010470E0010EE
:10734000AF650010C8540133DBB2227893424FF08E
:107350000002F7D3564B1A70564B1A7005F0CAFE4E
:107360000722554B65E0554A1188554A12889142CB
:1073700076D900211980534B1970534B66E0534A5C
:107380001278092A40F09080012B7CD1504B1B7859
:10739000022B13D14A4BA9784E4A1C80631ED1544C
:1073A000002C00F0818001340021E2B2022004238D
:1073B000009101910296FEF7A9FE75E0012B73D1B1
:1073C000454B4FF47A721A60444B1F88002F32D11C
:1073D000434B40491A781F70013A424B8F541F703B
:1073E0003B4AAB78013C0B5517704FF48770FA227B
:1073F00002F044FF2F493A463B4B02E0DA55013791
:10740000FFB208788742F9D30023294C1846374940
:1074100002E0C8540133DBB2227893424FF00002FD
:10742000F7D3234B1A70234B1A7005F063FE274BDA
:1074300007221A7038E0214A1188214A12889142A5
:107440000ED900211980264B1970264B1970284B34
:1074500002201A780423009101910296FEF756FE4D
:10746000164C174B21881B888B421DD30022042306
:10747000C9B20120009201920296FEF747FE2388CE
:107480000133238010E0022B0ED1144B0022188010
:10749000174B21461C800423009201920296FEF7AE
:1074A00035FE064B01341C8049B0BDE8F08F00BFAB
:1074B000470E00108C720010305900100C0700109D
:1074C000CC6A0010487B00105411001055110010B8
:1074D0000A0700105A100010B8660010F4060010D9
:1074E00004070010FA06001056110010AF650010D6
:1074F0001E0800104209012300F01F0013FA00F0DB
:10750000014B43F82200704700E100E000284FEAF9
:10751000C10106DA064B00F00F00C9B2C318197694
:107520007047044BC9B2C31883F80013704700BFFB
:10753000FCEC00E000E100E00346002010B502464C
:1075400003E09C5C0132604092B28A42F9D910BDDE
:1075500010B500282FD16D4B10211A6822F0F002CF
:107560001A601A6842F050021A601A6822F44062E7
:107570001A60674B1A6842F020021A60654B83223A
:10758000D3F8A831644B1A73032218711A7083F868
:1075900028101A7307221A721A7D1A7D5E4C520641
:1075A000FBD5237B052043F038032373FFF7A2FFAD
:1075B00005200021A1E0012836D1544B10211A6882
:1075C00022F00F021A601A6842F00A021A601A6862
:1075D00022F440721A604E4B1A6842F010021A6090
:1075E0004C4BD3F8C42042F00072C3F8C420D3F847
:1075F000AC314A4B83221A7300221A7103221A708B
:1076000083F828101A7307221A721A7D1A7D434CC8
:107610005006FBD5237B082043F038032373FFF784
:1076200069FF0820032168E002282FD1374B102181
:107630001A6922F00F021A611A6942F00A021A61ED
:107640001A6822F440421A60314B1A6842F08002F4
:107650001A60304B8322D3F8A831314B1A730022C1
:107660001A7103221A7099621A7307221A721A7D0C
:107670001A7D2B4C5106FBD5237B062043F03803A3
:107680002373FFF737FF0620012136E003283AD1A4
:107690001E4B1A6822F470021A601A6842F4A002A3
:1076A0001A601A6822F440521A60194B1A6842F0A4
:1076B00040021A60174BD3F8C42042F08072C3F81E
:1076C000C420D3F8AC31174B83221A7300221A71ED
:1076D0001022187083F82820072218731A721A7D56
:1076E0001A7D104C5206FBD5237B072043F038034C
:1076F0002373FFF7FFFE07200221FFF707FF072391
:107700006360012010BD002010BD00BF00C002401A
:1077100000C0092000C00F4000C0004000C0094068
:10772000000001400080094010B5034600287FD1C9
:107730008C4A012010708C4A13608C4A1178091809
:10774000C9B211701178642902D9137004F0AAFE2D
:10775000874B1A7D1A46117D854B4C06FBD5854A11
:1077600000211170844A854C116012680120A25CCE
:107770001A701A7B02F0EF021A731A7B42F00802A9
:107780001A7306F02BF86378012B01D1082206E06A
:107790006378022B06D1E27802F07F020632784B42
:1077A0001A7009E06378032B01D10522F7E76378AB
:1077B000042B04BF724A1370724B1A78DAB1092A8B
:1077C00014BF01220A221A706F4B1B784BB96F4B02
:1077D0001B7833B9684B69491A681B68C95C6C4BE4
:1077E0009954654B65481968002242541968013163
:1077F0001960684B1A70634A1378002B40F07D8142
:10780000032111705C4A1360634B1A7D1A7D624C30
:107810005006FBD5012005F0E1FF237B5D4A43F0D4
:107820003803237300231370534A544912680CE140
:10783000012852D1594A5A4B107000221A604B4B02
:1078400059780131C9B259705978642903D95A70ED
:10785000022004F027FE504B1A7D1A46117D4E4B34
:107860004906FBD5434A012010704E4A00211160A1
:107870001268474CA25C1A701A7B02F0EF021A736E
:107880001A7B42F008021A7305F0A8FF6378012BF7
:1078900001D1082206E06378022B06D1E27802F0DB
:1078A0007F020632404B1A7009E06378032B01D146
:1078B0000522F7E76378042B04BF3B4A13703B4B68
:1078C00000221A70374B3248196842541A68013244
:1078D0001A602C4B06221A7010BD022840F0B780A7
:1078E000334B01221A70334B00221A601F4B9978D8
:1078F0000131C9B299709978642903D99A7003202B
:1079000004F0D0FD2C4B1A7D1A46117D2A4B4C06F3
:10791000FBD52A4A02201070294A00211160126802
:10792000284CA25C1A701A7B02F0EF021A731A7BC1
:1079300042F008021A7305F051FF6378012B01D160
:10794000082206E06378022B06D1E27802F07F027B
:1079500006321D4B1A703EE06378032B36D10522A8
:10796000F7E700BFB3680010E40E0010340D0010FC
:1079700000C000407800001088000010D500001002
:107980003C59001030590010590E0010600E0010C4
:10799000AA0E00100000001000C009402D59001070
:1079A0002408001084000010370C001001000010A3
:1079B000D40000108874001000000140790000100D
:1079C0007C00001018100010CF6A00106378042BA0
:1079D00004BF4A4A13704A4B1A78DAB1092A14BF15
:1079E00001220A221A70474B1B784BB9464B1B7871
:1079F00033B9464B46491A681B68C95C454B9954D4
:107A0000424B4348196800224254196801311960F9
:107A1000414B1A703A4A1378002B6ED10321117032
:107A20003A4A13603D4B1A7D1A7D3C4C5006FBD5FB
:107A3000022005F0D3FE237B374A43F0380323733B
:107A400000231370314A324912688B5410BD032849
:107A500053D1334B01221A70324B00221A60324B41
:107A6000D9780131C9B2D970D978642903D9DA70CB
:107A7000042004F017FD294B1A7D1A46117D274B6F
:107A80004906FBD5294A03211170294A00211160BA
:107A90001268204C0220A25C1A701A7B02F0EF02DE
:107AA0001A731A7B42F008021A7305F097FE637886
:107AB000012B01D1082206E06378022B06D1E2787F
:107AC00002F07F0206321B4B1A7009E06378032B29
:107AD00001D10522F7E76378042B04BF154A137020
:107AE000154B00221A70124B0A48196842541A6842
:107AF00001321A60024B06221A7010BDCF6A0010C4
:107B00005511001030640010360C00107C0000107D
:107B100018100010780E00100200001000800940BC
:107B2000821E001024640010340D00107900001033
:107B3000800000103257001003000010034610B5FB
:107B4000002003E05C5C0131604089B29142F9D9C8
:107B500010BD00007FB5914C2378072B29D1904BA5
:107B60001B78072B40F0998205F052FA8D4B1B7859
:107B70002BB12378092B02D0082323708DE28A4A87
:107B800013783BB10023894913701A46CA54013354
:107B9000322BFBD1854B1B7813B1834B01221A701A
:107BA000834B00201870834BFE221A707B4B187099
:107BB00023E2052B5ED17A4B1B78052B06D0072BD1
:107BC00004D07D4B1B789B0740F16782784B1B7874
:107BD000E3B97A4B19781A4649B9794B197831B11A
:107BE0001978042903D81A780132D2B205E0127844
:107BF0002AB9734B1978042901D91A7006E06F4B22
:107C00001B78012B02D1022004F0BEFC684C6D4EA3
:107C100023782546F35C13B12378FA2B11D105F0B4
:107C2000D9FA00232B705D4B07221A70634B1B7827
:107C3000002B40F03282624B1A78002A40F02D82ED
:107C400041E1614D01212878584A02F0C5F82378B6
:107C50000121F35C2B7023780133DBB22370564B88
:107C60001A7842F001021A70287804B0BDE870401A
:107C7000FEF74ABB022B40F08281544B1B68642BF9
:107C800040F20B82524B534A1968914202D81A684B
:107C9000013200E000221A60404B05221A700120D8
:107CA00005F0D4FD012005F0AFFD474B4A4A197895
:107CB0000139515C09292BD819780139505C013000
:107CC000C0B2505419780139525C092A20D91A7867
:107CD0004249013A8A5C90070DD44148197890F8DE
:107CE000282090F8243090F8200000900120019086
:107CF000022005F05BFC344C01222178022003F0C5
:107D0000F3FC2378354A013BD15C41F00201D154A8
:107D10002D4A344B1178591811F8011C00292DD027
:107D2000117812780139585C013058549B1813F8B7
:107D3000013C052B22D92C4B264A1968914203D8C5
:107D40001A6801321A6000E01B681F4C0620217877
:107D5000012203F0C9FC0023244832211A46257869
:107D6000013D01FB05350133322B4255F7D1164B4E
:107D70001C4A1B78D318002203F8012C0A4B1B78ED
:107D8000002B00F08A811A4A1378052B34D9034B53
:107D900005211970174900230B6074E03059001059
:107DA000551100104064001021690010301E0010B1
:107DB00084720010D50000103A640010590E0010B3
:107DC000600E00105611001026010010AC66001065
:107DD00028590010FEFFFF003E0D00101E0F00107E
:107DE00000400240390C0010C86A0010881E0010C4
:107DF000450E00107C000010904A914B117801391B
:107E000033F81110C90763D48E4B1A7812B18E4A19
:107E100012781A701B7863B9022415E0D2B20D5D96
:107E20002D19AA4202F10102F8DB0133D4B2DBB210
:107E300003E00023834885491C460278934201D21F
:107E40002246ECE70234E4B27C4B814A1B78A51E43
:107E50001370EDB201237D4804E0015D0134D1547B
:107E6000E4B20133465DD9B27619B44202DC312C5A
:107E7000F3D901E0312C0CD9764B05221A70764AE1
:107E800000231360754A13706F4A13706D4A1370A4
:107E900003E16F4D8E1E0339C9B22846FFF74CFB34
:107EA000684BA8551978684A013411701A78013264
:107EB000D2B21A70654A125D0AB90A221A700020FD
:107EC000FFF732FC654B1A780132D2B21A70E4E047
:107ED0001278013A33F81230DB0740F1DE80594B5B
:107EE0001A7812B1584A12781A701B7863B90224B2
:107EF00015E0D2B20D5D2D19AA4202F10102F8DBA4
:107F00000133D4B2DBB203E000234E484F491C4694
:107F10000278934201D22246ECE70234E4B2474BA6
:107F20004F4A1B78A51E1370EDB20123474804E0A9
:107F3000015D0134D154E4B20133465DD9B2761902
:107F4000B44202DC312CF3D996E7312C94D8444D5D
:107F50008E1E0339C9B22846FFF7EEFA394BA855F1
:107F60001978394A013411701A780132D2B21A7074
:107F7000364A125D0AB90A221A700120A0E7032BC3
:107F80002ED1384B1B68642B40F28780364B002281
:107F90001A70364B197811F001010BD1344890F862
:107FA000282090F8243090F82000009001200190C3
:107FB00005F0FCFA01200146024603F095FB2B4B2D
:107FC00001201A7842F001021A70224B05221A7021
:107FD00005F03CFC012004B0BDE8704005F014BC85
:107FE000042B0FD11F4B1B68642B56D9012005F0C1
:107FF0002DFC012005F008FC012004B0BDE8704014
:10800000FFF792BB082B48D109232370194B1B782B
:10801000012B08D1184A00201178184A12780090D4
:108020000190029007E0022B2CD1154A0021127812
:1080300000910191029118462CE000BF260100102A
:10804000DC6A0010325900104C0E0010301E001077
:10805000D50000103059001088000010450E0010A7
:10806000AA0E0010AC660010590E00101E0F001072
:108070000040024040640010487B00105411001082
:1080800098750010FC2B08D10022009201920292F8
:10809000012019460423FEF739F804B070BD00BF73
:1080A0007FB57E4C7E4A2378072B2CD1117803298B
:1080B00029D104F0B9FF7B4B1B782BB12378092B16
:1080C00002D00823237094E2774A13783BB100234F
:1080D000764913701A46CA540133322BFBD1734BC5
:1080E0001B7813B1704B01221A70714A0023137070
:1080F000704AFE211170694A0220137004B0BDE875
:108100007040FFF711BB1278052A05D06A4909783B
:10811000C90701D4072A55D1052B53D1644B1B78CD
:10812000E3B9664B19781A4649B9654B197831B1EC
:108130001978042903D81A780132D2B205E01278EE
:108140002AB95F4B1978042901D91A7006E05B4BF4
:108150001B78012B02D1042004F016FA544C594E1E
:1081600023782546F35C13B12378FA2B11D105F05F
:1081700027F900232B70494B07221A704F4B1B78AD
:10818000002B40F036824E4B1A78002A40F03182A4
:108190003DE14D4D02212878444A01F01DFE23782F
:1081A0000221F35C2B7023780133DBB22370424B46
:1081B0001A7842F002021A70287804B0BDE87040C4
:1081C000FEF7A2B8022B40F07E81404B1B68642B67
:1081D00040F20F823E4B3F4A1968914202D81A681A
:1081E000013200E000221A602F4B1B7813B92B4B91
:1081F00005221A70022005F029FB022005F004FB7D
:10820000314B354A19780139515C09292AD8197836
:108210000139505C0130C0B2505419780139525CB8
:10822000092A1FD91A782D49013A8A5C90070CD483
:108230002B48197890F8282090F8243090F82000E6
:1082400000900220019005F0B1F91F4C0220217826
:10825000024603F049FA2378204A013BD15C41F001
:108260000201D154184A1F4B1178591811F8011CFA
:10827000002955D0117812780139585C01305854D2
:108280009B1813F8013C052B4AD9174B114A196862
:1082900091422BD81A6801321A6028E0551100105B
:1082A000305900100A07001007010010F71D0010D8
:1082B000841E0010181000103A6400103064001082
:1082C000360C0010AF65001023640010FC0600108F
:1082D00028590010FEFFFF00B86700105959001020
:1082E00000400240BC660010C86A00101B688F4C3A
:1082F00006202178022203F0F7F900238C4832216E
:108300001A462578013D01FB05350133322B4255D4
:10831000F7D1864B874A1B78D318002203F8012C2B
:10832000854B1B78002B00F06481844A1378052B61
:1083300006D9834B05211970824900230B6046E062
:108340007A4A814B1178013933F81110C90763D487
:108350007E4B1A7812B17E4A12781A701B7863B974
:10836000022415E0D2B20D5D2D19AA4202F10102DC
:10837000F8DB0133D4B2DBB203E000237348754964
:108380001C460278934201D22246ECE70234E4B262
:10839000664B714A1B78A51E1370EDB201236D4820
:1083A00004E0015D0134D154E4B20133465DD9B239
:1083B0007619B44202DC312CF3D901E0312C0CD90E
:1083C0005F4B05221A705F4A002313605B4A1370EB
:1083D0005F4A13705D4A13700BE15F4D8E1E0339C7
:1083E000C9B22846FFF7A8F8584BA8551978584A3B
:1083F000013411701A780132D2B21A70554A125DE6
:108400000AB90A221A700220FFF78EF94B4B1A782C
:108410000132D2B21A70ECE01278013A33F812301D
:10842000DA0740F1E680494B1A7812B1484A1278CF
:108430001A701B7863B9022415E0D2B20D5D2D19B4
:10844000AA4202F10102F8DB0133D4B2DBB203E04D
:1084500000233E483F491C460278934201D22246FF
:10846000ECE70234E4B2314B3C4A1B78A51E137092
:10847000EDB20123374804E0015D0134D154E4B288
:108480000133465DD9B27619B44202DC312CF3D9FE
:1084900096E7312C94D8314D8E1E0339C9B2284647
:1084A000FFF74AF8294BA8551978294A0134117069
:1084B0001A780132D2B21A70264A125D0AB90A221B
:1084C0001A700320A0E7032B52D1254B1B68642BA5
:1084D00040F28F80234B00221A70234B197811F041
:1084E00001010CD1214890F8282090F8243090F810
:1084F0002000009002200190012005F057F8012093
:108500000146022203F0F0F8174B02201A7842F0DD
:1085100001021A700A4B05221A7005F097F9022021
:1085200004B0BDE8704005F06FB900BF23640010CF
:1085300000C00720BC660010070100101A6400107C
:10854000551100107C0000101E0A00101C080010BD
:10855000FC1C0010F71D001018100010780E001001
:10856000FC06001030640010595900100040024011
:10857000042B15D1204B1B68642B3AD9022005F03F
:1085800065F9022005F040F90320FFF7CDF81B4BF9
:108590001A780132D2B2642A1A702AD9002239E735
:1085A000082B26D1164B09221A70164B1B78012B6B
:1085B00009D1154A00201178144A127800900190D0
:1085C0000220029007E0022B07D1114A0021127805
:1085D000009101910293184608E0FC2B09D100227A
:1085E0000221029100920192012019460423FDF715
:1085F0008DFD04B070BD00BFFC0600108E7400102D
:10860000551100100A07001004070010FA060010A8
:108610000E0700103F4A38B5012313703E4A184632
:1086200012783E499A423E4B01D00A2A6DD100226F
:1086300008701A60012005F009F9012005F0E4F83E
:10864000384B1B784BB9384B1B7833B9374B38490B
:108650001A681B68C95C374B99542E4B002119705E
:10866000324B33481A68845C334A1470334C1D68AB
:108670002478013CA54236D1284C2170284C216039
:10868000147B04F0EF041473147B44F00804147397
:108690001A6881541960204B1A780A2A15D0284B81
:1086A0001A7802F0FE021A701E4B1B7833B91E4B6B
:1086B0001B788B420CBF0423022300E00223164ADE
:1086C0000120137005F08AF801E009221A701A4B94
:1086D0001A7D1A46117D184B4806FBD51A7B42F0CD
:1086E00038021A7338BD147B44F010041473147BE1
:1086F00044F0080414731A6881541A6801321A602D
:108700001A68322A04D1196038BD00220A701A6032
:1087100038BD00BF0000001030590010B3680010D1
:10872000E40E0010590E0010600E001088000010BA
:10873000D5000010AA0E001000C000403C590010E7
:108740003A6400102DE9F8439C4B9A681846C2F32E
:108750004202032A40F0B6811C7D14F09E0F00F007
:10876000A18114F0840F00F09A81954D954E2A68EE
:108770001B78B3542B68F35CFF2B2B4640F08281AF
:10878000914A1278002A40F07D8101208F4F05F038
:108790005DF8012005F038F83B788D4AD31813F8BE
:1087A000018CB8F1000F02D12B68022B04D8894B41
:1087B00005221A700022B2E02B683046013B16F801
:1087C000039029680239C9B2FEF7B6FE814509D186
:1087D000296830464246FDF703FE00237848794970
:1087E0001A4638E03A787C4B9A1812F8012C002A85
:1087F000F3D03A78013A995C013199543A789B1850
:1088000013F8013C052BE8D9744B754A196891425D
:1088100003D81A6801321A6000E01B686B4D06200D
:108820002978012202F060FF00236E4832211A46A7
:108830002E78013E01FB06360133322B8255F7D1EB
:10884000624B654A1B78D318002203F8012CC4E759
:10885000CA540133DBB20568AB42F9D95D4B1B78D2
:108860000A2B00F05D81564B00221A60574B5A4983
:108870001A788A1812F8011C002974D0187832224C
:10888000013850435749085C00284CD0187801380B
:1088900002FB00104078002845D018784C4D28186D
:1088A00010F8010C002840F03B814F4D08E01E7885
:1088B000013E02FB0616361876782E540130C0B2FF
:1088C0001E78013E56438E5D8642F0D8302840F235
:1088D000C880424B424A1968914203D81A68013253
:1088E0001A6000E01B68394C06202178012202F052
:1088F000FBFE3C4D00233220194626780022013E23
:1089000000FB06360133322BA955F6D12F4B3249E5
:108910001B78CB1803F8012C2E4B05211970284B1E
:108920001A60BDE8F8832B4B05221A70244A0023F5
:10893000264E2C4D13603220194637780022013F15
:1089400000FB07370133322BE955F6D11F4B224983
:108950001B78CB1803F8012C244B1A70244B1A7087
:10896000244B1A7091E0244B1B78002B7DD0214AB8
:1089700013780A2B79D0137863B9022514E0C9B2B1
:10898000465D7619B14201F10101F8DB0133CDB248
:10899000DBB202E019480B460D4611788B4201D23A
:1089A0002946EDE70235EDB2084B0F4A1B78AE1EA3
:1089B0001370F6B20123114827E000BF00C0004049
:1089C00088000010BC7B0010780000102601001009
:1089D0002808001030590010390C0010C86A001027
:1089E000FEFFFF00881E0010D5000010450E00108D
:1089F0004C0E00103259001021690010301E00107A
:108A0000415D0135D154EDB20133875DD9B2BF1953
:108A1000BD4202DC312DF3D901E0312D0BD9414BA0
:108A200005221A70404A00231360404A1370404ADE
:108A30001370404A70E0404E8F1E0339C9B2304671
:108A4000FEF77AFD3B4BF0551978394A0135117024
:108A50001A780132D2B21A70384A525D0AB90A2223
:108A60001A700020FEF760FE0FE02E4B05221A70F0
:108A70002D4A002313602D4A13702D4A13702D4A7E
:108A8000137002E01A6801321A60274B1A68322A02
:108A900001D100221A602A4B1C60BDE8F883284AE5
:108AA00014602BE0E2073BD5264A1178002937D124
:108AB0001D4A10681C78244B1C5413680133136042
:108AC00013680FE0022A12D11E4A1178002926D11C
:108AD000154A10681C781C4B1C5413680133136032
:108AE0001A4B1B68322B1BD11160BDE8F883062A94
:108AF00007D1134A116841F4807111601B78BDE8F9
:108B0000F883012A0BD11B7D13F0200303D0BDE8AD
:108B1000F843FFF77FBD0E4A1370BDE8F883037872
:108B2000BDE8F8833059001088000010450E001091
:108B30004C0E001032590010D5000010301E0010ED
:108B4000587C001078000010BC7B001084000010DE
:108B500000000010404A38B5012313703F4A184600
:108B600012783F499A423F4B01D00A2A6FD1002226
:108B700008701A60022004F069FE022004F044FE2E
:108B8000394B1B784BB9394B1B7833B9384B3949C2
:108B90001A681B68C95C384B99542F4B0021197017
:108BA000334B34481A68845C344A1470344C1D6862
:108BB0002478013CA54238D1294C2170294C2160F0
:108BC000147B04F0EF041473147B44F00804147352
:108BD0001A6881541960214B1A780A2A15D0294B3A
:108BE0001A7802F0FD021A701F4B1B7833B91F4B25
:108BF0001B788B420CBF0423022300E00223174A98
:108C00000220137004F0EAFD01E009221A701B4BE8
:108C10001A7D1A46117D194B4906FBD51A7B42F085
:108C200038021A7307225A6038BD147B44F01004CE
:108C30001473147B44F0080414731A6881541A687E
:108C400001321A601A68322A04D1196038BD002234
:108C50000A701A6038BD00BF0200001055110010E4
:108C6000D40000108874001030640010360C00101E
:108C70007C00001018100010780E00100000014059
:108C8000CF6A00103A6400102DE9F8439F4B9A68B0
:108C90001946C2F34202032A40F0AF811C7D14F052
:108CA0009E0100F0968114F0840F00F08F81984DA2
:108CB000984E2A681B78B3542B68F35CFF2B2B4625
:108CC00040F07781944A92F80080B8F1020F40F0AA
:108CD00070814046914F04F0B9FD404604F094FD88
:108CE0003B788F4AD31813F8013C13B92B68022B39
:108CF00004D88C4B05221A700022B2E02B68304653
:108D0000013B16F8039029680239C9B2FEF714FC3A
:108D1000814509D1296830464246FDF761FB0023B1
:108D20007B487C491A4638E03A787F4B9A1812F80B
:108D3000012C002AF3D03A78013A995C0131995418
:108D40003A789B1813F8013C052BE8D9774B784A01
:108D50001968914203D81A6801321A6000E01B6852
:108D60006E4D06202978022202F0BEFC00237148D5
:108D700032211A462E78013E01FB06360133322B92
:108D80008255F7D1654B684A1B78D318002203F847
:108D9000012CC4E7CA540133DBB20568AB42F9D3F6
:108DA000604B1B780A2B00F05681594B00221A6049
:108DB0005A4B5D491A788A1812F8011C00296ED0A6
:108DC0001A783221013A4A435A48825C002A4CD030
:108DD0001A78013A01FB02025278002A45D01A782B
:108DE0004F4DAA1812F8012C002A40F03481524D40
:108DF00008E01E78013E01FB0606B6187678AE54F0
:108E00000132D2B21E78013E4E43865D9642F0D8C2
:108E1000302A40F2BD80454B454A1968914203D83B
:108E20001A6801321A6000E01B683C4C0620217869
:108E3000022202F059FC3F4D0023322019462678C9
:108E40000022013E00FB06360133322BA955F6D134
:108E5000324B35491B78CB1803F8012C314B0521D7
:108E600019702B4B1A60BDE8F8832C4E314D32201F
:108E7000002137780023013F00FB07270132D2B2DF
:108E8000322AE955F5D1274A05211170204A264991
:108E90001360224A12788A1802F8013C82E0274BBC
:108EA0001B78002B78D0264A13780A2B74D01378BD
:108EB00063B9022514E0C9B2465D7619B14201F1E9
:108EC0000101F8DB0133CDB2DBB202E01D480B46F5
:108ED0000D4611788B4201D22946EDE70235EDB2FD
:108EE0000E4B154A1B78AE1E1370F6B201231548BF
:108EF00004E0415D0135D154EDB20133875DD9B253
:108F0000BF19BD4220DC312DF3D91FE00000014024
:108F10007C000010267C00107900001023640010F3
:108F20009674001055110010BC660010C86A00103D
:108F3000FEFFFF0000C007201810001007010010FE
:108F40001C080010F71D0010312D0BD9434B0522D2
:108F50001A70434A00231360424A1370424A137046
:108F6000424A74E0424E8F1E0339C9B23046FEF7C2
:108F7000E3FA3E4BF05519783B4A013511701A78E7
:108F80000132D2B21A703B4A525D0AB90A221A70F3
:108F90000220FEF7C9FB0FE0304B05221A70304A61
:108FA000002313602F4A13702F4A13702F4A137037
:108FB00002E01A6801321A60294B1A68322A01D17C
:108FC00000221A602C4B1C60BDE8F8832A4A14600A
:108FD0002FE0E0073FD5294A1278022A3BD1204AE8
:108FE00010681C78264B1C541368013313601368F7
:108FF000322B30D11160BDE8F883022A12D11F4A0A
:109000001278022A26D1164A116818781C4B585437
:109010001368013313601368322B1CD100231360D3
:10902000BDE8F883062A07D1134A116841F480711C
:1090300011601B78BDE8F883012A0BD11B7D13F06A
:10904000200303D0BDE8F843FFF784BD0D4A137039
:10905000BDE8F8830B78BDE8F88300BF5511001018
:109060007C0000101A640010FC1C00101C0800108A
:1090700018100010F71D0010B47B001079000010CC
:10908000267C0010020000102DE9F843DFF8CC80A8
:10909000DFF8CC9098F80020294F2A4E01234FF09A
:1090A0000005062A89F800303B70356046D1022061
:1090B00004F0CCFB022004F0A7FB234B234A1968E1
:1090C000234C515C2170234989F8005018680978B5
:1090D0000139884223D120493D703560087800F07D
:1090E000FD000870217B022001F0EF012173217B3C
:1090F00041F008012173196888F8000055541D607B
:1091000004F06CFB237D227D114B5206FBD51A7BAC
:1091100042F038021A7307225A60BDE8F883217BB7
:1091200041F010012173217B41F00801217319687E
:1091300055541A6801321A60BDE8F883BDE8F88317
:10914000821E00102464001080000010780E0010B1
:1091500000800940325700103A6400105511001089
:10916000030000102DE9F7439F4B9A681946C2F39C
:109170004202032A40F0E2811C7D14F09E0100F0BF
:10918000CA8114F0840F00F0C381984A11681878DE
:10919000974B585411685B5CFE2B2ED1954B1D7874
:1091A000022D2AD1284604F051FB284604F02CFB5E
:1091B000914B01221A70914B1B78DB070CD590491B
:1091C000612091F8282091F8243091F820108DE842
:1091D0002200002104F0EAF9884B07211A7802F0F6
:1091E000FE021A70874A002313707F4A11727F4A69
:1091F0001360854B05221A70CCE113687C4E7B4FBF
:10920000F35CFF2B40F073817A4B93F80080B8F148
:10921000030F40F06C8102207C4D04F017FB02200C
:1092200004F0F2FA2B787A4AD31813F8013C13B9F8
:109230003B68022B04D8744B05221A700022AAE066
:109240003B683046013B16F8039039680239C9B2D1
:10925000FEF772F9814509D1396830464246FDF77B
:10926000BFF80023614862491A4638E02A78694B02
:109270009A1812F8012C002AF3D02A78013A995C46
:10928000013199542A789B1813F8013C052BE8D931
:10929000614B624A1968914203D81A6801321A6018
:1092A00000E01B68594D06202978022202F01CFAC2
:1092B00000235B4832211A462E78013E01FB063618
:1092C0000133322B8255F7D1504B524A1B78D318B9
:1092D000002203F8012CC4E7CA540133DBB205684D
:1092E000AB42F9D3494A4B491378CB1813F8013CE8
:1092F000002B6DD013783221013B4B434848C35CAF
:10930000002B4BD01378013B01FB03035B78002B50
:1093100044D013783E4DEB1813F8013C002B40F07D
:109320003981404D08E01678013E01FB0606F6182B
:109330007678EE540133DBB21678013E4E43865DFB
:109340009E42F0D8302B40F2C180334B334A19682B
:10935000914203D81A6801321A6000E01B682B4C56
:1093600006202178022202F0BFF92D4D0023322081
:10937000194626780022013E00FB06360133322BC7
:10938000A955F6D1214B23491B78CB1803F8012CA2
:109390001D4B05211970154B1A60FBE01B4E204D2B
:1093A0003220002137780022013F00FB07370133CC
:1093B000DBB2322BE955F5D1134B052119700B4B5C
:1093C00014491A60114B1B78CB1803F8012C96E056
:1093D000154A1278002A7DD0144A11780A2979D0CA
:1093E000117881BB022537E0008009408000001021
:1093F000F47B0010790000103064001059590010FF
:1094000000400240360C001055110010236400107B
:1094100096740010BC660010C86A0010FEFFFF00C2
:1094200000C00720780E0010070100101C08001073
:10943000C9B2465D7619B14201F10101F8DB013391
:10944000CDB2DBB201E055481D4611788B4201D206
:109450002946EEE70235EDB2514B524A1B78AE1E5B
:109460001370F6B201234D4804E0415D0135D1543B
:10947000EDB20133875DD9B2BF19BD4202DC312D97
:10948000F3D901E0312D0BD9474B05221A70474A19
:1094900000231360464A1370464A1370464A76E02A
:1094A000404E8F1E0339C9B23046FEF745F8424B95
:1094B000F05519783F4A013511701A780132D2B24D
:1094C0001A70364A525D0AB90A221A700320FEF752
:1094D0002BF914E0344B05221A70354A002313701F
:1094E000344A1370344A1370344A136007E0334B24
:1094F00033491A688A5C12B11A6801321A602F4B1C
:109500001A68322A01D100221A602E4B1C6041E0F9
:109510002C4A14602DE0E0073CD52B4A1278032A30
:1095200038D1264A10681C78254B1C541368013327
:1095300013601368322B2DD111602BE0022A11D158
:10954000214A1278032A24D11C4A116818781C4B2E
:1095500058541368013313601368322B1AD1002357
:10956000136017E0062A06D1164A116841F480718B
:1095700011601B780EE0012A0BD11B7D13F0200334
:1095800004D003B0BDE8F043FFF77EBD0F4A13706F
:1095900000E00B7803B0BDE8F08300BFF71D0010BA
:1095A00023640010780E0010551100107C0000108C
:1095B0001A640010FC1C00101C0800108000001031
:1095C000F47B0010B87B001079000010030000103D
:1095D0002DE9F047DFF8D090DFF8D0A099F80030FF
:1095E000DFF8CC802A4F01264FF00005062B8AF8C1
:1095F000006088F800603D6048D1304604F026F9EC
:10960000304604F001F9234B234A1968234C515C7E
:10961000217023498AF80050186809780139884276
:1096200025D1204988F800503D60087800F0FE0000
:109630000870217B304601F0EF012173217B41F05E
:1096400008012173196855541D60022389F8003000
:1096500004F0C4F8237D227D104B5206FBD51A7B03
:1096600042F038021A7307225A60BDE8F087217B66
:1096700041F010012173217B41F008012173196829
:1096800055541A6801321A60BDE8F087BDE8F087CA
:109690002408001084000010AA0E001000C0094029
:1096A000370C00103A64001030590010010000100F
:1096B0002D5900102DE9F743A14B9A681946C2F3C2
:1096C0004202032A40F0F8811C7D14F09E0100F054
:1096D000E08114F0840F00F0D9819A4A116818785B
:1096E000994B585411685B5CFE2B2DD1974B1D781C
:1096F00055BB012004F0AAF8012004F085F8944B32
:1097000001211970934B1B78DB070CD5924890F818
:10971000282090F8243090F820008DE80300612084
:10972000294603F043FF8B4B07211A7802F0FE0213
:109730001A708A4A00231370814A1172814A136099
:10974000874B05221A70E3E113687F4FDFF8F4813D
:10975000FB5CFF2B7D4B40F085811E78012E40F095
:10976000818130467F4D04F071F8304604F04CF8AA
:109770002B787D4AD31813F8013C1BB9D8F8003078
:10978000022B06D8764B05221A706E4B00221A6007
:10979000BEE1D8F800303846013B17F80390D8F8FE
:1097A00000100239C9B2FDF7C7FE81450AD1D8F8C9
:1097B000001038463246FCF713FE00236148624928
:1097C0001A4638E02A78694B9A1812F8012C002AB8
:1097D000F3D02A78013A995C013199542A789B1880
:1097E00013F8013C052BE8D9614B624A1968914294
:1097F00003D81A6801321A6000E01B68594D062030
:109800002978012201F070FF00235B4832211A46BB
:109810002E78013E01FB06360133322B8255F7D1FB
:10982000504B524A1B78D318002203F8012CC4E78E
:10983000CA540133DBB20568AB42F9D3494B4B49FB
:109840001A788A1812F8011C002900F09F801878F5
:109850003222013850434849085C002850D018781B
:10986000013802FB00104078002849D018783E4D9E
:10987000281810F8010C002840F04A813F4D08E0FC
:109880001E78013E02FB0616361876782E540130FB
:10989000C0B21E78013E56438E5D8642F0D8302815
:1098A00040F2CF80324B334A1968914203D81A688C
:1098B00001321A6000E01B682A4C06202178012240
:1098C00001F012FF2C4D0022322011462678002391
:1098D000013E00FB06260132322AA955F6D1214A63
:1098E000224912788A1802F8013C1D4A052111709C
:1098F000234A1370234A1370234A1370114AEDE070
:10990000174B05221A700F4A0023164E1A4D13608A
:109910003220194637780022013F00FB0737013318
:10992000322BE955F6D10F4B10491B78CB1803F8B1
:10993000012C134B1A70134B1A70134B1A709CE0C6
:1099400000C0094084000010807B001078000010E7
:10995000590E00101E0F001000400240600E001053
:10996000305900102601001028080010390C001092
:10997000C86A0010FEFFFF00881E0010AA0E00102B
:10998000450E00104C0E001032590010624B1B782F
:10999000002B5AD0614A13780A2B56D0137863B93A
:1099A000022514E0C9B2465D7619B14201F1010108
:1099B000F8DB0133CDB2DBB202E059480B460D466D
:1099C00011788B4201D22946EDE70235EDB2554BB5
:1099D000554A1B78AE1E1370F6B20123504804E0BE
:1099E000415D0135D154EDB20133875DD9B2BF1964
:1099F000BD4202DC312DF3D901E0312D0BD94B4BA7
:109A000005221A704A4A002313604A4A13704A4AD0
:109A10001370424A79E0444E8F1E0339C9B2304672
:109A2000FDF78AFD3D4BF0551978434A0135117019
:109A30001A780132D2B21A70394A525D0AB90A2232
:109A40001A700120FDF770FE17E0384B05221A70DE
:109A50003A4A00231360374A1370374A13702F4A6B
:109A600013700AE01B78012B07D1344B34491A6874
:109A70008A5C12B11A6801321A60304B1A68322AB5
:109A800001D100221A602F4B1C6041E02D4A146066
:109A90002DE0E0073CD52C4A1278012A38D1274A1C
:109AA00010681C78264B1C5413680133136013682C
:109AB000322B2DD111602BE0022A11D1224A1278CB
:109AC000012A24D11D4A116818781D4B5854136877
:109AD000013313601368322B1AD10023136017E08F
:109AE000062A06D1174A116841F4807111601B786B
:109AF0000EE0012A0BD11B7D13F0200304D003B02C
:109B0000BDE8F043FFF764BD104A137000E00B7826
:109B100003B0BDE8F08300BF216900103259001086
:109B2000301E001026010010AA0E0010305900103F
:109B300088000010450E00104C0E0010840000102C
:109B4000807B0010F07B00107800001001000010F6
:109B5000104B4FF4800270B5DA610F4A050A0023FA
:109B6000C0B202240BB9946007E0012B01D19560CB
:109B700003E0022B0CBF90609160566816F0800FD6
:109B8000FBD00133DBB2042BECD1024B4FF480024B
:109B90009A6170BD00C00920000002401E4B1F49A1
:109BA000F0B54FF480020025DA61070AFF242B4646
:109BB0000A46C0B2032633B98E60D2F804C01CF046
:109BC000800FFAD01DE0012B06D18F60D2F804C0BF
:109BD0001CF0800FFAD014E0022B0ED18860D2F86E
:109BE00004C01CF0800FFAD00BE08C60546824068F
:109BF000FCD594680135E4B2EDB2FF2C01D1072DFC
:109C0000F3D90133DBB2042BD5D1034B4FF48002DF
:109C10009A612046F0BD00BF00C00920000002404C
:109C20002DE9F0419846694B04461B7815469DF88E
:109C30001860002B00F0C78001290CD1431E322090
:109C40005843634A80B232F813102746C1F3031118
:109C5000FFF77EFF11E002290ED100F1FA077B1E0B
:109C6000322058435B4B013C33F8141080B2C1F3EF
:109C70000311FFF76DFF00E00027192E07D1B8F19F
:109C8000010F4DD1013F32207843013008E01A2EF8
:109C900009D1B8F1010F43D1013F3220784302309E
:109CA00080B2297888E0242E07D1B8F1010F37D18E
:109CB000013F322078430330F2E7252E07D1B8F177
:109CC000010F2DD1013F322078430430E8E7302ED8
:109CD0001FD1B8F1220F76D8013F32235F430537F9
:109CE000BFB2002406E0E019295D80B2FFF730FF23
:109CF0000134E4B2A045F6DA222C64D8E01901342C
:109D0000002180B2E4B2FFF723FF232CF6D1BDE897
:109D1000F081172E04D1B8F1010F01D1297844E068
:109D2000B8F1010F4FD9B044B8F1190F48DD192E21
:109D300009D87B1E32205843C6F11903013080B286
:109D4000E95CFFF705FFB8F11A0F39D01A2E09D8D0
:109D50007B1E32205843C6F11A03023080B2E95C00
:109D6000FFF7F6FEB8F1240F2ADD242E09D87B1E5A
:109D700032205843C6F12403033080B2E95CFFF778
:109D8000E7FEB8F1250F0BD0252E09D87B1E322017
:109D90005843C6F12503043080B2E95CFFF7D8FED2
:109DA000172E10D8C6F11706A95D01290BD8013F5F
:109DB00032207843283080B2BDE8F041FFF7C8BEBA
:109DC000B8F1170FECDCBDE8F08100BF6D65001045
:109DD0008E720010345700102DE9F04F724B8FB087
:109DE0001B784FF0000A06460F4614468DF834A043
:109DF000002B00F0D5801378002B00F0D1800DF1FE
:109E00000C0B0AF10105EDB2312D00F2C98005F10C
:109E1000020814F80820012A0DD16119CB7803F04B
:109E20007F03012B21D10A7930468DF8342000932D
:109E300039460DAA96E0302A17D163191A79587954
:109E40008DF80C201946002203E08B185B790BF883
:109E50000230D3B2834202D20132232AF5D130221A
:109E60000092304639465A467CE005F1030914F861
:109E7000093003F07F03012B7CDDD318192B0FDD94
:109E8000192A0DD805F11D039A1AA35C30468DF8E6
:109E900034301923009339460DAA0123FFF7C0FE81
:109EA00014F8092014F8083002F07F029A181A2AD0
:109EB0000FDD1A2B0DD805F11E02D31AE35C3046D4
:109EC0008DF834301A23009339460DAA0123FFF789
:109ED000A7FE14F8092014F8083002F07F029A183F
:109EE000242A0FDD242B0DD805F12802D31AE35CB8
:109EF00030468DF834302423009339460DAA0123CF
:109F0000FFF78EFE14F8092014F8083002F07F02E3
:109F10009A18252A0FDD252B0DD805F12902D31A11
:109F2000E35C30468DF834302523009339460DAA82
:109F30000123FFF775FE14F8092014F8083002F029
:109F40007F029A18172A15DD172B13D805F11B026B
:109F5000D31AE35C30468DF834301723009339462A
:109F60000DAA0123FFF75CFE04E00135EDB2322DAE
:109F700003D104E014F80A309A445545F5DB635DDB
:109F8000FF2B06D163195B78D3F1010338BF00239F
:109F900000E0002301355FFA85FA002B3FF431AF72
:109FA0000FB0BDE8F08F00BF6D6500102DE9F047E0
:109FB00000238CB00B93364B04461B780E46002BC7
:109FC00063D0012900F1FF3307D13249C95C9142C6
:109FD0005BD132255D43ADB208E02F49CB5C9342A3
:109FE00053D13225454305F54255223505F1280068
:109FF00080B2FFF7D3FD002847D10DF12B080127D0
:10A00000781980B2FFF7CAFD0137BFB2052F08F8F3
:10A01000010FF5D1AF1DBFB23846FFF7BFFD48B9FC
:10A0200001238DE848002046192104220BABFBF7E1
:10A0300091FC2AE02046192104220BAB05354FF094
:10A040000008CDF800800196FBF784FCA8B2FFF76A
:10A05000A5FD02AD82463846FFF7A0FD1FFA88F93C
:10A0600008F8050038B108F101080137B8F1220FEE
:10A07000BFB2F0D1C14601238DE848005FFA89F2F2
:10A08000204651462B46FBF711FE0CB0BDE8F08789
:10A090006D650010FD1C00105A10001010B508244A
:10A0A000FF2000F0A3FAFF2803D1013CE4B2002C0A
:10A0B000F6D110BD07B50A0E8DF802200A0C8DF8F6
:10A0C00003200A0A40F040008DF804208DF80510A6
:10A0D00095220821FF238DF801008DF8062068469F
:10A0E0000A468DF800308DF8073000F093FA0EBD67
:10A0F00038B500F003FA652400200146FFF7DAFFC7
:10A10000FFF7CCFF012802D0013CF5D129E041F254
:10A11000893401200021FFF7CDFFFFF7BFFF0128A1
:10A1200002D1013CF5D117E0B0B9082000F0DCF90C
:10A13000652400210D20FFF7BDFFFFF7AFFF0546A7
:10A14000FF2000F053FA40EA0525ADB23DB1013CD5
:10A15000EFD16FF0010038BD6FF0020038BD002074
:10A1600038BDFF2814BF6FF001004FF0FF3038BD3D
:10A1700070B50E4E4FF40015B5610024F56105E091
:10A180000134E4B2032C04BFB561F561FFF7B0FF01
:10A1900010B1052CF4D901E0052C03D9044B0020A3
:10A1A000187070BD024B0120187070BD20C00920CE
:10A1B000FA1C001038B5164B0C461B781546012BBF
:10A1C00021D141021820FFF775FFFFF767FFFE203E
:10A1D00000F00CFA4FF400712A46204600F01AFAFB
:10A1E000FF2000F003FAFF2000F000FAFF2000F04B
:10A1F000FDF9C92402E0013CA4B234B1FF2000F013
:10A20000F5F9FF28F7D1002038BD012038BD00BF87
:10A21000FA1C0010F8B5184B0D461B781646012B9A
:10A2200021D141021120FFF745FFFFF737FF4FF41F
:10A2300080570446FFF732FFFF2803D1013FBFB22A
:10A24000002FF7D18CB9FE2812D14FF4007132469D
:10A25000284600F001FAFF2000F0C8F9FF2000F0C6
:10A26000C5F92046F8BD0020F8BD4FF0FF30F8BD1D
:10A270004FF0FF30F8BD00BFFA1C00102DE9F84385
:10A2800002F10E0303F4FC7300AFADEB030D814646
:10A29000884615466E46002441462A464846FFF742
:10A2A00089FFFFF765FF2A4648463146FFF7B2FFB0
:10A2B0000022134606E018F80300F15C01338842DF
:10A2C00018BF0122AB42F6D372B10134E4B2032CC1
:10A2D0000ED1FFF74DFF0128DED0074B00201A7882
:10A2E00042F008021A7000E00120BD46BDE8F88384
:10A2F000062CD1D1F1E700BF2964001013B5FFF798
:10A3000037FF012837D104245F49FA22E620FFF7FE
:10A3100081FF5E4904220020FFF77CFF5C49042294
:10A32000FA20FFF777FF5B4904224FF48270FFF7B2
:10A3300071FF5949FA224FF48770FFF76BFF5749B5
:10A3400002224FF49670FFF765FF554901224FF442
:10A350009B70FFF75FFF694607224FF4A070FFF77D
:10A3600059FF68464F49072205F0AAF918B1013C88
:10A37000E4B2002CC8D145490B8853B9488840B98C
:10A380004AF6C0030B804FF448434B800422FFF78A
:10A3900075FF3F490B8853B94B8843B94FF6FF739C
:10A3A0000B80FF234B80FA200422FFF767FF394917
:10A3B0000B8863B94B8853B94AF6C0030B804FF43E
:10A3C00080734B804FF482700422FFF757FF364BA7
:10A3D0001A68127832B935494FF48C701960082226
:10A3E000FFF74CFF324B1A68127832B92F494FF4FD
:10A3F000917019600822FFF741FF28490B7873B963
:10A400004B7863B90B230B70D6234B70294B40F666
:10A41000D6321A804FF496700222FFF72FFF68465B
:10A420002049072205F04CF928B14FF4A0701D49CE
:10A430000722FFF723FF154B1F491A885B880A7014
:10A440001E49120A0A701E4A1E4913701E4A1B0A30
:10A4500013700F4B01201A885B880A701B49120A7F
:10A460000A701B4A1B4913701B4A1B0A1370094BC5
:10A470001A885B880A701949120A0A70184A137000
:10A48000184A1B0A13701CBDFD1C001090740010AC
:10A490003A0D0010700E00105A100010291E001006
:10A4A0006D6500105DA10200740E00101808010017
:10A4B000445900104C6400105859001048590010BD
:10A4C0007B7B0010AD6500103B64001049640010F8
:10A4D000F71C0010FE680010851E0010F61C00100E
:10A4E000621E00100A69001000F0FE00024B0728EF
:10A4F00098BF0820D86070470000024070B5374B05
:10A50000374CD3F8C420374D42F48072C3F8C420CE
:10A51000D3F8A8214FF4803622F44032C3F8A821A2
:10A52000D3F8A821FE2042F48032C3F8A821236882
:10A5300043F4B0232360236823F4003323602A4BC1
:10A540001A6822F040421A601A6842F040421A60CB
:10A550005A6822F03F025A605A6842F03C025A6040
:10A5600020222A604FF48002A661A2615A6822F07C
:10A5700030025A60236843F4802323604FF4802321
:10A58000A361FFF7B1FFE6616423FF212A46A960BA
:10A5900050680006FCD5013BDBB29068002BF6D179
:10A5A0000F4B10494FF480329A61FF2002230A4674
:10A5B000886054682406FCD5013BDBB29468002B0C
:10A5C000F6D1084A1523013BDBB29168002BFAD182
:10A5D000054B5A6842F030025A6070BD00C00F400F
:10A5E00000C009200000024000C00240074A4FF4AA
:10A5F0008033D361064B986059680906FCD5044B3B
:10A6000098684FF480339361C0B2704700C009204E
:10A61000000002400E4B70B54FF48034DC61002323
:10A620000C4C08290CBF08214FF400711D469342C1
:10A63000B6BFC65CA560A660666816F0800FFBD04A
:10A6400001338B42F3DB024B4FF480329A6170BDD1
:10A6500000C0092000000240F0B50C4B0C4D4FF437
:10A660008034DC61FF2600232C4608E0AE6067687A
:10A670003F06FCD5A7689342B8BFC75401338B424D
:10A68000F4DB024B4FF480329A61F0BD00C0092028
:10A6900000000240C0F1FA7202F1FA03B3F5FA7F4A
:10A6A0000E4B05D81A7A002042F010021A7211E0FF
:10A6B000FA2A4FF0FA71C8BFB1FBF2F01A7ADCBF88
:10A6C000A0F1FA70B1FBF0F002F0EF02D8BF40F455
:10A6D00000301A72014B1864704700BF00400240FE
:10A6E00010B5094C022323720848FFF7D3FF237AE1
:10A6F00003F0FD0323720023A38684F8283084F836
:10A70000243084F8203010BD0040024000008A024E
:10A71000024B1A7A42F001021A727047004002405E
:10A720002DE9F041044600F00F000D461F46164685
:10A73000DDF8188000F080F8C4F3021040F010003B
:10A7400000F07AF805F00F0040F0600000F074F8B7
:10A75000C5F3031040F0700000F06EF8E4B2F4208E
:10A7600000F06AF8204600F067F8EDB2F52000F03E
:10A7700063F8284600F060F8013CF62000F05CF831
:10A78000E019C0B208FB07F700F056F8013DF720CA
:10A7900000F052F805EB0800C0B24FF0030800F0DB
:10A7A0004BF808FB07F700241CE016F8023C16F8EB
:10A7B000035C16F8012C1B0243EA05431343C3F361
:10A7C0008525DA0C6D0145EAC225C3F3C4031D4398
:10A7D000AF2000F031F8280A00F018F8E8B200F0D5
:10A7E00015F803340336BC42DFDBBDE8F0810023FB
:10A7F00082B0019340F6B833584302E0019B013325
:10A800000193019B8342F9DB02B0704700F0010223
:10A8100000F00203120142EA8302064B00F0FC0042
:10A820009A754FF4205283F85400DA6500BF9A6598
:10A83000704700BF00C0092000F0010200F00203D1
:10A84000120142EA8302064B00F0FC009A754FF4B5
:10A85000245283F85400DA6500BF9A65704700BF40
:10A8600000C00920194B1A4A19690A401A61DA69AD
:10A87000184922F44022DA611A6822F0C0021A60F4
:10A88000154B1A6842F4665242F07C021A600A685C
:10A8900042F000720A60114A106840F4C010106063
:10A8A0004FF4005098614FF4807098614FF400604D
:10A8B00098614FF4805098614FF0007088613F219B
:10A8C000D9614FF4C013D361704700BF00C002408C
:10A8D0000F003CF060C0092040C0092000C00920E2
:10A8E0002DE9F74FC0F3072A082600255FFA80F903
:10A8F0003FE05846FFF7A0FF0198FFF79DFF04F0E7
:10A900000F0040F06000FFF797FF201140F070004B
:10A91000C0B2FFF791FFF420FFF78EFF3846FFF734
:10A920008BFF5FFA84F8F520FFF786FF4046FFF7BC
:10A9300083FFF620FFF780FF3046FFF77DFF08F129
:10A940001008F720FFF778FF5FFA88F0FFF774FF31
:10A95000AF20FFF771FF5046FFF758FF013448461C
:10A96000FFF754FF802CC4D101350136802DF6B29B
:10A9700009D02B1143F01003DBB2EFB20193002496
:10A9800007F00F0BB5E7BDE8FE8F0000F8B5284CC7
:10A99000284E4FF000754FF40057FFF763FFF76143
:10A9A0001420A561FFF723FF1420E561FFF71FFFC7
:10A9B000C820A561FFF71BFFE220B761FFF73CFF4E
:10A9C0006420FFF714FFEB20FFF736FF8120FFF72D
:10A9D00033FF8820FFF730FF2F20FFF72DFF2420C3
:10A9E000FFF72AFF2B20FFF727FFA320FFF724FF05
:10A9F0008420FFF721FF8920FFF71EFFD120FFF7FA
:10AA00001BFFD620FFF718FFC820FFF715FF4220D5
:10AA1000FFF712FFC020FFF70FFFDE20FFF70CFF4C
:10AA2000AF20FFF709FF0020BDE8F840FFF758BF4F
:10AA300060C0092040C0092037B5574C23789907DA
:10AA400034D57F2140F29F350B4600201A22009515
:10AA500000F0C4F808201B2102221623009500F004
:10AA60000FF94FF6FF751D203021022216230095A5
:10AA700000F006F90222152332204521009500F04E
:10AA8000FFF8464A00231370454A1370454A137075
:10AA9000454A1360454A1370454A1370454A13707E
:10AAA000454A1370237823F002032370434B444C30
:10AAB0001D88ADB2A5B1257835BB58200C210822E0
:10AAC0004FF4784300F040F94FF47843009354205A
:10AAD0002B4606213B4A00F051FA0123237013E074
:10AAE0002378012B10D158200C2108224FF4FC634D
:10AAF00000F02AF94FF4FC63009354200621314AF8
:10AB00002B4600F03BFA25702F4B304C1D88ADB220
:10AB1000A5B1257835BB6D200C2108224FF4784370
:10AB200000F012F94FF4784300936A202B46062177
:10AB3000274A00F023FA0123237013E02378012B26
:10AB400010D16D200C2108224FF4FC6300F0FCF8BA
:10AB50004FF4FC6300936A2006211D4A2B4600F047
:10AB60000DFA25701B4B5A69D20110D45B6913F0A2
:10AB700080530FD10C4A1168B1F1806F03D009499D
:10AB80000B7015490B604FF08063136002E0064BB9
:10AB900000221A603EBD00BF400100102F6400106B
:10ABA000646400102A64001018080010FB1C0010D8
:10ABB000DC0E0010580E00102E59001030570010F7
:10ABC0008D7400101DF701001C6400102209001094
:10ABD00020F7010020C00920545900102DE9F0474A
:10ABE0001646044600F00F000D469846089F06F1F1
:10ABF000010AFFF721FEC4F302105FFA8AF940F060
:10AC00001000FFF719FE09F00F0040F06000CAF3D2
:10AC1000031AFFF711FE4AF07000FFF70DFEF42053
:10AC2000FFF70AFEE0B2FFF707FEF520FFF704FE8C
:10AC30004846FFF701FEF620FFF7FEFDE8B2FFF7FA
:10AC4000FBFD2D1BF720C6EB0804FFF7F5FD0135D2
:10AC50005FFA88F001346C43FFF7EEFDC7F3072578
:10AC6000FFB209E0AF20FFF7E7FD2846FFF7CEFD72
:10AC70003846FFF7CBFD013C002CF3DCBDE8F08744
:10AC80002DE9F341089E05460C461746984629468D
:10AC90000096FFF7A3FF204621463A46434600961A
:10ACA000FFF79CFF284621463A463B460096FFF7B1
:10ACB00095FF2846214642464346089602B0BDE825
:10ACC000F041FFF78BBFF8B50D46044600F00F00CA
:10ACD00017460135FFF7B0FDC4F30210EEB240F0A5
:10ACE0001000FFF7A9FD06F00F0040F06000C5F36B
:10ACF0000315FFF7A1FD45F07000FFF79DFDE4B2DD
:10AD0000F420FFF799FD2046FFF796FDF520FFF7A9
:10AD100093FD3046FFF790FDF620FFF78DFD2046AE
:10AD2000FFF78AFDF720FFF787FD3046FFF784FD28
:10AD3000AF20FFF781FDC7F30720FFF767FDF8B2EB
:10AD4000BDE8F840FFF762BD2DE9F04F0646174613
:10AD50006FF0010A85B00D469846C2F10109CB1982
:10AD60000AFB02FA8A1A3146CDF80080FFF736FF57
:10AD7000F01BF1192A462B46CDF800800124FFF77D
:10AD80002DFF3BE0B9F1000F03DB0AF1020A013F9E
:10AD9000D14404EB060CC4EB060BEA195846614695
:10ADA0001346CDF80CC0CDF80080FFF717FFDDF893
:10ADB0000CC0EA1B584661461346C7EB060BCDF89C
:10ADC0000080FFF70BFF06EB070C62196146134684
:10ADD0005846CDF80CC0CDF80080FFF7FFFEDDF837
:10ADE0000CC02A1B584661461346CDF80080FFF779
:10ADF000F5FE09EB440909F101090134631EBB4268
:10AE0000C0DB05B0BDE8F08F2DE9F74F9F1A0E1A91
:10AE1000044638460D4691469A4604F005FC8046A5
:10AE2000304604F001FC8045B4BF4FF000084FF0FD
:10AE30000108B8F1000F0DD089EA04048AEA05057B
:10AE400089EA040985EA0A077D4089EA04042E1B81
:10AE5000C9EB0707002E03DA76424FF0FF3B01E013
:10AE60004FF0010B002F03DA7F424FF0FF3A01E071
:10AE70004FF0010A7F00A7EB4603BE1B12E0B8F1BA
:10AE8000000F02D02146484601E0494620460C9A70
:10AE90000193FFF718FF019B002EC6BFF618D1449F
:10AEA000F6195C44AC42EAD1BDE8FE8F2DE9F74FBC
:10AEB000044600F00F000E46994615460E9FDDF839
:10AEC0003480FFF7B9FCC4F3021040F01000FFF724
:10AED000B3FC06F00F0040F06000FFF7ADFCC6F3D6
:10AEE000031040F07000FFF7A7FCF420FFF7A4FC6C
:10AEF000E0B2FFF7A1FCF520FFF79EFCF0B2FFF7F0
:10AF00009BFCF620FFF798FC04EB09000138C0B267
:10AF1000FFF792FCF720FFF78FFC70190138C0B2E1
:10AF2000FFF78AFCC8F307230093C7F3072B00241D
:10AF30005FFA87FA1EE00C9B00261F5D5FFA88F31C
:10AF4000019314E0AF203B0606D5FFF775FC00988F
:10AF5000FFF75CFC019805E0FFF76EFC5846FFF731
:10AF600055FC5046FFF752FC7F00FFB201364E45BC
:10AF7000E8DB0134AC42DEDBBDE8FE8F2DE9F04FAB
:10AF8000054685B010460F461646984604F072FBFB
:10AF900000248146DFF83CA04FF00F0B12E0335D38
:10AFA00093B11AF803300A4A28460BFB03238DE8B5
:10AFB00008010E9B394602930F220823FFF776FF04
:10AFC000083501344C45EADB05B0BDE8F08F00BF21
:10AFD0008BA102002BA7020070B5264A0C461278FE
:10AFE00025490346895C00292AD12D20234D42435F
:10AFF00003E05E5C50182E540131C8B2A042F8D371
:10B00000194622461E4802F0D3FD1E4B00251D6046
:10B010001D4B1E4E1C8004F136033380F7F74AF9AE
:10B020003088F6F7CDFBF7F71DF9124B184A1B785D
:10B030000121D454174A42F823500F4AD15470BD0D
:10B04000154830F81210C1F13201A14210DB134D46
:10B050003226002106FB025507E05E5C6E5430F894
:10B0600012600131013620F81260CEB2A642F4D34C
:10B0700070BD00BF000700101E64001050120010C9
:10B080007A010010500E0010186400100207001022
:10B09000D06A0010A00000101601001073640010A8
:10B0A00030B5134C25780DB1124B1B7889188B42A3
:10B0B00002DDB1F5A06F17DB2278BAB90E491B1A71
:10B0C000DBB20E4C401804E03B299CBF815C11555B
:10B0D0000132D1B29942F7D3094A01201178094AC5
:10B0E0001170044A137030BD002030BD012030BD06
:10B0F000B07C00108D000010604F0010707C0010BC
:10B10000000700108E00001070B5184D2D212B780F
:10B11000174A4B430220D118D05432234B70154BA1
:10B1200005241B788C703033DBB2CB7003230B719A
:10B130002246114802F03CFD104B114E1C803B236F
:10B140003380F7F7B7F83088F6F73AFBF7F78AF865
:10B150002B780C4A0021D4540B4A42F823100B4997
:10B160000122CA540A4B1A7070BD00BF00070010BC
:10B1700050120010F91C00107A0100101864001021
:10B1800002070010D06A0010A00000101E6400101A
:10B19000AE65001070B5184C2D212378174A4B432B
:10B1A0000220D118D054312305224B708A70CB7005
:10B1B0002E230B7130234B7103238B710722104810
:10B1C00002F0F6FC0F4A07230F4E13801D463D2365
:10B1D0003380F7F76FF83088F6F7F2FAF7F742F8AE
:10B1E00023780A4A0021D554094A42F82310094A13
:10B1F0000121D15470BD00BF000700105012001093
:10B200007A0100101864001002070010D06A0010C4
:10B21000A00000101E640010002310B50A220C4686
:10B220008B704B700B7003F01DFA237823B9302319
:10B2300023706370A37010BD627822B9A3703023AD
:10B240002370637010BDA17819B963703023A270A8
:10B25000237010BD2DE9F743BD4B00241A88BD4B68
:10B26000BD491A80BD4806228DF804408DF805407E
:10B270008DF8064002F09AFCB948BA49042202F05F
:10B2800095FCB94B1B88002B4BD1B84C022284F89B
:10B290003620392284F8372002A9052284F8382084
:10B2A0008DF8063031228DF8053001F8043DB04BA1
:10B2B00084F839202C2284F83A2018780A2203F0E6
:10B2C000D1F99DF804303BB930238DF804308DF866
:10B2D00005308DF8063014E09DF805203AB98DF858
:10B2E000063030238DF804308DF8053009E09DF8E4
:10B2F000061031B98DF8053030238DF806208DF811
:10B3000004309DF8043084F83B309DF8053084F813
:10B310003C309DF8063084F83D30052384F83E30FB
:10B320000924914B1E88320A40F08580F6B2984677
:10B33000904D78E0B8F8002022F0FF023243A8F8E0
:10B340000020AF5D002F73D0B4F56B7F4FF000038A
:10B3500000F38281384601A90A228DF806308DF863
:10B3600005308DF8043003F07DF99DF804303BB9C9
:10B3700030238DF804308DF805308DF8063014E058
:10B380009DF805203AB98DF8063030238DF8043049
:10B390008DF8053009E09DF8061031B98DF80530BB
:10B3A00030238DF806208DF80430734B9DF804206F
:10B3B0009DF80510E254621C92B2D154A21C9DF873
:10B3C000061092B2D154E21C2C2192B2D1546B4A95
:10B3D000013F32F81720201DC2F3420780B23037F8
:10B3E000C754601D80B2C2F30312C154A2F10B0115
:10B3F000A01D082980B204F107010BD889B22632BA
:10B400003127C754CA5404F1080292B20521D1541D
:10B41000093405E03032C25489B20522CA540834D6
:10B420000136A4B2F6B2F92E4F4B83D9FA2E02D1CF
:10B430004FF480721A804C4B1D882B0A012B40F070
:10B440000981EDB2002D4FD1B4F5697F00F305817C
:10B45000494E0523A355631C9BB232229A55A31C67
:10B460009BB22C229A55464B02A9187801F8045D2C
:10B470000A228DF806508DF8055003F0F3F89DF878
:10B480000430E71CBFB23BB930238DF804308DF88F
:10B4900005308DF8063014E09DF805203AB98DF896
:10B4A000063030238DF804308DF8053009E09DF822
:10B4B000061031B98DF8053030238DF806208DF84F
:10B4C00004309DF804309DF80520F355231D9BB2F0
:10B4D000F254631D9DF806209BB2F254A31D9BB24B
:10B4E00005220734F254A4B21F4B264D1E7898460D
:10B4F00040F2AB399BE0B8F8003023F0FF03334350
:10B50000A8F80030AF5D47B9174B03221F801A4BD4
:10B510000125E2540134A4B28FE04C454FF0000302
:10B5200000F39A8002A901F8043D38460A228DF8FA
:10B5300006308DF8053003F095F89DF804301BBBFC
:10B5400030238DF804308DF805308DF8063030E06A
:10B55000420E0010861E001090750010541000104E
:10B560003264001006070010466400104401001009
:10B570008C720010561100107A0100108E720010AB
:10B58000470E0010AF6500109DF805203AB98DF800
:10B59000063030238DF804308DF8053009E09DF831
:10B5A000061031B98DF8053030238DF806208DF85E
:10B5B0000430404B9DF804209DF80510E254621CB5
:10B5C00092B2D154A21C9DF8061092B2D154E21C42
:10B5D0002C2192B2D154384A013F32F81720201D55
:10B5E000C2F3420780B23037C754601D80B2C2F345
:10B5F0000312C154A2F10B01A01D082980B204F16D
:10B6000007010BD889B226323127C754CA5404F136
:10B61000080292B20521D154093405E03032C254F7
:10B6200089B20522CA5408340136A4B2F6B2F92E02
:10B630007FF661AFFA2E03D00025204B1B8863B93B
:10B640001E4B00221A801B4B0322E2540134A4B289
:10B65000012502E0002500E01D46194B194E1C8013
:10B6600036343480F6F726FE3088F6F7A9F8F6F778
:10B67000F9FD3088F6F7A4F8F6F7F4FD124B5022E6
:10B680001A8012490622124802F090FA0422114848
:10B69000114902F08BFA114B114A1B7815B10021A8
:10B6A000D15404E00221D1540E4A42F82350BDE89F
:10B6B000FE8300BF7A01001034570010466400106A
:10B6C0001864001002070010861E00104E100010B3
:10B6D0005410001032640010F6060010000700102D
:10B6E0001E640010A00000102DE9F04F4FF0010B78
:10B6F0000BFA00FB6FEA0B03C5B09BB207931FFA6E
:10B700008BF30893431E0025DBB2844FDFF83082B1
:10B71000DFF8309206468A4605928DF80C518DF876
:10B720000D518DF80E510AAC0693EBB209933B888C
:10B730002BB97B881BB9BB88002B00F07A81B8F845
:10B74000003023B9B8F80230002B00F07281059B5D
:10B75000012B40F0AB800AF1FF33FA2202FB0532E5
:10B7600004936F4B33F812309BB213EA0B0F03D0E4
:10B77000069B012B40F25D816A4B50461A886A4B4A
:10B7800043A91A8002232370332363700A220523FE
:10B79000A37002F067FF9DF80C313BB930238DF8A0
:10B7A0000C318DF80D318DF80E3114E09DF80D211E
:10B7B0003AB98DF80E3130238DF80C318DF80D31FA
:10B7C00009E09DF80E1131B98DF80D3130238DF857
:10B7D0000E218DF80C31082E01D0012E06D1302318
:10B7E0008DF80E318DF80D318DF80C319DF80C313E
:10B7F0000998E3709DF80D31312223719DF80E31C7
:10B80000E27163710523A371237206F13003637241
:10B810000323A372454B394618700622444801930E
:10B8200002F0C4F904224348414602F0BFF9019BEB
:10B83000DFF814C11A781CF802206AB920460B21DF
:10B840000292CDF80CC0FFF7C7FB019B029A1B7850
:10B85000DDF80CC00CF803200B212046FFF7BCFBE1
:10B86000314B50221A8034490622314802F09EF9A9
:10B8700004223048314902F099F9069B4FF0FA0250
:10B88000012B274B07D9049802FB0502079833F8D0
:10B890001210014007E00499089802FB051233F8E2
:10B8A000121089B2014323F81210C2E0059B022B4B
:10B8B00040F0BF800AF1FF3304930498FA2303FB9E
:10B8C000050339F813309BB213EA0B0F40F0B18037
:10B8D000144B50461A88144B43A91A80059B0A2220
:10B8E0002370332363700523A37002F0BBFE9DF821
:10B8F0000C313BB930238DF80C318DF80D318DF8BA
:10B900000E312DE09DF80D2102BB8DF80E31302354
:10B910008DF80C318DF80D3122E000BF641E00104F
:10B92000545A00104C640010861E001000070010CE
:10B9300054100010326400104E100010F606001073
:10B940000C690010321300101E6400109DF80E11D7
:10B9500031B98DF80D3130238DF80E218DF80C3171
:10B96000082E01D0012E06D130238DF80E318DF82E
:10B970000D318DF80C319DF80C310998E3709DF86C
:10B980000D31322223719DF80E31E271637105236E
:10B99000A371237206F1300363720323A3722A4B4F
:10B9A0003946187006222948019302F0FFF8042254
:10B9B0002748414602F0FAF8019BDFF8A4C01A7844
:10B9C0001CF802206AB920460B210292CDF80CC067
:10B9D000FFF702FB019B029A1B78DDF80CC00CF804
:10B9E00003200B212046FFF7F7FA1A4B50221A804A
:10B9F00019490622154802F0D9F8042214481749BB
:10BA000002F0D4F8069B012B4FF0FA0307D90498F3
:10BA1000079903FB050339F813200A4007E0049A4D
:10BA2000089803FB052339F8132092B2024329F842
:10BA30001320013506372D34052D08F104087FF455
:10BA400074AE45B0BDE8F08F000700105410001030
:10BA500032640010861E00104E100010F606001012
:10BA60001E6400102DE9F341544B00241A88544BF6
:10BA700054491A80544806228DF804408DF8054038
:10BA80008DF8064002F092F804225049504802F026
:10BA90008DF8504A1368991C116093F80280A8F140
:10BAA0003101C9B2012936D81E79191DA6F1310319
:10BAB000DBB2012B11602ED8474D022385F83630BA
:10BAC000402385F83730454B052785F839801878AD
:10BAD00085F8387085F83A7085F83B6085F83C70D9
:10BAE00001A9FFF799FB9DF804303D4A85F83D30E8
:10BAF0009DF8053085F8407085F83E309DF8063099
:10BB000085F83F30374BB8F1310F14BF9046984657
:10BB1000312E27D105E0042021460122FFF7E4FD64
:10BB20004AE00B2336352C2138F80420C2F30312E7
:10BB3000A2F10B00082809D8581C263280B2EE5416
:10BB40002A549A1C92B2A954033305E03032EA54C5
:10BB50005A1C92B2A95402330234B4F5FA7F9BB254
:10BB6000E2D110E02C2338F804200234C2F3420260
:10BB7000303285F8412085F842300235B4F5FA7F3D
:10BB8000F1D140F2FF13184A03219954174A184C77
:10BB9000138036332380F6F78DFB2088F5F710FEEF
:10BBA000F6F760FB2088F5F70BFEF6F75BFB114B11
:10BBB000114A1B780121D154BDE8FC81420E0010CE
:10BBC000861E00109075001054100010060700101B
:10BBD00032640010AC7C0010440100108C72001024
:10BBE000345700108E720010790100101864001094
:10BBF00002070010000700101E640010F7B5324A5B
:10BC000032481178324A01311170324A00231168EA
:10BC10008DF8043002318DF805308DF80630116052
:10BC2000036008E0016802AE74180133013104F8C2
:10BC3000045C01601360136826491D78052DF1D15D
:10BC40005A1C0A605C7803330B6001A803F0BCFC4B
:10BC5000303CE4B2204B012C186003D1C1B24B1E22
:10BC60001E4A04E0022C09D1C1B21D4A4B1ED35C0E
:10BC700023B928462246FFF737FD24E0134A002364
:10BC800013608DF806308DF805308DF804301149B9
:10BC9000134608E01D6802AF7E190130013506F831
:10BCA000042C1D60086008680278032AF2D101A8FC
:10BCB00003F08AFC0B4B01461860074BC9B2187899
:10BCC0002246FAF7E5F9FEBD00070010647C00107B
:10BCD00095740010AC7C0010607C0010FD1C0010FE
:10BCE0005A1000106C7C00104B4A2DE9F04111688D
:10BCF0000023023111604949C4B08DF80C318DF830
:10BD00000D318DF80E310B6008E0086844AD2C1839
:10BD10000133013004F8046C0860136013683E4D71
:10BD20001E78052EF1D15A1C2A605C7803332B60F3
:10BD300043A803F049FC3A4BC1B23A4A18604B1E83
:10BD4000D35C303CE4B223B930462246FFF7CCFC4A
:10BD50005EE0324A00238DF80E318DF80D318DF8FA
:10BD60000C3113602946134608E01D6844AF7E1964
:10BD70000130013506F8042C1D6008600868264D66
:10BD800002782C2AF1D143A803F01EFC264B274A47
:10BD900018602B68214E01332B6000238DF80E3183
:10BDA0008DF80D318DF80C31136020E000233360E5
:10BDB00008E0316844AF78180132013100F8043CE2
:10BDC00031602A602A6813782C2B01D0032BF0D124
:10BDD000164F43A8D7F8008003F0F6FB03AB03F837
:10BDE00008003B6801333B602B6801332B602B68F4
:10BDF00013F8013C032BD9D1094B18780A4B197859
:10BE00000A4B1A7801238DE8180003ABF9F7A2FD5D
:10BE100044B0BDE8F08100BFAC7C0010647C001031
:10BE2000607C0010FD1C00106C7C00105C7C00101D
:10BE30002DE9F04100258EB003A8294628228DF86F
:10BE400034508DF835508DF8365001F0B3FEA64EC3
:10BE5000A64CA74B308821881B881722FFF720F9B2
:10BE6000002840F09F81A34B01221A702388A24929
:10BE700002332380A14B0860186809E00DF13808EF
:10BE800008EB020C013301320CF8047C0A602380B9
:10BE90002388C75C052F02D00A68022AEED9954A8A
:10BEA00002211170944A1268EAB19DF834103039B9
:10BEB000C9B2092900F2FC80012A14D99DF8351075
:10BEC0003039C9B2092900F2F380022A0BD09DF85B
:10BED00036103039C9B2092900F2EA80032A02D0AB
:10BEE0000420002133E0834A03211170591C89B2D8
:10BEF0002180415CA1F130053139C9B20129EDB28F
:10BF000000F2D68003332380042313700DA803F0BE
:10BF10005BFB7B4B0146186000238DF836308DF8B3
:10BF200035308DF83430002800F0C280FA2802D96C
:10BF3000FC2840F0BD806F4B0520012D18700AD100
:10BF4000704A4B1ED35C5BB9FC2909D0C9B22A46A2
:10BF5000FFF7CAFBACE0022D02D14B1E6A4AF1E7A3
:10BF6000644B0622644F1A7000233B60DFF88C811B
:10BF700012E00EA8C31803F82C2C5D4B30881B88E8
:10BF80000122FFF78DF8002840F00C81238801334F
:10BF900023803B6801333B602188D8F800305A5C2D
:10BFA0002C2A02D03B681E2BE3D9524B07221A7071
:10BFB000514A12681E2A03D9514B04201978C6E74A
:10BFC0000822012D1A7005D14D4B1B68FC2B17D090
:10BFD0004E4A06E0022D13D1494B1B68FC2B0FD0B3
:10BFE0004B4AD21812F8012C002A61D1494A107824
:10BFF000494A12788218592A02DDD9B20620A6E7EA
:10C000003C4F09233B703A4B30881B880E22FFF7C8
:10C0100047F80146002840F0C5800A233B70DFF84E
:10C02000E080354B98F800001A7803AB8DE82200C9
:10C03000F9F73CFE2288314B501C1B6880B22080EF
:10C04000191891F804C091F802E0ACF1300CAEF18F
:10C05000300E4FEA4C0C4CEA8E0C13F800E0897954
:10C06000AEF1300E4CEA0E003039093292B240EA9D
:10C07000C1018DF80D102280995C9B181A799B786C
:10C080003039303A42EA4112303B42EA83038DF8BC
:10C090000C300B233B70012398F8000018218DE829
:10C0A0002800022203ABF9F755FC238805332380CF
:10C0B000104B1A490C221A700B784BB1184A0F4BCF
:10C0C0001A6000231A460B7033802380154B1A70B8
:10C0D000084B0D221A70094B1F68054B198840F256
:10C0E000FE43013922E000BF9200001090000010D2
:10C0F000D46C001094000010647C0010687C001068
:10C10000607C0010FD1C00105A100010390C00104B
:10C11000BC660010AB6500108C740010B07C001081
:10C12000604F00108D000010013222802288B85C20
:10C13000032803D08A4201DA9A42F5D91B4B1B88A7
:10C14000591E8A422BDA40F2FE40824227D8184A12
:10C150004FF00F0C82F800C0024601E00130208051
:10C16000208817F800C0BCF1020F03D0884201DA22
:10C170009042F3D988420E4F11DA40F2FE429042CB
:10C180000DD811223A7001460A223080FEF788FF4E
:10C1900028B923880133238012233B7059E6044BCE
:10C1A00013221A700EB0BDE8F08100BFD46C0010ED
:10C1B00094000010F8B58449844B01221960844B27
:10C1C0001960844B1A70421E002340F2FE4000E0CA
:10C1D0000133934202D25C5C022C06D17E490B6093
:10C1E00040F2FE418B4203D9EAE08342F0D92AE0D3
:10C1F000934280F0E580744802241918734B19604B
:10C20000744B1C70754C00232370754C2478002CE3
:10C2100050D0744C744D24782D78A5424AD140F208
:10C22000FE4400E00133934202D21D5C022D08D18E
:10C230006948036040F2FE4083424FF0000005D998
:10C24000C1E0A342EED9644A1360B9E0934280F0A2
:10C25000BA80664A624D1060654C5B4A08E03B2834
:10C2600005D82E7810F802C0271807F806C001304C
:10C270009842F4D95D4A594E1060594D01203070F2
:10C280002A78584FD318DBB200242B70584B3C70DF
:10C29000584F4F4A388018781360022808D15B78CD
:10C2A000342B05D1FFF7C4FD347020462C70F8BD47
:10C2B000454B1360484B0D781A884F4B4D481A80F8
:10C2C000444B0424022D02801C7079D1013202807B
:10C2D00005221A704A783D4D4E1C312A2E6007D136
:10C2E0008A782F2A6ED806221A70FEF753FF65E06F
:10C2F000322A04D107221A70FEF706FF5EE0342AC4
:10C3000004D108221A70FFF793FD59E0352A13D1A2
:10C31000CB784FF40022312B384B0CBF9A61DA6195
:10C320004B794FF48012312B344B0CBF9A61DA6198
:10C33000264A0B31116043E0372A02D1FFF7D4FCC3
:10C340003EE0382A02D1FFF759FC39E0392A12D1F0
:10C3500009221A702A4B2B491A882B4B2B481A801A
:10C36000062201F023FC2A4922462A4801F01EFC3D
:10C37000FEF770FF22E0402A10D1214B21491A8894
:10C38000214B22481A80062201F010FC2049224647
:10C39000204801F00BFCFFF765FB0FE0412A11D1AB
:10C3A000174B18491A88184B18481A80062201F0B2
:10C3B000FDFB18481649042201F0F8FB0120F8BDE6
:10C3C0000020F8BD0020F8BD604F0010AC7C0010CC
:10C3D000687C00108C000010647C0010B07C0010A1
:10C3E0008D0000108E000010000700105C7C001013
:10C3F000707C0010900000109200001020C00920F6
:10C40000861E001054100010420E0010907500108F
:10C4100032640010060700101D4BDA6822F47042E7
:10C42000DA60D9681B4A0A40DA601A6822F470227E
:10C430001A605A6A22F070625A62DA6922F4402263
:10C44000DA61154A116821F0806111605A6822F49E
:10C4500040525A60114B1A6842F040521A6053F829
:10C46000602C42F0025242F4F00243F8602C0C4A75
:10C47000116841F440711160116841F4800111604C
:10C4800053F8602C22F0985243F8602C704700BF9C
:10C4900000C002403F00F0F060C0092080C00920C9
:10C4A00000C00920013805283BD8DFE800F0030C64
:10C4B000151E27311B4B5A69D14301F40071996154
:10C4C00002F4007222E0174B5A69D14301F48071E3
:10C4D000996102F4807219E0134B5A69D14301F05B
:10C4E0000051996102F0005210E00F4B5A69D1439C
:10C4F00001F08051996102F0805207E00B4B5A69BC
:10C50000D14301F40001996102F40002DA6170473D
:10C51000064B5A69D14301F4000102F4000299610B
:10C52000DA61704700C0092080C0092020C00920BE
:10C53000013805281FD8DFE800F003060A0D121A9B
:10C540004FF4007201E04FF480720B4B05E04FF0A6
:10C55000005201E04FF08052084B9A617047084B3F
:10C560004FF400029A61074B00221A607047044B97
:10C570004FF480029A61704700C0092080C00920F2
:10C5800020C009203C0E0010013805281BD8DFE828
:10C5900000F003060A0D11164FF4007201E04FF48B
:10C5A0008072094B09E04FF0005201E04FF08052D9
:10C5B000064B02E0064B4FF40002DA617047044B71
:10C5C0004FF48002DA61704700C0092080C0092062
:10C5D00020C0092010B5544A5449137803F0FE03D3
:10C5E00013700023C85C840703D5107840F0010065
:10C5F00010700133FA2BF5D14B4A4C49137803F0F4
:10C60000FB0313700023C85C800703D5107840F04B
:10C61000040010700133FA2BF5D1434B1A78D4077C
:10C6200002D41A78500725D5414C2368642B05D9CC
:10C630002368C72B02D80620FFF77AFF2368C82B90
:10C6400007D93B4B1B68B3F5967F02D20620FFF754
:10C650009BFF2368B3F5967F07D9354B1B68B3F56D
:10C66000C87F02D20620FFF763FF314B1B68B3F58A
:10C67000C87F3FE01B78990740D52D4C2368642B79
:10C6800005D92368C72B02D80620FFF751FF23687E
:10C69000C82B07D9264B1B68B3F5967F02D206201C
:10C6A000FFF772FF2368B3F5967F07D9204B1B680D
:10C6B000B3F5C87F02D20620FFF73AFF1C4C23686F
:10C6C000B3F5C87F06D92368B3F5FA7F02D20620F6
:10C6D000FFF75AFF2368B3F5FA7F07D9144B1B689D
:10C6E000B3F5167F02D20620FFF722FF104B1B681E
:10C6F000B3F5167F02D90620FFF746FF0A4C2378D0
:10C700001A0702D50620FFF713FF23781B0702D173
:10C710000620FFF739FF064B1A68B2F57A7F01D978
:10C7200000221A6010BD00BF296400101E0F001007
:10C730005C4F00102DE9F04F436886680268C568B9
:10C74000C94FD1F800C025EA0304D71906EA03024D
:10C7500022436744C468C54DBF184A688FB003EBD5
:10C7600077676519019226EA0704AD1807EA030204
:10C770002243D0F80880AD18BD4A8E6807EB3555C6
:10C78000424405EA07049219029623EA0506264365
:10C79000B84C9619CA6805EBF6361C1927EA060844
:10C7A000A418039206EA050248EA0202A2180C69DC
:10C7B00006EBB2220494DDF81080AF4C4444E71934
:10C7C00025EA020802EA060448EA04043C194F6913
:10C7D00002EB74640597DDF81480A84F47447D1977
:10C7E00026EA040804EA020748EA0708A8448D6913
:10C7F00004EB38580695069FA14D7D19AE1922EA23
:10C80000080708EA04053D437619CD6908EBF636BA
:10C810000095009F9B4D24EA06097D19AA1806EA97
:10C82000080549EA050555190A6A06EBB525079278
:10C83000079F954A28EA0509BA18141905EA06025D
:10C8400049EA0202A4184A6A05EB74640892089F38
:10C850008E4A26EA0409BA1890448F6A04EA05024F
:10C8600049EA02024244A7F5244804EB3252A8F1F7
:10C870004F0825EA0209464402EA040849EA080882
:10C880000997B044CE6A02EBF8380A960A9F804EA8
:10C8900024EA080BBE19751908EA02064BEA060BD2
:10C8A000AB440D6B08EBBB2B0B950B9E794D4F6B7F
:10C8B00075192C1922EA0B060BEA08053543651990
:10C8C000754C0BEB75653C1928EA0506A21805EABC
:10C8D0000B04344314198E6B704A05EB34546FEA21
:10C8E0000409B218CDF83490904409EA0B0904EA1F
:10C8F000050249EA0202C96B4244DFF8D09104EB19
:10C90000F2326FEA0208894408EA050ACB4402EAD7
:10C9100004090C974AEA0909019FDFF8B4A1CB4446
:10C92000BA440D9F02EBBB2B0BEA0409AA4402EAAE
:10C93000070549EA0505AA44DDF81890584D0BEBA8
:10C94000FA6A4D442D190BEA08080AEA020444EA7F
:10C9500008040A9F2C19534D0AEBF4547D1904EA7C
:10C960000B08AA182AEA0B0548EA050552194E4D8C
:10C9700004EBB242654402EA0A08AB4424EA0A0521
:10C9800048EA0505AB44DDF81480484D02EB3B3B1B
:10C990004544AA440BEA040822EA040548EA0505CE
:10C9A000DDF82490AA44424D0BEBFA6A4D440AEAA2
:10C9B00002082C192BEA020548EA050565193D4CC9
:10C9C0000AEBF5550C19A21805EA0B082AEA0B0424
:10C9D00048EA04089044049C374A05EBB848A2187A
:10C9E000934408EA0A0425EA0A022243089F934472
:10C9F000324A08EB3B3BBA180BEA0504924428EA9A
:10CA0000050222432E4C52440BEBF262341902EA27
:10CA1000080965192BEA080449EA04042D19DDF810
:10CA20000C90284C02EBF5554C44A04405EA0B0948
:10CA300022EA0B0449EA0404079FA044224C05EBB8
:10CA4000B8483C1908EA0209A34425EA02040C9FED
:10CA500049EA0404DFF87C905C4408EB3434B944C0
:10CA600004EA050A4A4437E078A46AD756B7C7E80B
:10CA7000DB702024EECEBDC1AF0F7CF52AC6874700
:10CA8000134630A8019546FDD8988069AFF7448BCE
:10CA9000BED75C892211906B937198FD8E4379A665
:10CAA00040B340C0515A5E26AAC7B6E95D102FD6E2
:10CAB0005314440281E6A1D8C8FBD3E7E6CDE121B7
:10CAC000D60737C3870DD5F4ED145A452108B4496C
:10CAD00062251EF605E9E3A928EA05094AEA0909DB
:10CAE000029F4A44DFF8B09304EBF262B94402EAD1
:10CAF000080A4D4424EA08094AEA0909009F4D44FE
:10CB0000DFF8989302EBF555B94405EA040AC844E6
:10CB100022EA04094AEA09090B9FC844DFF8809316
:10CB200005EBB848B94408EA020A4C4425EA020970
:10CB30004AEA09094C44DFF86CB3DDF8149008EBBD
:10CB40003434CB4488EA050989EA0409079F9344F1
:10CB5000B54ACB4404EB3B7BBA1884EA080989EA5E
:10CB60000B0955194D44B14ADDF828900BEB75556A
:10CB70004A448BEA040989EA05099044AC4AC8444E
:10CB800005EB3848B21885EA0B0989EA0809019FC4
:10CB90001419A84A4C4408EB7424BA1888EA050909
:10CBA00089EA04099344CB44A34ADDF8109004EBCE
:10CBB0003B7B4A4484EA080989EA0B09009F55191E
:10CBC0009E4A4D440BEB75558BEA0409BA1889EA65
:10CBD000050942444A44DFF8D082DDF8249005EB91
:10CBE0003242C84485EA0B0989EA02090C9FA04435
:10CBF000934CC84402EB78283C1982EA050989EA7B
:10CC00000809A3448F4CCB4408EB3B7B644488EA7F
:10CC10000209651989EA0B094D448B4CDDF80C902B
:10CC20000BEB75554C448BEA0809A21889EA0509F3
:10CC3000069C9144854A05EB3949A21885EA0B0AFE
:10CC40008AEA090A089F9044814CD04409EB78286D
:10CC500089EA05023C1982EA08025C440B9FA41889
:10CC60007C4A08EB3474BA1888EA090A8AEA040A8A
:10CC70005519794A554404EB75558A1884EA080A0F
:10CC80008AEA050A029F9144744AD14405EB394966
:10CC900085EA040ABA1842448AEA090A5244DFF8CB
:10CCA0000C8209EB7222E04462EA050C8CEA090C62
:10CCB00044446444DDF80080DFF8F4C102EBB4645E
:10CCC000C44464EA090757406544ED19644F04EB16
:10CCD000B555F71965EA020666404F44BF19DDF8FD
:10CCE0001490604E05EB77474E4467EA040C8CEADB
:10CCF000050CB21862445C4EDDF82CC007EBF22242
:10CD0000664462EA050C8CEA070C3419DDF80C80E5
:10CD10006444564E02EBB464464464EA070888EA69
:10CD200002087519DDF824904544514E04EBB555C1
:10CD30004E4465EA020C8CEA040CF71967444D4E28
:10CD4000DDF804C005EB7747664467EA040C8CEA1B
:10CD5000050CB218DDF81C806244474E07EBF22246
:10CD6000464462EA050C8CEA070C34196444434ECD
:10CD700002EBB4648E1964EA070151407519DDF8BD
:10CD800018906D183E4904EBB55565EA020C49440C
:10CD90008CEA040CC91961443A4EDDF830C005EB49
:10CDA0007141664461EA04076F40B218D219364EE9
:10CDB000049F01EBF222BE1962EA05074F403419C5
:10CDC000DDF82880E419314E02EBB464464464EA8D
:10CDD000010757407519ED19DDF808902C4E04EB4A
:10CDE000B55565EA020C4E448CEA040C7118614496
:10CDF000284EDDF820C005EB71416644B218066884
:10CE000061EA04076F40A4190460D219D0F80C80BD
:10CE10008768CB1803EBF223C9194544436081604E
:10CE2000C5600FB0BDE8F08F81F6718722619D6DFE
:10CE30000C38E5FD44EABEA4A9CFDE4B604BBBF63F
:10CE4000C67E9B28FA27A1EA8530EFD4051D880409
:10CE500039D0D4D9E599DBE6F87CA21F6556ACC47D
:10CE6000A72394AB39A093FCC3595B6592CC0C8F7C
:10CE70007DF4EFFFD15D84854F7EA86FE0E62CFE48
:10CE8000144301A3A111084E827E53F735F23ABD37
:10CE9000BBD2D72A91D386EBF8A3EFFCD9026F67F8
:10CEA0008A4C2A8D4239FAFF70BCBFBE442229F455
:10CEB00097FF2A43002343600360054B836003F11F
:10CEC0008833C360034B0361A3F188334361704728
:10CED00001234567FEDCBA98F0B5164602680D4698
:10CEE00002EBC601914291B00446C2F3C50302D2DF
:10CEF0004268013242606268216002EB56726260F1
:10CF000004F108071EE0E21815F8011B0133402B5D
:10CF1000117616D123460022997ED87E090441EA73
:10CF20000061187E0143587E043341EA00214DF828
:10CF300002100432402AEFD138466946FFF7FAFB67
:10CF40000023013E002EDED111B0F0BD30B50268E5
:10CF500091B00E92C2F3C502372A43680446D4BF8B
:10CF6000C2F13802C2F1780217490F932546FFF744
:10CF7000B3FF23460022997ED87E090441EA00616E
:10CF8000187E0143587E043341EA00214DF8021017
:10CF90000432382AEFD104F108006946FFF7CAFBD2
:10CFA0000022AB680432190A85F8583085F8591008
:10CFB000190C1B0E85F85A1085F85B300435102AC1
:10CFC000EFD111B030BD00BF2400001030B59BB0D0
:10CFD000054668460C46FFF76DFF284602F04AFBFF
:10CFE000294602466846FFF777FF6846FFF7AEFF1F
:10CFF0000DF15702002312F8011F0809E054E01850
:10D00000023301F00F01202B4170F4D11BB030BD71
:10D01000002304491A4621F813200133FA2BFAD1D0
:10D02000704700BFDC6A0010002304491A4621F84B
:10D0300013200133FA2BFAD1704700BF1E0A0010EB
:10D040000023064806491A46C254CA540133FA2B33
:10D05000FAD1044B00221A70704700BFFD1C00106B
:10D06000561100108C7200100023064806491A461B
:10D07000C254CA540133FA2BFAD1044B00221A705D
:10D08000704700BF5A100010AF650010470E001027
:10D0900030B50023074D0848084930241A46F92BBB
:10D0A000EC54DCBFC254CA540133B3F5D17FF6D17E
:10D0B00030BD00BF246900101E0F00105959001028
:10D0C00070B50022074D084C084809491346EE5C2C
:10D0D00036011653C65C0133360156520232FA2B22
:10D0E000F5D170BDFD1C00108E7200105A1000109A
:10D0F000345700102DE9F0430023DFF87480DFF887
:10D1000074C0174D174F184E184C01221846194677
:10D1100018F80390B9F1000F0BD00CF8012095F826
:10D120000090013109F101095FFA89F9C9B285F866
:10D13000009017F80390B9F1000F0AD0325494F818
:10D140000090013009F101095FFA89F9C0B284F851
:10D15000009001330132FA2BD2B2D9D1BDE8F0836D
:10D160008C7200105A100010AF650010470E0010AE
:10D17000FD1C00105611001030B501289DF80C4020
:10D180000BD812014900114D08B141F001010A43C9
:10D1900042EA042425F8134030BD022808D1490092
:10D1A00041EA02120A4842EA042420F8134030BD42
:10D1B000032809D1490041F0010141EA0212044863
:10D1C00042EA042420F8134030BD00BFDC6A00109E
:10D1D0001E0A00102DE9F04F6D4A6E4B1078197839
:10D1E000884218BF11786C4818BF1970002313705B
:10D1F0006A4A6B4914786B4A1D4617686A4A013FB0
:10D2000016786A4A92F80090694A92F80080694A52
:10D21000B1F800C02CF0F00C1FFA8CFC21F802CB06
:10D2200010F803A0BAF10B0F02D14CF0600C0AE029
:10D2300010F803A0BAF10A0F16BF10F803A04CF0C3
:10D24000700C4CEA0A1C21F802CC32F813C01CF016
:10D25000010F08D132F813C00CF00E0CBCF1000F16
:10D2600001D00135EDB2DFF84CB131F802CC3BF81A
:10D2700013A08CEA0A0A1AF00F0F0ED132F813A08D
:10D2800010F803B0CAF3031ADA4506D132F813A036
:10D290008CEA0A0A1AF47F4F62D032F813A01AF00F
:10D2A0000E0F06D1DFF814B11BF803A01AF0020F1D
:10D2B00056D01B2C01D0052C07D132F813A08CEAD4
:10D2C0000A0C1CF00E0F18BF0126192C01D0072CD8
:10D2D00010D1DFF8CCB032F817C03BF817A08AEABB
:10D2E0000C0C1CF47F4F05D032F817904FF001085A
:10D2F000C9F3032910F803C0BCF10B0F0CD132F8AD
:10D3000013A032F813C00AF00F0A0CF47F4C4AEA5B
:10D310000C0C4CF0600C10E010F803C0BCF10A0FCC
:10D320000ED132F813A032F813C00AF00F0A0CF431
:10D330007F4C4AEA0C0C4CF0700C21F802CC0FE048
:10D3400032F813C010F803B032F813A00CF00F0C31
:10D350000AF47F4A4AEA0C0C4CEA0B1B21F802BC87
:10D360000133FA2B7FF454AF0F4B1E700F4B83F831
:10D3700000900F4B83F800800F4B1B789D4204D127
:10D380000220BDE8F04FFFF7FFB8BDE8F08F00BF07
:10D390003D590010F2060010FD1C00105E0E00103A
:10D3A0008E72001050640010380D0010CE6A00100C
:10D3B000FB060010DC6A00108C7200101E0F0010BB
:10D3C0002DE9F04F6D4A6E4B10781978884218BFDE
:10D3D00011786C4818BF1970002313706A4A6B49A2
:10D3E00014786B4A1D4617686A4A013F16786A4AE4
:10D3F00092F80090694A92F80080694AB1F800C03A
:10D400002CF0F00C1FFA8CFC21F802CB10F803A0D2
:10D41000BAF10B0F02D14CF0600C0AE010F803A037
:10D42000BAF10A0F16BF10F803A04CF0700C4CEACA
:10D430000A1C21F802CC32F813C01CF0010F08D1ED
:10D4400032F813C00CF00E0CBCF1000F01D0013506
:10D45000EDB2DFF84CB131F802CC3BF813A08CEA06
:10D460000A0A1AF00F0F0ED132F813A010F803B009
:10D47000CAF3031ADA4506D132F813A08CEA0A0A75
:10D480001AF47F4F63D032F813A01AF00E0F06D1B2
:10D49000DFF814B11BF803A01AF0020F57D01C2CB0
:10D4A00001D0062C07D132F813A08CEA0A0C1CF02C
:10D4B0000E0F18BF01261A2C01D0082C10D1DFF84E
:10D4C000CCB032F817C03BF817A08AEA0C0C1CF459
:10D4D0007F4F05D032F817904FF00108C9F30329A8
:10D4E00010F803C0BCF10B0F0DD132F813A032F8C5
:10D4F00013C00AF00F0A0CF47F4C4AEA0C0C4CF0F3
:10D50000600C21F802CC10F803C0BCF10A0F0ED158
:10D5100032F813A032F813C00AF00F0A0CF47F4C53
:10D520004AEA0C0C4CF0700C21F802CC0FE032F8F7
:10D5300013C010F803B032F813A00CF00F0C0AF46B
:10D540007F4A4AEA0C0C4CEA0B1B21F802BC01335F
:10D55000FA2B7FF453AF0F4B1E700F4B83F80090E4
:10D560000E4B83F800800F4B1B789D4204D10420A2
:10D57000BDE8F04FFFF708B8BDE8F08F280C0010A9
:10D580002B1E00105A1000105E0E001034570010B1
:10D5900050640010380C0010CE6A00109C0000107F
:10D5A0001E0A00108C72001059590010F0B509289D
:10D5B00085B0044615461F469DF82C6001D83034CE
:10D5C000E4B2002308460A2269468DF800308DF83F
:10D5D00001308DF802308DF804308DF805308DF86B
:10D5E00008308DF809308DF80C308DF80D3001F0D1
:10D5F00039F89DF800303BB930238DF800308DF8B4
:10D6000001308DF8023014E09DF801203AB98DF810
:10D61000023030238DF800308DF8013009E09DF89C
:10D62000021031B98DF8013030238DF802208DF8C9
:10D630000030284601A90A2201F014F89DF80530AF
:10D6400033B99DF804308DF8053030238DF804305F
:10D65000384602A90A2201F005F89DF8093033B9CD
:10D660009DF808308DF8093030238DF808309DF88A
:10D67000280003A90A2200F0F5FF9DF80D3033B908
:10D680009DF80C308DF80D3030238DF80C30434B65
:10D690001B7863B930238DF80D308DF80C308DF880
:10D6A00009308DF808308DF805308DF804303C4B8A
:10D6B0001B889BB2B3F5D17F15D13A4A002340F2C3
:10D6C000971003F10B01515CD1540133834235496A
:10D6D000F7D13022CA540133B3F5D17FFAD1304BA0
:10D6E00040F297121A802E4B2E4A198806F130000C
:10D6F00089B2C0B2505419889DF8040089B2013132
:10D70000505419889DF8050089B202315054198887
:10D710009DF8080089B20331505419889DF809001A
:10D7200089B20431505419889DF80C0089B2053132
:10D73000505419889DF80D0089B20631505419884B
:10D740009DF8000089B2073154541988313C89B2E0
:10D750000831505419889DF8010089B2093150549C
:10D7600019889DF8020089B20A3150541A88E4B22F
:10D770000B3292B2072C1A8006D8012E0CBF0A4B2E
:10D780000A4B1A88013205E0012E0CBF064B074BED
:10D790001A88013A92B21A8005B0F0BDE80E001066
:10D7A0003864001024690010305700101C64001009
:10D7B00000284FEAC10106DA064B00F00F00C9B29B
:10D7C000C31819767047044BC9B2C31883F8001305
:10D7D000704700BFFCEC00E000E100E020B901224E
:10D7E0004FF040235A607047012802D1044B586023
:10D7F0007047022802D1034B01225A60704700BFD4
:10D80000008000400000094028B90B4B18604FF021
:10D81000402358607047012805D1084A002313604F
:10D82000074A53607047022804D1064A0023136058
:10D83000054A5360704700BF34590010AC660010B1
:10D8400000800040FC0600100000094010B94FF0B5
:10D85000402302E0012805D1064B5A6842F002023B
:10D860005A607047022804D1034B5A6842F0020202
:10D870005A607047008000400000094060B91A4BB0
:10D88000032218604FF0402399615A61174B02221E
:10D890001A600120042123E001280CD1144B00223E
:10D8A0001A60144B032299615A61104B04221A60CA
:10D8B0000220052114E0022814D10F4B00221A6027
:10D8C0000E4B0320D3F8C42042F48002C3F8C420D6
:10D8D000A3F5D82399615861044B08221A600621E8
:10D8E000FFF766BF704700BF3459001000E100E049
:10D8F000AC66001000800040FC06001000C00F4025
:10D9000001224FF040231A60024B1A6801321A605C
:10D91000704700BF34590010124B01221A60124A9E
:10D92000136801331360114A127D91060AD5104A1B
:10D930001278062A06D10F4A52781AB1052B01D95E
:10D94000FBF746BE0C4A127D92060AD5084A1278A9
:10D95000012A06D1094A52781AB1052B01D9FAF7E2
:10D9600059BE704700800040AC66001000C00940FE
:10D9700030590010AA0E001000C00040D500001061
:10D98000124B01221A60124A136801331360114AC4
:10D99000127D92060AD5104A1278062A06D10F4A3D
:10D9A00052781AB1052B01D9FBF76EBB0C4A127DD8
:10D9B00090060AD5084A1278012A06D1094A5278F7
:10D9C0001AB1052B01D9FBF7C5B870470000094013
:10D9D000FC0600100080094055110010780E001060
:10D9E000000001401810001038B52C4BD3F88820E7
:10D9F000C2F30162032A39D1D3F80C21D3F888008D
:10DA000002F003024004400C0130012A08D0022A2F
:10DA1000234CD3F88820D3F8045116D0214B16E0BC
:10DA2000D3F88820D3F804411F4BC2F30742A0FB70
:10DA3000030101320023E4B202F0C5F90023621CA5
:10DA400002F0C1F9164B186038BD4FF47A43C2F3A7
:10DA50000742A0FB030101320023EDB202F0B3F94B
:10DA60006A1C002302F0AFF9206038BDD3F80C1116
:10DA7000D3F8043101F00301DBB201330129084A74
:10DA800003D0022903D0094903E0094901E04FF41A
:10DA9000FA41B1FBF3F3136038BD00BF00C00F4083
:10DAA0006400001000127A0000366E0100093D008B
:10DAB000001BB700354B2022C3F8A0211A46D2F82C
:10DAC000A011324B4906FAD50322C3F804210022E3
:10DAD000C3F8A821C3F8AC212D4A0120C3F80C01DA
:10DAE000AA21C3F884205522C3F88C10C3F88C20D7
:10DAF000C3F88000C3F88C10C3F88C20D3F88820BA
:10DB000012F0806F214AF9D00323C2F88030AA2393
:10DB1000C2F88C305523C2F88C30D2F888101B4BD9
:10DB200011F0407FF9D02322C3F8A420AA21552266
:10DB30000120C3F8AC10C3F8AC20C3F8A000C3F8B0
:10DB4000AC10C3F8AC20D3F8A82012F4806F0F4AB1
:10DB5000F9D00323C2F8A030AA23C2F8AC30552371
:10DB6000C2F8AC30D2F8A810084B11F4407FF9D0BD
:10DB7000084AC3F8C4200022C3F8C8211A6822F456
:10DB8000704242F480421A60704700BF00C00F40EC
:10DB90001F000100DE872804002008B50146024668
:10DBA00000F012FDBDE80840F3F7B2B802F0B6BDD0
:10DBB00002F0C7BD02F0D3BD034600E001395A1898
:10DBC00012F8012C302AF9D03E2AF7D02E2A08BFAD
:10DBD00001390846704710B5425C4318342A1EDDEF
:10DBE000352A05D11C4614F8012F302AFBD0C2B1CA
:10DBF000302413F8012C392A02D103F8014DF8E73B
:10DC0000013203F8012C0378302B04D10BE0425C85
:10DC100043185A7001390029F9DA012010BD00209B
:10DC200010BD104610BD002010BD30B500230A25E0
:10DC30006FF0090400E0104690FBF5F2303004FB71
:10DC40000200C854013B981DF5D130BD0EB430B56B
:10DC500090B013AB53F8044B00212822054605A8C9
:10DC60000F93FFF7A7FF0A2308936FF00043079372
:10DC70000F9B05A80193104B4FF0FF3202936FF0FA
:10DC800000430094059500F039FD079B0446013BD5
:10DC9000002B079305DB059B002203F8012B05935E
:10DCA00003E0002005A901F054FD204610B0BDE8B6
:10DCB000304003B0704700BFC1DC0000000000002E
:10DCC0002DE9F04F0D684C689FB02146059028461D
:10DCD000CDE9060107999B46C1F30F4323F00F03DB
:10DCE0005B0416465B0C47F6F0729342DDF8A4A085
:10DCF0002ED10023069CF370C1F313031C434FF095
:10DD00006E031BD173706623B370C1F3076303F016
:10DD100080036922DBB232700D460BB1884B12E0F2
:10DD20001BF0020F06D1874B874A1BF0040F08BF78
:10DD3000134600E0854B289D2B6006E0337061227E
:10DD4000B370814B7270289C2360032400F036BCB2
:10DD50000598612800F05982412800F05682284633
:10DD600021460022002302F051FC20B1012104F1E0
:10DD700000440A9100E00A90284621460022002330
:10DD800002F026FC002840F01F821DAA28462146EA
:10DD900001F0E8FD1D9A40F22D175743A7F5AA5749
:10DDA0003C3F4FF47A7397FBF3F7CDE91001BA1AB1
:10DDB0000020674901F006FE002FCDE91A0106DABE
:10DDC00059A3D3E900237C42CDE9162306E0614B39
:10DDD0004FF00002CDE9162316D03C46E20709D5E4
:10DDE000DDE91A01DDE9162302F0A8F8012CCDE9DE
:10DDF0001A0109D0DDE91601DDE9162302F09EF8CB
:10DE00006410CDE91601E9E7DDE91001DDE91A2327
:10DE100002F030F9CDE9120110E0DDE91201002233
:10DE20004D4B02F08BF8CDE91201DDE91A01002219
:10DE3000494B02F01FF9CDE91A01013FDDE912015A
:10DE40003BA3D3E9002302F0E1FB0028E5D110E079
:10DE5000DDE912010022404B02F00CF9CDE912017C
:10DE6000DDE91A0100223C4B02F068F8CDE91A0105
:10DE70000137DDE9120130A3D3E9002302F020FCD1
:10DE80000028E5D1DDE9120102F04CFB7B4213EAE8
:10DE9000270338BF3B460E96CDF83CB00B93D346D4
:10DEA0000646BA46304602F08BFB1D9AC2EB0A02C8
:10DEB00001F088FD00220023BAF1000FCDE9120124
:10DEC000CDE914234ADA18A5D5E90045CDE9164570
:10DED000CDE91823DDE91623DDE9160100221446F9
:10DEE0001D4602F07BF9DDE9188902460B464046E3
:10DEF000494602F06DFACDE91801CDE91645DDE994
:10DF000016010022134B02F019F802460B460020BE
:10DF10000F4902F063F900220E4B02F0ABF8CDE995
:10DF2000180127E0AFF300809A9999999999C93F10
:10DF300000000000006AF8400000000080842E41CC
:10DF4000C4E8020038F701007CA1020094E8020056
:10DF50000000F03F000014400000244094494FF0BE
:10DF600000004FF000024FF00003CDE91601CDE9AB
:10DF700018237AD00B9FFB0742D5DDE91201DDE9BA
:10DF80001823DDE91445CDE90845DDE91645DDE94D
:10DF9000188901F0D3FF4246CDE90C014B462046DB
:10DFA000294602F015FA02460B46DDE9080101F0A8
:10DFB000C5FF02460B46DDE90C0102F009FACDE986
:10DFC0001401DDE91201DDE9162301F0B7FFCDE907
:10DFD0001201DDE91223DDE91201002214461D467B
:10DFE00002F0FCF8DDE9148902460B46404649463A
:10DFF00002F0EEF9012FCDE91401CDE9124534D03C
:10E00000DDE91889DDE9160102460B46DDE9184510
:10E0100002F0DEF922462B4602F0DAF902460B4600
:10E020004046494601F08AFFCDE91801DDE91601B5
:10E03000DDE9162301F082FFCDE91601DDE91623A3
:10E04000DDE91601002214461D4602F0C7F8DDE99D
:10E05000188902460B464046494602F0B9F97F103E
:10E06000CDE91801CDE9164585E7DDE91201DDE9C5
:10E07000102302F0F9FA08B9013E13E7DDE91001B7
:10E08000DDE9122302F0AAF8CDE91001DDE9100163
:10E09000DDE9142302F0A2F8CDE91001DDE9100159
:10E0A000DDE91A2301F0E6FF3FA3D3E90023CDE920
:10E0B0001001DDE9100101F041FFCDE91001DDE9BA
:10E0C000100102F02FFADDE91089044602F078FA17
:10E0D00002460B464046494602F080F832A3D3E997
:10E0E000002301F02BFFCDE91001DDE9100102F062
:10E0F00019FA57463546DA460E9EDDF83CB08046A2
:10E1000004E008F5742808F51078013CB8F1000F18
:10E11000F7DB05E0A8F57428A8F51078013400E0D5
:10E12000244A9045234BF5DC04E004F5742404F5FF
:10E130001074013D002CF8DB04E0A4F57424A4F570
:10E14000107401359C42F8DC1B4B29469D4212DCC1
:10E150001A4A1B4994FBF2F098FBF2F201FB0044CF
:10E1600001FB02880A2303FB050503FB042403FBD0
:10E1700008F8013F2EE00F4B9D422BDD0A236FF084
:10E18000090095FBF3F500FB05110E4A013702FB70
:10E19000014191FBF3F400FB041102FB018808F13B
:10E1A000050898FBF3F815E00000000080842E417C
:10E1B000000014403F420F009F860100A08601002E
:10E1C0006079FEFF40420F004FF000086FF0040737
:10E1D0004446454631464FF03009284601F8069B33
:10E1E000FFF723FD06F10C012046FFF71EFD06F1A7
:10E1F00012014046FFF719FD0A9D0023053786F8F6
:10E200001390337545EA870700E00027FD0703D523
:10E210009E4B289C23600CE01BF0020F06D19C4B08
:10E220009C4A1BF0040F08BF134600E09A4B289D40
:10E230002B60059C042327F00107612C97FBF3F763
:10E2400014D008DC452C5BD0472C00F09181412C88
:10E2500040F08C810AE0059D662D00F0BB80672DA3
:10E2600000F08681652D40F0818149E0DDF81CE0F9
:10E27000069A0020CEF313031043CEF30A52194638
:10E28000A2F57E73073B1AB950EA010408BF0023C8
:10E29000DAF8004084B91BF0080F0DD17F48059DC6
:10E2A0007F49002A14BF31223022612D18BF014658
:10E2B0003046FFF7CBFC13E07A4D7B4FDDF814E0DE
:10E2C000CDE90001BEF1610F18BF3D460293002A5F
:10E2D00014BF31223022304629462346FFF7B6FCD0
:10E2E000044607986B4AC0F3076303F0800367494D
:10E2F000DBB2289D002B14BF0B4613462B605DE15B
:10E30000DAF80030112B05DD2B9C113B2360112323
:10E31000CAF80030DAF8004002341BF4006504D17A
:10E3200030462146FFF757FC3F1873783370DAF810
:10E33000003023B940F608030BEA030313B12E2380
:10E34000737000E001242B980368002B02DD3E234C
:10E35000335501343DB11BF0080F04D1214630463E
:10E36000FFF72AFC0446059D631C002F355504F178
:10E37000020402DA7F422D2200E02B22B7F57A7FD9
:10E38000F25423460ADB4FF47A72484997FBF2F2C3
:10E3900001FB027702F130033355631C632F0ADD62
:10E3A000642297FBF2F202F13001F1546FF0630145
:10E3B00001FB027701330A2297FBF2F202F13001EE
:10E3C000F15430376FF0090101FB0272F6187270D8
:10E3D0009C1CF3E0002FDAF8003047DA7D425A1C2B
:10E3E000954209DD302333702E2373702B9CDAF8AD
:10E3F00000302360022434E0DF19BC1C122C03DD42
:10E400002B9C113F276013241BF4006F09D1304669
:10E410002146FFF7E0FB20B10134013D01D17378C3
:10E420000BE0012D234610D103E0F15CF21851708E
:10E43000013B002BF9DC0134302333702E23737041
:10E440000FE0F15CF2189170013B002BF9DC3023F6
:10E4500033702A982E237370013D3C23B37002342D
:10E4600005602B9D2B68002B39DC6BE0FD18AC1C84
:10E47000122C0BF4006350DDD3B930461321FFF7A3
:10E48000AAFBA8B10137142413E000BFC4E80200BE
:10E4900038F701007CA1020094E802009EE8020027
:10E4A00096E80200A6E80200B5E8020018FCFFFFAB
:10E4B0001324611E00238F42324614DA517801334F
:10E4C000BB4202F8011BF9DDF3192E225A70DAF86B
:10E4D00000302B9DFF18113F2F60002F32D03E23BC
:10E4E000335501342EE0507801338B4202F8010B92
:10E4F000F9DB33193C223F1B2A9D03F8012C02371C
:10E500002E232F603355DAF80020631CCAB12B9DEF
:10E5100002342A603E22F25414E033B930462146D8
:10E52000FFF759FB08B10137EC1C32460023517844
:10E530000133BB4202F8011BF9DDF7192E237B7072
:10E5400000E01C461BF4006F08D01BF0080F35D10B
:10E5500021463046FFF730FB04462FE0DAF8003062
:10E5600063BB1BF0080F29D1013C27E06724059409
:10E57000DAF800304BF4006B002B02DC0123CAF800
:10E580000030DAF80010112901DC013100E012211D
:10E590003046FFF720FBDAF800303F189F4206DADA
:10E5A0003C1D04DBFA439B18CAF8003012E7059DB6
:10E5B000013B023DCAF800300595A1E620461FB098
:10E5C000BDE8F08FAFF3008010B500214FF4A072CA
:10E5D0001E48FFF7EFFAC02001F0C2FA1C4C0021E0
:10E5E000C0222060FFF7E6FA184B226803F5A071FD
:10E5F0005A62283318328B42FAD100201549134A47
:10E6000001F04EF900214FF480534FF480620F481F
:10E6100000F0E6FF01201049104A01F041F9002105
:10E620004FF480534FF480620C4800F0D9FF022071
:10E6300009490B4A01F034F9094800214FF480627E
:10E640004FF48053BDE8104000F0CABFB87C001002
:10E65000B47C00101B080100C6E80200E07C00103A
:10E66000087D00100A2AF0B5034604D1002802DA1A
:10E670004342012500E00025114F08461C46B3FB2C
:10E68000F2F302FB13443C5D064600F8014B0446DE
:10E69000002BF3D115B12D237370B41C0022234637
:10E6A00003F801290A4606E014F8010D157803F86D
:10E6B000015902F8010B9A42F6D30846F0BD00BF9B
:10E6C000C8E8020041EA00039B0730B511D102E01F
:10E6D00004300431043A032A0BD904680B689C42C5
:10E6E000F6D006E0C55CCC5C0133A54202D0281B05
:10E6F00030BD00239342F5D1002030BD2DE9F04F0D
:10E70000B1B03B9C0646CDE90E23DDF8E8A01E948F
:10E71000002500F092BE25280AF1010A02D15246D6
:10E7200000251AE00D9ADDE90E45D317571CA242C9
:10E7300073EB05050D9780F28186B368013B002BD2
:10E74000B36005DB336803F8010B336000F076BE7D
:10E75000314600F0FEFF00F071BE104612F8013B9A
:10E760002B2B1C4692460DD004D8202B0DD0232BEA
:10E7700014D10DE02D2B02D0302B0FD10BE045F042
:10E780000105EAE745F00205E7E745F00405E4E79F
:10E7900045F00805E1E745F40075DEE72A2B0CD1CA
:10E7A0001E9F39683B1D002902DA494285F00105A8
:10E7B000447800F1020A1E930BE000210A20A4F124
:10E7C0003003DAB2092A04D800FB01311AF8014BF0
:10E7D000F5E721EAE1712E2C069121D19AF800404B
:10E7E0002A2C07D11E9C221D21689AF801400AF1AB
:10E7F000020A0FE0504600210A27A4F13003DAB2E2
:10E80000092A0AF1010A04D8447807FB013150466D
:10E81000F3E71E9A002904DB45F010050F4601E0DE
:10E820001E9A00276C2C0ED19AF800406C2C06D151
:10E830009AF8014045F060050AF1020A03E00AF186
:10E84000010A45F020054C2C01D0712C04D11AF896
:10E85000014B45F060051CE0682C0FD19AF8004090
:10E86000682C06D19AF8014045F480750AF1020A35
:10E870000FE00AF1010A45F080050AE06A2C02D196
:10E8800045F0400503E07A2C01D0742C01D11AF830
:10E89000014B672C19DC652C80F28C82582C00F01F
:10E8A000A1810BDC452C00F0858204DC002C00F0FB
:10E8B000AA80412C07E0472C20D17BE2632C19D0A1
:10E8C00000F33B82612C19D16FE2702C00F0DC81E7
:10E8D00007DC6E2C00F09C8000F3E081692C0DD1E8
:10E8E0002BE2752C00F00682782C00F0A481732CAA
:10E8F00004D1ADE0171D1E97146800E01E92069823
:10E90000471E15F0010B33D10D9915F4007F0CBF94
:10E9100020253025CA174FF000084FF00009089154
:10E9200009921FE0DDE9082312EB080243EB09031B
:10E93000DDE90E01824273EB01010DDAB368013BA0
:10E94000002BB36004DB336803F8015B336003E042
:10E950002846314600F0FDFE0122002318EB020894
:10E9600049EB03090D98013F00EB0803DAD50D933D
:10E970000D9ADDE90E01D317551C824273EB01019C
:10E980000D950DDAB368013B002BB36004DB3368EF
:10E9900003F8014B336003E02046314600F0D9FE16
:10E9A000BBF1000F22D100F049BDDDE9082312EBD5
:10E9B000080243EB0903DDE90E01824273EB01011A
:10E9C0000DDAB368013B002BB36004DB336803F856
:10E9D000015B336003E02020314600F0BAFE0122E3
:10E9E000002318EB020849EB030909E00D9B3C46A4
:10E9F000DD1709954FF000084FF000090893202516
:10EA0000013CD2D5E7E00AF1FF3A1E9200F016BDB4
:10EA100002F1040315F0400F1E9306D00D9B116800
:10EA2000DA170B604A6000F009BDA80613680BD422
:10EA3000E90503D50D9F1F7000F000BD2A0603D520
:10EA40000D9C1C8000F0FABC0D9D1D6000F0F6BC12
:10EA5000D2F80080A14B141DB8F1000F08BF9846F2
:10EA600040461E9400F006FE0446E80602D5BC426D
:10EA7000A8BF3C46069815F0010BC4EB00073FD138
:10EA800015F4007F0CBF2025302500230022CDE99E
:10EA900008230D9B07F1FF39D8170693079023E051
:10EAA000DDE90601DDE90823121843EB0103DDE986
:10EAB0000E01824273EB01010DDAB368013B002BBA
:10EAC000B36004DB336803F8015B336003E028467E
:10EAD000314600F03EFE0120DDE908230021121836
:10EAE00043EB0103CDE908230899C1EB0903002B8F
:10EAF000D6DA0D9D27EAE773ED180D95C3EB0907EC
:10EB000000230022CDE908230D9BDD17069307950E
:10EB100027E0DDE90601DDE90823121843EB0103D4
:10EB2000DDE90E01824273EB010111DAB368089A44
:10EB3000013B002BB36008EB020305DB1A78336856
:10EB400003F8012B336003E01878314600F001FE32
:10EB50000120DDE908230021121843EB0103CDE970
:10EB6000082308998C42D4DC0D9D002CA8BF2D19D8
:10EB70000D95BBF1000F22D100F060BCDDE9082348
:10EB800012EB080243EB0903DDE90E01824273EB4D
:10EB900001010DDAB368013B002BB36004DB33687D
:10EBA00003F8015B336003E02020314600F0D1FD23
:10EBB0000122002318EB020849EB030909E00D9B31
:10EBC0003C46DD1709954FF000084FF00009089307
:10EBD0002025013CD2D50D9C002FA8BFE4190D942F
:10EBE00000F02CBC690608D5D31D23F0070303F100
:10EBF00008001E90D3E9008905E01368111D1E91DD
:10EC000098464FF000092A0602D51FFA88F803E05B
:10EC1000EB0503D55FFA88F84FF00009304A314B15
:10EC200015F0080F0CBF9E469646E80640F1E980B5
:10EC300025F40075E5E0690608D5D31D23F0070328
:10EC400003F108021E92D3E9008905E0131D1E930B
:10EC500013684FF0000998462A0602D51FFA88F873
:10EC600003E0EB0503D55FFA88F84FF000091E4A70
:10EC70001C4B15F0080F0CBF9E469646E80640F167
:10EC8000C28025F40075BEE01368101D1E909846E2
:10EC90004FF000091549DFF850E0BBE0690608D5E0
:10ECA000D31D23F0070303F108011E91D3E9008966
:10ECB00005E0131D1E9313684FF0000998462A06BD
:10ECC00002D51FFA88F803E0EB0503D55FFA88F850
:10ECD0004FF0000915F0080F054A58E0D9E8020086
:10ECE000E0E802007CA10200E3E80200F7E802008D
:10ECF0001AF70100680608D5D31D23F0070303F1B6
:10ED000008001E90D3E9008905E01368111D1E91CB
:10ED100098464FF00009290602D51FFA88F803E04B
:10ED2000EA0503D55FFA88F84FF0000915F01003E3
:10ED30006BD025F40075002168E06B0608D5D31D63
:10ED400023F0070303F108021E92D3E9002304E035
:10ED50001168131D1E930A46CB17280601D512B25F
:10ED600002E0E90501D552B2D317002A73F1000081
:10ED700006DAD2F1000863EB4309DFF8B0E20DE0F8
:10ED8000A8079046994607D4A44A15F0040FA44B4F
:10ED90000CBF9E46964601E0DFF894E215F01003A2
:10EDA00037D025F40075002134E0E9065CBF45F05A
:10EDB00010050D2745F4806515F0100F08BF0627D4
:10EDC00002F1070315F0200123F007030CD003F133
:10EDD00008011E91D3E900234FF00008CDE92A2352
:10EDE0004FF0000900210AE003F108021E92D3E966
:10EDF0000023CDE92A234FF000084FF000098E468A
:10EE000008E0884906E0884904E01946DFF810E286
:10EE100000E019460D98DDE90E23121A63EBE0734A
:10EE2000CDE908234FF0FF332C97CDF8B4E02E93B3
:10EE30002F930022552022ABD0540132202AFAD140
:10EE400015F4826F01D101232C93672C15DC652CFE
:10EE500080F2C080472C00F0BD8006DC412C00F021
:10EE6000B980452C40F0C680B4E0612C00F0B2803F
:10EE7000642C00F0A880582C0DE0702C1FD006DC0C
:10EE8000692C00F0A0806F2C40F0B4802EE0752C2F
:10EE900000F09980782C40F0AD8010E008F00F036E
:10EEA000CB5C22AA0BF802304FEA181242EA097230
:10EEB0004FEA19130BF1010B9046994601E04FF010
:10EEC000000B58EA0902E9D196E008F00703303355
:10EED00022AA0BF802304FEAD80242EA49724FEAFE
:10EEE000D9030BF1010B9046994601E04FF0000B5E
:10EEF00058EA0903E9D17FE04FEA980747EA8970A9
:10EF00004FEA99015FEA59034FEA38021A901B91C0
:10EF1000DDE91A01121843EB0103110941EA0377F5
:10EF2000180912971390DDE91201121843EB01033F
:10EF3000110A41EA0367180A14971590DDE91401D4
:10EF4000121843EB0103110C41EA0347180C169702
:10EF50001790DDE91601121843EB010300271C93FB
:10EF60001D97DDE91C01121843EB0103D10841EAAA
:10EF70004377D8081190A7FB04011097119F062230
:10EF800004FB0711002312EB080243EB0903121ADA
:10EF900063EB0103100940EA03711F0918911997E7
:10EFA000DDE91023DDE91801801841EB030108F1C8
:10EFB000300304FB103322AA0BF8023080460BF119
:10EFC000010B894602E04FF0000B0A2458EA0903BE
:10EFD00092D111E02DAB00932CAB01932EAB029399
:10EFE0002FAB039320462AA922AA2B463C9CA0477C
:10EFF000834601E04FF0000B15F48067209719D08D
:10F0000000232C932E9B002B01DD013B2C932F9B87
:10F01000002B15DD2C9A013BD31810E038F70100C6
:10F020007CA10200E6E80200F7E80200C4E8020062
:10F0300094E802002C9BB3EB0B0348BF00232C93F6
:10F040002D982C9C00F016FB069F5C443B1B15F48E
:10F050000072C0EB03091F9209D000270022002391
:10F06000FC17CDE906230A970B94AC4659E0EB0751
:10F0700021D51F9FF2E7DDE90623DDE90801824281
:10F0800073EB01010DDAB368013B002BB36004DBC5
:10F09000336803F8017B336003E02020314600F041
:10F0A00058FB0120DDE906230021121843EB010380
:10F0B000CDE9062305E000220023CDE906234C46D6
:10F0C0002027013CD7D529EAE97709F1FF33C7EBBF
:10F0D0000309C3E7DDE90A45DDE90623121943EB1D
:10F0E0000503DDE90845A24273EB050510DAB368B4
:10F0F000013B002BB36004DB336803F8010B336082
:10F1000006E03146CDF814C000F023FBDDF814C052
:10F110000124DDE906230025121943EB0503CDE99F
:10F1200006232D9B069D13F8010B07EB05084446AB
:10F130002D930028CED11CF0010521953ED11F9FB3
:10F1400000230022CDE906234346002F0CBF2024D4
:10F150003024DF1709F1FF35CDF828800B9723E025
:10F16000DDE90A01DDE90623121843EB0103DDE9BD
:10F170000801824273EB01010DDAB368013B002BF9
:10F18000B36004DB336803F8014B336003E02046CF
:10F19000314600F0DEFA0120DDE9062300211218D5
:10F1A00043EB0103CDE9062306996B1A002BD7DA4E
:10F1B00029EAE97308EB0304C3EB0509209A002A46
:10F1C00040F0998000220023E517CDE906230A9438
:10F1D0000B953027B8E022ABF85C3C2827D03E28BE
:10F1E0006FD15BE0DDE90A01DDE90623121843EB8C
:10F1F0000103DDE90801824273EB01010DDAB36816
:10F20000013B002BB36004DB336803F8018B3360F0
:10F2100003E03020314600F09CFA0120DDE90623AE
:10F220000021121843EB0103CDE9062308E0002278
:10F230000023CDE90623E5170A940B954FF030081B
:10F240002E9B0698013B002B04EB00052E93C9DA98
:10F2500035E0DDE90A01DDE90623121843EB01037D
:10F26000DDE90801824273EB01010DDAB368013B6D
:10F27000002BB36004DB336803F8018B336003E0D9
:10F280003020314600F065FA0120DDE90623002137
:10F29000121843EB0103CDE9062308E00022002306
:10F2A000CDE90623E5170A940B954FF030082F9B04
:10F2B0000698013B002B04EB00052F93C9DAA84602
:10F2C00016E02246E31704F10108DDE90845A242F1
:10F2D00073EB05050CDAB368013B002BB36004DB6C
:10F2E000336803F8010B336002E0314600F031FA75
:10F2F0000137444600E000275F45FFF66CAF63E04E
:10F30000DDE90A01DDE90623121843EB0103DDE91B
:10F310000801824273EB01010DDAB368013B002B57
:10F32000B36004DB336803F8017B336003E0302013
:10F33000314600F00EFA0120DDE906230021121803
:10F3400043EB0103CDE906232C9B0699013B002BDF
:10F3500004EB01052C93D3DA00220023EF175C465F
:10F36000CDE90A230695079726E0DDE90601DDE9E8
:10F370000A23013C121843EB0103DDE90801824234
:10F3800073EB01010FDAB368013B002BB36022ABD2
:10F3900005DB1A5D336803F8012B336003E0185D69
:10F3A000314600F0D6F90120DDE90A2300211218C8
:10F3B00043EB0103CDE90A23002CD6DCBBF1000F9F
:10F3C000ACBF05EB0B042C1C219A2ABB33E0DDE912
:10F3D0000601DDE90A23121843EB0103DDE9080108
:10F3E000824273EB01010DDAB368013B002BB3607D
:10F3F00004DB336803F8017B336003E020203146EF
:10F4000000F0A7F90120DDE90A230021121843EBDF
:10F410000103CDE90A2308E000220023CDE90A23F5
:10F42000E71707974D4606942027013DCFD5B9F140
:10F43000000FA8BF4C440D9D2D190D959AF80000A2
:10F4400000287FF468A90D9831B0BDE8F08F00BFA7
:10F450000B4B1B1893F880309A0601D5303809E021
:10F460001A0701D5573805E0DB0601D5373801E02A
:10F470004FF0FF308842A8BF4FF0FF30704700BF09
:10F4800028E902002DE9F74F0D462E49164604469D
:10F4900002461346187801329046D0B10F1897F8FB
:10F4A0008070FF07F5D4302813D1587803F1020893
:10F4B000782801D0582808D10EB1102E3DD1987867
:10F4C00003F103080027102608E00127002E36D09C
:10F4D00004E00EB1002701E037460A264FF000098C
:10F4E000CA46CB464FF6FF730EE006FB09094FEA0A
:10F4F000194206FB0A2A18F8010B1FFA89F99A45E6
:10F5000088BF4FF0010B012731460193FFF7A0FFA1
:10F510000028019BE9DA1DB10FB108F1FF342C601E
:10F52000BBF1000F05D0084B22221A604FF0FF30CC
:10F5300001E049EA0A40BDE8FE8F0127CEE7082630
:10F54000CCE700BF28E9020098000010F7B51C4E78
:10F5500004460F460346184613F8011B1D4631B1F9
:10F5600006EB010E9EF880E01EF0010FF3D12B296F
:10F5700008D02D290CBF1D4605460CBF4FF4007660
:10F58000002600E00026284601A9FFF77BFF27B1EF
:10F59000019BAB4218BF1C463C6046B1404200286C
:10F5A0000CDD084B22221A604FF0004006E00028D4
:10F5B00004DA044B22221A606FF00040FEBD00BF47
:10F5C00028E902009800001038B5044C0021256895
:10F5D0000A22FFF7BBFF256038BD00BF980000106E
:10F5E00070B5C46814F0030F17D0B2F5007F09D0CE
:10F5F000B2F5806F03D0B2F5807F0ED102E0416A90
:10F60000012303E0074D5E1EAE4208D8224301618C
:10F610000160C361C260002070BD012070BD012087
:10F6200070BD00BFFEFFFF000028B8BF404270471A
:10F6300041EA00039B0730B514D1024602E042F8CC
:10F64000043C04310B681446A3F1013525EA030597
:10F65000043215F0803FF2D0DAB204F8012B42B147
:10F660001B12F9E7034611F8012B03F8012B002ABE
:10F67000F9D130BD411C04E01B7801300BB9401AB0
:10F68000704782070346F7D100E004331A68A2F1FD
:10F69000013020EA020010F0803FF6D012F0FF0F98
:10F6A0000BD012F47F4F06D012F47F0F01D0043339
:10F6B00004E0033302E0023300E00133581A7047DC
:10F6C00041EA00039B0730B51AD102E0043004314F
:10F6D000043A032A14D903680C68A34210D1A3F199
:10F6E000013424EA030313F0803FEFD008E0C45C48
:10F6F000CD5CAC4201D0601B30BD01330CB904E0DD
:10F7000000239342F3D1002030BD204630BDC368B2
:10F7100010B523F02003C360436A82695B68044626
:10F720009A420FD000F0F2F8E368626A23F4405383
:10F7300023F0100343F01003E3605368A3612369CF
:10F7400093602360E36823F4804323F04003E36085
:10F7500010BDF8B5CB68064623F40022CA609A06AD
:10F760000C4602D50846FFF7D2FFA1684B1C0FDA02
:10F77000E26890050CD46FF001035B1AA360236864
:10F7800042F49032F0B2E26003F8010B2360F8BD5E
:10F79000E56841F28A022A40022A07D0002345F098
:10F7A0008005A360E5604FF0FF30F8BD4AF210031A
:10F7B0002B40B3F5004F0AD10021204600F030FA6B
:10F7C000E3689A0602D52046FFF7A1FFE56845F4F5
:10F7D000903717F4706FE7601CD1606900F0D8FFB4
:10F7E00050B17B0508D5636A45F4923723612360E5
:10F7F0000123E361E7600DE04FF4805000F0B0F9C1
:10F800004FF48053E361E36847F400673B432061B2
:10F810002060E36017F4106F2168256919D0636ACE
:10F820009B688B422CBFC5EB0301C5EB010129B1DD
:10F830002846224600F0EEF800282ED1636A6A1CA2
:10F840009A602260E269F0B2511EA160DA6028700D
:10F85000F8BDF6B201F8016B636A21609A689142C3
:10F860002CBFC5EB0101C5EB0201E2697805DA6046
:10F8700003D40A2E01D091420DDB9D600023256048
:10F88000A3602846224600F0C5F800280CBF304689
:10F890004FF0FF30F8BD3046F8BD4FF0FF30F8BDF7
:10F8A00070B50E4605461046144600F069F93378E7
:10F8B000722B04D0772B09D0612B24D102E00023D6
:10F8C000012205E0082348F2020201E0042302229B
:10F8D00016F8011F2B2902D062290AD104E042F058
:10F8E000030243F00203F3E742F0040243F0010392
:10F8F000EEE71B07E260656106D520460021022283
:10F9000000F08EF900E00024204670BD38B5426A50
:10F91000044605690368C068916820F40022E2602B
:10F9200000F08202022A17D110F4803019D09942D7
:10F9300038BF1946A94205D0491B2846224600F087
:10F9400069F860B9636A00209D60E368256023F46C
:10F950008033A060E36038BD4FF0FF3038BD4FF01A
:10F96000FF3038BDF8B514460023002206460F4686
:10F9700000F02EFE20B10023236000200021F8BDFE
:10F98000C7F30A53A3F57E72063A9BB9C7F3130374
:10F990003146CD0F184645EA430323F07F43490023
:10F9A000000323F4700303D563F313070E4601E04D
:10F9B000013AEEE740F2FE3363F31E572260304611
:10F9C0003946F8BD70B500231646002204460D46A0
:10F9D00000F0FEFDA0B9C5F30A539E1940F2FE7374
:10F9E0009E4206DD094B22221A60094BD3E9000131
:10F9F00070BD002E07DD66F31E552046294670BDFA
:10FA00000020002170BD0020002170BD9800001072
:10FA100008E902002DE9F041D7680646FB020D46D1
:10FA20001446D2F8148005D5404600F0AEFE47F0EB
:10FA30001007A061174B3B4093B14046A16900F00D
:10FA4000ADFE002807DAE3684FF0FF3043F0800393
:10FA5000E360BDE8F08127F4003727F01007E76086
:10FA60002A464046314600F09FFEA84214BF4FF0A0
:10FA7000FF30002020F00043ED1AA3695D19A56155
:10FA800028B1E3684FF0FF3043F08003E360BDE846
:10FA9000F08100BF10000200F8B52D4BC51C1C689A
:10FAA000AD08002853D00027EA1C3AE02168B1F1E4
:10FAB000805F34D1A6683368B3F1805F636806D194
:10FAC00071685B1803336360B368A36029E0AB42DD
:10FAD00005D120464FF0005340F80C3BF8BD93424F
:10FAE0000FD920464FF0005240F80C2B5B1B00EB67
:10FAF0008502033B6560A26040F825105360966064
:10FB0000F8BD66B99B00C01A00F050FE01301BD052
:10FB10004FF0005384E8280004F10C00F8BD27469C
:10FB2000A468002CC2D10C3000F040FE431C0DD064
:10FB30004FF0005380E82800846017B9044B186028
:10FB400000E0B8600C30F8BD3046F8BD2046F8BD86
:10FB5000F87D00104FF0805340F80C3C70470000D7
:10FB600010B5FFF799FF044628B90449172200F0A1
:10FB70001BFE00F006FE204610BD00BF10E902008B
:10FB80002DE9F04100F10C0696E8C001B10786B0FE
:10FB90000446456A25D0320716D400F027F84046BF
:10FBA00000F0F0FD330502D53846FFF7D3FFB60D60
:10FBB000B60516F1A54F07D101A8216A142200F05D
:10FBC000F0FD01A800F0D4F800211822606AFDF7CA
:10FBD000F1FF204600212822FDF7ECFF656200209E
:10FBE00001E04FF0FF3006B0BDE8F081F8B518B184
:10FBF000BDE8F84000F0C6B8084E04460546282780
:10FC000007FB046000F0BEF80134002818BF4FF075
:10FC1000FF35082CF4D12846F8BD00BFB87C001091
:10FC20002DE9F0413E4BC668044633400D46174669
:10FC3000D0F81480002B6CD0404600F0A9FD0028BD
:10FC400067D1012F04D0022F07D0002F26D060E00B
:10FC5000204600F067F82D1820E0404600F095FDA2
:10FC6000002806DAE368012043F08003E360BDE882
:10FC7000F081626AA169976823689F422CBFCB1903
:10FC8000CB1821695B1AE168890603D55268934253
:10FC9000B8BF13468342ACBFED182D18002D3BDBD7
:10FCA000B20405D5636A22689968914238BF9A60A8
:10FCB000A3699D420EDB606A22688168914238BF69
:10FCC00011462269CF18BF1ABD4203DCC0681F1855
:10FCD000BD4207DB0023A3606360636A46F0200631
:10FCE0005D600EE0ED1AB30744BFC0EB0500A060F5
:10FCF000F30702D5511A691861605519256026F07D
:10FD0000200626F4022626F48256E6600020BDE88E
:10FD1000F0810220BDE8F0810220BDE8F08100BF43
:10FD200003001000C3689A0705D1104B21221A6006
:10FD30004FF0FF30704713F4002F03F020030AD078
:10FD400013B1436A586804E083690268D2180369F2
:10FD5000D01A0138704713B1436A586870478369F5
:10FD60000268D2180369D01A704700BF98000010CB
:10FD700010B50446FFF77EFC01462046BDE8104062
:10FD800000F009BDC36870B513F00304054618D030
:10FD90009B0604D5436A5E68FFF7B9FC04E08369FB
:10FDA0000668F6180369F61AEB68284623F44053F0
:10FDB000EB60FFF7ABFD3146044600222846FFF713
:10FDC0002FFF204670BD5FF0000C30B51C0022D123
:10FDD00012006FD0914206D305460846002100F07C
:10FDE0006FF80446284600F06BF80A462146BDE845
:10FDF00030401CF0404F08BF704703D54942404295
:10FE000061F100015FEA8C0C38BF70475B425242DF
:10FE100063F10003704742D41C0C04BF1B040CF1B7
:10FE2000100C13F07F4F04BF1B020CF1080C13F0F1
:10FE3000704F04BF1B010CF1040C13F0404F04BFC2
:10FE40000CF1020C5FEA83035CBF0CF1010C5B0058
:10FE5000CCF1200E22FA0EF4234302FA0CF200FA3F
:10FE60000CF520FA0EF001FA0CF4204321FA0EF101
:10FE700014461A4600F024F8A4FB0023AA1A71EBDA
:10FE800003033CBF1B190138CCF1200E22FA0CF2FF
:10FE900003FA0EF4224323FA0CF30021A7E7821A97
:10FEA00071EB03033CBF02460B464FF0000141F1EA
:10FEB00000009CE700200021BDE8304000F03DB884
:10FEC0000423B1EB122F09D2090241EA10610002AA
:10FED000013B08BF7047B1EB122FF5D30018494121
:10FEE00034BF9142891A4041494134BF9142891A35
:10FEF0004041494134BF9142891A4041494134BF90
:10FF00009142891A4041494134BF9142891A404186
:10FF1000494134BF9142891A4041494134BF91421D
:10FF2000891A4041494134BF9142891A4041A3F1A5
:10FF3000010313F00F0FD2D1704770472DE9F00F76
:10FF4000144606460F460A46C1F30A51A04620460B
:10FF500084B01D4699463446002959D040F2FF75B9
:10FF6000A94255D0C3F30A56002E51D0AE424FD00D
:10FF7000C702A7FB048922F07F4525F4700545F4EC
:10FF8000801CACFB07ABCDE90289039D400D40EA24
:10FF9000C32015EB0A084FF0000949F1000940F0B1
:10FFA0000040E4FB00890025CDF800900195DDE9D3
:10FFB000004514EB0B0445F10005ECFB00457618F9
:10FFC00002995340B5F5801F03F0004348EA9102BF
:10FFD00047D2D10F201945EB0505A6F5806640EA0A
:10FFE00001045200D70FE01945F10001B2F1004FB2
:10FFF00040F2FD7208BF20F00100964235D9002E74
:020000021000EC
:10000000A4BF43F0FE4343F47003194600201FE0F1
:1000100083EA02046FF4001152008A4204F00044A3
:100020000FD85B008B4217D913F5001F0CD8520D67
:100030000AD05B0D08D044F0FE4444F47001002067
:1000400006E012F5001F0AD000210020C7F6F87163
:1000500004B0BDE8F00F704721460020F8E75B00D0
:10006000E2E7A6F57E76073EBCE7194301EB0653AF
:100070001946EDE72DE9F00F1D462F461446C1F352
:100080000A520B4605463E46002A3CD040F2FF711C
:100090008A4238D0C7F30A5CBCF1000F33D08C45DC
:1000A00031D04FEA5051600D41EAC32940EAC727D9
:1000B0004FEAC42AE80249F0004147F0004BCCEB7C
:1000C000020C5E40504571EB0B030CF57E7C6AD24E
:1000D0000CF1050C5FEA5B034FEA3A023425002479
:1000E0006400904271EB030704D3801A61EB0301B3
:1000F00044F00104001841EB0101202D4DD0002DEA
:100100002ED0013DECE75A0012F5001F21D87100F6
:1001100011F5001F1DD846EA0304C4F30A50440534
:10012000002835D086EA030C500D0CF0004344053E
:10013000002835D0480D4405002846D011F5001F91
:100140003DD100208A424FF0000144D1C7F6F8713A
:1001500003E000210020C7F6F871BDE8F00F7047FA
:10016000904271EB030503D3013408BF08F1010885
:1001700040F2FD739C4506F000461AD9BCF1000F11
:10018000A4BF46F0FE4646F4700631460020E4E780
:100190002146C7F6F8712046DFE7A046013D9FE7FC
:1001A00019462046D9E749084FEA30000CF1060C01
:1001B00090E706EB0C5606EB08012046CDE743F02E
:1001C000FE4141F470010020C7E743F0FE4242F4D3
:1001D00070012046C1E719460020BEE72DE9F00F67
:1001E0001D469B460B468946924695EA0304804687
:1001F000064602464F462946504600F1C880AB42AB
:1002000062D2424004F100445040634061404240A9
:100210001C0D24F4006640F2FF77BE42A4EB11559A
:100220005FD0B54200F0978023F07F4C21F07F41F2
:100230002CF470031F2D21F4700C43F480134CF444
:10024000801158D8C5F1200630FA05F701FA06FCEE
:1002500031FA05F54CEA0707D71BBA42C5EB030391
:1002600038BF013B10FA06F17ED13A4613F4C01FA5
:100270005BD1D00FCD0F40EA430345EA420252EA78
:1002800003056ED0A51E590B06D1110E41EA0323BA
:100290001202083D590BF8D0590C04D1100F40EA56
:1002A00003131201043DD90C04D1910F41EA8303D9
:1002B0009200023D190D7FD0E40AB4EBD52F00F077
:1002C0008380E107002043E0D045A1D8AB4298D01D
:1002D0001C0D24F4006640F2FF77BE42A4EB1155DA
:1002E0009FD1002019034FF000014DD1002D5ED0A9
:1002F000194610462CE0352D17D8A5F1200731FA04
:1003000007F6961BB242C5F1400538BF013B11FA12
:1003100005F230FA07F7000647EA020143D041F040
:10032000FF014942721E002E4CD0D80209D4013C74
:10033000650535D0D50FC80F45EA430340EA4202B0
:100340004900002923F4801315DB03EB0451104608
:10035000BDE8F00F704740F2FE7C6545C1D8002D26
:10036000C6D129462846F3E749427A1E002F7FF47A
:100370007DAF013B7AE7013208BF0133B1F1004F95
:1003800008BF22F00102E0E7C7F6F871E0E705F1E7
:100390000043524640464946BDE8F00F00F018B809
:1003A00021052846D4E70029BBD13246BDE72946BE
:1003B000C7F6F8712846CBE7D00F40EA4303520056
:1003C000013D79E7013BB0E703EB05511046BFE77C
:1003D0002DE9F00F1D469B460B468946924695EA4D
:1003E00003048046064602464F462946504600F121
:1003F0009080AB423DD31D0D25F4006640F2FF74A2
:10040000A64246D0A5EB1154B44268D023F07F4CED
:1004100021F07F412CF470031F2C21F4700C43F465
:1004200080134CF4801145D8C4F1200630FA04F74B
:1004300001FA06FC31FA04F44CEA0707D219234406
:1004400028BF013310FA06F198022AD5013208BFFD
:10045000013309B922F002022C0504EB53046FF4B6
:100460000010B0EB440F44D3DB07214643EA5200AF
:100470001DE0634085EA04011D0D8AEA080225F4A7
:10048000006640F2FF748AEA0200A64280EA020295
:10049000B8D1002019034FF0000137D1194610469A
:1004A00005E0013D002928DB03EB05511046BDE8BE
:1004B000F00F7047352CC7D8A4F1200631FA06F7A3
:1004C000C4F14004D21928BF0133A14030FA06F626
:1004D000000646EA010118BF41F0FF01B4E740F20F
:1004E000FE7C6445D5D8002CD8D103F000412046CD
:1004F000DDE7013529050020D9E7013208BF0133C6
:10050000B1F1004F08BF22F00102CDE7C7F6F87144
:10051000CDE705F10043524640464946BDE8F00F9D
:10052000FFF75CBE0B461A0DC90241EA5051C2F5F5
:1005300082620E3241F00040D040FF2A0FD912F4FF
:10054000E06F0DD013F0804009D0580010F5001F67
:1005500004D8DA0F02F10043581E7047002070479C
:1005600040427047002828D0030C11D0030E01F13F
:10057000807110D10002030F11D10001830F12D13D
:100580008000002813DB400001EBE02140057047AC
:100590000004030EEED0030F01F50001EDD0830F30
:1005A00001F58001ECD0002801F50011EBDA01F52E
:1005B000801101EBE0214005704703461946704762
:1005C00010F0004118BF404201F18041FFF7CABF5F
:1005D000F0B41D460B464900144616462F462A46DF
:1005E00051EA000502D154EA47050CD0934202D0EB
:1005F0000020F0BC7047A042FAD111F5001F8CBF5B
:1006000000200120F5E70120F3E700BFF0B453EA32
:1006100001040D4616461F4609D45C0014F5001F60
:1006200002D8994217D318D00020F0BC70474C0074
:1006300014F5001FF8D85D0015F5001FF4D8044329
:1006400001D115430ED0994205D8EDD1904294BF07
:1006500000200120E9E70120E7E790422CBF0020BD
:100660000120E2E72846E0E7F0B453EA01040D4632
:1006700016461F4609D45C0014F5001F02D89942A3
:1006800017D318D00020F0BC70474C0014F5001FA1
:10069000F8D85D0015F5001FF4D8994209D806D0A6
:1006A0002043EFD12A4314BF00200120EBE7904202
:1006B000F6D30120E7E790428CBF00200120E2E75B
:1006C000F0B40D461F4657EA050416460B464FEA9E
:1006D000450408D414F5001F02D8BD4216D817D01F
:1006E0000020F0BC704714F5001FF9D87D0015F507
:1006F000001FF5D8BB4209D306D02043F0D12A43CE
:1007000014BF00200120ECE79042F6D80120E8E772
:10071000904234BF00200120E3E700BF0346091ADE
:10072000043A05D3043A51F803C043F804CBF9D294
:10073000D20724BFCA5A23F8022B44BFCA5C1A70DE
:1007400070478B18814238BF9842BFF4E7AF8141B0
:100750008018013A0B5C00F8013DFAD87047034657
:10076000043A08D3C9B241EA012141EA0141043AFD
:1007700043F8041BFBD2043202D0013A9954FCD155
:100780007047FEE74FF0FF3070474FF0FF30704783
:100790004FF0FF3070474FF0FF3070474FF0FF30A1
:1007A00070474FF0FF3070471046704738B50C4B1C
:1007B0001A680AB90B4A1A60C51C1C6825F00305A3
:1007C0006519284600F012F810B9054B1D6004E0C9
:1007D000054B0C221A604FF0FF34204638BD00BF95
:1007E000FC7D0010007E001098000010084A6B4647
:1007F000934201D9984206D2064B33B1984234BF96
:10080000002001207047012070471846704700BF44
:10081000007E001000000000757365720061646D59
:10082000696E00042F38460073485454502F312EFF
:100830003120323030204F4B0D0A436F6E74656E9D
:10084000742D547970653A20746578742F68746DCE
:100850006C0D0A436F6E6E656374696F6E3A206348
:100860006C6F73650D0A003C21444F435459504549
:100870002048544D4C205055424C494320222D2FA6
:100880002F5733432F2F4454442048544D4C203489
:100890002E3031205472616E736974696F6E616CB1
:1008A0002F2F454E222022687474703A2F2F7777AD
:1008B000772E77332E6F72672F54522F68746D6CBA
:1008C000342F6C6F6F73652E647464223E3C6874C1
:1008D0006D6C3E3C686561643E3C6D65746120688A
:1008E0007474702D65717569763D22436F6E746501
:1008F0006E742D547970652220636F6E74656E740A
:100900003D22746578742F68746D6C3B2063686158
:10091000727365743D7574662D38223E3C7374792C
:100920006C6520747970653D22746578742F6373EB
:1009300073223E20626F64797B666F6E743A203159
:100940003030252022547265627563686574204DCD
:1009500053222C20417269616C2C2048656C7665AD
:10096000746963612C2073616E732D73657269669F
:100970003B666F6E742D73697A653A313270783BDD
:100980007D236172726F646F6E6972207B626F7219
:100990006465722D626F74746F6D2D6C6566742D55
:1009A0007261646975733A313170783B626F726459
:1009B00065722D626F74746F6D2D72696768742D26
:1009C0007261646975733A313170783B2D6D6F7A5D
:1009D0002D626F726465722D7261646975732D6228
:1009E0006F74746F6D6C6566743A313170783B2D3D
:1009F0006D6F7A2D626F726465722D7261646975B4
:100A0000732D626F74746F6D72696768743A3131F7
:100A100070783B6865696768743A34383070783B41
:100A2000626F726465723A2031707820736F6C69FE
:100A30006420234143434645383B77696474683AF0
:100A40002036303070783B7D236172726F646F6E38
:100A500069725F746F70207B626F726465722D744F
:100A60006F702D6C6566742D7261646975733A31AF
:100A70003170783B626F726465722D746F702D7285
:100A8000696768742D7261646975733A3131707881
:100A90003B2D6D6F7A2D626F726465722D72616489
:100AA0006975732D746F706C6566743A3131707846
:100AB0003B2D6D6F7A2D626F726465722D72616469
:100AC0006975732D746F7072696768743A3131702B
:100AD000783B6865696768743A323070783B626F5A
:100AE000726465722D746F703A2031707820736F64
:100AF0006C696420234143434645383B626F72640E
:100B000065722D6C6566743A2031707820736F6C55
:100B1000696420234143434645383B626F726465F4
:100B2000722D72696768743A2031707820736F6C27
:100B3000696420234143434645383B6261636B67E8
:100B4000726F756E643A20234442454246363B70CC
:100B5000616464696E673A3570783B666F6E742DB8
:100B600073697A653A313370783B666F6E742D77AE
:100B700065696768743A20626F6C643B7769647476
:100B8000683A203539302E3570783B7D3C2F7374B0
:100B9000796C653E3C73637269707420747970651A
:100BA0003D22746578742F6A61766173637269702F
:100BB00074223E66756E6374696F6E20616374752E
:100BC000616C69747A6128297B6966202877696E6F
:100BD000646F772E584D4C4874747052657175650A
:100BE0007374297B76617220786D6C687474703BC5
:100BF000786D6C687474703D6E657720584D4C4804
:100C00007474705265717565737428293B7D786DB5
:100C10006C687474702E6F6E726561647973746140
:100C200074656368616E67653D66756E6374696F50
:100C30006E28297B69662028786D6C687474702E24
:100C4000726561647953746174653D3D3420262674
:100C500020786D6C687474702E7374617475733D54
:100C60003D323030297B646F63756D656E742E671D
:100C70006574456C656D656E7442794964282263BC
:100C80006F6469676F5F66756E63696F6E22292E88
:100C900076616C7565203D2022223B7D7D0D0A78B2
:100CA0006D6C687474702E6F70656E2822474554A1
:100CB000222C222F65736372697572655F64697394
:100CC000706C61793D222B6E6F64652B2226222B7E
:100CD000636164656E615F62757A7A65725F6C6587
:100CE000645F746578742C66616C7365293B786DFC
:100CF0006C687474702E73656E6428293B7D766110
:100D00007220636164656E615F62757A7A65725F95
:100D10006C65645F746578743B766172206E6F6495
:100D2000653B0D0A66756E6374696F6E2062757A35
:100D30007A65725F6C65645F746578742820666F8D
:100D4000726D20297B76617220444C433D303B76A6
:100D5000617220444C435F74726F626174203D2065
:100D600066616C73653B696628666F726D2E6361A0
:100D70006E616C5F312E636865636B6564296361C6
:100D800064656E615F62757A7A65725F6C65645FD7
:100D9000746578743D2231223B656C736520636114
:100DA00064656E615F62757A7A65725F6C65645FB7
:100DB000746578743D2232223B636164656E615FC5
:100DC00062757A7A65725F6C65645F746578743D8C
:100DD000636164656E615F62757A7A65725F6C6586
:100DE000645F746578742E636F6E6361742822305B
:100DF00022293B0D0A696628666F726D2E6B657934
:100E0000626565706F6E2E636865636B65642963E8
:100E10006164656E615F62757A7A65725F6C656444
:100E20005F746578743D636164656E615F62757A55
:100E30007A65725F6C65645F746578742E636F6E3B
:100E400063617428223122293B656C7365206361DC
:100E500064656E615F62757A7A65725F6C65645F06
:100E6000746578743D636164656E615F62757A7AFA
:100E700065725F6C65645F746578742E636F6E6312
:100E8000617428223022293B696628666F726D2EB4
:100E900062656570747970652E76616C75653D3D2F
:100EA000222229666F726D2E626565707479706595
:100EB0002E76616C75653D2230223B636164656E00
:100EC000615F62757A7A65725F6C65645F7465787C
:100ED000743D636164656E615F62757A7A65725FA5
:100EE0006C65645F746578742E636F6E63617428DB
:100EF000666F726D2E62656570747970652E7661AD
:100F00006C7565293B696628666F726D2E756E5F1C
:100F10007365676F6E2E636865636B6564296361D3
:100F200064656E615F62757A7A65725F6C65645F35
:100F3000746578743D636164656E615F62757A7A29
:100F400065725F6C65645F746578742E636F6E6341
:100F5000617428223122293B656C736520636164CA
:100F6000656E615F62757A7A65725F6C65645F74E5
:100F70006578743D636164656E615F62757A7A65F8
:100F8000725F6C65645F746578742E636F6E636105
:100F90007428223022293B696628666F726D2E6D97
:100FA00069675F7365676F6E2E636865636B656401
:100FB00029636164656E615F62757A7A65725F6CE0
:100FC00065645F746578743D636164656E615F62DA
:100FD000757A7A65725F6C65645F746578742E6388
:100FE0006F6E63617428223122293B656C73652022
:100FF000636164656E615F62757A7A65725F6C6564
:10100000645F746578743D636164656E615F627589
:101010007A7A65725F6C65645F746578742E636F4D
:101020006E63617428223022293B696628666F72DC
:101030006D2E71756172745F7365676F6E2E636874
:1010400065636B656429636164656E615F62757A6F
:101050007A65725F6C65645F746578743D63616422
:10106000656E615F62757A7A65725F6C65645F74E4
:101070006578742E636F6E63617428223122293B78
:10108000656C736520636164656E615F62757A7A11
:1010900065725F6C65645F746578743D63616465F7
:1010A0006E615F62757A7A65725F6C65645F7465A4
:1010B00078742E636F6E63617428223022293B6935
:1010C0006628666F726D2E7665726D656C6C2E6328
:1010D0006865636B656429636164656E615F6275F1
:1010E0007A7A65725F6C65645F746578743D63617C
:1010F00064656E615F62757A7A65725F6C65645F64
:10110000746578742E636F6E6361742822312229AE
:101110003B656C736520636164656E615F62757ABF
:101120007A65725F6C65645F746578743D63616451
:10113000656E615F62757A7A65725F6C65645F7413
:101140006578742E636F6E63617428223022293BA8
:10115000696628666F726D2E766572642E636865A7
:10116000636B656429636164656E615F62757A7A39
:1011700065725F6C65645F746578743D6361646516
:101180006E615F62757A7A65725F6C65645F7465C3
:1011900078742E636F6E63617428223122293B6557
:1011A0006C736520636164656E615F62757A7A65F0
:1011B000725F6C65645F746578743D636164656ECD
:1011C000615F62757A7A65725F6C65645F74657879
:1011D000742E636F6E63617428223022293B696626
:1011E00028666F726D2E626C61752E636865636B25
:1011F000656429636164656E615F62757A7A6572A0
:101200005F6C65645F746578743D636164656E618D
:101210005F62757A7A65725F6C65645F7465787415
:101220002E636F6E63617428223122293B656C73D3
:101230006520636164656E615F62757A7A65725F6D
:101240006C65645F746578743D636164656E615F4D
:1012500062757A7A65725F6C65645F746578742E06
:10126000636F6E63617428223022293B69662866A9
:101270006F726D2E636F6469676F5F66756E636909
:101280006F6E2E76616C75653D3D2222207C7C2040
:10129000666F726D2E636F6469676F5F66756E63EC
:1012A000696F6E2E76616C75652E6C656E677468FD
:1012B0003E3129666F726D2E636F6469676F5F667A
:1012C000756E63696F6E2E76616C75653D22302296
:1012D0003B636164656E615F62757A7A65725F6CAB
:1012E00065645F746578743D636164656E615F62B7
:1012F000757A7A65725F6C65645F746578742E6365
:101300006F6E63617428666F726D2E636F646967B8
:101310006F5F66756E63696F6E2E76616C75652999
:101320003B636164656E615F62757A7A65725F6C5A
:1013300065645F746578743D636164656E615F6266
:10134000757A7A65725F6C65645F746578742E6314
:101350006F6E63617428666F726D2E746578742E7B
:1013600076616C75652B222622293B696628666F9B
:10137000726D2E7363726F6C6C616C776179732E12
:10138000636865636B656429636164656E615F6250
:10139000757A7A65725F6C65645F746578743D63B5
:1013A0006164656E615F62757A7A65725F6C6564AF
:1013B0005F746578742E636F6E63617428223122C6
:1013C000293B656C736520636164656E615F62755E
:1013D0007A7A65725F6C65645F746578743D636189
:1013E00064656E615F62757A7A65725F6C65645F71
:1013F000746578742E636F6E6361742822302229BD
:101400003B696628666F726D2E7363726F6C6C66D3
:101410006173742E636865636B65642963616465D9
:101420006E615F62757A7A65725F6C65645F746520
:1014300078743D636164656E615F62757A7A657226
:101440005F6C65645F746578742E636F6E6361743E
:1014500028223122293B656C736520636164656EC7
:10146000615F62757A7A65725F6C65645F746578D6
:10147000743D636164656E615F62757A7A65725FFF
:101480006C65645F746578742E636F6E6361742835
:10149000223022293B696628666F726D2E62726F58
:1014A0006164636173742E636865636B6564296E40
:1014B0006F64653D3939393B656C7365206E6F64C7
:1014C000653D666F726D2E6E6F646F2E76616C7502
:1014D000653B696628666F726D2E62797465302E81
:1014E00076616C7565213D222226262128444C43D5
:1014F0005F74726F6261742929444C432B2B3B65E6
:101500006C736520666F726D2E62797465302E760D
:10151000616C75653D302C444C433D302C444C434C
:101520005F74726F6261743D747275653B696628A1
:10153000666F726D2E62797465312E76616C756599
:10154000213D222226262128444C435F74726F627B
:1015500061742929444C432B2B3B656C73652066D1
:101560006F726D2E62797465312E76616C75653D92
:10157000302C444C435F74726F6261743D747275B9
:10158000653B696628666F726D2E62797465322ECE
:1015900076616C7565213D222226262128444C4324
:1015A0005F74726F6261742929444C432B2B3B6535
:1015B0006C736520666F726D2E62797465322E765B
:1015C000616C75653D302C444C435F74726F626191
:1015D000743D747275653B696628666F726D2E6224
:1015E000797465332E76616C7565213D222226263D
:1015F0002128444C435F74726F6261742929444C02
:10160000432B2B3B656C736520666F726D2E627980
:101610007465332E76616C75653D302C444C435FA8
:1016200074726F6261743D747275653B6966286699
:101630006F726D2E62797465342E76616C756521DA
:101640003D222226262128444C435F74726F62613A
:10165000742929444C432B2B3B656C736520666FC2
:10166000726D2E62797465342E76616C75653D30CD
:101670002C444C435F74726F6261743D7472756583
:101680003B696628666F726D2E62797465352E76B9
:10169000616C7565213D222226262128444C435F3A
:1016A00074726F6261742929444C432B2B3B656C27
:1016B000736520666F726D2E62797465352E766162
:1016C0006C75653D302C444C435F74726F6261747D
:1016D0003D747275653B636164656E615F62757AC6
:1016E0007A65725F6C65645F746578743D6361648C
:1016F000656E615F62757A7A65725F6C65645F744E
:101700006578742E636F6E636174282226222B66BF
:101710006F726D2E616464722E76616C75652B221A
:101720002622293B636164656E615F62757A7A6522
:10173000725F6C65645F746578743D636164656E47
:10174000615F62757A7A65725F6C65645F746578F3
:10175000742E636F6E636174287061727365496E75
:101760007428666F726D2E62797465302E76616CA6
:1017700075652C3136292B222622293B636164654D
:101780006E615F62757A7A65725F6C65645F7465BD
:1017900078743D636164656E615F62757A7A6572C3
:1017A0005F6C65645F746578742E636F6E636174DB
:1017B000287061727365496E7428666F726D2E624F
:1017C000797465312E76616C75652C3136292B2242
:1017D0002622293B636164656E615F62757A7A6572
:1017E000725F6C65645F746578743D636164656E97
:1017F000615F62757A7A65725F6C65645F74657843
:10180000742E636F6E636174287061727365496EC4
:101810007428666F726D2E62797465322E76616CF3
:1018200075652C3136292B222622293B636164659C
:101830006E615F62757A7A65725F6C65645F74650C
:1018400078743D636164656E615F62757A7A657212
:101850005F6C65645F746578742E636F6E6361742A
:10186000287061727365496E7428666F726D2E629E
:10187000797465332E76616C75652C3136292B228F
:101880002622293B636164656E615F62757A7A65C1
:10189000725F6C65645F746578743D636164656EE6
:1018A000615F62757A7A65725F6C65645F74657892
:1018B000742E636F6E636174287061727365496E14
:1018C0007428666F726D2E62797465342E76616C41
:1018D00075652C3136292B222622293B63616465EC
:1018E0006E615F62757A7A65725F6C65645F74655C
:1018F00078743D636164656E615F62757A7A657262
:101900005F6C65645F746578742E636F6E63617479
:10191000287061727365496E7428666F726D2E62ED
:10192000797465352E76616C75652C3136292B22DC
:101930002622293B636164656E615F62757A7A6510
:10194000725F6C65645F746578743D636164656E35
:10195000615F62757A7A65725F6C65645F746578E1
:10196000742E636F6E63617428444C432B222622CD
:10197000293B61637475616C69747A6128293B7DC8
:101980000D0A66756E6374696F6E20636F6D707299
:101990006F76617228666F726D297B696628666F43
:1019A000726D2E7072756576615F7365676D656EB9
:1019B000746F732E636865636B6564203D3D2066BC
:1019C000616C7365297B666F726D2E746578742EF9
:1019D00064697361626C6564203D2066616C736547
:1019E0003B666F726D2E7363726F6C6C616C7761A6
:1019F00079732E636865636B6564203D2066616C56
:101A000073653B666F726D2E7363726F6C6C616C85
:101A1000776179732E64697361626C6564203D201F
:101A200066616C73653B666F726D2E746578742E9B
:101A300076616C75653D22223B7D696628666F7212
:101A40006D2E62726F6164636173742E6368656387
:101A50006B6564203D3D2074727565297B666F72ED
:101A60006D2E6E6F646F2E64697361626C656420A5
:101A70003D20747275653B7D696628666F726D2EB8
:101A8000756E69636F5F6E6F646F2E636865636BFD
:101A90006564203D3D2074727565297B666F726DAB
:101AA0002E6E6F646F2E64697361626C6564203D95
:101AB0002066616C73653B7D696628666F726D2E6A
:101AC0007072756576615F7365676D656E746F734F
:101AD0002E636865636B6564203D3D207472756597
:101AE000297B666F726D2E746578742E64697361DC
:101AF000626C6564203D20747275653B666F726D23
:101B00002E7363726F6C6C616C776179732E63688E
:101B100065636B6564203D20747275653B666F720A
:101B20006D2E7363726F6C6C616C776179732E6468
:101B3000697361626C6564203D20747275653B66F3
:101B40006F726D2E746578742E76616C7565203DAC
:101B5000202225313237223B7D696628666F726DFF
:101B60002E6E6F646F2E76616C75653E323530294E
:101B70007B666F726D2E6E6F646F2E76616C75650D
:101B8000203D2022223B616C65727428224E6F201A
:101B90007075656465732073757065726172206518
:101BA0006C206E6F646F2032353022293B7D7D0DB5
:101BB0000A66756E6374696F6E206E6F6D65735F14
:101BC0006E756D65726F732865297B766172206B07
:101BD00065796E756D3B766172206B6579636861BE
:101BE000723B766172206E756D636865636B3B69ED
:101BF000662877696E646F772E6576656E74297BCB
:101C00006B65796E756D203D20652E6B6579436F30
